:020000040800F2
:10000000A8180020E9010008133300086B27000836
:1000100011330008AF140008813D00080000000003
:10002000000000000000000000000000753A000819
:10003000B11400080000000063370008773A000898
:10004000030200080302000803020008030200087C
:100050000302000803020008B314000803020008AA
:10006000030200080302000803020008030200085C
:10007000030200080302000803020008030200084C
:10008000030200080302000803020008030200083C
:10009000030200080302000803020008030200082C
:1000A000030200080302000803020008030200081C
:1000B000030200080302000803020008030200080C
:1000C00003020008792700086D27000803020008D2
:1000D00003020008030200080302000803020008EC
:1000E00003020008030200080302000800F002F8FF
:1000F00000F06AF80AA090E8000C82448344AAF158
:100100000107DA4501D100F05FF8AFF2090EBAE855
:100110000F0013F0010F18BFFB1A43F0010318473B
:10012000EC6300000C6400000A444FF0000C10F86F
:10013000013B13F0070408BF10F8014B1D1108BF65
:1001400010F8015B641E05D010F8016B641E01F805
:10015000016BF9D113F0080F1EBF10F8014BAD1C55
:100160000C1B09D16D1E58BF01F801CBFAD505E073
:1001700014F8016B01F8016B6D1EF9D59142D6D3CD
:10018000704700000023002400250026103A28BFF5
:1001900078C1FBD8520728BF30C148BF0B607047F9
:1001A000662905F0DF83642900F07A80002070471B
:1001B0001FB500F03BFC04000020002104F0A6FC69
:1001C000E0601FBD10B510BD00F034FD1146FFF713
:1001D000EFFF03F064FF00F052FD03B4FFF7F2FFFE
:1001E00003BC00F095FD000009488047094800471E
:1001F000FEE7FEE7FEE7FEE7FEE7FEE7FEE7FEE7D7
:10020000FEE7FEE704480549054A064B7047000033
:10021000FB3A0008ED000008A8120020A8180020F2
:10022000A8140020A81400200FB41CB5074B06AA80
:100230007B4469460090059800F0DFFB002069468A
:1002400000F0EEFB1CBC5DF814FB0000ED070000A5
:1002500070B5044685690068C10601D5302600E006
:100260002026C00707D070BDD4E901213046904751
:10027000206A401C20626D1EF6D570BD70B5044624
:1002800085690078C00707D170BDD4E9012120201D
:100290009047206A401C20626D1EF6D570BD00009C
:1002A0002DE9F0410646002410687529314616A54F
:1002B00010D0AFF30080002802DA404213A507E017
:1002C00031688A0701D512A502E0490704D511A5B6
:1002D000012401E0AFF3008000210A2206F1240787
:1002E00009E0B0FBF2FCB0FBF2F302FB1C00303083
:1002F00078541846491C0028F3D123462A46304634
:10030000BDE8F04100F00BB9000000002D00000036
:100310002B000000200000002DE9F05F8946044614
:100320004FF0000ADFF824B1FB44C0F820A02046BB
:10033000E168884700287DD0252806D0D4E901212E
:100340009047206A401C2062F1E700255F46204666
:10035000E16888472028064607DB312E05D2B81908
:1003600010F8200C08B10543F1E7A80701D525F0E6
:100370000405C4F81CA00027C4F818A02A2E09D030
:10038000304603F07BFE38B304EB8708303EC8F8F4
:10039000186019E059F8041B204604EB87029161AC
:1003A000E1688847012F064618D1E069002820DA65
:1003B00025F020051DE0D8F8180000EB800006EBC2
:1003C00040003038C8F818002046E16888470646E3
:1003D00003F054FE0028EED1012F0AD02E2E08D1B2
:1003E0002046E16888477F1C0646022F45F020051D
:1003F000C4DBA069002803DA404245F00105A06192
:10040000E80701D025F01005A6B1A6F14100192892
:1004100002D8203645F400654A463146204625601C
:100420004D46FFF7BDFE60B1012807D0ED1D25F058
:10043000070000E007E000F1080978E705F104098A
:1004400075E730467AE7206ABDE8F09FA4600000B7
:1004500010B5203AC0F00B80B1E81850203AA0E85F
:100460001850B1E81850A0E81850BFF4F5AF5FEA93
:10047000027C24BFB1E81850A0E8185044BF18C946
:1004800018C0BDE810405FEA827C24BF51F8043BED
:1004900040F8043B08BF7047D20728BF31F8023B41
:1004A00048BF11F8012B28BF20F8023B48BF00F8D5
:1004B000012B70474FF0000200B513469446964654
:1004C000203922BFA0E80C50A0E80C50B1F1200167
:1004D000BFF4F7AF090728BFA0E80C5048BF0CC015
:1004E0005DF804EB890028BF40F8042B08BF704773
:1004F00048BF20F8022B11F0804F18BF00F8012BE5
:10050000704770477047704710B500F093FA006865
:1005100010BD10B5044600F08DFA046010BD2DE941
:10052000F0470D4699469246044600F124080168BA
:10053000880604D5E06921F01001216000E0012067
:10054000A84201DD471B00E00027A1697A1902EBF0
:100550000900081AA0612078C00602D42046FFF7DF
:1005600077FE002608E0D4E901211AF8060090473A
:10057000206A401C761C20624E45F4DB2078C006C1
:100580000AD52046FFF764FE06E0D4E901213020B9
:100590009047206A401C2062381EA7F10107F4DC56
:1005A00007E0D4E9012118F805009047206A401CB3
:1005B0002062281EA5F10105F3DC2046FFF75EFE50
:1005C0002078000602D50220BDE8F0870120FBE775
:1005D00070472DE9FF4F0C461E464FF0FF378BB09A
:1005E000D2E90001DDF860800A908A46C1F30A551D
:1005F00005B93D46002108464FF00000BAF1000F52
:1006000000F4400005DA00EB80004FF4400101EAFD
:1006100050004FEA9059B9F1010F00DDB9460A9830
:1006200050EA4A000ED044F61050A5F2FF3545437B
:100630002F14B8F1000F1ED07542291E1EDDC9F11E
:1006400000021CE0B8F1010F4FF0000001D0302192
:1006500003E0F24305E02154401CB042FBDB30468E
:100660000022002121540B99C1F80880C1E9002023
:100670000FB0BDE8F08FBD1B6D1CDEE74A4600DA07
:10068000694206A800F060FA06AB93E8070003ABE6
:1006900083E8070050460A9900F041FB8DE8070007
:1006A000A0F500501F3800900398002D0ADD42F29B
:1006B0001F014A460844002303A90390684600F03E
:1006C000AAFD09E0A0F500504A461F38002303A9FF
:1006D0000390684600F0B4FD8DE807000004000CAC
:1006E00003D04FF0FF30410800E01046B8F1000F92
:1006F00003D00022009215461EE0751E05D400F0BE
:100700009DF9303262556D1EF9D5B346012208437A
:1007100002D000227F1C04E02078302801D1002282
:100720007F1E002A099784D01DE0112D07DA00F002
:1007300085F9303262556D1C50EA0102F5D108434B
:1007400002D00098C8B10EE00021681E05E0235CCD
:10075000625C63542254401E491C8142F7DBAB4665
:10076000A81B401E0990002004F80B000B98099A62
:10077000C0F80880C0E9002B7AE711264FF0000886
:1007800057E72DE9F04F88460446D21D22F00701B5
:1007900091B0D1E90001CDE90A0103F0D5FB024691
:1007A0000B98C00F01D02D2007E02068810701D5EC
:1007B0002B2002E0202101EAC000032A099001D089
:1007C000072A05DB03464146204600F07DF90BE190
:1007D0002078800601D5E06900E00620B8F1650FB9
:1007E000814606D0B8F1660F18D0B8F1670F70D106
:1007F00031E00020B9F1110F009001DB112301E07D
:1008000009F101030AAA01A90CA8FFF7E2FEDDE93C
:100810000C70002609F10105834647E001204B4694
:1008200000904FF000470AAA01A90CA8FFF7D1FEDB
:10083000DDE90DB00C995D46002610B909F1010003
:100840000D18B9EB050003D4C0F1FF3609F101051D
:10085000A5EB09002BE0B9F1010F01DA4FF0010916
:100860000020B9F1110F0090484601DD112300E08E
:1008700003460AAA01A90CA8FFF7ABFEDDE90C703C
:100880004D4600268346207800070AD4AB4500DA9F
:100890005D4601A8012D04DD411911F8011C302924
:1008A00007D04F4502DA17F1040F04DA012082461F
:1008B0000FE06D1EEEE7002F02DCED1B3E4403E06F
:1008C000781CA84200DD7D1CB81B00F1010A4FF026
:1008D00000472078000703D4AA4501DB4FF0FF3A18
:1008E0000021B7F1004F0DF143088DF8431024D0DB
:1008F00002202B23002F01DA7F422D230A21021E22
:10090000A0F1010000DC5FB197FBF1FC97FBF1F275
:1009100001FB1C7C17460CF1300C08F801CDEEE70A
:10092000A8F1010003702188090501D5452100E0E7
:100930006521A0F1010800F8011C09980FA9A1EB9D
:100940000807FF1D00B10120411901EBEA70A16900
:100950003844081A401EA0612078C00602D4204600
:10096000FFF776FC099828B1D4E901219047206A65
:10097000401C20622078C00622D52046FFF768FC84
:100980001EE0002E04DBB34502DD01A8805D00E01F
:100990003020D4E901219047206A401C2062761C57
:1009A000AAF101005FEA000A0AD100F03FF8C0682E
:1009B0000168405CD4E901219047206A401C206214
:1009C000281EA5F10105DCDC07E0D4E9012118F8B7
:1009D000010B9047206A401C2062381EA7F10107D6
:1009E000F3DC2046FFF74AFC032011B041E600008B
:1009F00001694A1C02610878704700B58FB0CDE9E3
:100A000001310021059105497944CDE903101146D2
:100A10006846FFF781FC0FB000BD0000E5FFFFFF57
:100A20000A6802F8010B0A6070470000004870472E
:100A300068120020004870474812002030B5B0F11D
:100A40000A024FEA900E71F100034EEA817EB0EB8C
:100A50000E0061EB91014FEA101E4EEA017E10EB91
:100A60000E0041EB11114FEA102E4EEA016E10EB11
:100A70000E0041EB11214FEA104E4EEA014E10EBF1
:100A80000E0041EB1141401841F100014FEAD00046
:100A900040EA41704FEAD10110EB80054FEA810432
:100AA00044EA907444EB01046D1944EB0404521BB6
:100AB000A3414FF0000348BF0A3200D530BD401CAF
:100AC00041F1000130BD00002DE9F0411F46044610
:100AD00003260168072A01F4006004DB08B116A5AB
:100AE00005E016A503E008B115A500E015A521F065
:100AF00010002060A069C01EA0610FB1401EA0615F
:100B00002046FFF7A5FB4FB1D4E9012138469047B5
:100B1000206A401C2062C01C206206E0206AFAE7BE
:100B2000D4E9012115F8010B9047761EF8D2204632
:100B3000FFF7A4FBBDE8F0814E414E006E616E00F0
:100B4000494E4600696E66002DE9F047814616461B
:100B50008AB0354878440DC88DE80D003248784495
:100B6000801C03AC0DC884E80D0041F69B3008449E
:100B7000372190FBF1F290FBF1F5A5F1800501FB27
:100B800012041B3C02D56442012000E00020DFF883
:100B900098A080460027FA44AAF1BE0A0EE0E007BA
:100BA0000AD03246684607EB470101230AEB810170
:100BB00000F046FB8DE8070064107F1C002CEED18E
:100BC000194F7F44AE3F19E0E80715D007EB04103A
:100BD0000DF1180A90E80E008AE80E00C068F04295
:100BE00001D1981908903246012306A903A800F004
:100BF00027FB03AB83E807006D10641C002DE3D1D5
:100C00004FF0010332466946B8F1000F03A802D045
:100C100000F001FB01E000F013FBC9E90001C9F895
:100C200008200AB0BDE8F0879C59000000487047D2
:100C3000481200207546FFF7F9FFAE4605006946E9
:100C4000534620F00700854618B020B5FFF7DAFAC2
:100C5000BDE820404FF000064FF000074FF00008BD
:100C60004FF0000B21F00701AC46ACE8C009ACE83E
:100C7000C009ACE8C009ACE8C0098D46704710B5A2
:100C80000446AFF300802046BDE81040FFF7A5BA48
:100C90004FF0013C50F8042B51F8043B9A4221D10B
:100CA000A2EB0C03934313EACC1317D150F8042B97
:100CB00051F8043B9A4215D1A2EB0C03934313EA7B
:100CC000CC130BD150F8042B51F8043B9A4209D1B4
:100CD000A2EB0C03934313EACC13DBD04FF00000DC
:100CE000704700BFD01A01BAB1FA81F101F01801C2
:100CF00022FA01F0CB40C1F12001DBB2C0B2C01A30
:100D00002CFA01F3D11A914311EAC311E6D17047CD
:100D100001491820ABBEFEE72600020070475FEADB
:100D2000400C08BF91F0000F4FEA8C234FEAC1221C
:100D300043EA51514FEA1C5018BF00F5F0404FEA0A
:100D4000300018BF41F000415FEA6C5C00F0298080
:100D5000BCF1FF3F08BF40F080407047130C06BF56
:100D600012044FF0100C4FF0000C130E04BF1202CF
:100D70000CF1080C130F04BF12010CF1040C930FBB
:100D800004BF92000CF1020CD30F04BF52000CF10F
:100D9000010C11464FF00002A0F11F00A0EB0C0067
:100DA000704711F0004F08BF704731F000413FF429
:100DB000D5AF0B0C06BF09044FF0100C4FF0000C20
:100DC0000B0E04BF09020CF1080C0B0F04BF090144
:100DD0000CF1040C8B0F04BF89000CF1020CCB0F3B
:100DE00004BF49000CF1010CCCF12003A0EB0C0076
:100DF00022FA03F302FA0CF241EA030100F10100C6
:100E0000704720F07F4C80EA030023F07F47ACEB73
:100E1000070303F57C5300F0004003F1FF032DE9C5
:100E200080494FEA154B09B44FEA144325EA0B4EAB
:100E300024EA03480FF2042606EB132749083E78FC
:100E40005FEA320203FB0667C7F5000707FB06F6F9
:100E50004FEA54374FEAD64606F1020607FB066C06
:100E6000CCF1005C4FEA1C472CEA074C07FB06F468
:100E70000CFB06F504EB15464FEA961634BF00202E
:100E80004FF000404FEAD13706FB07FC4FEA1C4CFD
:100E90000CFB0BF7D21B03FB0CF761EB07010CFB00
:100EA0000EF7B0EB074072EB17420CFB08F734BFAC
:100EB000A2EB0742B2EB074261EB17414FEA0C4449
:100EC0004FEA910706FB07FC4FEA1C4C0CFB0BF7A3
:100ED000B0EBC74072EB573203FB0CF734BFA2EB09
:100EE000C742B2EBC74261EB57310CFB0EF7B0EBD8
:100EF000C70072EB57720CFB08F734BFA2EBC702B6
:100F0000B2EBC70261EB5771039F4FEA816141EA7F
:100F1000921104EBCC044FEAD1374FEA826206FB10
:100F200007FC42EA90124FEA80604FEA1C4C0CFB2F
:100F30000BF7D21B03FB0CF761EB07010CFB0EF761
:100F4000B0EB074072EB17420CFB08F734BFA2EB83
:100F50000742B2EB074261EB17414FEA8C554FEA6B
:100F6000910704EB9C2406FB07FC4FEA1C4C0CFB8E
:100F70000BF7B0EBC74072EB573203FB0CF734BFF3
:100F8000A2EBC742B2EBC74261EB57310CFB0EF745
:100F9000B0EBC70072EB57720CFB08F734BFA2EB43
:100FA000C702B2EBC70261EB577115EB4C254FEA54
:100FB000816141EA92114FEA82624FEAD13742EAF7
:100FC000901206FB07FC44F100044FEA80604FEAF0
:100FD0001C4C0CFB0BF7D21B03FB0CF761EB07015E
:100FE0000CFB0EF7B0EB074072EB17420CFB08F757
:100FF00034BFA2EB0742B2EB074261EB174115EB9E
:101000001C154FEA813141EA92414FEA823242EAAD
:1010100090424FEA80304FEA0C7644F1000448EAEF
:1010200003434EEA0B484FF0000EB2EB080C71EB95
:10103000030724BF624639464EEB0E0E4FF0000BFD
:101040000018524149414BEB0B0BB2EB080C71EB12
:1010500003077BF1000B24BF624639464EEB0E0EB0
:101060004FF0000B0018524149414BEB0B0BB2EB18
:10107000080C71EB03077BF1000B24BF6246394675
:101080004EEB0E0E51EA020718BF46F0010616EBB2
:101090000E7655F1000254F1000103D5BDE8890137
:1010A000BDE80088BDE88901BDE80048B619524195
:1010B00041EB0101A3F10103704780807F7E7D7CBD
:1010C0007B7A7978777676757473727171706F6EDA
:1010D0006E6D6C6C6B6A6A69686867666665646485
:1010E000636362616160605F5F5E5E5D5D5C5C5B0F
:1010F0005B5A5A595958585757565655555554547E
:10110000535352525251515050504F4F4F4E4E4DDB
:101110004D4D4C4C4C4B4B4B4A4A4A494949484827
:101120004847474747464646454545444444444367
:1011300043434342424242414141002B9C4630D40A
:1011400077002BD01CB54FEA370703B44FF01000DF
:101150004FF01001BAF1000F06D0BCF1000FDCBF58
:1011600040F0080040F008014FF000000FBCBDE85F
:1011700010400BF1010BBBF1010F08BF5FEA17072D
:1011800022BF12F1010211F101014FF0004143F1C0
:10119000000300F0004043EA00007047F9D357080D
:1011A000D0E746EA064613F1400F4FEA16461FDD28
:1011B00013F1200FDFBF16430A46002120335B42A4
:1011C000BED0C3F1200746EA064602FA07F74FEA07
:1011D000164646EA0706C3F1200722FA03F201FA8F
:1011E00007F721FA03F14FF0000342EA0702A7E7ED
:1011F00046EA020646EA06464FEA164646EA01066F
:10120000BCBF46EA0646360C4FF000034FF0000222
:101210004FF0000194E72DE9804C9A46934670B454
:1012200091E8380007C831EA400C48BF34EA430C63
:1012300003D5FFF7E6FDFFF780FFF0BCBDE8008CAB
:101240002DE9804C9A46934670B491E8380007C85F
:1012500010F0804F08BF13F0804F03D100F005F865
:10126000FFF76BFFF0BCBDE8008C20F07F4780EA01
:10127000030023F07F4C07EB0C03A3F57C5300F035
:101280000040A3F1FE0392F0000F00F0B38095F050
:10129000000F00F077802DE901494FEA11404FEA35
:1012A000144621EA004800FB06FC24EA064708FB36
:1012B00006F607FB08F800FB07F718EB06484CEBAF
:1012C000164C4FEA124B18EB07484FEA15464CEB09
:1012D000174022EA0B4E0BFB06FC25EA06470EFBE5
:1012E00006F607FB0EFE0BFB07F71EEB064E4CEB5C
:1012F000164C4FF000061EEB074E4CEB174B18EB4D
:101300000B0840F1000018EB0E0B58EB000840F101
:1013100000008F1A4FF000013CBFC943661B14BF89
:10132000B5EB040C00213CBFC943F61B4FEA174440
:101330004EEA8E0E27EA04454FEA1C4704FB07627B
:101340002CEA074C05FB07F70CFB05F604FB0CFC2D
:1013500016EB074642EB174216EB0C4642EB1C42DB
:101360001BEB060658EB0202414146EA9E0601D5F8
:10137000BDE80189B619524141EB0101A3F1010316
:10138000BDE801894FEA14454FEA114724EA0546B2
:1013900021EA074C05FB07F406FB07F70CFB06F1F7
:1013A00005FB0CFC11EB074144EB17444FEA1247D5
:1013B00011EB0C4144EB1C4422EA074C05FB07F2FD
:1013C00006FB07F70CFB06F605FB0CFC16EB0746C5
:1013D00042EB174216EB0C4642EB1C456A1854F1DF
:1013E000000148BF7047B619524141EB0101A3F11A
:1013F0000103704795F0000F37D04FEA11424FEAD2
:10140000144721EA024624EA074C02FB07F106FBD7
:1014100007F70CFB06F402FB0CFC14EB074441EB52
:1014200017414FEA154714EB0C4441EB1C4125EAE8
:10143000074C02FB07F506FB07F70CFB06F602FB61
:101440000CFC16EB074645EB174516EB0C4645EB37
:101450001C42121951F1000148BF7047B6195241A0
:1014600041EB0101A3F1010370474FEA14454FEA34
:10147000114724EA054621EA074C05FB07F106FB64
:1014800007F70CFB06F24FF0000605FB0CFC12EB15
:10149000074241EB174112EB0C4251EB1C4148BF94
:1014A0007047921841EB0101A3F101037047FEE779
:1014B0007047012000F0A4B872B6FEE710B590F8AE
:1014C00021100024022903D00421816301243DE07E
:1014D00001680A6822F00E020A6001680A6822F0B8
:1014E00001020A601A4A0168914201D1012121E0FA
:1014F000174A1432914201D110211BE0144A2832BC
:10150000914201D1891515E0114A3C32914201D135
:1015100089140FE00E4A5032914202D14FF48031CB
:1015200008E00B4A6432914202D14FF4801101E08D
:101530004FF08071064A083A5160012180F821106D
:10154000002180F82010416B01B18847204610BD72
:101550000800024090F821007047000070B5044672
:1015600000F054F90546601C02D004480078044499
:1015700000F04CF9401BA042FAD370BD00000020DF
:1015800070B51D4E00251D4C012809D0B1152560F0
:1015900088422FD1304600F02FF901281FD027E0D4
:1015A0000121304600F028F920BBC820FFF7D6FF04
:1015B0000121304600F020F928B102F097FB02F03B
:1015C00085FB012015E002F089FB02F093FB02F09D
:1015D00071FCC820FFF7C2FF02F0D4FBF1E702F074
:1015E0006BF904F061F9606002F080FB02F06EFBC1
:1015F00002202060256070BD000801404C0C0020D6
:10160000044910B50A68024202D00860FFF7B8FF2B
:1016100010BD0000140401402DE9F84FDFF8B89127
:101620000024A9F1040B23460F2709F1040AABF1AA
:10163000040EC9E00125A5402A40AA427DD1674E8B
:10164000D1F804C0ACEB0608B44532D014DCBCF1D0
:10165000030F3AD009DCBCF1000F2AD0BCF1010F16
:101660001CD0BCF1020F31D11DE0BCF1110F17D01D
:10167000BCF1120F2AD119E0B8F5881F19D006DC89
:10168000B8F5803F15D0B8F5801F1FD111E0B8F52F
:10169000001F0ED0B8F5041F18D10AE0CB6815E082
:1016A000CB681B1D12E0CB6808330FE0CB680C330E
:1016B0000CE08B682BB1012B4FF0080303D0456180
:1016C00004E0042302E0056100E00023FF2A01D8C2
:1016D000064601E000F104064FEA840501D9A5F1B0
:1016E0002005D6F8008007FA05FC28EA0C0803FA62
:1016F00005F548EA0508C6F800804D68ED0062D59A
:10170000374DAE6946F00106AE61AD6924F00306BF
:1017100005F001050095334D06EB050CDCF808508B
:10172000A607360F07FA06F825EA0805DFF8B8809D
:10173000404503D14FF0000817E044E0DFF8AC80EB
:10174000404502D14FF001080FE0DFF8A48040458A
:1017500002D14FF0020808E0DFF89880404502D13E
:101760004FF0030801E04FF0040808FA06F848EAD1
:101770000508CCF808804D68D9F80060ED024D46A8
:1017800001D5164300E096432E604D68DAF80060FC
:10179000AD02554601D5164300E096432E604D68D4
:1017A000DBF80060AD035D4601D5164300E09643CB
:1017B0002E604D68DEF80060ED03754601D51643D6
:1017C00000E096432E60641C0D682A46E5407FF4D5
:1017D00031AFBDE8F88F000008040140000011108F
:1017E000001002400000014000080140000C0140D0
:1017F00000100140001401408068084000D0012022
:1018000070470AB1016170470904FBE7014880682D
:101810007047000000000020704770472DE9F0413C
:10182000016804464A694E6890F83E000025D74397
:10183000FA050BD4F243D20508D46FF48072012567
:101840004A6121680A6842F400420A60B90508D476
:10185000F143C90505D422686FF4007145F0020513
:101860005161790525D4F143C90522D4638D94F8DB
:101870003D10226B202808D13BB9212910D02929FD
:101880000ED0282901D1212A0AD022686FF4806164
:10189000516145F00405102806D0402804D008E026
:1018A000204601F067FB04E02068016841F4007104
:1018B0000160380508D4F043C00505D421686FF4F1
:1018C000006045F008054861002D07D0206C2843D2
:1018D00020642046BDE8F04100F0BABFBDE8F081C9
:1018E0002DE9F047026800215368C66A90F83E402F
:1018F00090F83D50102C12D0402C10D0046C002CCD
:101900007DD05469E443A6077AD4DE43B60577D484
:10191000036C03B19169BDE8F04701F007BB97691B
:1019200051694FF42A0CC9435FEAC1784FF02A4944
:1019300004D066452AD04E4528D010E0DE43B605D7
:101940000DD4C16A614501D1012103E0C16A494555
:1019500001D10821C162BDE8F04701F04DBA0E0780
:1019600016D4DE43B60513D4416CC9B21161416B84
:1019700009B1896A29B9816B002907D0896A0029D0
:1019800004D00068416841F400614160BDE8F0871F
:101990008E0706D4DE43B60503D4BDE8F04701F058
:1019A0007FB9FE43526876074FEA02521DD4002ADF
:1019B000ECDB0A0608D4DA43520505D4490705D5FD
:1019C000BDE8F04701F010B94907DFD4D9438905D4
:1019D000DCD4212D05D0402CD8D1BDE8F04701F052
:1019E00051BABDE8F04701F0BDB8002ACEDB4A0687
:1019F0000BD4DA43520508D4490708D501E00DE0BD
:101A00000EE0BDE8F04701F039B84907BED4D9432C
:101A10008905BBD4BDE8F04700F0C6BF916970E707
:101A2000E10606D4D943890503D4BDE8F04701F0A7
:101A3000E9BA2821212D27D0292D25D0650655D496
:101A4000DD436D0552D4640752D590F83D30448D86
:101A5000002C9BD01269446A2270426A521C426276
:101A6000428D521E4285428D002A8FD12A2B8DD164
:101A70000268536823F4806353602222026380F873
:101A80003D1000F051F981E7250623D4DD436D05B3
:101A900020D4640720D590F83D30448D002CF2D03E
:101AA000446A24781461426A521C4262428D521E7A
:101AB0004285428D002AE6D1292BE4D10268536881
:101AC00023F4806353602122026380F83D1000F00C
:101AD0002CF95BE76107D6D4D9438905D3D4418D6E
:101AE0000029D0D0416A097811610AE06107CAD49F
:101AF000D9438905C7D4418D0029C4D01169426AF0
:101B00001170416A491C4162418D491E41853DE782
:101B10007047000070B5040025D094F83D00002502
:101B200020B984F83C50204600F0BEF8242084F808
:101B30003D002068016821F0010101602068016812
:101B400041F4004101602068016821F40041016016
:101B500000F0E8FA4D4A6168914201D84C4900E032
:101B60004C49884201D2012070BD4B492368B0FB2B
:101B7000F1F15E6826F03F060E435E6063689342B3
:101B800006D94FF4967359434FF47A73B1FBF3F1CE
:101B90002368491C1E6A26F03F06314319626168BA
:101BA000914210D84900401EB0FBF1F2521CC2F322
:101BB0000B02042A01D2042022E0B0FBF1F0401C09
:101BC000C0F30B001CE0A268F2B301EBC10303EB0E
:101BD0000116431EB3FBF6F35B1C43F480431B0565
:101BE00049D092B301EBC10202EB0111401EB0FBE0
:101BF000F1F0401CC0F30B0040F4804040F4004082
:101C00002168CA694CF6FF739A431043C861D4E94E
:101C1000071001432068026822F0C00211430160EE
:101C2000D4E9030101432068826848F2FF339A43F4
:101C300011438160D4E9050108432168CA6822F094
:101C4000FF021043C86001E00EE016E02068016862
:101C500041F0010101602564202084F83D002563E6
:101C600084F83E50002070BD01EB4106431EB3FBDB
:101C7000F6F35B1CB3E70120C2E701EB4101401E14
:101C8000B0FBF1F0401CC0F30B00B7E7A0860100E9
:101C900080841E0000093D0040420F0070477047DD
:101CA000704770477047000010B586B00021009162
:101CB0000191029103910068184988422BD1184C78
:101CC000A06940F00800A061A069694600F0080022
:101CD00004904FF440600090122001900320039084
:101CE0001048FFF799FCE06940F48000E061E0698A
:101CF000002200F4800004901146212000F07CF8BE
:101D0000212000F06BF800221146222000F074F828
:101D1000222000F063F806B010BD0000005800401B
:101D200000100240000C0140704770470248816873
:101D3000027811448160704700000020074810B508
:101D4000016841F010010160032000F075F80F20D8
:101D500000F006F800F024F8002010BD002002403A
:101D600070B50D4D04464FF47A712878B1FBF0F050
:101D70000A490968B1FBF0F000F0E3FC48B9102C07
:101D800007D200222146501E00F036F800206C6079
:101D900070BD012070BD0000000000200C0000207C
:101DA0000C4808B5816941F001018161816901F048
:101DB00001010091C16941F08051C161C06900F029
:101DC000805000900448416821F0E06141F00071CA
:101DD000416008BD0010024000000140002809DBFE
:101DE00000F01F02012191404009800000F1E02035
:101DF000C0F8001170470000F0B40E4B1B680C4691
:101E0000C3F30223C3F10705042D00D90425191DCE
:101E1000072901D2002300E0DB1E012606FA05F1A6
:101E2000491E214099409E40761E16403143F0BC29
:101E300002F09EB80CED00E0064900F007020868C9
:101E40004FF6FF03184040EA0220034A104308609F
:101E5000704700000CED00E00000FA050149012088
:101E60000862704700000E4210B501460020234C66
:101E7000012922D0022939D010291DD16168226898
:101E8000D20119D51E48C1F38342C903805C0AD52B
:101E900061681B4AC1F34041921E515C194AB2FB72
:101EA000F1F1484301E0184948436168490203D40D
:101EB00040000321B0FBF1F010BD226AC2F3012102
:101EC000012903D1920701D5C80310BD022905D10C
:101ED000626A920702D549F6404010BD0329FCD141
:101EE00021688903F9D54FF2244010BD00F02AF98A
:101EF0006168C1F38131491C4900DBE700100240F1
:101F00006C5A000800127A0000093D002DE9F843E0
:101F100005460078354CC00754D0E0690026C00063
:101F200008D4E06940F08050E061E069012600F0EB
:101F3000805000902E480168C90512D4016880467F
:101F400041F480710160FFF761FC074605E000BFC6
:101F5000FFF75CFCC01B642823D8D8F80000C0053C
:101F6000F6D5206A10F4407021D0A98801F44071A0
:101F700081421CD0206A1F49012220F440700A606F
:101F800000220A602062C00711D0FFF73FFC07461D
:101F900041F2883808E000BFFFF738FCC11B41451B
:101FA00002D90320BDE8F883206A8007F4D5206AAF
:101FB000696820F44070084320621EB1E06920F097
:101FC0008050E0612878800705D56068A96820F412
:101FD0004040084360602878C00605D56068E9681D
:101FE00020F48000084360600020DBE7001002401E
:101FF00000700040400442422DE9F0470F460500C2
:1020000061D0434E306800F00700B84209D2306812
:1020100020F0070038433060306800F00700B84215
:1020200051D128683B4C810712D5400703D5606821
:1020300040F4E06060602878000703D5606840F4F1
:10204000605060606068A96820F0F000084360603C
:102050002878C00728D06868012810D02168022895
:1020600010D0890700292EDA616821F003010143AD
:102070006160FFF7CBFB804641F288390DE02168B3
:102080008903EFE78901EDE7FFF7C0FBA0EB08014B
:10209000494502D90320BDE8F0876068696800F00F
:1020A0000C00B0EB810FEFD1306800F00700B842B0
:1020B0000BD9306820F0070038433060306800F0FA
:1020C0000700B84201D00120E5E72878400705D590
:1020D0006068E96820F4E0600843606028780007E1
:1020E00006D56068296920F4605040EAC10060604C
:1020F00000F038F86168084AC1F30311515CC84028
:102100000649086006480068FFF72AFE0020C2E77B
:1021100000200240001002407C5A00080C00002001
:10212000040000200448054900684968044AC1F3D6
:102130000221515CC84070470C0000200010024092
:102140008C5A00080448054900684968044AC1F3EC
:10215000C221515CC84070470C00002000100240B2
:102160008C5A00080E4A51680E4801F00C03042BEB
:1021700011D0082B0FD10C48C1F38343C903C05CB5
:102180000AD55168084AC1F34041921E515C054A84
:102190005043B0FBF1F070470449484370470000DA
:1021A0000010024000127A005A5A000800093D004F
:1021B0002DE9F84F040070D02078C04DC00749D0F9
:1021C0006868C0F38100012807D06868C0F3810007
:1021D000022809D16868C00306D52868800339D56C
:1021E00060680028E7D035E06068B0F5803F0BD02C
:1021F00010B1B0F5A02F11D0286820F480302860ED
:10220000286820F4802002E0286840F480302860AC
:10221000606890B1FFF7FAFA06460AE0286840F4D1
:1022200080202860F0E700BFFFF7F0FA801B6428E9
:1022300073D828688003F7D50CE0FFF7E7FA064665
:1022400005E000BFFFF7E2FA801B6428F0D8286899
:102250008003F7D420789A4E80074FF001094FF0A1
:10226000000839D5686810F00C0F07D06868C0F313
:102270008100022809D16868C00306D42868800755
:1022800014D52069012808D110E02069B0B1C6F842
:102290000090FFF7BBFA074605E00AE1FFF7B6FA40
:1022A000C01B0228C4D828688007F7D52868616950
:1022B00020F0F80040EAC10028600DE0C6F8008078
:1022C000FFF7A4FA074604E0FFF7A0FAC01B0228B4
:1022D00023D828688007F7D4207800072CD57948C0
:1022E000A169D9B1C0F80090FFF790FA074604E061
:1022F000FFF78CFAC01B02280FD8686A8007F7D551
:1023000071484FF4FA510068B0FBF1F0009000BF43
:102310000098411E0091FAD20EE080E0C0F80080E3
:10232000FFF774FA074604E0FFF770FAC01B0228B3
:1023300075D8686A8007F7D42078400760D5E869C7
:102340000027C00008D4E86940F08050E861E869DF
:10235000012700F0805000905C480168C90513D443
:102360000168834641F480710160FFF74FFA8246AD
:1023700006E000BFFFF74AFAA0EB0A0064284ED837
:10238000DBF80000C005F5D5E06801280AD008B1E7
:10239000052813D0286A20F001002862286A20F05E
:1023A000040002E0286A40F001002862E06841F27F
:1023B000883B98B1FFF72AFA82460BE0286A40F082
:1023C00004002862EEE700BFFFF720FAA0EB0A0145
:1023D00059455AD8286A8007F6D50CE0FFF716FA57
:1023E000824605E0FFF712FAA0EB0A0159454CD8E6
:1023F000286A8007F6D41FB1E86920F08050E861B0
:10240000E06988B36968C1F38101022944D00228D8
:10241000C6F8608004D0FFF7F9F9044638E034E0EC
:10242000FFF7F4F9074604E0FFF7F0F9C01B0228B4
:102430002BD828688001F7D4206AB0F5803F05D1F9
:102440006868A16820F4003008436860D4E9080196
:102450000843696821F4741108436860C6F8609005
:10246000FFF7D4F9044606E025E000BFFFF7CEF9F8
:10247000001B022809D828688001F7D51BE000BF9F
:10248000FFF7C4F9001B022802D90320BDE8F88F2A
:1024900028688001F4D40EE00128F7D06868226A29
:1024A00000F48031914204D1616A00F470108842D6
:1024B00001D00120EAE70020E8E700000010024018
:1024C00000004242800442420C00002000700040A4
:1024D00070B5040003D0607C002610B105E0012037
:1024E00070BD2674204600F03DF80220607420463E
:1024F00000F00AF9042550BB204601F03CF930BB3E
:102500002068416821F007014160A06820B11448AB
:10251000016821F0010101601148001F0168A268F3
:1025200021F46071114301606068411C04D10120F5
:10253000FFF79AFC58B1401E2268C0F30341916036
:10254000216880B2C860204601F030F908B1657496
:10255000C5E7E67301206073A0736074002070BD4E
:10256000306C004008B50068084988420DD1FFF77B
:1025700075FC0748C16941F00061C161C069054946
:1025800000F0006000900120086008BD00280040B5
:10259000001002403C0442422DE9F0410D46040087
:1025A0003BD0C5B3207C01283AD04FF0010884F815
:1025B000108002206074E87872B301F0D3F8E07301
:1025C000687801F0CFF86073A87801F0CBF8A073B9
:1025D000C2B2617BE07B01F01BF9207328702046BA
:1025E00001F006F94FF46161B0FBF1F10025182903
:1025F0002DD91822B1FBF2F1A1EB011101EB410140
:10260000C1EB011100EBC1163146204601F03FF944
:102610000427C8B90BE000E004E00120BDE8F08128
:102620000220FBE7E07368786073A878CFE7204664
:1026300001F0D7F8411C0AD0B04208D20649014443
:10264000204601F010F910B167742574E5E784F8AD
:10265000118025740020E1E7805101002DE9F0414F
:102660000D46040024D01DB3207C012823D04FF058
:10267000010884F81080022060742878EAB101F023
:1026800071F84FF4616100FB01F6687801F06AF8B7
:10269000C0EB001006EB8006A87801F063F835184F
:1026A0002946204601F0F3F80026042710BB0FE06E
:1026B0000120BDE8F0810220FBE74FF4616148434F
:1026C0006978C1EB011100EB8100A9784518E7E7B3
:1026D0002068416821F005014160204601F081F841
:1026E000411C0AD0A84208D206490144204601F004
:1026F000BAF810B167742674DAE784F8118026748A
:102700000020D6E78051010070B504000AD020688F
:10271000416821F008014160FFF778F805464FF461
:102720007A7608E0012070BDFFF770F8401BB042D8
:1027300001D9032070BD206840680007F4D500204F
:1027400070BD10B5401EB0F1807F01D3012010BDD7
:102750004FF0E02460610F21601701F009FC0020B8
:10276000A06107202061002010BDFEE70148FFF7AF
:1027700055B80000540C00200148FFF7B1B8000024
:10278000540C002038B5406A002190F83D202B4BB6
:1027900046F2A8141B68B3FBF4F3C3EBC30303EBCB
:1027A000830300933BB15B1E009303681B689B058A
:1027B00005D5009BF6E7036C43F020030364436BED
:1027C00003B19962836B03B1996203681C6824F4B6
:1027D00080641C604185436B03B15963836B03B113
:1027E000596303681C6824F001041C6090F83D40A4
:1027F0002023602C0BD0282434EA02020FD080F86A
:102800003D3080F83E1000BFFFF782F938BD80F8F8
:102810003D3080F83E100164FEF7FEFF38BD0268CF
:10282000136843F0010313600268136843F4806384
:102830001360016380F83D40E6E700000C000020D3
:1028400000684169C943090601D40021016170474C
:1028500070B5044690F83D0094F83E10102901D060
:10286000402906D1222804D121680A6822F4006296
:102870000A60282131EA00024FF000054FF02006DF
:1028800026D021684968090505D4602803D084F85A
:102890003D6084F83E50256320684168090537D5BE
:1028A000416821F400614160606B90F821203C494F
:1028B000012A11D04163606BFEF700FE38B3206837
:1028C000016821F00101016084F83D60606B1CE04B
:1028D000256384F83D10DFE7A06B4163A06BFEF732
:1028E000EDFDA0B120684169C943490605D40069DE
:1028F000616A0870606A401C60622068016821F0AB
:102900000101016084F83D60A06B416B884710E0D5
:1029100094F83D10602910D04169C943490605D497
:102920000069616A0870606A401C60622046FFF7B7
:10293000EFF8206CC1071CD115E084F83D602564D8
:102940004169C943490605D40069616A0870606A33
:10295000401C60622068016821F00101016020468E
:10296000FEF75AFFE5E7810703D4410701D40007CA
:1029700004D52068416821F4E061416094F83D008D
:10298000216C49070BD5282809D10648E062256348
:1029900084F83D6084F83E502046FFF77FF970BD13
:1029A000852700080000FFFF10B5C26A438D01684B
:1029B000042B06D0438D032B08D0438D022B1DD052
:1029C00012E04A6822F480624A600CE04B6823F40B
:1029D00080634B60042A06D0022A04D001680A688A
:1029E00022F480620A6001680969426A1170416AD2
:1029F000491C4162418D491E418510BD012A30D0DC
:102A0000102A2ED0042A30D0022A2ED00A6842F48E
:102A100000720A6001680969426A1170416A491CC2
:102A20004162428D521E4285026812690A70416AF3
:102A3000491C4162418D491E418501684A6822F462
:102A400040724A60202180F83D1090F83E2000211D
:102A5000402A80F83E100CD012210163FFF71FF9C5
:102A600010BD0A6822F48062D3E70A6842F48062EB
:102A7000CFE70163FFF715F910BD000038B590F8F6
:102A80003D1022290FD1418D03290DD90168096913
:102A9000426A1170416A491C4162418D491E41855B
:102AA000418D032906D038BDC26A022A02D001290D
:102AB00006D029B10068416821F48061416038BDC9
:102AC000274946F2A81300220968B1FBF3F101EB94
:102AD0008101009101682023009C641E009422D093
:102AE0000C68A405F8D40C6824F480640C600168B8
:102AF0004C6824F4E0644C6001680969446A217000
:102B0000416A491C4162418D491E418580F83D3032
:102B100090F83E1080F83E2040291DD0122101631C
:102B2000FFF7BDF838BD046C44F0200404644C6821
:102B300024F4E0644C6001680969446A2170416AC8
:102B4000491C4162418D491E418580F83D3080F825
:102B50003E20FEF7DDFF38BD0263FFF7A2F838BD67
:102B60000C00002010B5C26A90F83D1021290BD14D
:102B7000418D51B1416A026809781161416A491C6D
:102B80004162418D491E418510BD20230021082A44
:102B900013D0202A11D012F5803F0ED0026854685D
:102BA00024F4E06454601122026380F83E1080F83F
:102BB0003D3000BFFFF774F810BD0268546824F47C
:102BC000E06454600268146844F4007414600163A3
:102BD00080F83D3090F83E2080F83E10402AE9D140
:102BE000FFF760F810BD000010B590F83D1090F8A8
:102BF0003E30C26A048DB4B1212903D0402B11D1DB
:102C000022290FD1418DE1B390F83E10402942D0E6
:102C1000416A026809781161416A491C4162418D2B
:102C2000491E418510BD2129E8D120230021082A11
:102C300013D0202A11D012F5803F0ED002685468BC
:102C400024F4E06454601122026380F83E1080F89E
:102C50003D3000BFFFF724F810BD0268546824F42B
:102C6000E06454600268146844F400741460016302
:102C700080F83D3090F83E2080F83E10402AE9D19F
:102C800000E002E0FFF70EF810BD0068416821F493
:102C90008061416010BDBDE8104000F0F3B8000055
:102CA00078B590F83E50C26A046B90F83D600023FE
:102CB0000168222E73D1066D0EB9402D6FD0056DBF
:102CC0001DB90569B5F5404F1BD0458D95B3468DAF
:102CD000484D012E20D0448D022C4DD00C6844F478
:102CE00080640C6001684C68240579D5AA4273D0D1
:102CF000012A71D0082A6FD0102A6DD0202A6BD0FB
:102D00006EE04A698A6900920A6842F480720A6039
:102D1000016D491C016578BDAA4214D10A6822F4EC
:102D200080620A6001684A68120504D50A6822F4C4
:102D3000806217E0FFE74A698A6900920A6842F4F4
:102D400000720A6050E0082A10D0202A0ED0122CFF
:102D50000AD0042A03D0022A01D0102AE6D10A6838
:102D600042F480620A603BE0012ADFD00A6822F464
:102D700080620A600168DEE7042A11D0022A0FD0BF
:102D8000102A0DD00C6844F400640C6001684C6992
:102D90008C6900940C6824F480640C6008E025E0E1
:102DA0000C6844F480640C6001684C698969009186
:102DB00001684C68240517D5AA4207D0012A05D01E
:102DC000082A03D0102A01D0202A0DD14A6842F4E3
:102DD00080524A6008E0FFE74A6842F480524A6045
:102DE00001684A6989690091036578BD4869886905
:102DF000009078BD0000FFFF90F83E10402910D0F1
:102E00000169B1F5804F19D0016DA9B3016D012998
:102E100010D1416C5FF0F10201F4407142EAD1112E
:102E200006E0016D0029416C05D0C9B241F00101F5
:102E300000680161704701F0FE01F9E790F83D106C
:102E40002129416C09D0C9B241F001010268116128
:102E5000416B29B1896A49B902E001F0FE01F5E749
:102E6000816B0029E6D0896A0029E3D000684168B7
:102E700041F4006141607047FFE7416CF02201F4CA
:102E80004071CBE710B590F83D10026D4AB1026D6C
:102E9000012A14D0026D022A16D0BDE81040FFF7B7
:102EA000CFBCC16C0129816C02D0C1F3072108E0BD
:102EB0000268C9B21161016D891C016510BD816C88
:102EC000C9B20268116123E022291CD0428D0AB1E7
:102ED000212920D0428D002AF0D12129EED101688C
:102EE0004A6822F4E0624A6001680A6842F40072AB
:102EF0000A6000210163202280F83D2080F83E1006
:102F0000FEF7D0FE10BD01680A6842F480720A60C4
:102F1000016D491CD1E7416A026809781161416A73
:102F2000491C4162418D491E418510BD38B50C4692
:102F300090F83D2000212825954302680B4605D0D6
:102F400051699169009180F83C3038BD556825F48D
:102F500080655560E243540700D50121120601D572
:102F6000828900E0028B80F83C3092B2FEF755FC7B
:102F700038BD00002DE9F04190F83D300446C26AAA
:102F8000002120261E4F00686FF48065082A01D0BA
:102F9000202A01D1282B04D0212B17D04561BDE870
:102FA000F081E762426822F4E06242602068456195
:102FB0002068026822F480620260216384F83D6028
:102FC00084F83E102046FEF769FEE8E7E76221221A
:102FD000226384F83D6084F83E10416821F4E0618A
:102FE0004160206845612068016821F480610160CA
:102FF0002046FFF725FC2046FEF797FECFE70000AE
:103000000000FFFFF8B590F83D6004460068416895
:1030100021F4E06141602068002541690091016868
:1030200041F0010101602068016821F480610160C4
:1030300020684168090520D5474F222E48D02A2E06
:1030400046D0616B096849686185618D19B1216C51
:1030500041F004012164416821F400614160606B2A
:10306000FEF778FA012808D0606B4763606BFEF7C3
:1030700025FA10B1606B416B8847608D08B32068FA
:103080004169C943490708D40069616A0870606AE8
:10309000401C6062608D401E608520684169C943A4
:1030A000490608D40069616A0870606A401C606261
:1030B000608D401E6085608D18B1206C40F004006A
:1030C0002064206C00B32046BDE8F840FFF7C0BB89
:1030D000A16B096849686185618D19B1216C41F066
:1030E00004012164416821F400614160A06BFEF796
:1030F00031FA0128C1D0A06B4763A06BFEF7DEF95F
:103100000028BAD0A06BB6E72A2E06D12563282066
:1031100084F83D002046FEF707FE94F83D1020207D
:1031200028290DD0216B222901D0222E07D1256319
:1031300084F83D0084F83E502046FEF7F5FDF8BDCA
:103140000649E162256384F83D0084F83E5020463C
:10315000FEF7A4FDF8BD0000852700080000FFFF72
:103160002DE9F04385B00024364800940194029480
:103170000394816941F010018161816901F01001BE
:103180000491816941F020018161816901F0200190
:103190000491816941F004018161816901F00401B8
:1031A0000491816941F0080181618069DFF89880AC
:1031B00000F008004FF48656049000223146404645
:1031C000FEF71FFBDFF884904FF4007700223946AA
:1031D0004846FEF716FB01251D480095CDE9010480
:1031E00069464846FEF718FAC020CDE90004694652
:1031F00048460294FEF710FACDE900650226CDE9B3
:10320000024669464046FEF707FA28020090114838
:10321000CDE9010469464846FEF7FEF9009703969A
:10322000CDE9015469464846FEF7F6F9002205212A
:103230000620FEF7E1FD0620FEF7D0FD05B0BDE853
:10324000F083000000100240000C01400008014023
:1032500000002110000011100D4810B50B4901604D
:103260000C49416000214FF480428160C0E90312A3
:1032700041618161C1610162FEF74CFC002803D00D
:10328000BDE81040FEF718B910BD0000005800401E
:10329000540C0020A08601001CB500241B4801949A
:1032A000194900940160611E41604FF48071816092
:1032B000FFF70EF908B1FEF7FFF821208DF80400A2
:1032C00040208DF805008DF80640012201A90F4825
:1032D000FFF7C4F908B1FEF7EFF802208DF80000FF
:1032E00007208DF8010004208DF8020023208DF8BE
:1032F0000300012269460548FFF74EF9002801D076
:10330000FEF7DAF81CBD000000280040A80C0020E1
:10331000FEE7FEE72DE9F04107460E014000103EB2
:10332000801E15464FF0FF38F1B2C0B200F050F9E0
:103330000D48002400EB4515285D00F001FA641CDF
:10334000E4B2102CF8D308EB4700F1B2C0B200F0A1
:103350003FF900242819007C00F0F2F9641CE4B263
:10336000102CF7D3BDE8F081D46000087CB50024B0
:103370000021204600F02CF90025002000F0E0F9A3
:103380006D1CEDB2802DF8D3641CE4B2082CEFD391
:10339000002106484023CDE900011A46084600F006
:1033A0005DF9BDE87C4000F0F3B80000100000209B
:1033B0001CB500210548CDE90001402380220846C4
:1033C00000F04CF9BDE81C4000F0E2B8100000200D
:1033D00010B57F2811D83F290FD8CB0801F007017D
:1033E00001248C40E1B2054C002A04EBC000C25C11
:1033F00001D00A4300E08A43C25410BDBC0C002037
:1034000010B5064C012291022046FEF7FAF920463B
:103410000122BDE81040D102FEF7F3B9000C0140D3
:103420002DE9F047144E002407464FF080084FF472
:103430000069351528FA04F23A4049463046FEF74D
:10344000E0F9012229463046FEF7DBF90022294641
:103450003046FEF7D6F9641CE4B2082CEAD3012208
:1034600029463046FEF7CDF929463046BDE8F047FB
:103470000022FEF7C6B90000000C014070B5012221
:103480000B4DD40221462846FEF7BBF901229602D5
:1034900031462846FEF7B5F9002221462846FEF7B8
:1034A000B0F931462846BDE870400022FEF7A9B9C0
:1034B000000C014070B50A4D4FF400640022214613
:1034C0002846FEF79EF9012291022846FEF799F957
:1034D00021462846BDE870400122FEF792B900005F
:1034E000000C014010B500204FF47A720021491CF5
:1034F0009142FCD3401C9042F8D3FFF781FFAE20ED
:1035000000F00DF9D52000F00AF9802000F007F94D
:10351000A82000F004F93F2000F001F9D32000F0CA
:10352000FEF8002000F0FBF8402000F0F8F8A120A1
:1035300000F0F5F8C82000F0F2F8DA2000F0EFF81B
:10354000122000F0ECF8812000F0E9F8CF2000F024
:10355000E6F8D92000F0E3F8F12000F0E0F8DB20F5
:1035600000F0DDF8302000F0DAF8A42000F0D7F801
:10357000A62000F0D4F88D2000F0D1F8142000F03F
:10358000CEF8AF2000F0CBF8BDE81040FFF7EEBE5C
:1035900070B50E4E002400BF04F1B000C0B200F0C0
:1035A000BEF8002000F0BBF8102000F0B8F80025AD
:1035B00006EBC500005D00F0C3F86D1CEDB2802D78
:1035C000F6D3641CE4B2082CE6D370BDBC0C00201A
:1035D00010B50C4640F0B00000F0A1F8102040EA11
:1035E000141000F09CF804F00F00BDE8104000F04B
:1035F00096B800002DE9F0410746CE004000083E95
:10360000801E15464FF0FF38F1B2C0B2FFF7E0FF61
:103610001148002400EB05152819A0F5805090F8FA
:10362000000E00F08DF8641CE4B2082CF4D308EB13
:103630004700F1B2C0B2FFF7CBFF00242819A0F574
:10364000805090F8080E00F07BF8641CE4B2082C5F
:10365000F4D3BDE8F0810000945A00082DE9FF4F33
:1036600082B08046019092460C464FF000098B468E
:10367000580700D0012000EBD3000590002032E075
:1036800000262BE00F98002510F8097009F10100C1
:103690001FFA80F9F80701D0109A02E0109848B399
:1036A000002221464046FFF793FE641C6D1C7F08F4
:1036B000EDB2E4B2082DEDD308F10100019900F05C
:1036C000FF08A8EB0101514505D10BF10800DDF819
:1036D000048000F0FF0B761C5C46F6B25645D1D351
:1036E0000098401CC0B2009005998842C8D306B02B
:1036F000BDE8F08F0122D4E72DE9F04115460E46D2
:103700000746002406E03019C1B23846FFF772FFC1
:10371000641CE4B22A5D002AF5D1BDE8F08110B541
:103720000446FFF7ABFE7820FFF77AFE0020FFF794
:1037300077FE2046FFF774FEBDE81040FFF7BABEE3
:1037400010B50446FFF79AFE7820FFF769FE402087
:10375000FFF766FE2046FFF763FEBDE81040FFF767
:10376000A9BE7047010901EB810100F00F0000EBD9
:103770004100C0B2704770B50446FEF747F80546F1
:103780004FF47A7606E0FEF741F8401BB04201D9CB
:10379000032070BD206840688006F4D52068416829
:1037A00041F010014160002070BD000070B504467A
:1037B0000068416821F010014160FEF727F80546D6
:1037C0004FF47A7607E000BFFEF720F8401BB042C6
:1037D00001D9032070BD206840688006F4D5002020
:1037E00070BD0168086A496A89B241EA00407047C1
:1037F000006881698AB2C1698BB2816989B28A42E3
:1038000003D0C06961F31F40704743EA024070472C
:10381000F0B56424C1EBC1030927A500072603EB1B
:1038200001130329B3FBF7F100F5FA6011440144D9
:103830000AD2401EB0FBF4F201EB9001B0FBF5F0B0
:10384000891A0844001D08E0B0FBF4F201EB900176
:10385000B0FBF5F0891A0844801CB0FBF6F106FBBA
:103860001100C0B2F0BD70B50D4606460024FFF74A
:1038700082FF48B93168280C08623168A8B24862F2
:103880003046FFF793FF00B10124204670BD70B5AC
:103890000D4606460024FFF76EFF48B93168280C34
:1038A00088613168A8B2C8613046FFF77FFF00B178
:1038B0000124204670BD00002DE9F05F00248C201B
:1038C00000F01CFA05468D2000F018FA05EB0020E8
:1038D00001F0EAFF82468E2000F010FA05468F20A4
:1038E00000F00CFA05EB002001F0DEFF83466420B7
:1038F000FDF734FE5146584601F0F4FE0546A0F5AA
:103900000000DFF81891B0F17A5F25D8284601F061
:10391000BDFE4FF06632424B00F0E6FB06460F4616
:10392000504601F0B3FE884604464A463D4B01F03E
:103930009DFB32463B4601F099FB07460E4620466A
:103940004146394A394B01F091FB3A46334601F082
:10395000B3FD01F0F1F804466FF07C51681834496A
:10396000884216D2584601F091FE4A46314B01F08A
:103970007DFB06460C46504601F088FE2E4A2F4B32
:1039800001F074FB3246234601F096FD01F0D4F8B5
:1039900004462B4968182B49884216D2584601F034
:1039A00075FE294A294B01F061FB06460C4650463C
:1039B00001F06CFE264A274B01F058FB32462346A5
:1039C00001F07AFD01F0B8F804462349681823494C
:1039D000884216D8584601F059FE214A214B01F081
:1039E00045FB06460C46504601F050FE1E4A1F4B52
:1039F00001F03CFB3246234601F05EFD01F09CF8ED
:103A000004461B498D4200DD00246420FDF7A6FD1D
:103A10002046BDE8F05F01F027BF00005839B4C868
:103A20006666F63F76BEAF3FC58F31772D219F3F4B
:103A3000F5281C0076BE9F3FC7BAB88D06F0963FAA
:103A40000AD7E3C0D7A330004BC8073D9B558F3F33
:103A50002D431CEBE2368A3F3333B3C099995900AA
:103A6000D2FBC6D79E59523FB2632310AFEB573FEC
:103A70006666A63F7047FEF759B970B594B0282125
:103A80006846FCF717FD14210AA8FCF713FD002572
:103A90000F950920012410950090119512954FF46F
:103AA000803004940694CDE901050226CDE9076033
:103AB0004FF4E01009906846FEF77AFB08B172B641
:103AC000FEE70F20CDE90A064FF48060CDE90C50E7
:103AD00002210AA80E95FEF78FFA08B172B6FEE72A
:103AE0004FF40070CDE90F400FA8FEF70FFA002841
:103AF00001D072B6FEE714B070BD704710B5064C29
:103B0000012240212046FDF77CFE20460122BDE82F
:103B100010408021FDF775BE0008014070B5134DBF
:103B2000012280212846FDF76CFE00224021284614
:103B3000FDF767FE052000F0A8FA01224021284683
:103B4000FDF75FFE80212846FDF756FE044604205F
:103B500000F09BFA002240212846FDF752FE012288
:103B600080212846FDF74DFE204670BD000801402B
:103B700070B5164E00252C46012280213046FDF7F7
:103B800040FE002240213046FDF73BFE052000F0BC
:103B90007CFA012240213046FDF733FE6006040E18
:103BA00080213046FDF728FE08B144F001040420CE
:103BB00000F06BFA6D1CEDB2082DE2D3002240211B
:103BC0003046FDF71EFE204670BD00000008014093
:103BD00010B50E4C012240212046FDF712FE0122B5
:103BE00080212046FDF70DFE052000F04EFA002250
:103BF00080212046FDF705FE042000F046FA20460D
:103C00000022BDE810404021FDF7FBBD0008014047
:103C100010B5104C002240212046FDF7F2FD002295
:103C200080212046FDF7EDFD042000F02EFA012250
:103C300040212046FDF7E5FD042000F026FA012290
:103C400080212046FDF7DDFDBDE81040052000F095
:103C50001CBA0000000801402DE9F0410024144F77
:103C600006468025002240213846FDF7CAFD25FA88
:103C700004F0304201D0012200E0002280213846C9
:103C8000FDF7BFFD052000F000FA01224021384673
:103C9000FDF7B7FD042000F0F8F9641CE4B2082C2D
:103CA000E0D33846BDE8F04100224021FDF7A9BD30
:103CB0000008014010B50446FFF720FF00F016F899
:103CC0002046BDE8104000F03AB8000000224FF452
:103CD00000710148FDF795BD000801400122510225
:103CE0000148FDF78EBD0000000801400021802042
:103CF00000F029B80321802000F025B810B5044653
:103D0000FFF7FCFEFFF764FF5220FFF7A5FFFFF768
:103D100005FF2046FFF7A0FFFFF700FFFFF758FF62
:103D20005320FFF799FFFFF7F9FEFFF721FF044645
:103D3000FFF76EFF0A20FDF711FC204610BD01467B
:103D40008120AFF3008070B50D460446FFF7D6FE24
:103D5000FFF73EFF5220FFF77FFFFFF7DFFE204611
:103D6000FFF77AFFFFF7DAFE2846FFF775FFFFF748
:103D7000D5FEFFF74DFFBDE870400A20FDF7EEBB12
:103D8000FEE700002DE9F04391B0FFF7EFFAFFF7EF
:103D9000FFFB022211460120FFF7BCFA0322114665
:103DA0000120FFF7B7FA3AA20A210120FFF7A4FC8D
:103DB0003A4C3B48384E256800683C2246F82500BE
:103DC0008146384902A8FCF743FB0DF1300807AFE4
:103DD000022D25DB06EB850050F8080C01F056FC9F
:103DE000CDE90001AA1E30A102A8FCF71DFA256842
:103DF00006EB850050F8040C01F048FCCDE9000109
:103E00006A1E29A13846FCF70FFA256856F82500E6
:103E100001F03CFCCDE900012A4623A1404609E01F
:103E2000012D1ED0484601F031FCCDE900012A46A3
:103E30001DA102A8FCF7F8F9206802AA401C206026
:103E400001210220FFF758FC3A4601210320FFF729
:103E500053FC424601210420FFF74EFC11B0BDE89F
:103E6000F0830D48006801F011FCCDE9000100224B
:103E70000DA102A8FCF7D8F9256856F8250001F035
:103E800005FCCDE900012A4607A13846D2E700002B
:103E900063642F6D32000000BC100020100400206D
:103EA000500C0020946300082532642E2020252E1B
:103EB0003266000010B5FFF759FAFFF769FB0221DF
:103EC0000A220846FFF726FA0B2203210220FFF7F9
:103ED00021FA152204210220FFF71CFA0A21BDE86D
:103EE000104002A20220FFF707BC00002E2E2E0079
:103EF00010B5042203210220FFF70CFA0522062147
:103F0000BDE810400220FFF705BA00001CB5FFF71E
:103F10002DFA01210A48CDE90001402300211A466B
:103F20000846FFF79BFB002106484023CDE900012E
:103F30001A461846FFF792FBBDE81C40FFF728BB66
:103F40000C0800204C0A0020490050EAC12018BF8C
:103F500004204A0D18BF40F0010040F2FF72B2EB9E
:103F6000515F08BF40F00200012808BF05207047DC
:103F70000907090E002804DB00F1E02080F8001496
:103F8000704700F00F0000F1E02080F8141D70472A
:103F90002DE9F0414F1E00EBC7010446D1E90001B5
:103FA00015461E4637F006020DD02A46334601F06C
:103FB0005DF87F1E04EBC703D3E9002300F0EEFD9C
:103FC00037F00602F1D1022F25D0042F13D0062F8F
:103FD00018BFBDE8F0812A46334601F047F8D4E91E
:103FE0000A2300F0DBFD2A46334601F03FF8D4E90E
:103FF000082300F0D3FD2A46334601F037F8D4E910
:10400000062300F0CBFD2A46334601F02FF8D4E911
:10401000042300F0C3FD2A46334601F027F8D4E913
:10402000022300F0BBFD2A46334601F01FF8D4E915
:104030000023BDE8F04100F0B1BD000000221346AE
:104040001046014900F066BE0000F03F00F0A6BD3A
:10405000002213461046114600F05CBE40F20132C9
:1040600000204FF0E04101F0B1BC0000024A002006
:10407000110701F0ABBC000001FDFFFF30380A283A
:1040800001D20120704700207047002104E0022285
:10409000521C732AFCDB491C8142F8DB7047FDF798
:1040A0004DFEFFF7EAFC00221146501EFDF7A4FE6C
:1040B000FFF756F8FFF7F0F8FFF7CEF81220FFF7FA
:1040C000F9FDFFF70FFAFFF721FF4FF49670FDF7A8
:1040D00045FAFFF76DF9FFF70BFF4FF4FA70FDF7A4
:1040E0003DFAFFF74FFEFEE72DE9F04D1D460C4669
:1040F00098B0174621F0004123F00043002814BF78
:104100004FF0010C4FF0000C0CEB440CFE4A0CEB92
:1041100002064FEA620C66452BD33E0018BF01260B
:1041200006EB45061644F94A964222D3F84A53EA6A
:10413000070C02D0944205D148B918B000201146AE
:10414000BDE8F08D002808BF4FF0000C01D04FF003
:10415000010C0CEB440212F5001F0AD8002F14BF0B
:104160004FF0010C4FF0000C0CEB450212F5001F54
:1041700007D918B03A462B462146BDE8F04DFFF767
:1041800065BF0022DFF88CA3002CB8BF534526DAA8
:10419000DFF884C36345A8BF022220DADFF870C3CA
:1041A0009C451CDCDFF874C30CEB235CBCF1140FE2
:1041B00008DDCCF1340627FA06FC0CFA06F6BE42FE
:1041C0000DD108E05FB9CCF1140623FA06FC0CFA15
:1041D00006F69E4203D10CF00102C2F1020251EA3E
:1041E000000C19D1002D17DA002C18BF022A01D0BB
:1041F000012A07D00220FCF78CF918B0BDE8F04D79
:10420000FFF71CBF0220FCF784F9FFF717FF18B077
:1042100081F00041BDE8F08DB7F1000C6CD1534541
:1042200025D104F1804212F5801201BF0028002040
:10423000B74918B008BFBDE8F08DB548884207DC23
:10424000002DA1BF6046294618B0BDE8F08D07E0FB
:10425000281E05DA80F0004118B06046BDE8F08DF8
:10426000AF497944D1E9000118B0BDE8F08DDFF81D
:10427000A0C2634525D1002D1FDA19B1514512D1D5
:10428000D8B909E0002840F0EC82A24A214618B0D3
:1042900062F31E01BDE8F08D0020214618B060F3E6
:1042A0001E01BDE8F08D08DA18B02346BDE8F04DD8
:1042B00002460020614600F02DBD18B02146BDE841
:1042C000F08D514518DAB5F1804F0DD0A5F1005CA5
:1042D000BCF1FF5C10D1B4F1000C0DDB18B06146ED
:1042E000BDE8F04D00F0ECBB234618B00246BDE837
:1042F000F04D194600F0BABE060024F0004C3BD148
:10430000D9B1514533D1002C06DD002DA1BF0020CD
:10431000514618B0BDE8F08D002C01DD002D1BDBEF
:10432000002C13DA002D11DB012A4FF0000014BF1E
:1043300078497C4918B0BDE8F08D022A18BF002CDE
:104340000AD0012A08D1002C06DA0AE0002CB8BFF6
:10435000002D11DA012A04D0002018B00146BDE872
:10436000F08D18B000204FF00041BDE8F08DA1F1B4
:104370004050B0F17F601AD0012000EBE47050EAA9
:10438000020421D0624C521E4FF0000B104304BFB8
:104390004FF0000B644C654883427CDD644A6548FD
:1043A00093421FDD884217DB002D25DB37E0002C10
:1043B00000DA4AB1022A0CBF01204FF0FF3018B0DA
:1043C000BDE8F04D00F0FEBD0120FCF7A2F818B0EA
:1043D000BDE8F04DFFF73CBE4D4A8A4202DC002D9D
:1043E0000ADC1CE0814202DA002D18DA04E0484BB6
:1043F000994220DD002D12DD0220FCF78AF8FFF73C
:104400002DFE05460E46002253465846214600F032
:104410002DFE18B066F31E012846BDE8F08D02207F
:10442000FCF777F8FFF722FE0A46214618B062F340
:104430001E01BDE8F08D00223046614601F03CF8D7
:1044400080460E466FF0010201F0C0FA4FF055327F
:10445000394B00F03FFF4246334600F007FE002292
:10446000364B00F037FF82464246334604911046F1
:10447000194600F0FBFD5246049B00F0F7FD8A460A
:1044800000904FF0C0422E4B4046314600F0EEFD0A
:104490002C4A2B4B00E027E0CDE90601514600985D
:1044A00000F0E4FD82460191274A284B4046314600
:1044B00000F0DCFD5246019B00F0FEFF82460B46F9
:1044C00002460591DDE9060100F068FBDDE90623FF
:1044D00000268846304600F0EFFF5246059B00F06C
:1044E000F9FE024600F07EB90020B1F5801F07DA20
:1044F00035223046614601F069FA06466FF0340015
:1045000000EB215024E00000FFFF1F00FFFF0F0021
:104510000000F03F0000F07F0000404301FCFFFF7F
:104520000A2200000000F0FF0000F0BF0000E041A0
:104530000000F043FFFFEF3F5555D53F0000E03F3F
:104540004715F73FFE822B6544DF5DF80BAE543E06
:10455000A0F2FF300190C1F3130040F07F6141F001
:1045600040510291FE498842D8BF002004DDFD4938
:104570008142C8BF012001DD0D9008E000200D90B0
:104580000198401C01900298A0F5801002900299B9
:10459000F54878440B910D9900EBC100D0E9002358
:1045A0000F9330460A920B9900F086FFCDE9060181
:1045B000DDE90A2130460F9B00F0F0FA02460B4677
:1045C0000020EA4900F0A6FB059102460B46009048
:1045D000DDE9060100F04AFD1490E5488A464FF0F7
:1045E000000878440299006812904FF0005040EAA9
:1045F00061010D980F9B01EB804000F500210991AE
:104600000A9A129800F058FF32460B9B00F062FEA7
:104610004246534600F02AFD064602914046514666
:10462000099B129A00F022FDDDE9062300F052FEFC
:104630003246029B00F040FF059B009A00F016FDF9
:104640000091149A049053461046194600F00EFD4E
:1046500006460246C7480B46029106217844FFF7FA
:1046600097FCCDE90510029B32461046194600F032
:10467000FDFCDDE9053200F0F9FC059106465346E4
:1046800040461946149A00F089FA009B049A00F0FB
:10469000EDFC3246059B00F081FACDE9051042465B
:1046A00053461046194600F0E1FC0022B24B02913D
:1046B0000A9000F073FADDE9053200F06FFA0E4659
:1046C0004246AD4B404600F0F7FE029B0A9A00F0CE
:1046D000F3FEDDE9053200F0FDFD424602910A904D
:1046E00033461046514600F0C1FCCDE90601534661
:1046F000149A02990A9800F0B9FC8A46029033464F
:1047000042460099049800F0B1FC5346029A00F02A
:1047100045FA82460B4602460591DDE9060100F0A6
:104720003DFADDE9062300208846064600F0C4FE77
:104730005246059B00F0CEFD824609914FF0604243
:104740008E4B3046414600F091FC049006918C4A15
:104750008A4B5046099900F089FC82460291894AA9
:10476000894B3046414600F081FC5246029B00F0E6
:1047700015FA864B7B440D9A03EBC203D3E9002361
:1047800000F00CFA0E900791019800F01BFC0591C7
:10479000DDE9061382460E9A049800F0FFF97C4A80
:1047A0007A440D9B02EBC303D3E9002300930292EA
:1047B00000F0F4F95246059B00F0F0F90026884617
:1047C00052463046059B00F077FE009B029A00F0AF
:1047D00073FE069B049A00F06FFE079B0E9A00F092
:1047E00079FD024600200B4602903846294600F02B
:1047F0003DFC824601912B4638461946029A00F04C
:104800005BFE3246434600F031FC5246019B00F00D
:10481000C5F907468A46324643462946029800F0C3
:1048200025FC05460E463A46534600F0B7F9594A6C
:104830008846914221DBA8EB020353EA000210D123
:104840002A46334600F038FECDE90401524A534B64
:104850003846514600F0A2F9DDE9042300F004FDDA
:1048600021D20220FBF755FEFFF7F8FB0A4621464E
:1048700018B062F31E01BDE8F08D494B28F00042EC
:104880009A4210D3474A08EB020353EA00027FF42E
:10489000C6AD2A46334600F00FFE3A46534600F0B6
:1048A000E3FC7FF6BCAD0022019228F000403E49B7
:1048B0003E4A01EB2051824223DA481C4FF480111A
:1048C00021FA00F040443A4AC0F30A517A44394B85
:1048D000A1F2FF31CB4020EA0303C0F3130040F400
:1048E0008010C1F11401C84012680190B8F1000FA6
:1048F000BCBF404201902846314600F0DDFD054630
:104900000E462A4633463846514600F047F94FF0E6
:1049100000084246284B4046059100F0A7FBCDE930
:104920000601264A264B4046059900F09FFB009160
:1049300002902A4633464046059900F0BDFD3A46AE
:10494000534600F0C7FC1F4A1F4B00F08FFB009B33
:10495000029A00F023F90746884602460B4635E0E6
:104960008E9803007AB60B00521E00000000F03F44
:104970008A1E0000B81D00000000084009C7EE3F75
:10498000FD033ADCF5015B14E02F3EBE901C0000F5
:10499000541C000000009040FE822B654715973C98
:1049A00000CC904000346F3F01FCFFFF0000E03F6F
:1049B000A01B0000FFFF0F00432EE63F396CA80C40
:1049C000615C20BEEF39FAFE422EE63FDDE90601CA
:1049D00000F0E4F8DDE9062305460E4600F06CFD24
:1049E0003A46434600F076FC0F462A46334600908E
:1049F0001046194600F03AFB824602462E48884689
:104A00000B4605217844FFF7C3FA5246434600F0AF
:104A10002DFB2A46334600F05DFC80468A463B4625
:104A200028463146009A00F021FB3B46009A00F0F0
:104A3000B5F80691009000224FF080434046514661
:104A400000F03AFD0F460C90424653462846314648
:104A500000F00CFB3B460C9A00F05CF9069B009AB8
:104A600000F02AFD2A46334600F026FD0022134BB3
:104A700000F030FC054601980E4601EB0051081588
:104A8000002810DC28463146019A00F09FFFFFF70E
:104A90005BFA042808BFFFF7E9FA28463146019A75
:104AA00000F094FF05460B4618B02A4658462146AA
:104AB000BDE8F04D00F0DABA401A00000000F03F07
:104AC0002DE9F04106460F4600F010FC041E0D468D
:104AD00018BF0120284320F00040C0F17F6000F1A2
:104AE000E040C00F0ED0301C18BF0120384320F02A
:104AF0000040C0F17F6000F1E040C00F04BF012022
:104B0000FBF707FD20462946BDE8F08110B50029D6
:104B10000AD00878002807D005487844FCF7B8F890
:104B2000002801D0002010BD0248784410BD0000CC
:104B3000121A00000A1A000021F00042A2F160528D
:104B4000B2F5801F01F0004328BFD2F17F6C0BD972
:104B50005FEA001C43EAC20242EB507018BF704784
:104B600028BF20F001007047B2F5801FBCBF184677
:104B700070474FEA410C1CF5001F02D2084600F0B6
:104B8000ECBE70B500F01CFB00000089FFF7F6BF1B
:104B90004FF00040A0F580007047000010B591EA8A
:104BA000030F48BF83F0004300F18E84841A71EB39
:104BB000030C05D2121943EB0C03001B61EB0C0133
:104BC000DFF824E14FEA1154A4EB135C1EEA430F13
:104BD00018BF9EEA445F73D023EA0E03DCF1200E77
:104BE00021EA045143F4801332D322FA0CFE10EB75
:104BF0000E0023FA0CFE41EB0E01CCF1200E03FA5D
:104C00000EFE10EB0E0051F10001B1F5801FCCF14A
:104C1000200E32D201EB045112FA0EF2BDE8104020
:104C200058BF7047401C38BF5FEA420218BF704748
:104C3000002814BF20F0010041F100014FEA4103B8
:104C400013F5001F38BF7047A1F1C04100F006BB4B
:104C5000012A43EB0302ACF1200CDCF11F0E32BF42
:104C60004FF0000E23FA0CF310EB030041EB04515C
:104C7000B4EB115FD0D0A1EB045101F580114908CC
:104C80005FEA300001EB04510ED350F1000038BF51
:104C900012FA0EFE08D1BDE81040C9E7401C38BF2B
:104CA0005FEA4202CAD1C3E7BDE810404FEA4103C0
:104CB00013F5001F38BF7047A1F1C04100F0CEBA14
:104CC0009EEA445F08D011EA5E0FBDE8104004BFC1
:104CD00001F0004100207047BDE8104070B500F0C1
:104CE0006FFA00BF64FBBE3E0000E0FF02494FF0D8
:104CF000000000F039BE00BF0000F87F491058BF27
:104D0000C1F140415B1058BFC3F140438B42EFF308
:104D1000008070472DE9C04130B4DFF8A0C23CEA02
:104D2000111418BF3CEA131400F0EC8081EA03056B
:104D30001CEA111444EAD57418BF1CEA131500F0DC
:104D4000C780A4EB05044FF0004545EAC12145EAC0
:104D5000C32341EA505143EA525304F17F7499420C
:104D600004F500344FEAC0204FEAC22208BF904247
:104D700000F09C804FEA13650FF24016765D4FEA13
:104D8000134506FB05F7C7F1807706FB07F74FEAE7
:104D9000D737A7FB03687642C8F58038A7FB06CE55
:104DA00038BFA8F1010807FB08E64FF0000EA6FB8C
:104DB000028CE6FB03CEDCF1000CCEF1004E38BFD6
:104DC000AEF1010EA6FB0C584FF000074FF00005A6
:104DD000E6FB0E87A1FB08C6A0FB07CE16EB0E066E
:104DE00045F10005E1FB076515F1E04E7EBFA4F536
:104DF00080345FEA46066D4116F1800745F10005F3
:104E00004FEA17274FEA066647EA0567A6F1DE462E
:104E1000B6F1805F4FEA15251FD9384624F0010C02
:104E200005EBC471BCF1FE6F01EB0C1102D8F0BCB4
:104E3000BDE8008124425CBF01F5801E9EEAC47F6C
:104E400002D4F0BCBDE80081244238D4F0BCA1F10A
:104E5000C041BDE8004100F001BA4FEAD22242EA67
:104E600043524FEAD323A7FB02864FEAD02040EA01
:104E7000415007FB03661EEA0E0F4FEAD12105FBE6
:104E8000026658BFA6EB0056B6EB00564FEA520E2C
:104E90004EEAC37E18EB0E0E56EB530EBDD518EB43
:104EA00002085E417F1C55F10005B6E74FF48015FE
:104EB0004FF000074FF000064FF00008ADE7F0BCE0
:104EC0004FF0000001F1C04101F00041BDE8008158
:104ED00011EA0C1F0CEA131500D00CE013EA0C1FAA
:104EE00000F025804FF00000F0BC81EA030101F0E2
:104EF0000041BDE80081F0BCBDE8004181EA03014A
:104F000000F0ACB9F0BCBDE8004170B500F058F954
:104F1000097EFC3E00F007B881EA03014FF0000073
:104F200001F00041704781EA030100F097B9F0BC3D
:104F3000BDE800414FF0000021497047FFFDFBF93B
:104F4000F7F5F4F2F0EEEDEBE9E8E6E4E3E1E0DEBC
:104F5000DDDBDAD8D7D5D4D3D1D0CFCDCCCBCAC82E
:104F6000C7C6C5C4C2C1C0BFBEBDBCBBBAB9B8B755
:104F7000B6B5B4B3B2B1B0AFAEADACABAAA9A8A848
:104F8000A7A6A5A4A3A3A2A1A09F9F9E9D9C9C9B16
:104F90009A999998979796959594939392919190C1
:104FA0008F8F8E8E8D8C8C8B8B8A89898888878752
:104FB0008685858484838382828181800000FF07C7
:104FC0000000F87F10F0004248BF4042B0FA80F382
:104FD00010FA03F10AD0C3F11D0303F580634FEA11
:104FE000415002EB035202EBD12170474FF0000019
:104FF0007047000051EA030C17D41CF5801F58BFFE
:10500000BCF5801F00F10680994218BF704708BFA9
:105010009042704707D711F5801F58BF13F5801FC6
:1050200019D499427047894270471CF5801F08D5F2
:10503000BCF5801FF7D58B4218BF704708BF82426E
:1050400070474FF4001C1CEB410F38BF1CEB430FA3
:1050500001D28B42704770B500F0B2F8922449003B
:105060004FF000514FF08053FFF748BEDFF848C1C2
:1050700070B51CEA111E1EBF1CEA13159EEA0C0F28
:1050800095EA0C0F00F06F8081EA030423EA4C13C9
:105090004EEAD47E21EA4C1141F4801143F480138E
:1050A000AE44A1FB024CA0FB0365AEF17F7E361936
:1050B00055EB0C05A1FB034C4CF10003A0FB021CBB
:1050C00016EB0C06654153F10003094218BF46F088
:1050D000010613F4007F0BD14FEA03314FEA05308C
:1050E000340341EA155140EA16506FF003020AE01A
:1050F0004FEAC3214FEAC520F40241EA555140EA84
:1051000056506FF0020202EB2E4201EB025585EA87
:10511000CE710AD05FEA440C18BF24F0004450F16D
:10512000000041F1000120EAD47040F2FE7C6245AB
:1051300000D270BDA84214BF4FF080444FF04044ED
:10514000002E08BF0024BEF1806FA8BFA1F1C041AE
:10515000BDE8704080F282804FF0000001F1C04154
:1051600001F0004170479EEA0C0F0CEA131518BFBE
:1051700095EA0C0F06D04FF0000081EA030E0EF006
:10518000004170BD00F01CF88900013E00F007B836
:1051900000F009B84FEA430C5FEA5C5C08D081EA92
:1051A000030100F05BB84FEA410C5FEA5C5CF6D1AA
:1051B0004FF00000014970470000FF070000F87F32
:1051C0000EF1020E2EF0030E5EF8046B364205D48B
:1051D000012A43EB030515F5001F12D8012841EB06
:1051E000010C1CF5001F0CD80ED14FEAD17C15F52F
:1051F000001F0CEB4C0C0CF1020C08BF4CEBD37CE9
:1052000004E04FF0080C01E04FEAD37C0CEB4C05B6
:1052100026FA05F606F00706B6F1040C06D20EEBE8
:10522000860CBDE870404CF0010C6047DFE80CF0E4
:10523000090B02024FF000414FF00000A1F50021E0
:1052400070BD19461046012851EB010418BFD4F572
:10525000001484BF002001F0004170BD0808A0F5D3
:1052600000114FEA3101704753EA010C17D41CF5C5
:10527000801F58BFBCF5801F00F106808B4218BF0D
:10528000704708BF8242704707D713F5801F58BF89
:1052900011F5801F19D48B4270479B4270471CF553
:1052A000801F08D5BCF5801FF7D5994218BF7047FD
:1052B00008BF904270474FF4001C1CEB430F38BFEF
:1052C0001CEB410F01D2994270470FB40CBC03BCD8
:1052D000FFF7C1BE91EA030F10B581F000413FF521
:1052E00065AC83F0004300F0EFB800002DE9F04119
:1052F00001F5801CBCF5001FC0F2C3804FEA115CB1
:1053000021EA0C510CF1FD0C41F480115FEA5C0CB8
:105310000CF5C07C01D3400049413DA4890241EA1B
:10532000905187028E0E0A0CA45D04FB04F602FB6A
:1053300006F6C6F14046A4FB0662F60D46EA422692
:1053400006FB06F4A4FB01235242C3F1404338BFDD
:105350005B1EA6FB02420024E6FB0324D20B42EABA
:105360004446A6FB0623A1FB02E2A3FB07E4A41824
:105370004FF0000252F10002E3FB01426442C2F12D
:10538000404E38BFAEF1010EA6FB04234FF00002E1
:10539000E6FB0E32A2FB03464FF00004B61954F1AF
:1053A0000004E2FB0264A1FB06E6A4FB07E816EB9F
:1053B00008064FF0000858F10008E4FB0168764247
:1053C000C8F1405838BFA8F10108A2FB06E4A3FBCE
:1053D00008E52D194FF0000454F10004E2FB0854D5
:1053E000A1FB05E6A7FB04E818EB06084FF0000652
:1053F00056F10006E1FB048618F1200556F100067F
:10540000A809A8F11B08B10908F03F08B8F10A0F74
:1054100040EA86601CD901EB0C51BDE8F08100BF69
:10542000FCF5EEE8E2DDD8D3CFCBC7C3C0BDB9B63B
:10543000B4B1AEACA9A7A5A3A19F9D9B9A98969540
:105440009392908F8D8C8B898887868584838281C7
:10545000A0FB006800FB01F208EB4208B8EB8728CC
:1054600007D5341858EB0104D5D5401C51F1000183
:10547000D1E7341A78EB0104CDD4401E71F100015C
:10548000C9E75FEA4C0C5FEA9C5C0DD105D34FF095
:10549000000001F00041BDE8F081BDE8F04170B5C9
:1054A000FFF78EFE6DDBFFBEBDE8F0414FF0000060
:1054B000004970470000F87F10B591EA030F48BF1C
:1054C00083F000433FF572AB841A71EB030C07D2F3
:1054D00012198CF0004C43EB0C03001B61EB0C0128
:1054E000DFF8A4E14FEA1154A4EB135C1EEA430F6A
:1054F00018BF9EEA445F00F0B08023EA6E03524278
:1055000021EA0451C3EB6E0338BF5B1EDCF1200EB1
:1055100025D322FA0CFE10EB0E0043FA0CFE41EBF1
:105520000E01CCF1200E03FA0EFE10EB0E0051F12D
:105530000001CCF1200E29D412FA0EF201EB045135
:10554000BDE8104058BF7047401C1CBFB2F1004F6F
:10555000704700280CBF491C20F00100704712EB77
:10556000020E43EB030218BF4FF0010E4EEA420257
:10557000ACF1200CDCF11E0E54D943FA0CFE10EBFA
:105580000E0051F1FF31CCF11E0ED5D50EF1010EFA
:1055900012FA0EFE404141EB010101EB445C5FEA6F
:1055A0005C5C10D910EBDE7001EB045138BFBEF12A
:1055B000004FBDE8104018BF704700280CBF491CC1
:1055C00020F00100704730D24FEAD42C11F50011C1
:1055D00024F400641BD0B1FA81F20B3AA41AA41E81
:1055E000D2F12003914030FA03F31943904001EBCC
:1055F000CC71002C01EB0451BDE81040A8BF7047EE
:1056000001F1C0414FF0000001F000417047B0FAD5
:1056100080F310FA03F100D110BDE41A173C4805DD
:10562000C90AE4E701EB045110BD491001EB045134
:10563000BDE810404FEA300002E04FF00001704733
:105640004A0008BF0042F8D0B2F5001F28BF7047DB
:1056500001F000414FF0000070479EEA445F07D020
:1056600011EA5E0FBDE8104004BF00210020704722
:10567000BDE8104070B5FFF7A3FD00BF40DFF63E68
:1056800083F00041104670470000E0FF43004FEAFE
:10569000D30C4FEA3C0C43401FBF40070CF1605154
:1056A00013F0FE4F70471CF0006F03D100200CF088
:1056B000004170470CF0004343EA507010B540EAD7
:1056C000CC0000F004F900BF000000924FEA000196
:1056D000FFF7C4BD4FF000414FF00000A1F50021DD
:1056E000704700004FF47F0C1CEAD0121EBF1CEA6A
:1056F000D11392EA0C0F93EA0C0F00F0858090EA28
:10570000010F48BF42F4807240F4000C41F40000E5
:105710002CF07F4120F07F4000B58142A2EB0302D4
:105720000FF2081CACEB504EC0F100009EF800E0F8
:105730004FEA4E0E00FB0EFC38BF49004FEA2C1C0E
:1057400002F5FA020CFB0EF34FEACE1E4FEA112CC3
:105750004FEAC1210EEB635E42EB22420EFB0CFCD2
:105760004FEA1C5300FB03114FEA112C4FEA0131A1
:105770000EFB0CFC4FEADC4C00FB0C11C14228BFB5
:1057800009184CEB03335DF804EB10EB410143EBDC
:10579000C250B2F57C0F38BF704729D512F0F00F18
:1057A0001CBF00F1C04000F00040704700818283C0
:1057B0008485868788898B8C8D8E8F919293959620
:1057C00097999A9C9D9FA0A2A3A5A7A8AAACAEB0AA
:1057D000B2B3B5B7B9BCBEC0C2C5C7C9CCCED1D4AF
:1057E000D7D9DCDFE2E6E9ECF0F3F7FAFE000000DF
:1057F0004FEA400C0CF1807CBCF17E4F28BF704713
:10580000B0F1C04000F0A9B890EA010F0CEAD11342
:1058100048BF42F48072624538BF634507D213F433
:105820007F0F16D080EA010000F00040704710B5ED
:1058300000F04DF8097EFC3E00F005B880EA01005A
:1058400000F00040704780EA010000F0004000F0E6
:1058500084B812F47F0F04BF0248704780EA010049
:1058600000F07BB80000C07FC10DD1F19E0206DBC5
:105870004FEA002343F0004323FA02F0704700424E
:1058800007D54FEA4001B1F1FE4F02D24FF00000C0
:10589000704710B500F01BF8499224800020704733
:1058A0006FEA200070470000B0FA80F310FA03F2AC
:1058B000C3F19D030AD0D90501EB1220530638BF6E
:1058C000704700F1010008BF20F0010070470EF1A1
:1058D000020E2EF0030E5EF8044B244204D44FEA6D
:1058E0004102B2F17F4F11D84FEA4003B3F17F4F2D
:1058F0000CD80ED14FEAD07CB2F17F4F0CEB4C0CA0
:105900000CF1020C08BF4CEBD17C04E04FF0080C0A
:1059100001E04FEAD17C0CEB4C0324FA03F404F0D1
:105920000704B4F1040C06D20EEB840CBDE8104061
:105930004CF0010C6047DFE80CF0070802024FF062
:105940000040A0F5800010BD0846420018BFD2F10B
:10595000807288BF00F0004010BDFF2141EAD050A6
:10596000C0057047FAF70DBF0CF00F03092B08BFF5
:10597000082000F059800A2B0BD0082B18BF704765
:1059800008BF1CF0400F0AD04FF000004FF000019C
:1059900070471CF0400F18BF4FF0004070471CF0DC
:1059A000100F08D020F0704300F07F4242EAD3018C
:1059B0004FEA4370704700F0604021F07F4242EAB6
:1059C000000201F07F4040EA727070474FF0FF0C18
:1059D0004CF4E06C1CEA11531CBF9CEA030C944588
:1059E000C2BFDA4201EB02517047002B0DD0BCF16F
:1059F000000F0FD0002A01F00041A4BF41F0E041A8
:105A000041F07F614FF00000704701F000414FF01E
:105A10000000704750EA01334FF09B0C18BF4CF068
:105A2000806C7FF463A970471CF4801F11D01CF4B4
:105A3000E02F03D06FEACC31490070474FF040505F
:105A4000EFF3008222F0704242EA000282F3008803
:105A500070474FF00000704701020203040506077B
:105A600008090A0B0C0D0E0F1010010202030405A9
:105A7000060708090A0B0C0D0E0F1010000000009D
:105A800000000000010203040607080900000000EE
:105A900001020304000000000000000000000000FC
:105AA00000000000000000F80000000000000033CB
:105AB0003000000000100C06100C06000000000072
:105AC0000000000040C07840C0784000043F04045B
:105AD0003F040400007088FC08300000001820FF1C
