:020000040800F2
:1000000050180020E90100085325000803220008C9
:10001000512500088F140008E12B000800000000A3
:10002000000000000000000000000000E72A0008B7
:10003000911400080000000093290008E92A000834
:10004000030200080302000803020008030200087C
:100050000302000803020008931400089914000822
:100060009F140008A51400080302000803020008FA
:10007000030200080302000803020008030200084C
:10008000030200080302000803020008030200083C
:10009000030200080302000803020008030200082C
:1000A000030200080302000803020008030200081C
:1000B000030200080302000803020008030200080C
:1000C00003020008030200080302000803020008FC
:1000D00003020008030200080302000803020008EC
:1000E00003020008030200080302000800F002F8FF
:1000F00000F06AF80AA090E8000C82448344AAF158
:100100000107DA4501D100F05FF8AFF2090EBAE855
:100110000F0013F0010F18BFFB1A43F0010318473B
:100120004C3B00006C3B00000A444FF0000C10F800
:10013000013B13F0070408BF10F8014B1D1108BF65
:1001400010F8015B641E05D010F8016B641E01F805
:10015000016BF9D113F0080F1EBF10F8014BAD1C55
:100160000C1B09D16D1E58BF01F801CBFAD505E073
:1001700014F8016B01F8016B6D1EF9D59142D6D3CD
:10018000704700000023002400250026103A28BFF5
:1001900078C1FBD8520728BF30C148BF0B607047F9
:1001A000662903F03280642900F07A8000207047CD
:1001B0001FB500F02FFC04000020002102F084FF96
:1001C000E0601FBD10B510BD00F024FD1146FFF723
:1001D000EFFF02F054FF00F042FD03B4FFF7F2FF1F
:1001E00003BC00F085FD000009488047094800472E
:1001F000FEE7FEE7FEE7FEE7FEE7FEE7FEE7FEE7D7
:10020000FEE7FEE704480549054A064B7047000033
:100210006D2B0008ED00000850120020501800203F
:1002200050140020501400200FB41CB5074B06AA30
:100230007B4469460090059800F0D3FB0020694696
:1002400000F0E2FB1CBC5DF814FB0000D5070000C9
:1002500070B5044685690068C10601D5302600E006
:100260002026C00707D070BDD4E901213046904751
:10027000206A401C20626D1EF6D570BD70B5044624
:1002800085690078C00707D170BDD4E9012120201D
:100290009047206A401C20626D1EF6D570BD00009C
:1002A0002DE9F0410646002410687529314616A54F
:1002B00010D0AFF30080002802DA404213A507E017
:1002C00031688A0701D512A502E0490704D511A5B6
:1002D000012401E0AFF3008000210A2206F1240787
:1002E00009E0B0FBF2FCB0FBF2F302FB1C00303083
:1002F00078541846491C0028F3D123462A46304634
:10030000BDE8F04100F000B9000000002D00000041
:100310002B000000200000002DE9F05F8946044614
:100320004FF0000ADFF824B1FB44C0F820A02046BB
:10033000E168884700287DD0252806D0D4E901212E
:100340009047206A401C2062F1E700255F46204666
:10035000E16888472028064607DB312E05D2B81908
:1003600010F8200C08B10543F1E7A80701D525F0E6
:100370000405C4F81CA00027C4F818A02A2E09D030
:10038000304602F075FE38B304EB8708303EC8F8FB
:10039000186019E059F8041B204604EB87029161AC
:1003A000E1688847012F064618D1E069002820DA65
:1003B00025F020051DE0D8F8180000EB800006EBC2
:1003C00040003038C8F818002046E16888470646E3
:1003D00002F04EFE0028EED1012F0AD02E2E08D1B9
:1003E0002046E16888477F1C0646022F45F020051D
:1003F000C4DBA069002803DA404245F00105A06192
:10040000E80701D025F01005A6B1A6F14100192892
:1004100002D8203645F400654A463146204625601C
:100420004D46FFF7BDFE60B1012807D0ED1D25F058
:10043000070000E007E000F1080978E705F104098A
:1004400075E730467AE7206ABDE8F09F98380000EB
:1004500010B5203AC0F00B80B1E81850203AA0E85F
:100460001850B1E81850A0E81850BFF4F5AF5FEA93
:10047000027C24BFB1E81850A0E8185044BF18C946
:1004800018C0BDE810405FEA827C24BF51F8043BED
:1004900040F8043B08BF7047D20728BF31F8023B41
:1004A00048BF11F8012B28BF20F8023B48BF00F8D5
:1004B000012B70474FF0000200B513469446964654
:1004C000203922BFA0E80C50A0E80C50B1F1200167
:1004D000BFF4F7AF090728BFA0E80C5048BF0CC015
:1004E0005DF804EB890028BF40F8042B08BF704773
:1004F00048BF20F8022B11F0804F18BF00F8012BE5
:1005000070477047704770472DE9F0470D46994690
:100510009246044600F124080168880604D5E06983
:1005200021F01001216000E00120A84201DD471BFD
:1005300000E00027A1697A1902EB0900081AA061FE
:100540002078C00602D42046FFF782FE002608E08D
:10055000D4E901211AF806009047206A401C761C55
:1005600020624E45F4DB2078C0060AD52046FFF70E
:100570006FFE06E0D4E9012130209047206A401C3C
:100580002062381EA7F10107F4DC07E0D4E901215D
:1005900018F805009047206A401C2062281EA5F12B
:1005A0000105F3DC2046FFF769FE2078000602D53E
:1005B0000220BDE8F0870120FBE770472DE9FF4FDF
:1005C0000C461E464FF0FF378BB0D2E90001DDF834
:1005D00060800A908A46C1F30A5505B93D4600215C
:1005E00008464FF00000BAF1000F00F4400005DAB1
:1005F00000EB80004FF4400101EA50004FEA9059AF
:10060000B9F1010F00DDB9460A9850EA4A000ED050
:1006100044F61050A5F2FF3545432F14B8F1000FF2
:100620001ED07542291E1EDDC9F100021CE0B8F182
:10063000010F4FF0000001D0302103E0F24305E04C
:100640002154401CB042FBDB3046002200212154E3
:100650000B99C1F80880C1E900200FB0BDE8F08F08
:10066000BD1B6D1CDEE74A4600DA694206A800F0B1
:100670005BFA06AB93E8070003AB83E8070050463C
:100680000A9900F03CFB8DE80700A0F500501F38E8
:1006900000900398002D0ADD42F21F014A460844EB
:1006A000002303A90390684600F0A5FD09E0A0F52A
:1006B00000504A461F38002303A90390684600F003
:1006C000AFFD8DE807000004000C03D04FF0FF30B1
:1006D000410800E01046B8F1000F03D0002200925C
:1006E00015461EE0751E05D400F098F930326255AB
:1006F0006D1EF9D5B3460122084302D000227F1CAB
:1007000004E02078302801D100227F1E002A0997BA
:1007100084D01DE0112D07DA00F080F930326255E7
:100720006D1C50EA0102F5D1084302D00098C8B10F
:100730000EE00021681E05E0235C625C63542254D5
:10074000401E491C8142F7DBAB46A81B401E0990A6
:10075000002004F80B000B98099AC0F80880C0E943
:10076000002B7AE711264FF0000857E72DE9F04FEC
:1007700088460446D21D22F0070191B0D1E900015C
:10078000CDE90A0102F050FC02460B98C00F01D0DF
:100790002D2007E02068810701D52B2002E02021D1
:1007A00001EAC000032A099001D0072A05DB0346AD
:1007B0004146204600F078F90BE12078800601D50B
:1007C000E06900E00620B8F1650F814606D0B8F177
:1007D000660F18D0B8F1670F70D131E00020B9F181
:1007E000110F009001DB112301E009F101030AAAB6
:1007F00001A90CA8FFF7E2FEDDE90C70002609F163
:100800000105834647E001204B4600904FF000472A
:100810000AAA01A90CA8FFF7D1FEDDE90DB00C99D9
:100820005D46002610B909F101000D18B9EB05006D
:1008300003D4C0F1FF3609F10105A5EB09002BE057
:10084000B9F1010F01DA4FF001090020B9F1110FE0
:100850000090484601DD112300E003460AAA01A9E1
:100860000CA8FFF7ABFEDDE90C704D460026834671
:10087000207800070AD4AB4500DA5D4601A8012DB7
:1008800004DD411911F8011C302907D04F4502DA67
:1008900017F1040F04DA012082460FE06D1EEEE727
:1008A000002F02DCED1B3E4403E0781CA84200DD73
:1008B0007D1CB81B00F1010A4FF0004720780007AB
:1008C00003D4AA4501DB4FF0FF3A0021B7F1004FF6
:1008D0000DF143088DF8431024D002202B23002F64
:1008E00001DA7F422D230A21021EA0F1010000DC63
:1008F0005FB197FBF1FC97FBF1F201FB1C7C174603
:100900000CF1300C08F801CDEEE7A8F101000370FE
:100910002188090501D5452100E06521A0F10108E4
:1009200000F8011C09980FA9A1EB0807FF1D00B1F1
:100930000120411901EBEA70A1693844081A401EF0
:10094000A0612078C00602D42046FFF781FC0998F8
:1009500028B1D4E901219047206A401C2062207808
:10096000C00622D52046FFF773FC1EE0002E04DBF4
:10097000B34502DD01A8805D00E03020D4E901210B
:100980009047206A401C2062761CAAF101005FEAB1
:10099000000A0AD100F03EF8C0680168405CD4E962
:1009A00001219047206A401C2062281EA5F1010504
:1009B000DCDC07E0D4E9012118F8010B9047206A3C
:1009C000401C2062381EA7F10107F3DC2046FFF728
:1009D00055FC032011B041E601694A1C0261087808
:1009E000704700B58FB0CDE901310021059105496F
:1009F0007944CDE9031011466846FFF78DFC0FB02E
:100A000000BD0000E5FFFFFF0A6802F8010B0A6065
:100A100070470000004870471012002030B5B0F158
:100A20000A024FEA900E71F100034EEA817EB0EBAC
:100A30000E0061EB91014FEA101E4EEA017E10EBB1
:100A40000E0041EB11114FEA102E4EEA016E10EB31
:100A50000E0041EB11214FEA104E4EEA014E10EB11
:100A60000E0041EB1141401841F100014FEAD00066
:100A700040EA41704FEAD10110EB80054FEA810452
:100A800044EA907444EB01046D1944EB0404521BD6
:100A9000A3414FF0000348BF0A3200D530BD401CCF
:100AA00041F1000130BD00002DE9F0411F46044630
:100AB00003260168072A01F4006004DB08B116A5CB
:100AC00005E016A503E008B115A500E015A521F085
:100AD00010002060A069C01EA0610FB1401EA0617F
:100AE0002046FFF7B5FB4FB1D4E9012138469047C6
:100AF000206A401C2062C01C206206E0206AFAE7DF
:100B0000D4E9012115F8010B9047761EF8D2204652
:100B1000FFF7B4FBBDE8F0814E414E006E616E0000
:100B2000494E4600696E66002DE9F047814616463B
:100B30008AB0354878440DC88DE80D0032487844B5
:100B4000801C03AC0DC884E80D0041F69B300844BE
:100B5000372190FBF1F290FBF1F5A5F1800501FB47
:100B600012041B3C02D56442012000E00020DFF8A3
:100B700098A080460027FA44AAF1BE0A0EE0E007DA
:100B80000AD03246684607EB470101230AEB810190
:100B900000F046FB8DE8070064107F1C002CEED1AE
:100BA000194F7F44AE3F19E0E80715D007EB04105A
:100BB0000DF1180A90E80E008AE80E00C068F042B5
:100BC00001D1981908903246012306A903A800F024
:100BD00027FB03AB83E807006D10641C002DE3D1F5
:100BE0004FF0010332466946B8F1000F03A802D066
:100BF00000F001FB01E000F013FBC9E90001C9F8B6
:100C000008200AB0BDE8F0871C310000004870479A
:100C1000F01100207546FFF7F9FFAE460500694662
:100C2000534620F00700854618B020B5FFF7EAFAD2
:100C3000BDE820404FF000064FF000074FF00008DD
:100C40004FF0000B21F00701AC46ACE8C009ACE85E
:100C5000C009ACE8C009ACE8C0098D46704710B5C2
:100C60000446AFF300802046BDE81040FFF7B5BA58
:100C70004FF0013C50F8042B51F8043B9A4221D12B
:100C8000A2EB0C03934313EACC1317D150F8042BB7
:100C900051F8043B9A4215D1A2EB0C03934313EA9B
:100CA000CC130BD150F8042B51F8043B9A4209D1D4
:100CB000A2EB0C03934313EACC13DBD04FF00000FC
:100CC000704700BFD01A01BAB1FA81F101F01801E2
:100CD00022FA01F0CB40C1F12001DBB2C0B2C01A50
:100CE0002CFA01F3D11A914311EAC311E6D17047EE
:100CF00001491820ABBEFEE72600020070475FEAFC
:100D0000400C08BF91F0000F4FEA8C234FEAC1223C
:100D100043EA51514FEA1C5018BF00F5F0404FEA2A
:100D2000300018BF41F000415FEA6C5C00F02980A0
:100D3000BCF1FF3F08BF40F080407047130C06BF76
:100D400012044FF0100C4FF0000C130E04BF1202EF
:100D50000CF1080C130F04BF12010CF1040C930FDB
:100D600004BF92000CF1020CD30F04BF52000CF12F
:100D7000010C11464FF00002A0F11F00A0EB0C0087
:100D8000704711F0004F08BF704731F000413FF449
:100D9000D5AF0B0C06BF09044FF0100C4FF0000C40
:100DA0000B0E04BF09020CF1080C0B0F04BF090164
:100DB0000CF1040C8B0F04BF89000CF1020CCB0F5B
:100DC00004BF49000CF1010CCCF12003A0EB0C0096
:100DD00022FA03F302FA0CF241EA030100F10100E6
:100DE000704720F07F4C80EA030023F07F47ACEB94
:100DF000070303F57C5300F0004003F1FF032DE9E6
:100E000080494FEA154B09B44FEA144325EA0B4ECB
:100E100024EA03480FF2042606EB132749083E781C
:100E20005FEA320203FB0667C7F5000707FB06F619
:100E30004FEA54374FEAD64606F1020607FB066C26
:100E4000CCF1005C4FEA1C472CEA074C07FB06F488
:100E50000CFB06F504EB15464FEA961634BF00204E
:100E60004FF000404FEAD13706FB07FC4FEA1C4C1D
:100E70000CFB0BF7D21B03FB0CF761EB07010CFB20
:100E80000EF7B0EB074072EB17420CFB08F734BFCC
:100E9000A2EB0742B2EB074261EB17414FEA0C4469
:100EA0004FEA910706FB07FC4FEA1C4C0CFB0BF7C3
:100EB000B0EBC74072EB573203FB0CF734BFA2EB29
:100EC000C742B2EBC74261EB57310CFB0EF7B0EBF8
:100ED000C70072EB57720CFB08F734BFA2EBC702D6
:100EE000B2EBC70261EB5771039F4FEA816141EAA0
:100EF000921104EBCC044FEAD1374FEA826206FB31
:100F000007FC42EA90124FEA80604FEA1C4C0CFB4F
:100F10000BF7D21B03FB0CF761EB07010CFB0EF781
:100F2000B0EB074072EB17420CFB08F734BFA2EBA3
:100F30000742B2EB074261EB17414FEA8C554FEA8B
:100F4000910704EB9C2406FB07FC4FEA1C4C0CFBAE
:100F50000BF7B0EBC74072EB573203FB0CF734BF13
:100F6000A2EBC742B2EBC74261EB57310CFB0EF765
:100F7000B0EBC70072EB57720CFB08F734BFA2EB63
:100F8000C702B2EBC70261EB577115EB4C254FEA74
:100F9000816141EA92114FEA82624FEAD13742EA17
:100FA000901206FB07FC44F100044FEA80604FEA10
:100FB0001C4C0CFB0BF7D21B03FB0CF761EB07017E
:100FC0000CFB0EF7B0EB074072EB17420CFB08F777
:100FD00034BFA2EB0742B2EB074261EB174115EBBE
:100FE0001C154FEA813141EA92414FEA823242EACE
:100FF00090424FEA80304FEA0C7644F1000448EA10
:1010000003434EEA0B484FF0000EB2EB080C71EBB5
:10101000030724BF624639464EEB0E0E4FF0000B1D
:101020000018524149414BEB0B0BB2EB080C71EB32
:1010300003077BF1000B24BF624639464EEB0E0ED0
:101040004FF0000B0018524149414BEB0B0BB2EB38
:10105000080C71EB03077BF1000B24BF6246394695
:101060004EEB0E0E51EA020718BF46F0010616EBD2
:101070000E7655F1000254F1000103D5BDE8890157
:10108000BDE80088BDE88901BDE80048B6195241B5
:1010900041EB0101A3F10103704780807F7E7D7CDD
:1010A0007B7A7978777676757473727171706F6EFA
:1010B0006E6D6C6C6B6A6A696868676666656464A5
:1010C000636362616160605F5F5E5E5D5D5C5C5B2F
:1010D0005B5A5A595958585757565655555554549E
:1010E000535352525251515050504F4F4F4E4E4DFC
:1010F0004D4D4C4C4C4B4B4B4A4A4A494949484848
:101100004847474747464646454545444444444387
:1011100043434342424242414141002B9C4630D42A
:1011200077002BD01CB54FEA370703B44FF01000FF
:101130004FF01001BAF1000F06D0BCF1000FDCBF78
:1011400040F0080040F008014FF000000FBCBDE87F
:1011500010400BF1010BBBF1010F08BF5FEA17074D
:1011600022BF12F1010211F101014FF0004143F1E0
:10117000000300F0004043EA00007047F9D357082D
:10118000D0E746EA064613F1400F4FEA16461FDD48
:1011900013F1200FDFBF16430A46002120335B42C4
:1011A000BED0C3F1200746EA064602FA07F74FEA27
:1011B000164646EA0706C3F1200722FA03F201FAAF
:1011C00007F721FA03F14FF0000342EA0702A7E70D
:1011D00046EA020646EA06464FEA164646EA01068F
:1011E000BCBF46EA0646360C4FF000034FF0000243
:1011F0004FF0000194E72DE9804C9A46934670B475
:1012000091E8380007C831EA400C48BF34EA430C83
:1012100003D5FFF7E6FDFFF780FFF0BCBDE8008CCB
:101220002DE9804C9A46934670B491E8380007C87F
:1012300010F0804F08BF13F0804F03D100F005F885
:10124000FFF76BFFF0BCBDE8008C20F07F4780EA21
:10125000030023F07F4C07EB0C03A3F57C5300F055
:101260000040A3F1FE0392F0000F00F0B38095F070
:10127000000F00F077802DE901494FEA11404FEA55
:10128000144621EA004800FB06FC24EA064708FB56
:1012900006F607FB08F800FB07F718EB06484CEBCF
:1012A000164C4FEA124B18EB07484FEA15464CEB29
:1012B000174022EA0B4E0BFB06FC25EA06470EFB05
:1012C00006F607FB0EFE0BFB07F71EEB064E4CEB7C
:1012D000164C4FF000061EEB074E4CEB174B18EB6D
:1012E0000B0840F1000018EB0E0B58EB000840F122
:1012F00000008F1A4FF000013CBFC943661B14BFAA
:10130000B5EB040C00213CBFC943F61B4FEA174460
:101310004EEA8E0E27EA04454FEA1C4704FB07629B
:101320002CEA074C05FB07F70CFB05F604FB0CFC4D
:1013300016EB074642EB174216EB0C4642EB1C42FB
:101340001BEB060658EB0202414146EA9E0601D518
:10135000BDE80189B619524141EB0101A3F1010336
:10136000BDE801894FEA14454FEA114724EA0546D2
:1013700021EA074C05FB07F406FB07F70CFB06F117
:1013800005FB0CFC11EB074144EB17444FEA1247F5
:1013900011EB0C4144EB1C4422EA074C05FB07F21D
:1013A00006FB07F70CFB06F605FB0CFC16EB0746E5
:1013B00042EB174216EB0C4642EB1C456A1854F1FF
:1013C000000148BF7047B619524141EB0101A3F13A
:1013D0000103704795F0000F37D04FEA11424FEAF2
:1013E000144721EA024624EA074C02FB07F106FBF8
:1013F00007F70CFB06F402FB0CFC14EB074441EB73
:1014000017414FEA154714EB0C4441EB1C4125EA08
:10141000074C02FB07F506FB07F70CFB06F602FB81
:101420000CFC16EB074645EB174516EB0C4645EB57
:101430001C42121951F1000148BF7047B6195241C0
:1014400041EB0101A3F1010370474FEA14454FEA54
:10145000114724EA054621EA074C05FB07F106FB84
:1014600007F70CFB06F24FF0000605FB0CFC12EB35
:10147000074241EB174112EB0C4251EB1C4148BFB4
:101480007047921841EB0101A3F101037047FEE799
:101490007047012000F09AB8022000F097B80420AD
:1014A00000F094B8082000F091B872B6FEE7000092
:1014B00070B5044600F090F90546601C02D004485F
:1014C0000078044400F088F9401BA042FAD370BDB4
:1014D000000000202DE9F041394E3A4D3A4C0128E8
:1014E0001FD0002702283BD0042854D0082835D12B
:1014F0000821304600F066F900282FD10A20FFF7B6
:10150000D7FF0821304600F05DF9002826D1206879
:1015100001F020FD216808442060296888424CDAE7
:1015200030E00121304600F04DF9002816D10A20A4
:10153000FFF7BEFF0121304600F044F918B1BDE8C5
:10154000F04101F03DBB01F043FB01F023FDC82059
:10155000FFF7AEFF01F042FC28682060BDE8F08193
:101560000221304600F02EF90028F7D10A20FFF7BB
:101570009FFF0221304600F025F90028EED12068B7
:10158000401EC9E72068002800DA27602068BDE80F
:10159000F04101F027BB0421304600F013F9002888
:1015A000DCD10A20FFF784FF0421304600F00AF95D
:1015B0000028D3D12068401CAEE72160E2E700009C
:1015C000000801404C0C0020480C0020044910B5D4
:1015D0000A68024202D00860FFF77CFF10BD0000DD
:1015E000140401402DE9F84FDFF8B8910024A9F167
:1015F000040B23460F2709F1040AABF1040EC9E0DE
:101600000125A5402A40AA427DD1674ED1F804C0E9
:10161000ACEB0608B44532D014DCBCF1030F3AD071
:1016200009DCBCF1000F2AD0BCF1010F1CD0BCF1C9
:10163000020F31D11DE0BCF1110F17D0BCF1120F18
:101640002AD119E0B8F5881F19D006DCB8F5803F1B
:1016500015D0B8F5801F1FD111E0B8F5001F0ED0CE
:10166000B8F5041F18D10AE0CB6815E0CB681B1D44
:1016700012E0CB6808330FE0CB680C330CE08B68CA
:101680002BB1012B4FF0080303D0456104E0042384
:1016900002E0056100E00023FF2A01D8064601E0D0
:1016A00000F104064FEA840501D9A5F12005D6F81A
:1016B000008007FA05FC28EA0C0803FA05F548EA59
:1016C0000508C6F800804D68ED0062D5374DAE695B
:1016D00046F00106AE61AD6924F0030605F0010590
:1016E0000095334D06EB050CDCF80850A607360FC5
:1016F00007FA06F825EA0805DFF8B880404503D167
:101700004FF0000817E044E0DFF8AC80404502D11C
:101710004FF001080FE0DFF8A480404502D14FF000
:10172000020808E0DFF89880404502D14FF0030836
:1017300001E04FF0040808FA06F848EA0508CCF87A
:1017400008804D68D9F80060ED024D4601D516437A
:1017500000E096432E604D68DAF80060AD02554611
:1017600001D5164300E096432E604D68DBF800601B
:10177000AD035D4601D5164300E096432E604D68EB
:10178000DEF80060ED03754601D5164300E0964390
:101790002E60641C0D682A46E5407FF431AFBDE839
:1017A000F88F0000080401400000111000100240F2
:1017B0000000014000080140000C01400010014001
:1017C000001401408068084000D0012070470AB131
:1017D000016170470904FBE7014880687047000019
:1017E000000000200248816802781144816070473F
:1017F00000000020074810B5016841F010010160A9
:10180000032000F075F8002000F006F800F024F83E
:10181000002010BD0020024070B50D4D04464FF46D
:101820007A712878B1FBF0F00A490968B1FBF0F051
:1018300000F0D3FC48B9102C07D200222146501EDC
:1018400000F036F800206C6070BD012070BD000013
:10185000000000200C0000200C4808B5816941F010
:1018600001018161816901F001010091C16941F0CB
:101870008051C161C06900F0805000900448416807
:1018800021F0E06141F00071416008BD00100240AC
:1018900000000140002809DB00F01F0201219140F7
:1018A0004009800000F1E020C0F8001170470000FE
:1018B000F0B40E4B1B680C46C3F30223C3F10705BB
:1018C000042D00D90425191D072901D2002300E0A9
:1018D000DB1E012606FA05F1491E214099409E4073
:1018E000761E16403143F0BC01F0B2BB0CED00E0B7
:1018F000064900F0070208684FF6FF03184040EA67
:101900000220034A10430860704700000CED00E01D
:101910000000FA05014901200862704700000E42EC
:1019200010B501460020234C012922D0022939D0CC
:1019300010291DD161682268D20119D51E48C1F352
:101940008342C903805C0AD561681B4AC1F34041E8
:10195000921E515C194AB2FBF1F1484301E018496B
:1019600048436168490203D440000321B0FBF1F011
:1019700010BD226AC2F30121012903D1920701D5CA
:10198000C80310BD022905D1626A920702D549F643
:10199000404010BD0329FCD121688903F9D54FF2DD
:1019A000244010BD00F01AF96168C1F38131491C6F
:1019B0004900DBE7001002402232000800127A00E2
:1019C00000093D002DE9F84305460078354CC00775
:1019D00054D0E0690026C00008D4E06940F080508F
:1019E000E061E069012600F0805000902E48016817
:1019F000C90512D40168804641F480710160FFF787
:101A0000EBFE074605E000BFFFF7E6FEC01B6428BB
:101A100023D8D8F80000C005F6D5206A10F440702D
:101A200021D0A98801F4407181421CD0206A1F494D
:101A3000012220F440700A6000220A602062C00780
:101A400011D0FFF7C9FE074641F2883808E000BF11
:101A5000FFF7C2FEC11B414502D90320BDE8F88350
:101A6000206A8007F4D5206A696820F44070084332
:101A700020621EB1E06920F08050E0612878800784
:101A800005D56068A96820F4404008436060287864
:101A9000C00605D56068E96820F4800008436060EE
:101AA0000020DBE70010024000700040400442428A
:101AB0002DE9F0470F46050061D0434E306800F035
:101AC0000700B84209D2306820F007003843306080
:101AD000306800F00700B84251D128683B4C8107BC
:101AE00012D5400703D5606840F4E0606060287854
:101AF000000703D5606840F4605060606068A968C2
:101B000020F0F000084360602878C00728D068689B
:101B1000012810D02168022810D0890700292EDA68
:101B2000616821F0030101436160FFF755FE8046C3
:101B300041F288390DE021688903EFE78901EDE77B
:101B4000FFF74AFEA0EB0801494502D90320BDE892
:101B5000F0876068696800F00C00B0EB810FEFD18E
:101B6000306800F00700B8420BD9306820F0070059
:101B700038433060306800F00700B84201D00120DF
:101B8000E5E72878400705D56068E96820F4E0605B
:101B9000084360602878000706D56068296920F44A
:101BA000605040EAC100606000F028F86168084AAF
:101BB000C1F30311515CC84006490860064800683B
:101BC000FFF72AFE0020C2E700200240001002407A
:101BD000323200080C0000200400002004480549AF
:101BE00000684968044AC1F3C221515CC84070478B
:101BF0000C00002000100240423200080E4A5168DA
:101C00000E4801F00C03042B11D0082B0FD10C4807
:101C1000C1F38343C903C05C0AD55168084AC1F3C4
:101C20004041921E515C054A5043B0FBF1F07047B1
:101C300004494843704700000010024000127A0037
:101C40001032000800093D002DE9F84F040070D063
:101C50002078C04DC00749D06868C0F381000128D2
:101C600007D06868C0F38100022809D16868C00302
:101C700006D52868800339D560680028E7D035E0AC
:101C80006068B0F5803F0BD010B1B0F5A02F11D037
:101C9000286820F480302860286820F4802002E042
:101CA000286840F480302860606890B1FFF794FDA8
:101CB00006460AE0286840F480202860F0E700BF6C
:101CC000FFF78AFD801B642873D828688003F7D546
:101CD0000CE0FFF781FD064605E000BFFFF77CFD45
:101CE000801B6428F0D828688003F7D420789A4EA7
:101CF00080074FF001094FF0000839D5686810F0EF
:101D00000C0F07D06868C0F38100022809D1686809
:101D1000C00306D42868800714D52069012808D19B
:101D200010E02069B0B1C6F80090FFF755FD0746F6
:101D300005E00AE1FFF750FDC01B0228C4D828685F
:101D40008007F7D52868616920F0F80040EAC100F3
:101D500028600DE0C6F80080FFF73EFD074604E06E
:101D6000FFF73AFDC01B022823D828688007F7D464
:101D7000207800072CD57948A169D9B1C0F8009026
:101D8000FFF72AFD074604E0FFF726FDC01B0228E7
:101D90000FD8686A8007F7D571484FF4FA51006888
:101DA000B0FBF1F0009000BF0098411E0091FAD204
:101DB0000EE080E0C0F80080FFF70EFD074604E06B
:101DC000FFF70AFDC01B022875D8686A8007F7D4A0
:101DD0002078400760D5E8690027C00008D4E8698A
:101DE00040F08050E861E869012700F080500090E1
:101DF0005C480168C90513D40168834641F48071C9
:101E00000160FFF7E9FC824606E000BFFFF7E4FC53
:101E1000A0EB0A0064284ED8DBF80000C005F5D519
:101E2000E06801280AD008B1052813D0286A20F0FC
:101E300001002862286A20F0040002E0286A40F0CD
:101E400001002862E06841F2883B98B1FFF7C4FCCA
:101E500082460BE0286A40F004002862EEE700BFEB
:101E6000FFF7BAFCA0EB0A0159455AD8286A800747
:101E7000F6D50CE0FFF7B0FC824605E0FFF7ACFCBE
:101E8000A0EB0A0159454CD8286A8007F6D41FB147
:101E9000E86920F08050E861E06988B36968C1F3BF
:101EA0008101022944D00228C6F8608004D0FFF7DF
:101EB00093FC044638E034E0FFF78EFC074604E06C
:101EC000FFF78AFCC01B02282BD828688001F7D4B2
:101ED000206AB0F5803F05D16868A16820F4003021
:101EE00008436860D4E908010843696821F4741163
:101EF00008436860C6F86090FFF76EFC044606E091
:101F000025E000BFFFF768FC001B022809D82868FD
:101F10008001F7D51BE000BFFFF75EFC001B022825
:101F200002D90320BDE8F88F28688001F4D40EE0C0
:101F30000128F7D06868226A00F48031914204D108
:101F4000616A00F47010884201D00120EAE70020A5
:101F5000E8E70000001002400000424280044242D4
:101F60000C0000200070004070B5040003D0607CBD
:101F7000002610B105E0012070BD2674204600F057
:101F80003DF802206074204600F00AF9042550BB99
:101F9000204600F008FD30BB2068416821F00701B1
:101FA0004160A06820B11448016821F0010101607E
:101FB0001148001F0168A26821F46071114301609B
:101FC0006068411C04D10120FFF7AAFC58B1401EF3
:101FD0002268C0F303419160216880B2C860204646
:101FE00000F0FCFC08B16574C5E7E673012060737E
:101FF000A0736074002070BD306C004008B50068AC
:10200000084988420DD1FFF785FC0748C16941F0B6
:102010000061C161C069054900F0006000900120C5
:10202000086008BD00280040001002403C04424205
:102030002DE9F0410D4604003BD0C5B3207C0128BA
:102040003AD04FF0010884F8108002206074E878DC
:1020500072B300F09FFCE073687800F09BFC607343
:10206000A87800F097FCA073C2B2617BE07B00F01F
:10207000E7FC20732870204600F0D2FC4FF4616129
:10208000B0FBF1F1002518292DD91822B1FBF2F18E
:10209000A1EB011101EB4101C1EB011100EBC116F4
:1020A0003146204600F00BFD0427C8B90BE000E0E4
:1020B00004E00120BDE8F0810220FBE7E0736878CE
:1020C0006073A878CFE7204600F0A3FC411C0AD03B
:1020D000B04208D206490144204600F0DCFC10B1B1
:1020E00067742574E5E784F8118025740020E1E722
:1020F000805101002DE9F0410D46040024D01DB3AC
:10210000207C012823D04FF0010884F810800220A1
:1021100060742878EAB100F03DFC4FF4616100FB87
:1021200001F6687800F036FCC0EB001006EB800684
:10213000A87800F02FFC35182946204600F0BFFC97
:102140000026042710BB0FE00120BDE8F08102202B
:10215000FBE74FF4616148436978C1EB011100EB83
:102160008100A9784518E7E72068416821F005015A
:102170004160204600F04DFC411C0AD0A84208D224
:1021800006490144204600F086FC10B167742674AD
:10219000DAE784F8118026740020D6E78051010028
:1021A00070B504000AD02068416821F00801416040
:1021B000FFF712FB05464FF47A7608E0012070BD68
:1021C000FFF70AFB401BB04201D9032070BD206815
:1021D00040680007F4D5002070BD10B5401EB0F176
:1021E000807F01D3012010BD4FF0E02460610F21FA
:1021F000601700F02DFF0020A06107202061002063
:1022000010BDFEE7FF20401EFDD2704710B5002034
:1022100000F0D0F8012000F0C5F8FFF7F3FF01202F
:1022200000F0C8F8BDE81040FFF7ECBF10B5012082
:1022300000F0C0F8FFF7E6FF012000F0B3F8FFF769
:10224000E1FF00F04BF8C4B2002000F0ABF82046EC
:1022500010BD70B506460024012000F0ABF8002543
:102260006006040E012000F09DF8FFF7CBFF00F0A0
:1022700035F808B1641CE4B2002000F093F8FFF7D1
:10228000C1FF6D1C082DEBDB304600F04CF82046FA
:1022900070BD000070B514460D46064600F055F8B6
:1022A000542000F023F8304600F020F800F04DF8FC
:1022B000552000F01BF809E0012D0DD05FF0000063
:1022C000FFF7C7FF6D1E04F8010BEDB2002DF3D12F
:1022D000FFF79CFF002070BD0120F1E74FF4006183
:1022E0000148FFF76FBA0000000C014070B50446CA
:1022F0000025200601D5012000E0002000F05AF85A
:10230000FFF780FF012000F04DF8FFF77BFF002072
:1023100000F048F86006040E6D1C082DE9DBBDE8EE
:102320007040FFF783BF10B5012800D0002000F0F7
:1023300041F8FFF767FF012000F034F8FFF762FF74
:10234000BDE81040002000F02DB810B5012000F0CD
:1023500031F8012000F026F8FFF754FF002000F0CC
:1023600029F8FFF74FFFBDE81040002000F01AB831
:1023700070B516460D460446FFF7E7FF5420FFF7F9
:10238000B5FF2046FFF7B2FF002404E0305DFFF701
:10239000ADFF641CE4B2AC42F8D3FFF737FF002076
:1023A00070BD000002464FF480610148FFF70FBA8C
:1023B000000C014002464FF400610148FFF707BAE4
:1023C000000C01402DE9F04385B000243E48009404
:1023D000019402940394816941F010018161816943
:1023E00001F010010491816941F02001816181694E
:1023F00001F020010491816941F00401816181694A
:1024000001F004010491816941F008018161806952
:10241000DFF8B88000F008004FF4E6550490002281
:1024200029464046FFF7D3F9DFF8A4904FF44077F0
:10243000002239464846FFF7CAF90F200090254888
:10244000CDE9010469464846FFF7CCF8C020CDE944
:102450000004694648460294FFF7C4F80095022636
:1024600001250396CDE9015469464046FFF7BAF8C5
:1024700000970396CDE9015469464846FFF7B2F844
:10248000002205210620FFF713FA0620FFF702FAC3
:10249000002205210720FFF70BFA0720FFF7FAF9C2
:1024A000002205210820FFF703FA0820FFF7F2F9C0
:1024B000002205210920FFF7FBF90920FFF7EAF9BF
:1024C00005B0BDE8F083000000100240000C0140A0
:1024D00000080140000021101CB500241B48019495
:1024E000194900940160611E41604FF48071816060
:1024F000FFF73AFD08B1FEF7D8FF21208DF8040060
:1025000040208DF805008DF80640012201A90F48F2
:10251000FFF7F0FD08B1FEF7C8FF02208DF80000BC
:1025200007208DF8010004208DF8020023208DF88B
:102530000300012269460548FFF77AFD002801D013
:10254000FEF7B3FF1CBD000000280040500C002027
:10255000FEE7FEE72DE9F04107460E014000103E80
:10256000801E15464FF0FF38F1B2C0B200F048F9B6
:102570000D48002400EB4515285D00F0F9F9641CB6
:10258000E4B2102CF8D308EB4700F1B2C0B200F06F
:1025900037F900242819007C00F0EAF9641CE4B241
:1025A000102CF7D3BDE8F0818A3800087CB50024F0
:1025B0000021204600F024F90025002000F0D8F981
:1025C0006D1CEDB2802DF8D3641CE4B2082CEFD35F
:1025D000002106484023CDE900011A46084600F0D4
:1025E00055F9BDE87C4000F0EBB800001000002079
:1025F0001CB500210548CDE9000140238022084692
:1026000000F044F9BDE81C4000F0DAB810000020EA
:1026100010B57F2811D83F290FD8CB0801F007014A
:1026200001248C40E1B2054C002A04EBC000C25CDE
:1026300001D00A4300E08A43C25410BD640C00205C
:1026400010B5064C012240212046FFF7C0F8204675
:102650000122BDE810408021FFF7B9B8000C01400D
:102660002DE9F0410024124E0746802525FA04F298
:102670003A4080213046FFF7AAF801224021304637
:10268000FFF7A5F8002240213046FFF7A0F8641CB0
:10269000E4B2082CEAD3012240213046FFF797F834
:1026A0003046BDE8F04100224021FFF790B800001D
:1026B000000C014010B50B4C012280212046FFF791
:1026C00086F8012240212046FFF781F80022802170
:1026D0002046FFF77CF820460022BDE8104040214C
:1026E000FFF775B8000C014010B5094C002280219D
:1026F0002046FFF76CF8012240212046FFF767F8DB
:1027000020460122BDE810408021FFF760B800009C
:10271000000C014010B500204FF47A720021491CD2
:102720009142FCD3401C9042F8D3FFF789FFAE20C2
:1027300000F00DF9D52000F00AF9802000F007F92B
:10274000A82000F004F93F2000F001F9D32000F0A8
:10275000FEF8002000F0FBF8402000F0F8F8A1207F
:1027600000F0F5F8C82000F0F2F8DA2000F0EFF8F9
:10277000122000F0ECF8812000F0E9F8CF2000F002
:10278000E6F8D92000F0E3F8F12000F0E0F8DB20D3
:1027900000F0DDF8302000F0DAF8A42000F0D7F8DF
:1027A000A62000F0D4F88D2000F0D1F8142000F01D
:1027B000CEF8AF2000F0CBF8BDE81040FFF7F6BE32
:1027C00070B50E4E002400BF04F1B000C0B200F09E
:1027D000BEF8002000F0BBF8102000F0B8F800258B
:1027E00006EBC500005D00F0C3F86D1CEDB2802D56
:1027F000F6D3641CE4B2082CE6D370BD640C002050
:1028000010B50C4640F0B00000F0A1F8102040EAEE
:10281000141000F09CF804F00F00BDE8104000F028
:1028200096B800002DE9F0410746CE004000083E72
:10283000801E15464FF0FF38F1B2C0B2FFF7E0FF3F
:102840001148002400EB05152819A0F5805090F8D8
:10285000000E00F08DF8641CE4B2082CF4D308EBF1
:102860004700F1B2C0B2FFF7CBFF00242819A0F552
:10287000805090F8080E00F07BF8641CE4B2082C3D
:10288000F4D3BDE8F08100004A3200082DE9FF4F83
:1028900082B08046019092460C464FF000098B466C
:1028A000580700D0012000EBD3000590002032E053
:1028B00000262BE00F98002510F8097009F101009F
:1028C0001FFA80F9F80701D0109A02E0109848B377
:1028D000002221464046FFF79BFE641C6D1C7F08CA
:1028E000EDB2E4B2082DEDD308F10100019900F03A
:1028F000FF08A8EB0101514505D10BF10800DDF8F7
:10290000048000F0FF0B761C5C46F6B25645D1D32E
:102910000098401CC0B2009005998842C8D306B008
:10292000BDE8F08F0122D4E72DE9F04115460E46AF
:102930000746002406E03019C1B23846FFF772FF9F
:10294000641CE4B22A5D002AF5D1BDE8F08110B51F
:102950000446FFF7AFFE7820FFF782FE0020FFF766
:102960007FFE2046FFF77CFEBDE81040FFF7BCBEAF
:1029700010B50446FFF79EFE7820FFF771FE402059
:10298000FFF76EFE2046FFF76BFEBDE81040FFF735
:10299000ABBE7047010901EB810100F00F0000EBB5
:1029A0004100C0B2704770B50446FEF715FF0546FA
:1029B0004FF47A7606E0FEF70FFF401BB04201D9D4
:1029C000032070BD206840688006F4D52068416807
:1029D00041F010014160002070BD000070B5044658
:1029E0000068416821F010014160FEF7F5FE0546E0
:1029F0004FF47A7607E000BFFEF7EEFE401BB042D0
:102A000001D9032070BD206840688006F4D50020FD
:102A100070BD0168086A496A89B241EA004070479E
:102A2000006881698AB2C1698BB2816989B28A42C0
:102A300003D0C06961F31F40704743EA024070470A
:102A4000F0B56424C1EBC1030927A500072603EBF9
:102A500001130329B3FBF7F100F5FA6011440144B7
:102A60000AD2401EB0FBF4F201EB9001B0FBF5F08E
:102A7000891A0844001D08E0B0FBF4F201EB900154
:102A8000B0FBF5F0891A0844801CB0FBF6F106FB98
:102A90001100C0B2F0BD70B50D4606460024FFF728
:102AA00082FF48B93168280C08623168A8B24862D0
:102AB0003046FFF793FF00B10124204670BD70B58A
:102AC0000D4606460024FFF76EFF48B93168280C12
:102AD00088613168A8B2C8613046FFF77FFF00B156
:102AE0000124204670BD7047FEF77CBE70B594B0DF
:102AF00028216846FDF7DEFC14210AA8FDF7DAFC60
:102B000000250F950920012410950090119512952C
:102B10004FF4803004940694CDE901050226CDE9F6
:102B200007604FF4E01009906846FFF78DF808B190
:102B300072B6FEE70F20CDE90A064FF48060CDE9BA
:102B40000C5002210AA80E95FEF7B2FF08B172B62A
:102B5000FEE74FF40070CDE90F400FA8FEF732FFFB
:102B6000002801D072B6FEE714B070BD704708B5FA
:102B700081208DF8000000208DF801006A460221B6
:102B80002920FFF7F5FB00F001F808BD01225102F2
:102B90000148FEF71CBE00000008014008B58C206B
:102BA0008DF800006A4601212920FFF7E1FB6A4603
:102BB00002212920FFF76EFBBDF8000008BD0000D0
:102BC00000224FF480710148FEF701BE0008014069
:102BD000012211020148FEF7FABD00000008014081
:102BE000FEE700002DE9F041704D044692B02868E0
:102BF000844200DB0446002C00DA0024FFF7D6FCF8
:102C0000FFF7DEFD022211460120FFF7A3FC03229D
:102C100011460120FFF79EFC65A20A210120FFF763
:102C200083FE3C22644902A8FDF712FC2868634D2C
:102C30000DF11C082E1D02286EDB0CAF022C1FDBD1
:102C400005EB840656F8080D00F05AFACDE90001AC
:102C5000A21E5BA102A8FDF7E7FA706800F050FA27
:102C6000CDE90001621E56A14046FDF7DDFA55F898
:102C7000240000F045FACDE90001224653A120E0EE
:102C8000012C2FD055F8240000F03AFACDE90001CC
:102C900022464EA102A8FDF7C7FA05EB8405686835
:102CA00000F02EFACDE90001621C45A14046FDF777
:102CB000BBFAA86800F024FA14F10202CDE9000181
:102CC0003FA13846FDF7B0FA02AA01210220FFF722
:102CD0002BFE424601210320FFF726FE01213A4642
:102CE000042029E03548006800F00AFACDE9000127
:102CF000002233A102A8FDF797FA686800F000FAF5
:102D0000CDE90001224631A14046FDF78DFA7068F9
:102D100000F0F6F90222D1E7012812D055F824007C
:102D200000F0EEF9CDE90001224628A102A8FDF746
:102D30007BFA02AA01210220FFF7F6FD12B0BDE8DE
:102D4000F081012C1FD055F8240000F0D9F9CDE90D
:102D5000000122461DA102A8FDF766FA05EB8400DA
:102D6000406800F0CDF9CDE90001621C14A1404695
:102D7000FDF75AFA02AA01210220FFF7D5FD012131
:102D800042460320D8E70D48006800F0B9F9CDE9C4
:102D9000000100220AA102A8FDF746FA686800F0C7
:102DA000AFF9CDE90001224608A1E0E74C0C002074
:102DB00063642F6D32000000883B0008641000201F
:102DC0002532642E2020252E326600002D3E25322D
:102DD000642E2020252E3266000000002DE9F041EF
:102DE0004F4C92B02068401C2060002801DC00207D
:102DF00002E0622801DB62202060FFF7D7FBFFF7CB
:102E0000DFFC022211460120FFF7A4FB032211463A
:102E10000120FFF79FFB43A20A210120FFF784FD59
:102E2000434D2168414845F82100FFF7B7FE00F007
:102E300093F9266880463C2245F826003D4902A8C1
:102E4000FDF706FB07AF022E35DB05EB860050F8D9
:102E5000080C00F055F9CDE90001B21E36A102A818
:102E6000FDF7E2F9266805EB860050F8040C00F047
:102E700047F9CDE90001721E2FA13846FDF7D4F9BC
:102E8000246855F8240000F03BF9CDE90001224602
:102E90000CA82CA10446FDF7C7F902AA01210220C3
:102EA000FFF742FD3A4601210320FFF73DFD0121D6
:102EB000224604200EE0012E11D0404600F020F9F9
:102EC000CDE9000132461FA102A8FDF7ADF902AA23
:102ED00001210220FFF728FD12B0BDE8F08114485F
:102EE000006800F00DF9CDE90001002212A102A84E
:102EF000FDF79AF9246855F8240000F001F9CDE9AE
:102F0000000122460FA13846FDF78EF902AA0121E1
:102F10000220FFF709FD01213A460320DAE700000D
:102F20004C0C002063642F6D320000000000C8428A
:102F3000641000204C3B00082532642E2020252EF2
:102F4000326600002D3E2532642E2020252E32666A
:102F5000000000000D490FE0622805DA01EB800255
:102F6000526841F8202005E004D14FF00000C1F87C
:102F7000880103E000F101006328EDDB04480168EB
:102F8000491E01604FF0FF307047000064100020C0
:102F90004C0C002010B5FFF709FBFFF711FC0221D4
:102FA0000A220846FFF7D6FA0B2203210220FFF778
:102FB000D1FA152204210220FFF7CCFA0A21BDE83C
:102FC000104002A20220FFF7AFBC00002E2E2E0000
:102FD00010B5042203210220FFF7BCFA05220621C6
:102FE000BDE810400220FFF7B5BA00001CB5FFF79E
:102FF000DDFA01210A48CDE90001402300211A46EB
:103000000846FFF743FC002106484023CDE90001B4
:103010001A461846FFF73AFCBDE81C40FFF7D0BB44
:1030200008080020480A0020490050EAC12018BFC3
:1030300004204A0D18BF40F0010040F2FF72B2EBCD
:10304000515F08BF40F00200012808BF052070470B
:103050000907090E002804DB00F1E02080F80014C5
:10306000704700F00F0000F1E02080F8141D704759
:1030700030380A2801D20120704700207047FEF73F
:10308000B9FBFFF733FD00221146501EFEF710FC7E
:10309000FFF798F9FFF720FAFFF769FDFFF73AFB12
:1030A000FFF765FDFFF7A2FF4FF49670FEF700FAF9
:1030B000FFF79EFAFFF78CFF4FF4FA70FEF7F8F96E
:1030C000FFF78CFEFEE7000010B500290AD0087853
:1030D000002807D005487844FDF7CAFD002801D034
:1030E000002010BD0248784410BD0000B60B00005F
:1030F000AE0B00000808A0F500114FEA310170473F
:1031000043004FEAD30C4FEA3C0C43401FBF40073B
:103110000CF1605113F0FE4F70471CF0006F03D1AB
:1031200000200CF0004170470CF0004343EA50705F
:1031300010B540EACC0000F022F800BF0000009279
:103140004FEA0001FFF7D6BF4FF000414FF00000FB
:10315000A1F5002170470000B0FA80F310FA03F2E5
:10316000C3F19D030AD0D90501EB1220530638BFE5
:10317000704700F1010008BF20F0010070470EF118
:10318000020E2EF0030E5EF8044B244204D44FEAE4
:103190004102B2F17F4F11D84FEA4003B3F17F4FA4
:1031A0000CD80ED14FEAD07CB2F17F4F0CEB4C0C17
:1031B0000CF1020C08BF4CEBD17C04E04FF0080C82
:1031C00001E04FEAD17C0CEB4C0324FA03F404F049
:1031D0000704B4F1040C06D20EEB840CBDE81040D9
:1031E0004CF0010C6047DFE80CF0070802024FF0DA
:1031F0000040A0F5800010BD0846420018BFD2F183
:10320000807288BF00F0004010BDFDF7AFBA010228
:1032100002030405060708090A0B0C0D0E0F101017
:10322000010202030405060708090A0B0C0D0E0F24
:103230001010000000000000000001020304060757
:103240000809000000000102030400000000000063
:1032500000000000000000000000000000F8000076
:103260000000000000333000000000100C06100CBD
:103270000600000000000000000040C07840C07858
:103280004000043F04043F040400007088FC083040
:103290000000001820FF211E0000F008F000E018D8
:1032A000000000211C031E211E0000F00888700091
:1032B00000001E2123241927211010160E000000E3
:1032C00000000000000000000000000000E0180402
:1032D0000200000000071820400000020418E0006F
:1032E00000000040201807000000404080F08040AF
:1032F00040000202010F01020200000000F0000085
:1033000000000101011F0101010000000000000098
:10331000000080B07000000000000000000000000D
:103320000000000101010101010100000000000096
:10333000000000303000000000000000000080604D
:103340001804006018060100000000E010080810D2
:10335000E000000F102020100F00001010F80000F7
:1033600000000020203F202000000070080808888E
:10337000700000302824222130000030088888485E
:1033800030000018202020110E000000C02010F88E
:10339000000000070424243F240000F8088888085F
:1033A00008000019212020110E0000E01088881864
:1033B0000000000F112020110E0000380808C83846
:1033C00008000000003F0000000000708808088826
:1033D0007000001C222121221C0000E010080810AF
:1033E000E0000000312222110F00000000C0C000E8
:1033F00000000000003030000000000000800000ED
:1034000000000000806000000000000080402010EC
:1034100008000001020408102000404040404040E5
:103420004000040404040404040000081020408048
:10343000000000201008040201000070480808087D
:10344000F0000000003036010000C030C828E8104D
:10345000E0000718272423140B000000C038E00008
:103460000000203C23020227382008F88888887052
:103470000000203F202020110E00C030080808085E
:103480003800071820202010080008F80808081045
:10349000E000203F202020100F0008F88888E8086E
:1034A0001000203F20202320180008F88888E80812
:1034B0001000203F200003000000C030080808383A
:1034C000000007182020221E020008F8080000084B
:1034D000F808203F210101213F20000808F80808D2
:1034E00000000020203F2020000000000808F8080D
:1034F0000800C08080807F00000008F888C028187D
:103500000800203F20012638200008F808000000AD
:103510000000203F20202020300008F8F800F8F8B4
:103520000800203F003F003F200008F830C000089E
:10353000F808203F200007183F00E0100808081096
:10354000E0000F10202020100F0008F808080808DD
:10355000F000203F210101010000E01008080810E0
:10356000E0000F18242438504F0008F88888888815
:103570007000203F2000030C3020007088080808ED
:1035800038000038202121221C00180808F80808FB
:1035900018000000203F2000000008F80800000884
:1035A000F808001F202020201F000878880000C88D
:1035B0003808000007380E010000F80800F800087D
:1035C000F800033C0700073C030008186880806887
:1035D000180820302C03032C30200838C800C838C5
:1035E00008000000203F2000000010080808C8382C
:1035F00008002038262120201800000000FE0202CA
:1036000002000000007F40404000000C30C000007D
:103610000000000000010638C00000020202FE00A7
:103620000000004040407F00000000000402020251
:103630000400000000000000000000000000000086
:103640000000808080808080808000020204000072
:10365000000000000000000000000000808080806A
:1036600000000019242222223F2008F80080800058
:103670000000003F112020110E000000008080801B
:103680000000000E11202020110000000080808822
:10369000F800000E112020103F2000008080808064
:1036A0000000001F222222221300008080F0888860
:1036B00088180020203F20200000000080808080AB
:1036C0008000006B94949493600008F800808080E0
:1036D0000000203F210000203F200080989800003B
:1036E00000000020203F202000000000008098986B
:1036F000000000C08080807F000008F8000080800B
:103700008000203F24022D302000000808F800002F
:1037100000000020203F20200000808080808080EA
:103720008000203F20003F20003F8080008080807C
:103730000000203F210000203F200000808080808A
:103740000000001F202020201F00808000808000BB
:10375000000080FFA12020110E000000008080806A
:103760008000000E112020A0FF80808080008080DB
:10377000800020203F212000010000008080808008
:1037800080000033242424241900008080E08080FD
:1037900000000000001F202000008080000000804A
:1037A0008000001F202020103F20808080000080AB
:1037B000808000010E3008060100808000800080BB
:1037C00080800F300C030C300F0000808000808060
:1037D00080000020312E0E3120008080800000808B
:1037E000808080818E70180601000080808080803B
:1037F00080000021302C2221300000000000807C5D
:10380000020200000000003F404000000000FF00F6
:10381000000000000000FF0000000002027C8000A9
:1038200000000040403F00000000000601010202CD
:103830000404000000000000000080F00E603ED094
:103840003000015F300F403F060800FC906000F43C
:103850000C0040271E21417F010100FC40FE40FC7E
:103860004000007F405F484F4040003C54D4FC542F
:103870003C000044330E003F020080F00E603ED05A
:1038800030000000000000000000000000FE828206
:103890008282828282FE00000000000000FF404021
:1038A0004040404040FF000000000004FF2424246A
:1038B000FF0400FE222222FE000088482F09091979
:1038C000AF48300F0242827F00004040424458C05F
:1038D000407F40C05048464040008080402018074C
:1038E0000000003F40404040780002E222223E00BB
:1038F000809E9292F292929E8000004382423E40CD
:10390000474444447F444454E700008060F8074043
:1039100020180F08C80808281800010000FF001030
:103920000C0340807F00010618001010F01F10F0FB
:1039300000808282E2928A86800040221508166109
:10394000000040807F000000000004244484649C48
:1039500040300FC808082818000010080601824CE3
:1039600020180601061820408000404042CC00008C
:10397000FC040200FC0404FC00000040201F204066
:103980004F4442407F42444340008060F80704E4D3
:10399000242424FF242424E404000000FF00808168
:1039A0004529112F4141818180000000FE22222201
:1039B00022FE22222222FE00000080601F0202025C
:1039C000027F020242827F0000001060028C00FE33
:1039D00002F202FE00F800FF000004047E018047AE
:1039E000300F10270047807F0000202020BEAAAAA9
:1039F000AAAAAAAAAABE20202000008080AFAAAA54
:103A0000AAFFAAAAAAAF80800000404042CC004092
:103A1000A09E8282829EA02020000000003F90880D
:103A200040432C10284641808000001715D555577B
:103A3000557D555755D5151700004040407F5555C9
:103A400055555555557F40404000002018C7444407
:103A50004444FC44444444040000040404070404B3
:103A60000404FF04040404040400000000FE2222F5
:103A7000222222222222FE0000008040300F020279
:103A80000202020242827F000000000000FE8282E9
:103A90008282828282FE00000000000000FF40401F
:103AA0004040404040FF0000000000FC848484FC53
:103AB000001010101010FF101000003F1010103FE9
:103AC0000000010640807F00000080402090888632
:103AD000808080838C102040800000804020180768
:103AE000004080403F0000000000008060F80710A8
:103AF0001010D0FFD01010101000010000FF1008AF
:103B0000040300FF00030408100000F801424042D3
:103B100042FA4242424202FE000000FF0008040254
:103B2000013F01020448807F00000000F0101010E7
:103B300010FF10101010F000000000000F0404042B
:103B400004FF040404040F000000000020202020D3
:103B50002020202020202020202000000000000025
:103B60002020202020202020202020202020000095
:103B700000000000202020202020202020202020C5
:103B800020200000000000002020202020202020F5
:103B900020202020202000000000000020202020E5
:103BA00020202020202020202020000000000000D5
:103BB0002020202020202020202020202020000045
:103BC00000000000040000080000000000000002E7
:103BD000000100001000000002400000000000A0F2
:103BE0000000000005400000000000C800000000C8
:103BF0000C4000000000409C000000001940000044
:103C00000020BCBE0000000034400000BFC91B8E75
:103C100000000004B5400000504BCFD06607E2CF53
:103C2000010000006C4100003E8251AADFEEA73483
:103C300001000000D9420000DCB5A0E23A301F9735
:103C4000FFFFFFFFB4450000FD25A0C8E9A3C14F59
:103C5000FFFFFFFFFF3F00000000008000000000AA
:103C6000FF3F00000000008000000000A83C0008AA
:103C700000000020500C0000280100086C420008E1
:103C8000500C0020000C0000840100081C00000003
:103C900043000000F8FFFFFF0C0000000E000000D2
:103CA0000F0000002E000000320182101324F40ADD
:103CB000FDFF0109FD0109FD0109FD011901C158BF
:103CC0000B80C0E0E0F0F8F8FCFCFE011CFCFCF806
:103CD0001019010719F0E0E0C0C08019396CF0FC40
:103CE000FE532F7F3F1F1F1F3F011907AA7F6D390A
:103CF00051194BB94A7BC0F83A29012D2760604021
:103D0000211E80C0C06020010A132FB784FCF0E0A0
:103D10001A076C19746008FFDF0F071F1F1D1503BA
:103D2000FEFE033C1C3C180CCA0F855901B23F1B18
:103D30003FFFE7181FF3E6CC081830F070B898186A
:103D40000C0F0D0D0F0C9CB8B0F030303038188CC3
:103D5000E6E3F1011809F3E38303030787FFDEE3DA
:103D60000F072009071F376FCF8F070118100106B3
:103D70000C0919191313131119090D0403122982BF
:103D800019A3C0153F3F1F0F87C0F0FC3F33E2620D
:103D9000D29ACCC4C8D8B0C028090C9FFFFEFCF84A
:103DA000F0E0011AF08F6DFCFCFCF801801B7878C4
:103DB000B8B8783CFCFEF3E1C0F80E0301FC8701C3
:103DC000030618F18103C7302BE0FCD41809F881F1
:103DD00087FFFFF7CFBF0B1813BFFFDFFFEFFFF326
:103DE000FFFBF9FDFEFEFFFF8781C00639241C8022
:103DF000808005071340403D1F0C03191F180BC09E
:103E0000C0E060607030707060012EE070381C0C93
:103E100001080C101C181838307060C0C080803544
:103E20001AC0273809381C0E0607030301F451197C
:103E3000EF4CFCECF0CB2CF0E0C038380A808183EA
:103E400003070E1C38700F280980C0F0783C0E075D
:103E50000333E4F0F838480AF8FFFF3331313060BB
:103E60006039300DC3E77FFEF88103071E7CF0C088
:103E700014010F0F1C0F1F312539705BFFFFCD1B85
:103E8000F0F0C02008F8F870707F7F7F1B10780179
:103E90002D03FFFEFF63380D0307077E7EFE7E3F86
:103EA000CFFFFCF07E281D80C0C7DFDCD8FCFCFE05
:103EB0000E0FFFFEF0F0F070787F7F3F3F39010179
:103EC000030706F01C98F878D510180F0F0D0F0F88
:103ED0000E0C1CB8F8F818080C8663311818010F7E
:103EE000FFF9681A19193938383919181FBFFCF049
:103EF000E1C68C889C9C949C98D8CCC7C001301299
:103F0000C3C78F9F9EB6B6A62626263637131B0F2D
:103F100007100A838ED0E0F0B81F0F011C06060EB2
:103F20005519661AFF7439010C187F7FFF012AFEAC
:103F3000011AFFD5192914FFDF04160E0C0C08080E
:103F40001E080808090F011A0E0129102808010788
:103F50000F0B0B0B070129173B0F0F0B1913180B36
:103F60000B0D07030108080C0C0ED0D209F02B80B2
:103F7000C0C06070309898ECCCCE060626A3FBB388
:103F8000FFA383830323E3FB6BFB4B060606CC8C6A
:103F9000EC9858307060C0C080583780C0F0381C32
:103FA0000E07A3E9D0F8606081CDE76F3E121A18C2
:103FB0000D0F0D070484E4C40404050C0F08181841
:103FC0003F3767FFD9812020A8F0317B0F0E1C38C6
:103FD000E0474012C0F83E07011C5E787E7E8CE010
:103FE000FB3D0E070135E0F0D8842A3EF1323C3526
:103FF00084F8F0E010130103070E3DFBE0B8243E07
:104000007E5C7E3F173EF8C03BFEFF31194894FEB0
:10401000FFFF8015FFF7CF9F1F3F7EFEFC0131FCA5
:10402000FE3E3F9F8FCFF7FD7501FFFFFC5E03FF54
:10403000FC7FFFCE6E077FFFFFE0DA1CE1F7DF4079
:10404000680F7FFDFC3070FCFF3E3F1F8FFFF3C009
:10405000ED75F0FFFF7F14C0FF3F180D031F7CE0DC
:1040600080041C7E58F0C38F731CFCF0E0DA180F3C
:1040700083070F1F3F3E7FFDF8F0F0F8FD7E4110F3
:10408000130F078380C0E0F0F8FC7E3F1F87C1F06C
:10409000AA6E084EC0F07C0F0392483603071C3806
:1040A00071E3C98D1B2E1C78F163E7CFCF9F9F1F53
:1040B0000E0E067E537970597B337E0E0E0E9F9F37
:1040C0009FCFC7E763F1383C3E1E8DC3E370381EB7
:1040D000073CB1002B4B010103060E0C1C193933B0
:1040E0003363636767C1C0CCC7CECECECCCFC7C069
:1040F000C063666763333119191C0C06070301019D
:10410000FAFF01280A7F7F3F3F9F9FDFDFCF012A11
:10411000EF01080C10CF0F0F1F9F1F9F3F3F7F7FA6
:104120002F793718133F0FC7E7E3F9683C38138F2F
:10413000CDC7E36363733101C819B1F93931F9FCB3
:10414000FEFF6363E7C7CF8F1F1E3479F1F3E7CF1C
:104150001F3F4910123F0FC3C0BCBE3B1F86E1F09A
:10416000381C06030301180880C0E0F0F804FE1CA8
:1041700049A34168120103070E1C38F1E3830F1FA6
:10418000DECC40030F3F3F1201700AFCFFFFCF015E
:10419000E0FE3F032B80C1182A38052B1E0E066651
:1041A000EEFEFE7C1815037FFC801516FEFEFE5AFF
:1041B000034021194B47FE800FFFF8802E387EFF09
:1041C000FFE3182A86052BCFC7065EF1F170703029
:1041D0005C14FCFF0719234A3F9A2901180FF0C00D
:1041E0003078F8FC7C7C338FDC78E0C0451C01C162
:1041F000DF012AC3053AC10B3BC0C03B680FC0605A
:10420000B89EAF7B7CEEFCF870B8C0F83F2901A8DF
:1042100032FEFDF1ECCFBFBF1F0E6773FBFFF73619
:104220008DCDD9F9D9D1313131B1F0F131D0D9D9E0
:10423000F92D0E76FFFF7DF0CFCF138F9EDAE0F1E0
:10424000FDFE3DA948E820FCFCFBF9F0F0F3EFEFA0
:10425000EBFFE0E0C2DFDFC7C3E0E0ECE7E7F4F646
:0C426000F0F9FBFBFCFC384129080000D1
:04000005080000ED02
:00000001FF
