:020000040800F2
:1000000060180020E9010008472300089321000838
:1000100045230008AF140008D12D0008000000009F
:10002000000000000000000000000000A92A0008F5
:10003000B11400080000000097270008AB2A000850
:10004000030200080302000803020008030200087C
:100050000302000803020008B314000803020008AA
:10006000030200080302000803020008030200085C
:10007000030200080302000803020008030200084C
:10008000030200080302000803020008030200083C
:10009000030200080302000803020008030200082C
:1000A000030200080302000803020008030200081C
:1000B000030200080302000803020008030200080C
:1000C00003020008030200080302000803020008FC
:1000D00003020008030200080302000803020008EC
:1000E00003020008030200080302000800F002F8FF
:1000F00000F06AF80AA090E8000C82448344AAF158
:100100000107DA4501D100F05FF8AFF2090EBAE855
:100110000F0013F0010F18BFFB1A43F0010318473B
:100120006C5400008C5400000A444FF0000C10F88E
:10013000013B13F0070408BF10F8014B1D1108BF65
:1001400010F8015B641E05D010F8016B641E01F805
:10015000016BF9D113F0080F1EBF10F8014BAD1C55
:100160000C1B09D16D1E58BF01F801CBFAD505E073
:1001700014F8016B01F8016B6D1EF9D59142D6D3CD
:10018000704700000023002400250026103A28BFF5
:1001900078C1FBD8520728BF30C148BF0B607047F9
:1001A000662904F02184642900F07A8000207047D9
:1001B0001FB500F03BFC04000020002103F0E8FC28
:1001C000E0601FBD10B510BD00F034FD1146FFF713
:1001D000EFFF02F08DFF00F052FD03B4FFF7F2FFD6
:1001E00003BC00F095FD000009488047094800471E
:1001F000FEE7FEE7FEE7FEE7FEE7FEE7FEE7FEE7D7
:10020000FEE7FEE704480549054A064B7047000033
:100210002F2B0008ED00000860120020601800205D
:1002200060140020601400200FB41CB5074B06AA10
:100230007B4469460090059800F0DFFB002069468A
:1002400000F0EEFB1CBC5DF814FB0000ED070000A5
:1002500070B5044685690068C10601D5302600E006
:100260002026C00707D070BDD4E901213046904751
:10027000206A401C20626D1EF6D570BD70B5044624
:1002800085690078C00707D170BDD4E9012120201D
:100290009047206A401C20626D1EF6D570BD00009C
:1002A0002DE9F0410646002410687529314616A54F
:1002B00010D0AFF30080002802DA404213A507E017
:1002C00031688A0701D512A502E0490704D511A5B6
:1002D000012401E0AFF3008000210A2206F1240787
:1002E00009E0B0FBF2FCB0FBF2F302FB1C00303083
:1002F00078541846491C0028F3D123462A46304634
:10030000BDE8F04100F00BB9000000002D00000036
:100310002B000000200000002DE9F05F8946044614
:100320004FF0000ADFF824B1FB44C0F820A02046BB
:10033000E168884700287DD0252806D0D4E901212E
:100340009047206A401C2062F1E700255F46204666
:10035000E16888472028064607DB312E05D2B81908
:1003600010F8200C08B10543F1E7A80701D525F0E6
:100370000405C4F81CA00027C4F818A02A2E09D030
:10038000304602F0A3FE38B304EB8708303EC8F8CD
:10039000186019E059F8041B204604EB87029161AC
:1003A000E1688847012F064618D1E069002820DA65
:1003B00025F020051DE0D8F8180000EB800006EBC2
:1003C00040003038C8F818002046E16888470646E3
:1003D00002F07CFE0028EED1012F0AD02E2E08D18B
:1003E0002046E16888477F1C0646022F45F020051D
:1003F000C4DBA069002803DA404245F00105A06192
:10040000E80701D025F01005A6B1A6F14100192892
:1004100002D8203645F400654A463146204625601C
:100420004D46FFF7BDFE60B1012807D0ED1D25F058
:10043000070000E007E000F1080978E705F104098A
:1004400075E730467AE7206ABDE8F09F2851000042
:1004500010B5203AC0F00B80B1E81850203AA0E85F
:100460001850B1E81850A0E81850BFF4F5AF5FEA93
:10047000027C24BFB1E81850A0E8185044BF18C946
:1004800018C0BDE810405FEA827C24BF51F8043BED
:1004900040F8043B08BF7047D20728BF31F8023B41
:1004A00048BF11F8012B28BF20F8023B48BF00F8D5
:1004B000012B70474FF0000200B513469446964654
:1004C000203922BFA0E80C50A0E80C50B1F1200167
:1004D000BFF4F7AF090728BFA0E80C5048BF0CC015
:1004E0005DF804EB890028BF40F8042B08BF704773
:1004F00048BF20F8022B11F0804F18BF00F8012BE5
:10050000704770477047704710B500F093FA006865
:1005100010BD10B5044600F08DFA046010BD2DE941
:10052000F0470D4699469246044600F124080168BA
:10053000880604D5E06921F01001216000E0012067
:10054000A84201DD471B00E00027A1697A1902EBF0
:100550000900081AA0612078C00602D42046FFF7DF
:1005600077FE002608E0D4E901211AF8060090473A
:10057000206A401C761C20624E45F4DB2078C006C1
:100580000AD52046FFF764FE06E0D4E901213020B9
:100590009047206A401C2062381EA7F10107F4DC56
:1005A00007E0D4E9012118F805009047206A401CB3
:1005B0002062281EA5F10105F3DC2046FFF75EFE50
:1005C0002078000602D50220BDE8F0870120FBE775
:1005D00070472DE9FF4F0C461E464FF0FF378BB09A
:1005E000D2E90001DDF860800A908A46C1F30A551D
:1005F00005B93D46002108464FF00000BAF1000F52
:1006000000F4400005DA00EB80004FF4400101EAFD
:1006100050004FEA9059B9F1010F00DDB9460A9830
:1006200050EA4A000ED044F61050A5F2FF3545437B
:100630002F14B8F1000F1ED07542291E1EDDC9F11E
:1006400000021CE0B8F1010F4FF0000001D0302192
:1006500003E0F24305E02154401CB042FBDB30468E
:100660000022002121540B99C1F80880C1E9002023
:100670000FB0BDE8F08FBD1B6D1CDEE74A4600DA07
:10068000694206A800F060FA06AB93E8070003ABE6
:1006900083E8070050460A9900F041FB8DE8070007
:1006A000A0F500501F3800900398002D0ADD42F29B
:1006B0001F014A460844002303A90390684600F03E
:1006C000AAFD09E0A0F500504A461F38002303A9FF
:1006D0000390684600F0B4FD8DE807000004000CAC
:1006E00003D04FF0FF30410800E01046B8F1000F92
:1006F00003D00022009215461EE0751E05D400F0BE
:100700009DF9303262556D1EF9D5B346012208437A
:1007100002D000227F1C04E02078302801D1002282
:100720007F1E002A099784D01DE0112D07DA00F002
:1007300085F9303262556D1C50EA0102F5D108434B
:1007400002D00098C8B10EE00021681E05E0235CCD
:10075000625C63542254401E491C8142F7DBAB4665
:10076000A81B401E0990002004F80B000B98099A62
:10077000C0F80880C0E9002B7AE711264FF0000886
:1007800057E72DE9F04F88460446D21D22F00701B5
:1007900091B0D1E90001CDE90A0102F0FDFB02466A
:1007A0000B98C00F01D02D2007E02068810701D5EC
:1007B0002B2002E0202101EAC000032A099001D089
:1007C000072A05DB03464146204600F07DF90BE190
:1007D0002078800601D5E06900E00620B8F1650FB9
:1007E000814606D0B8F1660F18D0B8F1670F70D106
:1007F00031E00020B9F1110F009001DB112301E07D
:1008000009F101030AAA01A90CA8FFF7E2FEDDE93C
:100810000C70002609F10105834647E001204B4694
:1008200000904FF000470AAA01A90CA8FFF7D1FEDB
:10083000DDE90DB00C995D46002610B909F1010003
:100840000D18B9EB050003D4C0F1FF3609F101051D
:10085000A5EB09002BE0B9F1010F01DA4FF0010916
:100860000020B9F1110F0090484601DD112300E08E
:1008700003460AAA01A90CA8FFF7ABFEDDE90C703C
:100880004D4600268346207800070AD4AB4500DA9F
:100890005D4601A8012D04DD411911F8011C302924
:1008A00007D04F4502DA17F1040F04DA012082461F
:1008B0000FE06D1EEEE7002F02DCED1B3E4403E06F
:1008C000781CA84200DD7D1CB81B00F1010A4FF026
:1008D00000472078000703D4AA4501DB4FF0FF3A18
:1008E0000021B7F1004F0DF143088DF8431024D0DB
:1008F00002202B23002F01DA7F422D230A21021E22
:10090000A0F1010000DC5FB197FBF1FC97FBF1F275
:1009100001FB1C7C17460CF1300C08F801CDEEE70A
:10092000A8F1010003702188090501D5452100E0E7
:100930006521A0F1010800F8011C09980FA9A1EB9D
:100940000807FF1D00B10120411901EBEA70A16900
:100950003844081A401EA0612078C00602D4204600
:10096000FFF776FC099828B1D4E901219047206A65
:10097000401C20622078C00622D52046FFF768FC84
:100980001EE0002E04DBB34502DD01A8805D00E01F
:100990003020D4E901219047206A401C2062761C57
:1009A000AAF101005FEA000A0AD100F03FF8C0682E
:1009B0000168405CD4E901219047206A401C206214
:1009C000281EA5F10105DCDC07E0D4E9012118F8B7
:1009D000010B9047206A401C2062381EA7F10107D6
:1009E000F3DC2046FFF74AFC032011B041E600008B
:1009F00001694A1C02610878704700B58FB0CDE9E3
:100A000001310021059105497944CDE903101146D2
:100A10006846FFF781FC0FB000BD0000E5FFFFFF57
:100A20000A6802F8010B0A6070470000004870472E
:100A300020120020004870470012002030B5B0F1AD
:100A40000A024FEA900E71F100034EEA817EB0EB8C
:100A50000E0061EB91014FEA101E4EEA017E10EB91
:100A60000E0041EB11114FEA102E4EEA016E10EB11
:100A70000E0041EB11214FEA104E4EEA014E10EBF1
:100A80000E0041EB1141401841F100014FEAD00046
:100A900040EA41704FEAD10110EB80054FEA810432
:100AA00044EA907444EB01046D1944EB0404521BB6
:100AB000A3414FF0000348BF0A3200D530BD401CAF
:100AC00041F1000130BD00002DE9F0411F46044610
:100AD00003260168072A01F4006004DB08B116A5AB
:100AE00005E016A503E008B115A500E015A521F065
:100AF00010002060A069C01EA0610FB1401EA0615F
:100B00002046FFF7A5FB4FB1D4E9012138469047B5
:100B1000206A401C2062C01C206206E0206AFAE7BE
:100B2000D4E9012115F8010B9047761EF8D2204632
:100B3000FFF7A4FBBDE8F0814E414E006E616E00F0
:100B4000494E4600696E66002DE9F047814616461B
:100B50008AB0354878440DC88DE80D003248784495
:100B6000801C03AC0DC884E80D0041F69B3008449E
:100B7000372190FBF1F290FBF1F5A5F1800501FB27
:100B800012041B3C02D56442012000E00020DFF883
:100B900098A080460027FA44AAF1BE0A0EE0E007BA
:100BA0000AD03246684607EB470101230AEB810170
:100BB00000F046FB8DE8070064107F1C002CEED18E
:100BC000194F7F44AE3F19E0E80715D007EB04103A
:100BD0000DF1180A90E80E008AE80E00C068F04295
:100BE00001D1981908903246012306A903A800F004
:100BF00027FB03AB83E807006D10641C002DE3D1D5
:100C00004FF0010332466946B8F1000F03A802D045
:100C100000F001FB01E000F013FBC9E90001C9F895
:100C200008200AB0BDE8F0871C4A00000048704761
:100C3000001200207546FFF7F9FFAE460500694631
:100C4000534620F00700854618B020B5FFF7DAFAC2
:100C5000BDE820404FF000064FF000074FF00008BD
:100C60004FF0000B21F00701AC46ACE8C009ACE83E
:100C7000C009ACE8C009ACE8C0098D46704710B5A2
:100C80000446AFF300802046BDE81040FFF7A5BA48
:100C90004FF0013C50F8042B51F8043B9A4221D10B
:100CA000A2EB0C03934313EACC1317D150F8042B97
:100CB00051F8043B9A4215D1A2EB0C03934313EA7B
:100CC000CC130BD150F8042B51F8043B9A4209D1B4
:100CD000A2EB0C03934313EACC13DBD04FF00000DC
:100CE000704700BFD01A01BAB1FA81F101F01801C2
:100CF00022FA01F0CB40C1F12001DBB2C0B2C01A30
:100D00002CFA01F3D11A914311EAC311E6D17047CD
:100D100001491820ABBEFEE72600020070475FEADB
:100D2000400C08BF91F0000F4FEA8C234FEAC1221C
:100D300043EA51514FEA1C5018BF00F5F0404FEA0A
:100D4000300018BF41F000415FEA6C5C00F0298080
:100D5000BCF1FF3F08BF40F080407047130C06BF56
:100D600012044FF0100C4FF0000C130E04BF1202CF
:100D70000CF1080C130F04BF12010CF1040C930FBB
:100D800004BF92000CF1020CD30F04BF52000CF10F
:100D9000010C11464FF00002A0F11F00A0EB0C0067
:100DA000704711F0004F08BF704731F000413FF429
:100DB000D5AF0B0C06BF09044FF0100C4FF0000C20
:100DC0000B0E04BF09020CF1080C0B0F04BF090144
:100DD0000CF1040C8B0F04BF89000CF1020CCB0F3B
:100DE00004BF49000CF1010CCCF12003A0EB0C0076
:100DF00022FA03F302FA0CF241EA030100F10100C6
:100E0000704720F07F4C80EA030023F07F47ACEB73
:100E1000070303F57C5300F0004003F1FF032DE9C5
:100E200080494FEA154B09B44FEA144325EA0B4EAB
:100E300024EA03480FF2042606EB132749083E78FC
:100E40005FEA320203FB0667C7F5000707FB06F6F9
:100E50004FEA54374FEAD64606F1020607FB066C06
:100E6000CCF1005C4FEA1C472CEA074C07FB06F468
:100E70000CFB06F504EB15464FEA961634BF00202E
:100E80004FF000404FEAD13706FB07FC4FEA1C4CFD
:100E90000CFB0BF7D21B03FB0CF761EB07010CFB00
:100EA0000EF7B0EB074072EB17420CFB08F734BFAC
:100EB000A2EB0742B2EB074261EB17414FEA0C4449
:100EC0004FEA910706FB07FC4FEA1C4C0CFB0BF7A3
:100ED000B0EBC74072EB573203FB0CF734BFA2EB09
:100EE000C742B2EBC74261EB57310CFB0EF7B0EBD8
:100EF000C70072EB57720CFB08F734BFA2EBC702B6
:100F0000B2EBC70261EB5771039F4FEA816141EA7F
:100F1000921104EBCC044FEAD1374FEA826206FB10
:100F200007FC42EA90124FEA80604FEA1C4C0CFB2F
:100F30000BF7D21B03FB0CF761EB07010CFB0EF761
:100F4000B0EB074072EB17420CFB08F734BFA2EB83
:100F50000742B2EB074261EB17414FEA8C554FEA6B
:100F6000910704EB9C2406FB07FC4FEA1C4C0CFB8E
:100F70000BF7B0EBC74072EB573203FB0CF734BFF3
:100F8000A2EBC742B2EBC74261EB57310CFB0EF745
:100F9000B0EBC70072EB57720CFB08F734BFA2EB43
:100FA000C702B2EBC70261EB577115EB4C254FEA54
:100FB000816141EA92114FEA82624FEAD13742EAF7
:100FC000901206FB07FC44F100044FEA80604FEAF0
:100FD0001C4C0CFB0BF7D21B03FB0CF761EB07015E
:100FE0000CFB0EF7B0EB074072EB17420CFB08F757
:100FF00034BFA2EB0742B2EB074261EB174115EB9E
:101000001C154FEA813141EA92414FEA823242EAAD
:1010100090424FEA80304FEA0C7644F1000448EAEF
:1010200003434EEA0B484FF0000EB2EB080C71EB95
:10103000030724BF624639464EEB0E0E4FF0000BFD
:101040000018524149414BEB0B0BB2EB080C71EB12
:1010500003077BF1000B24BF624639464EEB0E0EB0
:101060004FF0000B0018524149414BEB0B0BB2EB18
:10107000080C71EB03077BF1000B24BF6246394675
:101080004EEB0E0E51EA020718BF46F0010616EBB2
:101090000E7655F1000254F1000103D5BDE8890137
:1010A000BDE80088BDE88901BDE80048B619524195
:1010B00041EB0101A3F10103704780807F7E7D7CBD
:1010C0007B7A7978777676757473727171706F6EDA
:1010D0006E6D6C6C6B6A6A69686867666665646485
:1010E000636362616160605F5F5E5E5D5D5C5C5B0F
:1010F0005B5A5A595958585757565655555554547E
:10110000535352525251515050504F4F4F4E4E4DDB
:101110004D4D4C4C4C4B4B4B4A4A4A494949484827
:101120004847474747464646454545444444444367
:1011300043434342424242414141002B9C4630D40A
:1011400077002BD01CB54FEA370703B44FF01000DF
:101150004FF01001BAF1000F06D0BCF1000FDCBF58
:1011600040F0080040F008014FF000000FBCBDE85F
:1011700010400BF1010BBBF1010F08BF5FEA17072D
:1011800022BF12F1010211F101014FF0004143F1C0
:10119000000300F0004043EA00007047F9D357080D
:1011A000D0E746EA064613F1400F4FEA16461FDD28
:1011B00013F1200FDFBF16430A46002120335B42A4
:1011C000BED0C3F1200746EA064602FA07F74FEA07
:1011D000164646EA0706C3F1200722FA03F201FA8F
:1011E00007F721FA03F14FF0000342EA0702A7E7ED
:1011F00046EA020646EA06464FEA164646EA01066F
:10120000BCBF46EA0646360C4FF000034FF0000222
:101210004FF0000194E72DE9804C9A46934670B454
:1012200091E8380007C831EA400C48BF34EA430C63
:1012300003D5FFF7E6FDFFF780FFF0BCBDE8008CAB
:101240002DE9804C9A46934670B491E8380007C85F
:1012500010F0804F08BF13F0804F03D100F005F865
:10126000FFF76BFFF0BCBDE8008C20F07F4780EA01
:10127000030023F07F4C07EB0C03A3F57C5300F035
:101280000040A3F1FE0392F0000F00F0B38095F050
:10129000000F00F077802DE901494FEA11404FEA35
:1012A000144621EA004800FB06FC24EA064708FB36
:1012B00006F607FB08F800FB07F718EB06484CEBAF
:1012C000164C4FEA124B18EB07484FEA15464CEB09
:1012D000174022EA0B4E0BFB06FC25EA06470EFBE5
:1012E00006F607FB0EFE0BFB07F71EEB064E4CEB5C
:1012F000164C4FF000061EEB074E4CEB174B18EB4D
:101300000B0840F1000018EB0E0B58EB000840F101
:1013100000008F1A4FF000013CBFC943661B14BF89
:10132000B5EB040C00213CBFC943F61B4FEA174440
:101330004EEA8E0E27EA04454FEA1C4704FB07627B
:101340002CEA074C05FB07F70CFB05F604FB0CFC2D
:1013500016EB074642EB174216EB0C4642EB1C42DB
:101360001BEB060658EB0202414146EA9E0601D5F8
:10137000BDE80189B619524141EB0101A3F1010316
:10138000BDE801894FEA14454FEA114724EA0546B2
:1013900021EA074C05FB07F406FB07F70CFB06F1F7
:1013A00005FB0CFC11EB074144EB17444FEA1247D5
:1013B00011EB0C4144EB1C4422EA074C05FB07F2FD
:1013C00006FB07F70CFB06F605FB0CFC16EB0746C5
:1013D00042EB174216EB0C4642EB1C456A1854F1DF
:1013E000000148BF7047B619524141EB0101A3F11A
:1013F0000103704795F0000F37D04FEA11424FEAD2
:10140000144721EA024624EA074C02FB07F106FBD7
:1014100007F70CFB06F402FB0CFC14EB074441EB52
:1014200017414FEA154714EB0C4441EB1C4125EAE8
:10143000074C02FB07F506FB07F70CFB06F602FB61
:101440000CFC16EB074645EB174516EB0C4645EB37
:101450001C42121951F1000148BF7047B6195241A0
:1014600041EB0101A3F1010370474FEA14454FEA34
:10147000114724EA054621EA074C05FB07F106FB64
:1014800007F70CFB06F24FF0000605FB0CFC12EB15
:10149000074241EB174112EB0C4251EB1C4148BF94
:1014A0007047921841EB0101A3F101037047FEE779
:1014B0007047012000F052B872B6FEE770B50446DE
:1014C00000F052F90546601C02D00448007804443C
:1014D00000F04AF9401BA042FAD370BD1000002072
:1014E00010B51C4C01280ED0A115884230D12046E1
:1014F00000F030F901282BD101F0F8F903F016FAC9
:101500001549086011E04FF4FA70FFF7D7FF012189
:10151000204600F01FF900281AD1C820FFF7CEFF9F
:101520000121204600F016F928B101F007FCBDE8C2
:10153000104001F0F3BB01F0F9FB01F003FC01F0F6
:10154000E1FCC820FFF7BAFFBDE8104001F042BC43
:1015500010BD0000000801405C0C0020044910B5DB
:101560000A68024202D00860FFF7BAFF10BD00000F
:10157000140401402DE9F84FDFF8B8910024A9F1D7
:10158000040B23460F2709F1040AABF1040EC9E04E
:101590000125A5402A40AA427DD1674ED1F804C05A
:1015A000ACEB0608B44532D014DCBCF1030F3AD0E2
:1015B00009DCBCF1000F2AD0BCF1010F1CD0BCF13A
:1015C000020F31D11DE0BCF1110F17D0BCF1120F89
:1015D0002AD119E0B8F5881F19D006DCB8F5803F8C
:1015E00015D0B8F5801F1FD111E0B8F5001F0ED03F
:1015F000B8F5041F18D10AE0CB6815E0CB681B1DB5
:1016000012E0CB6808330FE0CB680C330CE08B683A
:101610002BB1012B4FF0080303D0456104E00423F4
:1016200002E0056100E00023FF2A01D8064601E040
:1016300000F104064FEA840501D9A5F12005D6F88A
:10164000008007FA05FC28EA0C0803FA05F548EAC9
:101650000508C6F800804D68ED0062D5374DAE69CB
:1016600046F00106AE61AD6924F0030605F0010500
:101670000095334D06EB050CDCF80850A607360F35
:1016800007FA06F825EA0805DFF8B880404503D1D7
:101690004FF0000817E044E0DFF8AC80404502D18D
:1016A0004FF001080FE0DFF8A480404502D14FF071
:1016B000020808E0DFF89880404502D14FF00308A7
:1016C00001E04FF0040808FA06F848EA0508CCF8EB
:1016D00008804D68D9F80060ED024D4601D51643EB
:1016E00000E096432E604D68DAF80060AD02554682
:1016F00001D5164300E096432E604D68DBF800608C
:10170000AD035D4601D5164300E096432E604D685B
:10171000DEF80060ED03754601D5164300E0964300
:101720002E60641C0D682A46E5407FF431AFBDE8A9
:10173000F88F000008040140000011100010024062
:101740000000014000080140000C01400010014071
:10175000001401408068084000D0012070470AB1A1
:10176000016170470904FBE7014880687047000089
:10177000100000200248816802781144816070479F
:1017800010000020074810B5016841F01001016009
:10179000032000F075F80F2000F006F800F024F8A0
:1017A000002010BD0020024070B50D4D04464FF4DE
:1017B0007A712878B1FBF0F00A490968B1FBF0F0C2
:1017C00000F0D3FC48B9102C07D200222146501E4D
:1017D00000F036F800206C6070BD012070BD000084
:1017E000100000201C0000200C4808B5816941F061
:1017F00001018161816901F001010091C16941F03C
:101800008051C161C06900F0805000900448416877
:1018100021F0E06141F00071416008BD001002401C
:1018200000000140002809DB00F01F020121914067
:101830004009800000F1E020C0F80011704700006E
:10184000F0B40E4B1B680C46C3F30223C3F107052B
:10185000042D00D90425191D072901D2002300E019
:10186000DB1E012606FA05F1491E214099409E40E3
:10187000761E16403143F0BC01F0A2BB0CED00E037
:10188000064900F0070208684FF6FF03184040EAD7
:101890000220034A10430860704700000CED00E08E
:1018A0000000FA05014901200862704700000E425D
:1018B00010B501460020234C012922D0022939D03D
:1018C00010291DD161682268D20119D51E48C1F3C3
:1018D0008342C903805C0AD561681B4AC1F3404159
:1018E000921E515C194AB2FBF1F1484301E01849DC
:1018F00048436168490203D440000321B0FBF1F082
:1019000010BD226AC2F30121012903D1920701D53A
:10191000C80310BD022905D1626A920702D549F6B3
:10192000404010BD0329FCD121688903F9D54FF24D
:10193000244010BD00F01AF96168C1F38131491CDF
:101940004900DBE700100240F04A000800127A006C
:1019500000093D002DE9F84305460078354CC007E5
:1019600054D0E0690026C00008D4E06940F08050FF
:10197000E061E069012600F0805000902E48016887
:10198000C90512D40168804641F480710160FFF7F7
:10199000EBFE074605E000BFFFF7E6FEC01B64282C
:1019A00023D8D8F80000C005F6D5206A10F440709E
:1019B00021D0A98801F4407181421CD0206A1F49BE
:1019C000012220F440700A6000220A602062C007F1
:1019D00011D0FFF7C9FE074641F2883808E000BF82
:1019E000FFF7C2FEC11B414502D90320BDE8F883C1
:1019F000206A8007F4D5206A696820F440700843A3
:101A000020621EB1E06920F08050E06128788007F4
:101A100005D56068A96820F44040084360602878D4
:101A2000C00605D56068E96820F48000084360605E
:101A30000020DBE7001002400070004040044242FA
:101A40002DE9F0470F46050061D0434E306800F0A5
:101A50000700B84209D2306820F0070038433060F0
:101A6000306800F00700B84251D128683B4C81072C
:101A700012D5400703D5606840F4E06060602878C4
:101A8000000703D5606840F4605060606068A96832
:101A900020F0F000084360602878C00728D068680C
:101AA000012810D02168022810D0890700292EDAD9
:101AB000616821F0030101436160FFF755FE804634
:101AC00041F288390DE021688903EFE78901EDE7EC
:101AD000FFF74AFEA0EB0801494502D90320BDE803
:101AE000F0876068696800F00C00B0EB810FEFD1FF
:101AF000306800F00700B8420BD9306820F00700CA
:101B000038433060306800F00700B84201D001204F
:101B1000E5E72878400705D56068E96820F4E060CB
:101B2000084360602878000706D56068296920F4BA
:101B3000605040EAC100606000F028F86168084A1F
:101B4000C1F30311515CC8400649086006480068AB
:101B5000FFF72AFE0020C2E70020024000100240EA
:101B6000004B00081C000020140000200448054918
:101B700000684968044AC1F3C221515CC8407047FB
:101B80001C00002000100240104B00080E4A516853
:101B90000E4801F00C03042B11D0082B0FD10C4878
:101BA000C1F38343C903C05C0AD55168084AC1F335
:101BB0004041921E515C054A5043B0FBF1F0704722
:101BC00004494843704700000010024000127A00A8
:101BD000DE4A000800093D002DE9F84F040070D0EE
:101BE0002078C04DC00749D06868C0F38100012843
:101BF00007D06868C0F38100022809D16868C00373
:101C000006D52868800339D560680028E7D035E01C
:101C10006068B0F5803F0BD010B1B0F5A02F11D0A7
:101C2000286820F480302860286820F4802002E0B2
:101C3000286840F480302860606890B1FFF794FD18
:101C400006460AE0286840F480202860F0E700BFDC
:101C5000FFF78AFD801B642873D828688003F7D5B6
:101C60000CE0FFF781FD064605E000BFFFF77CFDB5
:101C7000801B6428F0D828688003F7D420789A4E17
:101C800080074FF001094FF0000839D5686810F05F
:101C90000C0F07D06868C0F38100022809D168687A
:101CA000C00306D42868800714D52069012808D10C
:101CB00010E02069B0B1C6F80090FFF755FD074667
:101CC00005E00AE1FFF750FDC01B0228C4D82868D0
:101CD0008007F7D52868616920F0F80040EAC10064
:101CE00028600DE0C6F80080FFF73EFD074604E0DF
:101CF000FFF73AFDC01B022823D828688007F7D4D5
:101D0000207800072CD57948A169D9B1C0F8009096
:101D1000FFF72AFD074604E0FFF726FDC01B022857
:101D20000FD8686A8007F7D571484FF4FA510068F8
:101D3000B0FBF1F0009000BF0098411E0091FAD274
:101D40000EE080E0C0F80080FFF70EFD074604E0DB
:101D5000FFF70AFDC01B022875D8686A8007F7D410
:101D60002078400760D5E8690027C00008D4E869FA
:101D700040F08050E861E869012700F08050009051
:101D80005C480168C90513D40168834641F4807139
:101D90000160FFF7E9FC824606E000BFFFF7E4FCC4
:101DA000A0EB0A0064284ED8DBF80000C005F5D58A
:101DB000E06801280AD008B1052813D0286A20F06D
:101DC00001002862286A20F0040002E0286A40F03E
:101DD00001002862E06841F2883B98B1FFF7C4FC3B
:101DE00082460BE0286A40F004002862EEE700BF5C
:101DF000FFF7BAFCA0EB0A0159455AD8286A8007B8
:101E0000F6D50CE0FFF7B0FC824605E0FFF7ACFC2E
:101E1000A0EB0A0159454CD8286A8007F6D41FB1B7
:101E2000E86920F08050E861E06988B36968C1F32F
:101E30008101022944D00228C6F8608004D0FFF74F
:101E400093FC044638E034E0FFF78EFC074604E0DC
:101E5000FFF78AFCC01B02282BD828688001F7D422
:101E6000206AB0F5803F05D16868A16820F4003091
:101E700008436860D4E908010843696821F47411D3
:101E800008436860C6F86090FFF76EFC044606E001
:101E900025E000BFFFF768FC001B022809D828686E
:101EA0008001F7D51BE000BFFFF75EFC001B022896
:101EB00002D90320BDE8F88F28688001F4D40EE031
:101EC0000128F7D06868226A00F48031914204D179
:101ED000616A00F47010884201D00120EAE7002016
:101EE000E8E7000000100240000042428004424245
:101EF0001C0000200070004070B5040003D0607C1E
:101F0000002610B105E0012070BD2674204600F0C7
:101F10003DF802206074204600F00AF9042550BB09
:101F2000204600F042FC30BB2068416821F00701E8
:101F30004160A06820B11448016821F001010160EE
:101F40001148001F0168A26821F46071114301600B
:101F50006068411C04D10120FFF7AAFC58B1401E63
:101F60002268C0F303419160216880B2C8602046B6
:101F700000F036FC08B16574C5E7E67301206073B4
:101F8000A0736074002070BD306C004008B500681C
:101F9000084988420DD1FFF785FC0748C16941F027
:101FA0000061C161C069054900F000600090012036
:101FB000086008BD00280040001002403C04424276
:101FC0002DE9F0410D4604003BD0C5B3207C01282B
:101FD0003AD04FF0010884F8108002206074E8784D
:101FE00072B300F0D9FBE073687800F0D5FB607342
:101FF000A87800F0D1FBA073C2B2617BE07B00F057
:1020000021FC20732870204600F00CFC4FF4616125
:10201000B0FBF1F1002518292DD91822B1FBF2F1FE
:10202000A1EB011101EB4101C1EB011100EBC11664
:102030003146204600F045FC0427C8B90BE000E01B
:1020400004E00120BDE8F0810220FBE7E07368783E
:102050006073A878CFE7204600F0DDFB411C0AD072
:10206000B04208D206490144204600F016FC10B1E7
:1020700067742574E5E784F8118025740020E1E792
:10208000805101002DE9F0410D46040024D01DB31C
:10209000207C012823D04FF0010884F81080022012
:1020A00060742878EAB100F077FB4FF4616100FBBF
:1020B00001F6687800F070FBC0EB001006EB8006BC
:1020C000A87800F069FB35182946204600F0F9FB96
:1020D0000026042710BB0FE00120BDE8F08102209C
:1020E000FBE74FF4616148436978C1EB011100EBF4
:1020F0008100A9784518E7E72068416821F00501CB
:102100004160204600F087FB411C0AD0A84208D25B
:1021100006490144204600F0C0FB10B167742674E4
:10212000DAE784F8118026740020D6E78051010098
:1021300070B504000AD02068416821F008014160B0
:10214000FFF712FB05464FF47A7608E0012070BDD8
:10215000FFF70AFB401BB04201D9032070BD206885
:1021600040680007F4D5002070BD10B5401EB0F1E6
:10217000807F01D3012010BD4FF0E02460610F216A
:10218000601700F01DFF0020A061072020610020E3
:1021900010BDFEE71FB500200190802000900120B7
:1021A00002900320039069460148FFF7E3F91FBD41
:1021B000000801401FB5802000900120019002908E
:1021C0000320039069460248FFF7D4F91FBD0000C1
:1021D000000801402DE9F04385B000243648009402
:1021E000019402940394816941F010018161816935
:1021F00001F010010491816941F020018161816940
:1022000001F020010491816941F00401816181693B
:1022100001F004010491816941F008018161806944
:10222000DFF8988000F008004FF4E6560490002292
:1022300031464046FFF793FADFF884904FF4007779
:10224000002239464846FFF78AFA01251D480095C5
:10225000CDE9010469464846FFF78CF9C020CDE975
:102260000004694648460294FFF784F9CDE9006509
:102270000226CDE9024669464046FFF77BF928026F
:1022800000901148CDE9010469464846FFF772F90C
:1022900000970396CDE9015469464846FFF76AF96D
:1022A000002205210620FFF7CBFA0620FFF7BAFA35
:1022B00005B0BDE8F083000000100240000C0140B2
:1022C0000008014000002110000011101CB500247E
:1022D0001B480194194900940160611E41604FF44C
:1022E00080718160FFF708FE08B1FFF7E5F8212053
:1022F0008DF8040040208DF805008DF8064001227D
:1023000001A90F48FFF7BEFE08B1FFF7D5F802207C
:102310008DF8000007208DF8010004208DF80200E0
:1023200023208DF80300012269460548FFF748FE87
:10233000002801D0FFF7C0F81CBD000000280040B5
:10234000600C0020FEE7FEE72DE9F04107460E0194
:102350004000103E801E15464FF0FF38F1B2C0B26B
:1023600000F050F90D48002400EB4515285D00F001
:1023700001FA641CE4B2102CF8D308EB4700F1B268
:10238000C0B200F03FF900242819007C00F0F2F9F7
:10239000641CE4B2102CF7D3BDE8F081585100085A
:1023A0007CB500240021204600F02CF900250020F7
:1023B00000F0E0F96D1CEDB2802DF8D3641CE4B29E
:1023C000082CEFD3002106484023CDE900011A462E
:1023D000084600F05DF9BDE87C4000F0F3B800006D
:1023E000200000201CB500210548CDE90001402354
:1023F0008022084600F04CF9BDE81C4000F0E2B82D
:102400002000002010B57F2811D83F290FD8CB0815
:1024100001F0070101248C40E1B2054C002A04EBD5
:10242000C000C25C01D00A4300E08A43C25410BD20
:10243000740C002010B5064C012291022046FFF7D3
:102440008EF920460122BDE81040D102FFF787B97E
:10245000000C01402DE9F047144E002407464FF0D0
:1024600080084FF40069351528FA04F23A404946CD
:102470003046FFF774F9012229463046FFF76FF91D
:10248000002229463046FFF76AF9641CE4B2082CA2
:10249000EAD3012229463046FFF761F92946304642
:1024A000BDE8F0470022FFF75AB90000000C0140D8
:1024B00070B501220B4DD40221462846FFF74FF993
:1024C0000122960231462846FFF749F900222146AB
:1024D0002846FFF744F931462846BDE870400022FF
:1024E000FFF73DB9000C014070B50A4D4FF4006490
:1024F000002221462846FFF732F9012291022846A0
:10250000FFF72DF921462846BDE870400122FFF76C
:1025100026B90000000C014010B500204FF47A727B
:102520000021491C9142FCD3401C9042F8D3FFF794
:1025300081FFAE2000F00DF9D52000F00AF98020CF
:1025400000F007F9A82000F004F93F2000F001F99D
:10255000D32000F0FEF8002000F0FBF8402000F04F
:10256000F8F8A12000F0F5F8C82000F0F2F8DA2021
:1025700000F0EFF8122000F0ECF8812000F0E9F80C
:10258000CF2000F0E6F8D92000F0E3F8F12000F0C9
:10259000E0F8DB2000F0DDF8302000F0DAF8A420CD
:1025A00000F0D7F8A62000F0D4F88D2000F0D1F884
:1025B000142000F0CEF8AF2000F0CBF8BDE81040BA
:1025C000FFF7EEBE70B50E4E002400BF04F1B00060
:1025D000C0B200F0BEF8002000F0BBF8102000F000
:1025E000B8F8002506EBC500005D00F0C3F86D1CCF
:1025F000EDB2802DF6D3641CE4B2082CE6D370BD96
:10260000740C002010B50C4640F0B00000F0A1F8AA
:10261000102040EA141000F09CF804F00F00BDE810
:10262000104000F096B800002DE9F0410746CE00BA
:102630004000083E801E15464FF0FF38F1B2C0B290
:10264000FFF7E0FF1148002400EB05152819A0F55D
:10265000805090F8000E00F08DF8641CE4B2082C55
:10266000F4D308EB4700F1B2C0B2FFF7CBFF002470
:102670002819A0F5805090F8080E00F07BF8641C33
:10268000E4B2082CF4D3BDE8F0810000184B000838
:102690002DE9FF4F82B08046019092460C464FF0E4
:1026A00000098B46580700D0012000EBD3000590AD
:1026B000002032E000262BE00F98002510F809706A
:1026C00009F101001FFA80F9F80701D0109A02E021
:1026D000109848B3002221464046FFF793FE641C41
:1026E0006D1C7F08EDB2E4B2082DEDD308F10100B6
:1026F000019900F0FF08A8EB0101514505D10BF14C
:102700000800DDF8048000F0FF0B761C5C46F6B292
:102710005645D1D30098401CC0B20090059988421C
:10272000C8D306B0BDE8F08F0122D4E72DE9F0410F
:1027300015460E460746002406E03019C1B2384659
:10274000FFF772FF641CE4B22A5D002AF5D1BDE8F0
:10275000F08110B50446FFF7ABFE7820FFF77AFE54
:102760000020FFF777FE2046FFF774FEBDE810401B
:10277000FFF7BABE10B50446FFF79AFE7820FFF7C0
:1027800069FE4020FFF766FE2046FFF763FEBDE8C6
:102790001040FFF7A9BE7047010901EB810100F06D
:1027A0000F0000EB4100C0B2704770B50446FEF761
:1027B000DBFF05464FF47A7606E0FEF7D5FF401BB7
:1027C000B04201D9032070BD206840688006F4D56E
:1027D0002068416841F010014160002070BD000098
:1027E00070B504460068416821F010014160FEF7B1
:1027F000BBFF05464FF47A7607E000BFFEF7B4FF53
:10280000401BB04201D9032070BD2068406880069B
:10281000F4D5002070BD0168086A496A89B241EAAE
:1028200000407047006881698AB2C1698BB28169D2
:1028300089B28A4203D0C06961F31F40704743EAFE
:1028400002407047F0B56424C1EBC1030927A5001D
:10285000072603EB01130329B3FBF7F100F5FA6038
:10286000114401440AD2401EB0FBF4F201EB900186
:10287000B0FBF5F0891A0844001D08E0B0FBF4F243
:1028800001EB9001B0FBF5F0891A0844801CB0FB05
:10289000F6F106FB1100C0B2F0BD70B50D4606465C
:1028A0000024FFF782FF48B93168280C08623168BC
:1028B000A8B248623046FFF793FF00B101242046DA
:1028C00070BD70B50D4606460024FFF76EFF48B98F
:1028D0003168280C88613168A8B2C8613046FFF7BA
:1028E0007FFF00B10124204670BD00002DE9F05F9C
:1028F00000248C2000F02AFA05468D2000F026FAEC
:1029000005EB002002F012F882468E2000F01EFA3D
:1029100005468F2000F01AFA05EB002002F006F8B9
:1029200083466420FEF7CAFD5146584601F01CFF5D
:102930000546A0F50000DFF81891B0F17A5F25D8C0
:10294000284601F0E5FE4FF06632424B00F00EFCE7
:1029500006460F46504601F0DBFE884604464A46CE
:102960003D4B01F0C5FB32463B4601F0C1FB07463B
:102970000E4620464146394A394B01F0B9FB3A46EA
:10298000334601F0DBFD01F019F904466FF07C518C
:1029900068183449884216D2584601F0B9FE4A46B2
:1029A000314B01F0A5FB06460C46504601F0B0FE47
:1029B0002E4A2F4B01F09CFB3246234601F0BEFD10
:1029C00001F0FCF804462B4968182B49884216D2BE
:1029D000584601F09DFE294A294B01F089FB064625
:1029E0000C46504601F094FE264A274B01F080FB2E
:1029F0003246234601F0A2FD01F0E0F804462349E7
:102A000068182349884216D8584601F081FE214AA9
:102A1000214B01F06DFB06460C46504601F078FE56
:102A20001E4A1F4B01F064FB3246234601F086FD2F
:102A300001F0C4F804461B498D4200DD00246420E7
:102A4000FEF73CFD2046BDE8F05F01F04FBF0000FF
:102A50005839B4C86666F63F76BEAF3FC58F31774A
:102A60002D219F3FF5281C0076BE9F3FC7BAB88D29
:102A700006F0963F0AD7E3C0D7A330004BC8073D06
:102A80009B558F3F2D431CEBE2368A3F3333B3C057
:102A900099995900D2FBC6D79E59523FB263231071
:102AA000AFEB573F6666A63F7047FEF763BE70B553
:102AB00094B028216846FDF7FDFC14210AA8FDF713
:102AC000F9FC002501240F95119505201295009021
:102AD000CDE9025410954FF4803001900226049401
:102AE000CDE907604FF4E01009906846FFF774F8ED
:102AF00008B172B6FEE70F20CDE90A064FF48060F8
:102B0000CDE90C5002210AA80E95FEF799FF08B1F5
:102B100072B6FEE74FF48070CDE90F400FA8FEF7C4
:102B200019FF002801D072B6FEE714B070BD7047DF
:102B300010B5064C012240212046FEF710FE20462B
:102B40000122BDE810408021FEF709BE00080140C7
:102B500070B5FFF72FFB154D012280212846FEF7A7
:102B6000FEFD002240212846FEF7F9FD052000F079
:102B7000B4FA012240212846FEF7F1FDFFF70AFBD7
:102B800080212846FEF7E6FD0446042000F0A5FA61
:102B9000002240212846FEF7E2FDFFF70BFB012251
:102BA00080212846FEF7DBFD204670BD000801406D
:102BB00070B5FFF7EFFA164E00252C460122802152
:102BC0003046FEF7CCFD002240213046FEF7C7FD1F
:102BD000052000F082FA012240213046FEF7BFFDB9
:102BE0006006040E80213046FEF7B4FD08B144F0C3
:102BF0000104042000F071FA6D1CEDB2082DE2D33F
:102C0000002240213046FEF7AAFD204670BD00009C
:102C10000008014010B5FFF7CDFA0E4C012240210B
:102C20002046FEF79CFD012280212046FEF797FDFD
:102C3000052000F052FA002280212046FEF78FFD89
:102C4000042000F04AFA20460022BDE8104040214E
:102C5000FEF785BD0008014010B5FFF7ABFA104C38
:102C6000002240212046FEF77AFD002280212046E6
:102C7000FEF775FD042000F030FA012240212046C5
:102C8000FEF76DFD042000F028FA01228021204685
:102C9000FEF765FDBDE81040052000F01EBA0000FB
:102CA000000801402DE9F0410646FFF783FA0024B1
:102CB000134F8025002240213846FEF750FD25FAAB
:102CC00004F0304201D0012200E000228021384689
:102CD000FEF745FD052000F000FA012240213846AC
:102CE000FEF73DFD042000F0F8F9641CE4B2082C66
:102CF000E0D33846BDE8F04100224021FEF72FBD69
:102D00000008014010B50446FFF712FF00F016F866
:102D10002046BDE8104000F03AB8000000224FF411
:102D200000710148FEF71BBD00080140012251025D
:102D30000148FEF714BD000000080140002180207A
:102D400000F029B80321802000F025B810B5044612
:102D5000FFF7EEFEFFF75EFF5220FFF7A3FFFFF73E
:102D6000F7FE2046FFF79EFFFFF7F2FEFFF752FF48
:102D70005320FFF797FFFFF7EBFEFFF719FF04461D
:102D8000FFF76AFF0A20FEF799FB204610BD0146B7
:102D90008120AFF3008070B50D460446FFF7C8FEF2
:102DA000FFF738FF5220FFF77DFFFFF7D1FE2046E7
:102DB000FFF778FFFFF7CCFE2846FFF773FFFFF71A
:102DC000C7FEFFF749FFBDE870400A20FEF776BB5B
:102DD000FEE700002DE9F04391B0FFF7E1FAFFF7BD
:102DE000F1FB022211460120FFF7AEFA0322114641
:102DF0000120FFF7A9FA3AA20A210120FFF796FC69
:102E00003A4C3B48384E256800683C2246F825007D
:102E10008146384902A8FDF71BFB0DF1300807AFCA
:102E2000022D25DB06EB850050F8080C01F070FC44
:102E3000CDE90001AA1E30A102A8FDF7F5F9256829
:102E400006EB850050F8040C01F062FCCDE90001AE
:102E50006A1E29A13846FDF7E7F9256856F82500CE
:102E600001F056FCCDE900012A4623A1404609E0C5
:102E7000012D1ED0484601F04BFCCDE900012A4649
:102E80001DA102A8FDF7D0F9206802AA401C20600D
:102E900001210220FFF74AFC3A4601210320FFF7F7
:102EA00045FC424601210420FFF740FC11B0BDE87B
:102EB000F0830D48006801F02BFCCDE900010022F1
:102EC0000DA102A8FDF7B0F9256856F8250001F01C
:102ED0001FFCCDE900012A4607A13846D2E70000D1
:102EE00063642F6D32000000741000202004002065
:102EF0005C0C0020185400082532642E2020252E5A
:102F00003266000010B5FFF74BFAFFF75BFB0221BA
:102F10000A220846FFF718FA0B2203210220FFF7C6
:102F200013FA152204210220FFF70EFA0A21BDE848
:102F3000104002A20220FFF7F9BB00002E2E2E0047
:102F400010B5042203210220FFF7FEF90522062115
:102F5000BDE810400220FFF7F7B900001CB5FFF7ED
:102F60001FFA01210A48CDE90001402300211A4639
:102F70000846FFF78DFB002106484023CDE90001FC
:102F80001A461846FFF784FBBDE81C40FFF71ABB42
:102F90001C0800205C0A0020490050EAC12018BF2C
:102FA00004204A0D18BF40F0010040F2FF72B2EB5E
:102FB000515F08BF40F00200012808BF052070479C
:102FC0000907090E002804DB00F1E02080F8001456
:102FD000704700F00F0000F1E02080F8141D7047EA
:102FE0002DE9F0414F1E00EBC7010446D1E9000175
:102FF00015461E4637F006020DD02A46334601F02C
:1030000077F87F1E04EBC703D3E9002300F008FE26
:1030100037F00602F1D1022F25D0042F13D0062F4E
:1030200018BFBDE8F0812A46334601F061F8D4E9C3
:103030000A2300F0F5FD2A46334601F059F8D4E999
:10304000082300F0EDFD2A46334601F051F8D4E99B
:10305000062300F0E5FD2A46334601F049F8D4E99D
:10306000042300F0DDFD2A46334601F041F8D4E99F
:10307000022300F0D5FD2A46334601F039F8D4E9A1
:103080000023BDE8F04100F0CBBD00000022134654
:103090001046014900F080BE0000F03F00F0C0BDC6
:1030A000002213461046114600F076BE40F201326F
:1030B00000204FF0E04101F0CBBC0000024A0020AC
:1030C000110701F0C5BC000001FDFFFF30380A28E0
:1030D00001D20120704700207047002104E0022245
:1030E000521C732AFCDB491C8142F8DB704700004C
:1030F000FEF748FBFFF7DBFC00221146501EFEF7EF
:103100009FFBFFF767F8FFF7E1F81220FFF7FAFDE2
:10311000FFF702FAFFF722FF4FF49670FEF7CEF9A1
:10312000FFF760F9FFF70CFF4FF4FA70FEF7C6F9EE
:10313000FFF750FE0B4D0C4CAE1540212846FEF714
:1031400009FB606080212846FEF704FBA060314641
:103150002846FEF7FFFAE06001212846FEF7FAFA5A
:103160002060EAE700080140000000202DE9F04D52
:103170001D460C4698B0174621F0004123F000434D
:10318000002814BF4FF0010C4FF0000C0CEB440C66
:10319000FE4A0CEB02064FEA620C66452BD33E005A
:1031A00018BF012606EB45061644F94A964222D37B
:1031B000F84A53EA070C02D0944205D148B918B036
:1031C00000201146BDE8F08D002808BF4FF0000C2C
:1031D00001D04FF0010C0CEB440212F5001F0AD88D
:1031E000002F14BF4FF0010C4FF0000C0CEB450208
:1031F00012F5001F07D918B03A462B462146BDE804
:10320000F04DFFF74BBF0022DFF88CA3002CB8BFB6
:10321000534526DADFF884C36345A8BF022220DACB
:10322000DFF870C39C451CDCDFF874C30CEB235C37
:10323000BCF1140F08DDCCF1340627FA06FC0CFAB9
:1032400006F6BE420DD108E05FB9CCF1140623FAB0
:1032500006FC0CFA06F69E4203D10CF00102C2F104
:10326000020251EA000C19D1002D17DA002C18BF08
:10327000022A01D0012A07D00220FDF74AF918B02E
:10328000BDE8F04DFFF702BF0220FDF742F9FFF75E
:10329000FDFE18B081F00041BDE8F08DB7F1000CE3
:1032A0006CD1534525D104F1804212F5801201BF43
:1032B00000280020B74918B008BFBDE8F08DB54818
:1032C000884207DC002DA1BF6046294618B0BDE842
:1032D000F08D07E0281E05DA80F0004118B0604646
:1032E000BDE8F08DAF497944D1E9000118B0BDE8DF
:1032F000F08DDFF8A0C2634525D1002D1FDA19B18A
:10330000514512D1D8B909E0002840F0EC82A24A18
:10331000214618B062F31E01BDE8F08D0020214661
:1033200018B060F31E01BDE8F08D08DA18B023462E
:10333000BDE8F04D02460020614600F02DBD18B0FA
:103340002146BDE8F08D514518DAB5F1804F0DD01A
:10335000A5F1005CBCF1FF5C10D1B4F1000C0DDBF9
:1033600018B06146BDE8F04D00F0ECBB234618B044
:103370000246BDE8F04D194600F0BABE060024F042
:10338000004C3BD1D9B1514533D1002C06DD002D85
:10339000A1BF0020514618B0BDE8F08D002C01DD22
:1033A000002D1BDB002C13DA002D11DB012A4FF05E
:1033B000000014BF78497C4918B0BDE8F08D022A9E
:1033C00018BF002C0AD0012A08D1002C06DA0AE026
:1033D000002CB8BF002D11DA012A04D0002018B04B
:1033E0000146BDE8F08D18B000204FF00041BDE867
:1033F000F08DA1F14050B0F17F601AD0012000EBB8
:10340000E47050EA020421D0624C521E4FF0000BCF
:10341000104304BF4FF0000B644C654883427CDDD1
:10342000644A654893421FDD884217DB002D25DB87
:1034300037E0002C00DA4AB1022A0CBF01204FF01D
:10344000FF3018B0BDE8F04D00F0FEBD0120FDF7E3
:1034500060F818B0BDE8F04DFFF722BE4D4A8A4231
:1034600002DC002D0ADC1CE0814202DA002D18DAB1
:1034700004E0484B994220DD002D12DD0220FDF7CB
:1034800048F8FFF713FE05460E46002253465846FD
:10349000214600F02DFE18B066F31E012846BDE857
:1034A000F08D0220FDF735F8FFF708FE0A462146A9
:1034B00018B062F31E01BDE8F08D0022304661466F
:1034C00001F03CF880460E466FF0010201F0C0FAB0
:1034D0004FF05532394B00F03FFF4246334600F083
:1034E00007FE0022364B00F037FF82464246334645
:1034F00004911046194600F0FBFD5246049B00F073
:10350000F7FD8A4600904FF0C0422E4B40463146B0
:1035100000F0EEFD2C4A2B4B00E027E0CDE9060140
:103520005146009800F0E4FD82460191274A284B5D
:103530004046314600F0DCFD5246019B00F0FEFFA4
:1035400082460B4602460591DDE9060100F068FB64
:10355000DDE9062300268846304600F0EFFF52469C
:10356000059B00F0F9FE024600F07EB90020B1F59F
:10357000801F07DA35223046614601F069FA0646B7
:103580006FF0340000EB215024E00000FFFF1F002B
:10359000FFFF0F000000F03F0000F07F00004043FD
:1035A00001FCFFFF062200000000F0FF0000F0BF5A
:1035B0000000E0410000F043FFFFEF3F5555D53FCD
:1035C0000000E03F4715F73FFE822B6544DF5DF8C2
:1035D0000BAE543EA0F2FF300190C1F3130040F057
:1035E0007F6141F040510291FE498842D8BF0020DE
:1035F00004DDFD498142C8BF012001DD0D9008E0D6
:1036000000200D900198401C01900298A0F58010B8
:1036100002900299F54878440B910D9900EBC10096
:10362000D0E900230F9330460A920B9900F086FFF1
:10363000CDE90601DDE90A2130460F9B00F0F0FAE2
:1036400002460B460020EA4900F0A6FB059102461F
:103650000B460090DDE9060100F04AFD1490E548B4
:103660008A464FF0000878440299006812904FF0A3
:10367000005040EA61010D980F9B01EB804000F57E
:10368000002109910A9A129800F058FF32460B9BCC
:1036900000F062FE4246534600F02AFD06460291C3
:1036A00040465146099B129A00F022FDDDE90623AF
:1036B00000F052FE3246029B00F040FF059B009A4C
:1036C00000F016FD0091149A0490534610461946D6
:1036D00000F00EFD06460246C7480B460291062141
:1036E0007844FFF77DFCCDE90510029B3246104679
:1036F000194600F0FDFCDDE9053200F0F9FC05910A
:103700000646534640461946149A00F089FA009B33
:10371000049A00F0EDFC3246059B00F081FACDE9F9
:103720000510424653461046194600F0E1FC0022BF
:10373000B24B02910A9000F073FADDE9053200F015
:103740006FFA0E464246AD4B404600F0F7FE029B34
:103750000A9A00F0F3FEDDE9053200F0FDFD424675
:1037600002910A9033461046514600F0C1FCCDE963
:1037700006015346149A02990A9800F0B9FC8A4649
:103780000290334642460099049800F0B1FC53463B
:10379000029A00F045FA82460B4602460591DDE9A1
:1037A000060100F03DFADDE90623002088460646C2
:1037B00000F0C4FE5246059B00F0CEFD8246099102
:1037C0004FF060428E4B3046414600F091FC049031
:1037D00006918C4A8A4B5046099900F089FC824632
:1037E0000291894A894B3046414600F081FC52469D
:1037F000029B00F015FA864B7B440D9A03EBC20343
:10380000D3E9002300F00CFA0E900791019800F024
:103810001BFC0591DDE9061382460E9A049800F020
:10382000FFF97C4A7A440D9B02EBC303D3E90023E2
:103830000093029200F0F4F95246059B00F0F0F973
:103840000026884652463046059B00F077FE009BD6
:10385000029A00F073FE069B049A00F06FFE079B2D
:103860000E9A00F079FD024600200B460290384681
:10387000294600F03DFC824601912B463846194608
:10388000029A00F05BFE3246434600F031FC52469D
:10389000019B00F0C5F907468A4632464346294651
:1038A000029800F025FC05460E463A46534600F0C5
:1038B000B7F9594A8846914221DBA8EB020353EA43
:1038C000000210D12A46334600F038FECDE904014B
:1038D000524A534B3846514600F0A2F9DDE9042321
:1038E00000F004FD21D20220FCF713FEFFF7DEFBFF
:1038F0000A46214618B062F31E01BDE8F08D494B1F
:1039000028F000429A4210D3474A08EB020353EAD8
:1039100000027FF4C6AD2A46334600F00FFE3A4659
:10392000534600F0E3FC7FF6BCAD0022019228F084
:1039300000403E493E4A01EB2051824223DA481CB6
:103940004FF4801121FA00F040443A4AC0F30A5182
:103950007A44394BA1F2FF31CB4020EA0303C0F394
:10396000130040F48010C1F11401C84012680190A6
:10397000B8F1000FBCBF404201902846314600F02C
:10398000DDFD05460E462A4633463846514600F0D0
:1039900047F94FF000084246284B4046059100F099
:1039A000A7FBCDE90601264A264B4046059900F0C3
:1039B0009FFB009102902A4633464046059900F04D
:1039C000BDFD3A46534600F0C7FC1F4A1F4B00F0AE
:1039D0008FFB009B029A00F023F9074688460246B7
:1039E0000B4635E08E9803007AB60B004E1E0000A1
:1039F0000000F03F861E0000B41D000000000840DB
:103A000009C7EE3FFD033ADCF5015B14E02F3EBE33
:103A10008C1C0000501C000000009040FE822B65B2
:103A20004715973C00CC904000346F3F01FCFFFFEE
:103A30000000E03F9C1B0000FFFF0F00432EE63F0D
:103A4000396CA80C615C20BEEF39FAFE422EE63FCD
:103A5000DDE9060100F0E4F8DDE9062305460E463F
:103A600000F06CFD3A46434600F076FC0F462A46CD
:103A7000334600901046194600F03AFB8246024653
:103A80002E4888460B4605217844FFF7A9FA52468E
:103A9000434600F02DFB2A46334600F05DFC80468D
:103AA0008A463B4628463146009A00F021FB3B46B9
:103AB000009A00F0B5F80691009000224FF0804384
:103AC0004046514600F03AFD0F460C9042465346A0
:103AD0002846314600F00CFB3B460C9A00F05CF99E
:103AE000069B009A00F02AFD2A46334600F026FD88
:103AF0000022134B00F030FC054601980E4601EB06
:103B000000510815002810DC28463146019A00F0C3
:103B10009FFFFFF741FA042808BFFFF7CFFA2846B6
:103B20003146019A00F094FF05460B4618B02A462C
:103B300058462146BDE8F04D00F0DABA3C1A0000C4
:103B40000000F03F2DE9F04106460F4600F010FC62
:103B5000041E0D4618BF0120284320F00040C0F18C
:103B60007F6000F1E040C00F0ED0301C18BF012074
:103B7000384320F00040C0F17F6000F1E040C00F0A
:103B800004BF0120FCF7C5FC20462946BDE8F081B2
:103B900010B500290AD00878002807D005487844D5
:103BA000FDF776F8002801D0002010BD02487844C7
:103BB00010BD00000E1A0000061A000021F000429D
:103BC000A2F16052B2F5801F01F0004328BFD2F18C
:103BD0007F6C0BD95FEA001C43EAC20242EB5070D3
:103BE00018BF704728BF20F001007047B2F5801F52
:103BF000BCBF184670474FEA410C1CF5001F02D2AB
:103C0000084600F0ECBE70B500F01CFB0000008917
:103C1000FFF7F6BF4FF00040A0F5800070470000AE
:103C200010B591EA030F48BF83F0004300F18E8482
:103C3000841A71EB030C05D2121943EB0C03001B21
:103C400061EB0C01DFF824E14FEA1154A4EB135CA3
:103C50001EEA430F18BF9EEA445F73D023EA0E03A7
:103C6000DCF1200E21EA045143F4801332D322FA0E
:103C70000CFE10EB0E0023FA0CFE41EB0E01CCF112
:103C8000200E03FA0EFE10EB0E0051F10001B1F50B
:103C9000801FCCF1200E32D201EB045112FA0EF249
:103CA000BDE8104058BF7047401C38BF5FEA420271
:103CB00018BF7047002814BF20F0010041F1000137
:103CC0004FEA410313F5001F38BF7047A1F1C0410F
:103CD00000F006BB012A43EB0302ACF1200CDCF13F
:103CE0001F0E32BF4FF0000E23FA0CF310EB03004F
:103CF00041EB0451B4EB115FD0D0A1EB045101F5BD
:103D0000801149085FEA300001EB04510ED350F1F5
:103D1000000038BF12FA0EFE08D1BDE81040C9E716
:103D2000401C38BF5FEA4202CAD1C3E7BDE8104079
:103D30004FEA410313F5001F38BF7047A1F1C0419E
:103D400000F0CEBA9EEA445F08D011EA5E0FBDE8EB
:103D5000104004BF01F0004100207047BDE8104052
:103D600070B500F06FFA00BF64FBBE3E0000E0FFDC
:103D700002494FF0000000F039BE00BF0000F87F9C
:103D8000491058BFC1F140415B1058BFC3F14043D7
:103D90008B42EFF3008070472DE9C04130B4DFF86B
:103DA000A0C23CEA111418BF3CEA131400F0EC80E6
:103DB00081EA03051CEA111444EAD57418BF1CEA11
:103DC000131500F0C780A4EB05044FF0004545EA49
:103DD000C12145EAC32341EA505143EA525304F159
:103DE0007F74994204F500344FEAC0204FEAC222A2
:103DF00008BF904200F09C804FEA13650FF2401616
:103E0000765D4FEA134506FB05F7C7F1807706FBA1
:103E100007F74FEAD737A7FB03687642C8F5803823
:103E2000A7FB06CE38BFA8F1010807FB08E64FF054
:103E3000000EA6FB028CE6FB03CEDCF1000CCEF1FB
:103E4000004E38BFAEF1010EA6FB0C584FF0000734
:103E50004FF00005E6FB0E87A1FB08C6A0FB07CECE
:103E600016EB0E0645F10005E1FB076515F1E04E86
:103E70007EBFA4F580345FEA46066D4116F18007E7
:103E800045F100054FEA17274FEA066647EA05673E
:103E9000A6F1DE46B6F1805F4FEA15251FD93846F8
:103EA00024F0010C05EBC471BCF1FE6F01EB0C11A9
:103EB00002D8F0BCBDE8008124425CBF01F5801E41
:103EC0009EEAC47F02D4F0BCBDE80081244238D40D
:103ED000F0BCA1F1C041BDE8004100F001BA4FEAD9
:103EE000D22242EA43524FEAD323A7FB02864FEA8B
:103EF000D02040EA415007FB03661EEA0E0F4FEA4E
:103F0000D12105FB026658BFA6EB0056B6EB005662
:103F10004FEA520E4EEAC37E18EB0E0E56EB530ECE
:103F2000BDD518EB02085E417F1C55F10005B6E7D0
:103F30004FF480154FF000074FF000064FF00008D7
:103F4000ADE7F0BC4FF0000001F1C04101F00041CD
:103F5000BDE8008111EA0C1F0CEA131500D00CE03B
:103F600013EA0C1F00F025804FF00000F0BC81EA3E
:103F7000030101F00041BDE80081F0BCBDE8004153
:103F800081EA030100F0ACB9F0BCBDE8004170B5B6
:103F900000F058F9097EFC3E00F007B881EA030101
:103FA0004FF0000001F00041704781EA030100F08A
:103FB00097B9F0BCBDE800414FF0000021497047BF
:103FC000FFFDFBF9F7F5F4F2F0EEEDEBE9E8E6E4DE
:103FD000E3E1E0DEDDDBDAD8D7D5D4D3D1D0CFCD65
:103FE000CCCBCAC8C7C6C5C4C2C1C0BFBEBDBCBB9E
:103FF000BAB9B8B7B6B5B4B3B2B1B0AFAEADACAB99
:10400000AAA9A8A8A7A6A5A4A3A3A2A1A09F9F9E72
:104010009D9C9C9B9A999998979796959594939324
:10402000929191908F8F8E8E8D8C8C8B8B8A8989BB
:10403000888887878685858484838382828181803E
:104040000000FF070000F87F10F0004248BF404228
:10405000B0FA80F310FA03F10AD0C3F11D0303F59F
:1040600080634FEA415002EB035202EBD1217047CB
:104070004FF000007047000051EA030C17D41CF504
:10408000801F58BFBCF5801F00F10680994218BF01
:10409000704708BF9042704707D711F5801F58BF7F
:1040A00013F5801F19D499427047894270471CF557
:1040B000801F08D5BCF5801FF7D58B4218BF70470D
:1040C00008BF824270474FF4001C1CEB410F38BF01
:1040D0001CEB430F01D28B42704770B500F0B2F871
:1040E000922449004FF000514FF08053FFF748BE33
:1040F000DFF848C170B51CEA111E1EBF1CEA13157B
:104100009EEA0C0F95EA0C0F00F06F8081EA030421
:1041100023EA4C134EEAD47E21EA4C1141F480117B
:1041200043F48013AE44A1FB024CA0FB0365AEF147
:104130007F7E361955EB0C05A1FB034C4CF10003B7
:10414000A0FB021C16EB0C06654153F1000309426B
:1041500018BF46F0010613F4007F0BD14FEA03317C
:104160004FEA0530340341EA155140EA16506FF02A
:1041700003020AE04FEAC3214FEAC520F40241EAF4
:10418000555140EA56506FF0020202EB2E4201EB0D
:10419000025585EACE710AD05FEA440C18BF24F0BC
:1041A000004450F1000041F1000120EAD47040F2D7
:1041B000FE7C624500D270BDA84214BF4FF080441F
:1041C0004FF04044002E08BF0024BEF1806FA8BF0E
:1041D000A1F1C041BDE8704080F282804FF0000044
:1041E00001F1C04101F0004170479EEA0C0F0CEA5A
:1041F000131518BF95EA0C0F06D04FF0000081EAA6
:10420000030E0EF0004170BD00F01CF88900013E65
:1042100000F007B800F009B84FEA430C5FEA5C5CB5
:1042200008D081EA030100F05BB84FEA410C5FEA75
:104230005C5CF6D14FF00000014970470000FF07B9
:104240000000F87F0EF1020E2EF0030E5EF8046BF4
:10425000364205D4012A43EB030515F5001F12D899
:10426000012841EB010C1CF5001F0CD80ED14FEAC0
:10427000D17C15F5001F0CEB4C0C0CF1020C08BFA7
:104280004CEBD37C04E04FF0080C01E04FEAD37C08
:104290000CEB4C0526FA05F606F00706B6F1040C01
:1042A00006D20EEB860CBDE870404CF0010C604766
:1042B000DFE80CF0090B02024FF000414FF0000064
:1042C000A1F5002170BD19461046012851EB0104EB
:1042D00018BFD4F5001484BF002001F0004170BD68
:1042E0000808A0F500114FEA3101704753EA010CAC
:1042F00017D41CF5801F58BFBCF5801F00F1068045
:104300008B4218BF704708BF8242704707D713F52A
:10431000801F58BF11F5801F19D48B4270479B42F4
:1043200070471CF5801F08D5BCF5801FF7D5994252
:1043300018BF704708BF904270474FF4001C1CEB39
:10434000430F38BF1CEB410F01D2994270470FB4A5
:104350000CBC03BCFFF7C1BE91EA030F10B581F09E
:1043600000413FF565AC83F0004300F0EFB800007A
:104370002DE9F04101F5801CBCF5001FC0F2C3809F
:104380004FEA115C21EA0C510CF1FD0C41F4801153
:104390005FEA5C0C0CF5C07C01D3400049413DA4B0
:1043A000890241EA905187028E0E0A0CA45D04FB3B
:1043B00004F602FB06F6C6F14046A4FB0662F60DC3
:1043C00046EA422606FB06F4A4FB01235242C3F14F
:1043D000404338BF5B1EA6FB02420024E6FB0324D9
:1043E000D20B42EA4446A6FB0623A1FB02E2A3FB52
:1043F00007E4A4184FF0000252F10002E3FB01426F
:104400006442C2F1404E38BFAEF1010EA6FB042358
:104410004FF00002E6FB0E32A2FB03464FF0000411
:10442000B61954F10004E2FB0264A1FB06E6A4FB0A
:1044300007E816EB08064FF0000858F10008E4FB07
:1044400001687642C8F1405838BFA8F10108A2FBC4
:1044500006E4A3FB08E52D194FF0000454F1000415
:10446000E2FB0854A1FB05E6A7FB04E818EB0608ED
:104470004FF0000656F10006E1FB048618F1200516
:1044800056F10006A809A8F11B08B10908F03F0879
:10449000B8F10A0F40EA86601CD901EB0C51BDE867
:1044A000F08100BFFCF5EEE8E2DDD8D3CFCBC7C387
:1044B000C0BDB9B6B4B1AEACA9A7A5A3A19F9D9B41
:1044C0009A9896959392908F8D8C8B898887868504
:1044D00084838281A0FB006800FB01F208EB4208A4
:1044E000B8EB872807D5341858EB0104D5D5401C04
:1044F00051F10001D1E7341A78EB0104CDD4401E0C
:1045000071F10001C9E75FEA4C0C5FEA9C5C0DD1D8
:1045100005D34FF0000001F00041BDE8F081BDE897
:10452000F04170B5FFF78EFE6DDBFFBEBDE8F041D8
:104530004FF00000004970470000F87F10B591EA85
:10454000030F48BF83F000433FF572AB841A71EB51
:10455000030C07D212198CF0004C43EB0C03001B28
:1045600061EB0C01DFF8A4E14FEA1154A4EB135CFA
:104570001EEA430F18BF9EEA445F00F0B08023EAB2
:104580006E03524221EA0451C3EB6E0338BF5B1E37
:10459000DCF1200E25D322FA0CFE10EB0E0043FABC
:1045A0000CFE41EB0E01CCF1200E03FA0EFE10EBD7
:1045B0000E0051F10001CCF1200E29D412FA0EF2B6
:1045C00001EB0451BDE8104058BF7047401C1CBFB0
:1045D000B2F1004F704700280CBF491C20F00100C9
:1045E000704712EB020E43EB030218BF4FF0010EAF
:1045F0004EEA4202ACF1200CDCF11E0E54D943FA13
:104600000CFE10EB0E0051F1FF31CCF11E0ED5D592
:104610000EF1010E12FA0EFE404141EB010101EBD9
:10462000445C5FEA5C5C10D910EBDE7001EB045176
:1046300038BFBEF1004FBDE8104018BF70470028DA
:104640000CBF491C20F00100704730D24FEAD42C37
:1046500011F5001124F400641BD0B1FA81F20B3A79
:10466000A41AA41ED2F12003914030FA03F3194397
:10467000904001EBCC71002C01EB0451BDE81040DF
:10468000A8BF704701F1C0414FF0000001F00041A8
:104690007047B0FA80F310FA03F100D110BDE41AAC
:1046A000173C4805C90AE4E701EB045110BD491065
:1046B00001EB0451BDE810404FEA300002E04FF03A
:1046C000000170474A0008BF0042F8D0B2F5001F51
:1046D00028BF704701F000414FF0000070479EEA8C
:1046E000445F07D011EA5E0FBDE8104004BF00210F
:1046F00000207047BDE8104070B5FFF7A3FD00BF74
:1047000040DFF63E83F00041104670470000E0FFB6
:1047100043004FEAD30C4FEA3C0C43401FBF400715
:104720000CF1605113F0FE4F70471CF0006F03D185
:1047300000200CF0004170470CF0004343EA507039
:1047400010B540EACC0000F004F900BF0000009270
:104750004FEA0001FFF7C4BD4FF000414FF00000E9
:10476000A1F50021704700004FF47F0C1CEAD01225
:104770001EBF1CEAD11392EA0C0F93EA0C0F00F053
:10478000858090EA010F48BF42F4807240F4000C2B
:1047900041F400002CF07F4120F07F4000B58142C1
:1047A000A2EB03020FF2081CACEB504EC0F100006C
:1047B0009EF800E04FEA4E0E00FB0EFC38BF4900A9
:1047C0004FEA2C1C02F5FA020CFB0EF34FEACE1E48
:1047D0004FEA112C4FEAC1210EEB635E42EB2242FD
:1047E0000EFB0CFC4FEA1C5300FB03114FEA112C8B
:1047F0004FEA01310EFB0CFC4FEADC4C00FB0C11C4
:10480000C14228BF09184CEB03335DF804EB10EBF1
:10481000410143EBC250B2F57C0F38BF704729D538
:1048200012F0F00F1CBF00F1C04000F000407047D4
:10483000008182838485868788898B8C8D8E8F9179
:104840009293959697999A9C9D9FA0A2A3A5A7A89D
:10485000AAACAEB0B2B3B5B7B9BCBEC0C2C5C7C9C9
:10486000CCCED1D4D7D9DCDFE2E6E9ECF0F3F7FA2D
:10487000FE0000004FEA400C0CF1807CBCF17E4F42
:1048800028BF7047B0F1C04000F0A9B890EA010F0E
:104890000CEAD11348BF42F48072624538BF6345C9
:1048A00007D213F47F0F16D080EA010000F0004019
:1048B000704710B500F04DF8097EFC3E00F005B8D9
:1048C00080EA010000F00040704780EA010000F03B
:1048D000004000F084B812F47F0F04BF0248704714
:1048E00080EA010000F07BB80000C07FC10DD1F16B
:1048F0009E0206DB4FEA002343F0004323FA02F056
:104900007047004207D54FEA4001B1F1FE4F02D295
:104910004FF00000704710B500F01BF8499224805A
:10492000002070476FEA200070470000B0FA80F363
:1049300010FA03F2C3F19D030AD0D90501EB12204E
:10494000530638BF704700F1010008BF20F0010096
:1049500070470EF1020E2EF0030E5EF8044B244257
:1049600004D44FEA4102B2F17F4F11D84FEA40031D
:10497000B3F17F4F0CD80ED14FEAD07CB2F17F4F0C
:104980000CEB4C0C0CF1020C08BF4CEBD17C04E09E
:104990004FF0080C01E04FEAD17C0CEB4C0324FAF9
:1049A00003F404F00704B4F1040C06D20EEB840CFB
:1049B000BDE810404CF0010C6047DFE80CF0070840
:1049C00002024FF00040A0F5800010BD08464200F2
:1049D00018BFD2F1807288BF00F0004010BDFF21E7
:1049E00041EAD050C0057047FBF7CBBE0CF00F0377
:1049F000092B08BF082000F059800A2B0BD0082B88
:104A000018BF704708BF1CF0400F0AD04FF00000DD
:104A10004FF0000170471CF0400F18BF4FF00040EE
:104A200070471CF0100F08D020F0704300F07F4258
:104A300042EAD3014FEA4370704700F0604021F032
:104A40007F4242EA000201F07F4040EA7270704704
:104A50004FF0FF0C4CF4E06C1CEA11531CBF9CEAB5
:104A6000030C9445C2BFDA4201EB02517047002BA0
:104A70000DD0BCF1000F0FD0002A01F00041A4BFFF
:104A800041F0E04141F07F614FF00000704701F0DC
:104A900000414FF00000704750EA01334FF09B0C8B
:104AA00018BF4CF0806C7FF463A970471CF4801F22
:104AB00011D01CF4E02F03D06FEACC3149007047CD
:104AC0004FF04050EFF3008222F0704242EA0002C1
:104AD00082F3008870474FF0000070470102020324
:104AE0000405060708090A0B0C0D0E0F1010010231
:104AF00002030405060708090A0B0C0D0E0F10101F
:104B0000000000000000000001020304060708097D
:104B1000000000000102030400000000000000008B
:104B20000000000000000000000000F8000000008D
:104B3000000000333000000000100C06100C0600CE
:104B4000000000000000000040C07840C078400035
:104B5000043F04043F040400007088FC0830000097
:104B6000001820FF211E0000F008F000E0180000EF
:104B700000211C031E211E0000F0088870000000A8
:104B80001E2123241927211010160E0000000000FA
:104B90000000000000000000000000E01804020017
:104BA000000000071820400000020418E000000088
:104BB0000040201807000000404080F08040400086
:104BC0000202010F01020200000000F000000000DC
:104BD0000101011F010101000000000000000000B0
:104BE00080B0700000000000000000000000000025
:104BF00000010101010101010000000000000000AE
:104C00000030300000000000000000008060180448
:104C1000006018060100000000E010080810E00025
:104C2000000F102020100F00001010F800000000EE
:104C30000020203F20200000007008080888700035
:104C400000302824222130000030088888483000B5
:104C50000018202020110E000000C02010F80000D5
:104C600000070424243F240000F80888880808006E
:104C70000019212020110E0000E010888818000083
:104C8000000F112020110E0000380808C838080055
:104C90000000003F000000000070880808887000D5
:104CA000001C222121221C0000E010080810E00056
:104CB0000000312222110F00000000C0C0000000DF
:104CC0000000003030000000000000800000000004
:104CD00000008060000000000000804020100800FC
:104CE00000010204081020004040404040404000C5
:104CF00004040404040404000008102040800000A0
:104D00000020100804020100007048080808F000A4
:104D10000000003036010000C030C828E810E00074
:104D20000718272423140B000000C038E0000000FF
:104D3000203C23020227382008F888888870000069
:104D4000203F202020110E00C0300808080838003D
:104D5000071820202010080008F808080810E000B4
:104D6000203F202020100F0008F88888E808100055
:104D7000203F20202320180008F88888E808100029
:104D8000203F200003000000C03008080838000061
:104D900007182020221E020008F808000008F80862
:104DA000203F210101213F20000808F808080000E9
:104DB0000020203F2020000000000808F80808001C
:104DC000C08080807F00000008F888C02818080094
:104DD000203F20012638200008F8080000000000CD
:104DE000203F20202020300008F8F800F8F80800C4
:104DF000203F003F003F200008F830C00008F808BE
:104E0000203F200007183F00E01008080810E000CD
:104E10000F10202020100F0008F808080808F000E4
:104E2000203F210101010000E01008080810E00007
:104E30000F18242438504F0008F88888888870009C
:104E4000203F2000030C302000708808080838003C
:104E50000038202121221C00180808F80808180032
:104E60000000203F2000000008F808000008F808B3
:104E7000001F202020201F000878880000C8380864
:104E8000000007380E010000F80800F80008F800DC
:104E9000033C0700073C0300081868808068180876
:104EA00020302C03032C30200838C800C8380800F4
:104EB0000000203F2000000010080808C838080043
:104EC0002038262120201800000000FE02020200E7
:104ED0000000007F40404000000C30C00000000097
:104EE000000000010638C00000020202FE000000BF
:104EF000004040407F000000000004020202040065
:104F000000000000000000000000000000000000A1
:104F10008080808080808080000202040000000089
:104F20000000000000000000000080808080000081
:104F30000019242222223F2008F80080800000006F
:104F4000003F112020110E00000000808080000032
:104F5000000E112020201100000000808088F80041
:104F6000000E112020103F20000080808080000073
:104F7000001F222222221300008080F088888818D7
:104F80000020203F202000000000808080808000E2
:104F9000006B94949493600008F800808080000077
:104FA000203F210000203F20008098980000000052
:104FB0000020203F20200000000000809898000082
:104FC00000C08080807F000008F8000080808000A2
:104FD000203F24022D302000000808F800000000C7
:104FE0000020203F20200000808080808080800082
:104FF000203F20003F20003F808000808080000014
:10500000203F210000203F200000808080800000A1
:10501000001F202020201F008080008080000000D2
:1050200080FFA12020110E00000000808080800001
:10503000000E112020A0FF808080800080808000F2
:1050400020203F212000010000008080808080001F
:105050000033242424241900008080E08080000094
:105060000000001F202000008080000000808000E1
:10507000001F202020103F20808080000080808042
:1050800000010E30080601008080008000808080D2
:105090000F300C030C300F000080800080808000F7
:1050A0000020312E0E312000808080000080808022
:1050B00080818E70180601000080808080808000D2
:1050C0000021302C2221300000000000807C0202F0
:1050D00000000000003F404000000000FF00000012
:1050E00000000000FF0000000002027C80000000C1
:1050F0000040403F000000000006010102020404DD
:10510000000000000000000080F00E603ED0300083
:10511000015F300F403F060800FC906000F40C0077
:1051200040271E21417F010100FC40FE40FC400061
:10513000007F405F484F4040003C54D4FC543C004A
:105140000044330E003F020080F00E603ED030007D
:105150000000000000000000000000FE8282828249
:10516000828282FE00000000000000FF40404040BC
:10517000404040FF000000000004FF242424FF04FE
:1051800000FE222222FE000088482F090919AF489C
:10519000300F0242827F00004040424458C0407FAE
:1051A00040C0504846404000808040201807000022
:1051B000003F40404040780002E222223E00809EB4
:1051C0009292F292929E8000004382423E40474477
:1051D00044447F444454E700008060F807402018AE
:1051E0000F08C80808281800010000FF00100C0371
:1051F00040807F00010618001010F01F10F00080A2
:105200008282E2928A8680004022150816610000A0
:1052100040807F000000000004244484649C4030EF
:105220000FC808082818000010080601824C201832
:105230000601061820408000404042CC0000FC04DB
:105240000200FC0404FC00000040201F20404F44EA
:1052500042407F42444340008060F80704E4242435
:1052600024FF242424E404000000FF008081452959
:10527000112F4141818180000000FE22222222FE66
:1052800022222222FE00000080601F020202027F12
:10529000020242827F0000001060028C00FE02F2D7
:1052A00002FE00F800FF000004047E018047300F7A
:1052B00010270047807F0000202020BEAAAAAAAAAB
:1052C000AAAAAABE20202000008080AFAAAAAAFF16
:1052D000AAAAAAAF80800000404042CC0040A09E15
:1052E0008282829EA02020000000003F90884043E0
:1052F0002C10284641808000001715D55557557D44
:10530000555755D5151700004040407F5555555508
:105310005555557F40404000002018C74444444440
:10532000FC4444444404000004040407040404044A
:10533000FF04040404040400000000FE22222222D0
:1053400022222222FE0000008040300F02020202D0
:10535000020242827F000000000000FE8282828200
:10536000828282FE00000000000000FF40404040BA
:10537000404040FF0000000000FC848484FC0010DA
:1053800010101010FF101000003F1010103F000010
:10539000010640807F000000804020908886808049
:1053A00080838C102040800000804020180700403F
:1053B00080403F0000000000008060F807101010DF
:1053C000D0FFD01010101000010000FF10080403DF
:1053D00000FF00030408100000F80142404242FAB6
:1053E0004242424202FE000000FF00080402013F68
:1053F00001020448807F00000000F010101010FF30
:1054000010101010F000000000000F04040404FF4E
:10541000040404040F00000020202020202020206D
:10542000202020202020000000000000202020203C
:10543000202020202020202020200000000000002C
:10544000202020202020202020202020202000009C
:10545000000000000400000800000000000000023E
:105460000001000010000000000000000000F03FFC
:10547000000000000000F83F0000000000000000F5
:105480000000004003B8E23F000000000000000000
:1054900006D0CF43EBFD4C3E033333333333E33F8E
:1054A000FFAB6FDBB66DDB3F4D268F515555D53FBA
:1054B00001411DA96074D13F65DBC9934A86CD3F88
:1054C000EF4E454A287ECA3F3E5555555555C53F76
:1054D00093BDBE166CC166BF2CDE25AF6A56113F68
:1054E000F16BD2C541BDBBBED0A4BE726937663E6A
:1054F000000000000000000002400000000000A0CA
:105500000000000005400000000000C8000000008E
:105510000C4000000000409C00000000194000000A
:105520000020BCBE0000000034400000BFC91B8E3C
:1055300000000004B5400000504BCFD06607E2CF1A
:10554000010000006C4100003E8251AADFEEA7344A
:1055500001000000D9420000DCB5A0E23A301F97FC
:10556000FFFFFFFFB4450000FD25A0C8E9A3C14F20
:10557000FFFFFFFFFF3F0000000000800000000071
:10558000FF3F00000000008000000000C855000838
:1055900000000020600C0000280100088C5B00085F
:1055A000600C0020000C0000840100081C000000BA
:1055B00043000000F8FFFFFF0C0000000E00000099
:1055C0000F0000002E000000011032018210132491
:1055D000F40AFDFF0109FD0109FD0109FD011901A1
:1055E0000110580B80C0E0E0F0F8F8FCFCFE011C54
:1055F000FCFCF81019010719F0E0E0C0C08019396F
:105600006CF0FCFE572F7F3F1F1F1F3F011907AA99
:105610007F713951194BB94A7BC0F83A29012D27BE
:10562000606040211E80C0C06020010A132FBB842F
:10563000FCF0E01A076C19746008FFDF0F071F1FEA
:105640001D1503FEFE033C1C3C180CCA0F855901B6
:10565000B23F1B3FFFE7181FF3E6CC081830F0708D
:10566000B898180C0F0D0D0F0C9CB8B0F0303030FE
:1056700038188CE6E3F1011809F3E3830303078785
:10568000FFDEE30F072009071F376FCF8F070118D1
:105690001001060C0919191313131119090D04032C
:1056A00012298219A3C0153F3F1F0F87C0F0FC3F8E
:1056B00033E262D29ACCC4C8D8B0C028090C9FFF8C
:1056C000FEFCF8F0E0011AF08F6DFCFCFCF80180A4
:1056D0001B7878B8B8783CFCFEF3E1C0F80E030103
:1056E000FC8701030618F18103C7302BE0FCD418B6
:1056F00009F88187FFFFF7CFBF0B1813BFFFDFFF4C
:10570000EFFFF3FFFBF9FDFEFEFFFF8781C00639C7
:10571000241C80808005071340403D1F0C03191F87
:10572000180BC0C0E060607030707060012EE070D7
:10573000381C0C01080C101C181838307060C0C0E0
:105740008080351AC0273809381C0E06070303016C
:10575000F45119EF4CFCECF0CB2CF0E0C038380AD7
:1057600080818303070E1C38700F280980C0F078F1
:105770003C0E070333E4F0F838480AF8FFFF3331F2
:105780003130606039300DC3E77FFEF88103071EBA
:105790007CF0C014010F0F1C0F1F312539705BFF07
:1057A000FFCD1BF0F0C02008F8F870707F7F7F1BE2
:1057B0001078012D03FFFEFF63380D0307077E7E7F
:1057C000FE7E3FCFFFFCF07E281D80C0C7DFDCD807
:1057D000FCFCFE0E0FFFFEF0F0F070787F7F3F3F85
:1057E000390101030706F01C98F878D510180F0F3F
:1057F0000D0F0F0E0C1CB8F8F818080C8663311842
:1058000018010FFFF9681A19193938383919181F92
:10581000BFFCF0E1C68C889C9C949C98D8CCC7C0F7
:10582000013012C3C78F9F9EB6B6A62626263637EE
:10583000131B0F07100A838ED0E0F0B81F0F011C56
:1058400006060E5519661AFF7439010C187F7FFF82
:10585000012AFE011AFFD5192914FFDF04160E0CC8
:105860000C08081E080808090F011A0E0129102843
:105870000801070F0B0B0B070129173B0F0F0B1923
:1058800013180B0B0D07030108080C0C0ED0D209DE
:10589000F02B80C0C06070309898ECCCCE06062605
:1058A000A3FBB3FFA383830323E3FB6BFB4B06063E
:1058B00006CC8CEC9858307060C0C080583780C0DF
:1058C000F0381C0E07A3E9D0F8606081CDE76F3E89
:1058D000121A180D0F0D070484E4C40404050C0FFC
:1058E0000818183F3767FFD9812020A8F0317B0FB7
:1058F0000E1C38E0474012C0F83E07011C5E787E5F
:105900007E8CE0FB3D0E070135E0F0D8842A3EF1A5
:10591000323C3584F8F0E010130103070E3DFBE044
:10592000B8243E7E5C7E3F173EF8C03BFEFF311937
:105930004894FEFFFF8015FFF7CF9F1F3F7EFEFCC0
:105940000131FCFE3E3F9F8FCFF7FD7501FFFFFC4D
:105950005E03FFFC7FFFCE6E077FFFFFE0DA1CE1F6
:10596000F7DF40680F7FFDFC3070FCFF3E3F1F8F6C
:10597000FFF3C0ED75F0FFFF7F14C0FF3F180D036C
:105980001F7CE080041C7E58F0C38F731CFCF0E089
:10599000DA180F83070F1F3F3E7FFDF8F0F0F8FD88
:1059A0007E4110130F078380C0E0F0F8FC7E3F1F9C
:1059B00087C1F0AA6E084EC0F07C0F0392483603F0
:1059C000071C3871E3C98D1B2E1C78F163E7CFCF1C
:1059D0009F9F1F0E0E067E537970597B337E0E0EED
:1059E0000E9F9F9FCFC7E763F1383C3E1E8DC3E3F8
:1059F00070381E073CB1002B4B010103060E0C1C36
:105A00001939333363636767C1C0CCC7CECECECC00
:105A1000CFC7C0C063666763333119191C0C060712
:105A2000030101FAFF01280A7F7F3F3F9F9FDFDFCD
:105A3000CF012AEF01080C10CF0F0F1F9F1F9F3FB0
:105A40003F7F7F2F793718133F0FC7E7E3F9683C93
:105A500038138FCDC7E36363733101C819B1F939C6
:105A600031F9FCFEFF6363E7C7CF8F1F1E3479F166
:105A7000F3E7CF1F3F4910123F0FC3C0BCBE3B1F0F
:105A800086E1F0381C06030301180880C0E0F0F836
:105A900004FE1C49A34168120103070E1C38F1E300
:105AA000830F1FDECC40030F3F3F1201700AFCFF43
:105AB000FFCF01E0FE3F032B80C1182A38052B1EC3
:105AC0000E0666EEFEFE7C1815037FFC801516FEA2
:105AD000FEFE5A034021194B47FE800FFFF8802E2F
