:020000040800F2
:10000000C81B0020E9010008A92C00086B28000883
:100010003D2C000891140008A935000800000000DC
:10002000000000000000000000000000A1330008F4
:10003000651500080000000059310008A3330008CE
:10004000030200080302000803020008C13200088E
:100050000302000803020008671500086D15000878
:1000600073150008791500087F15000803020008C1
:10007000030200080302000803020008030200084C
:10008000030200080302000803020008030200083C
:10009000030200080302000803020008030200082C
:1000A000030200080302000803020008030200081C
:1000B00029340008030200080302000803020008B4
:1000C00003020008030200080302000803020008FC
:1000D00003020008030200080302000803020008EC
:1000E00003020008030200080302000800F002F8FF
:1000F00000F06AF80AA090E8000C82448344AAF158
:100100000107DA4501D100F05FF8AFF2090EBAE855
:100110000F0013F0010F18BFFB1A43F0010318473B
:10012000544E0000744E00000A444FF0000C10F8CA
:10013000013B13F0070408BF10F8014B1D1108BF65
:1001400010F8015B641E05D010F8016B641E01F805
:10015000016BF9D113F0080F1EBF10F8014BAD1C55
:100160000C1B09D16D1E58BF01F801CBFAD505E073
:1001700014F8016B01F8016B6D1EF9D59142D6D3CD
:10018000704700000023002400250026103A28BFF5
:1001900078C1FBD8520728BF30C148BF0B607047F9
:1001A000662904F05681642900F07A8000207047A7
:1001B0001FB500F02FFC04000020002104F0A8F877
:1001C000E0601FBD10B510BD00F024FD1146FFF723
:1001D000EFFF04F073F800F042FD03B4FFF7F2FF05
:1001E00003BC00F087FD000009488047094800472C
:1001F000FEE7FEE7FEE7FEE7FEE7FEE7FEE7FEE7D7
:10020000FEE7FEE704480549054A064B7047000033
:1002100027340008ED000008C8150020C81B002086
:10022000C8170020C81700200FB41CB5074B06AA3A
:100230007B4469460090059800F0D3FB0020694696
:1002400000F0E2FB1CBC5DF814FB0000D5070000C9
:1002500070B5044685690068C10601D5302600E006
:100260002026C00707D070BDD4E901213046904751
:10027000206A401C20626D1EF6D570BD70B5044624
:1002800085690078C00707D170BDD4E9012120201D
:100290009047206A401C20626D1EF6D570BD00009C
:1002A0002DE9F0410646002410687529314616A54F
:1002B00010D0AFF30080002802DA404213A507E017
:1002C00031688A0701D512A502E0490704D511A5B6
:1002D000012401E0AFF3008000210A2206F1240787
:1002E00009E0B0FBF2FCB0FBF2F302FB1C00303083
:1002F00078541846491C0028F3D123462A46304634
:10030000BDE8F04100F000B9000000002D00000041
:100310002B000000200000002DE9F05F8946044614
:100320004FF0000ADFF824B1FB44C0F820A02046BB
:10033000E168884700287DD0252806D0D4E901212E
:100340009047206A401C2062F1E700255F46204666
:10035000E16888472028064607DB312E05D2B81908
:1003600010F8200C08B10543F1E7A80701D525F0E6
:100370000405C4F81CA00027C4F818A02A2E09D030
:10038000304603F0D3FE38B304EB8708303EC8F89C
:10039000186019E059F8041B204604EB87029161AC
:1003A000E1688847012F064618D1E069002820DA65
:1003B00025F020051DE0D8F8180000EB800006EBC2
:1003C00040003038C8F818002046E16888470646E3
:1003D00003F0ACFE0028EED1012F0AD02E2E08D15A
:1003E0002046E16888477F1C0646022F45F020051D
:1003F000C4DBA069002803DA404245F00105A06192
:10040000E80701D025F01005A6B1A6F14100192892
:1004100002D8203645F400654A463146204625601C
:100420004D46FFF7BDFE60B1012807D0ED1D25F058
:10043000070000E007E000F1080978E705F104098A
:1004400075E730467AE7206ABDE8F09FA04B0000D0
:1004500010B5203AC0F00B80B1E81850203AA0E85F
:100460001850B1E81850A0E81850BFF4F5AF5FEA93
:10047000027C24BFB1E81850A0E8185044BF18C946
:1004800018C0BDE810405FEA827C24BF51F8043BED
:1004900040F8043B08BF7047D20728BF31F8023B41
:1004A00048BF11F8012B28BF20F8023B48BF00F8D5
:1004B000012B70474FF0000200B513469446964654
:1004C000203922BFA0E80C50A0E80C50B1F1200167
:1004D000BFF4F7AF090728BFA0E80C5048BF0CC015
:1004E0005DF804EB890028BF40F8042B08BF704773
:1004F00048BF20F8022B11F0804F18BF00F8012BE5
:1005000070477047704770472DE9F0470D46994690
:100510009246044600F124080168880604D5E06983
:1005200021F01001216000E00120A84201DD471BFD
:1005300000E00027A1697A1902EB0900081AA061FE
:100540002078C00602D42046FFF782FE002608E08D
:10055000D4E901211AF806009047206A401C761C55
:1005600020624E45F4DB2078C0060AD52046FFF70E
:100570006FFE06E0D4E9012130209047206A401C3C
:100580002062381EA7F10107F4DC07E0D4E901215D
:1005900018F805009047206A401C2062281EA5F12B
:1005A0000105F3DC2046FFF769FE2078000602D53E
:1005B0000220BDE8F0870120FBE770472DE9FF4FDF
:1005C0000C461E464FF0FF378BB0D2E90001DDF834
:1005D00060800A908A46C1F30A5505B93D4600215C
:1005E00008464FF00000BAF1000F00F4400005DAB1
:1005F00000EB80004FF4400101EA50004FEA9059AF
:10060000B9F1010F00DDB9460A9850EA4A000ED050
:1006100044F61050A5F2FF3545432F14B8F1000FF2
:100620001ED07542291E1EDDC9F100021CE0B8F182
:10063000010F4FF0000001D0302103E0F24305E04C
:100640002154401CB042FBDB3046002200212154E3
:100650000B99C1F80880C1E900200FB0BDE8F08F08
:10066000BD1B6D1CDEE74A4600DA694206A800F0B1
:100670005BFA06AB93E8070003AB83E8070050463C
:100680000A9900F03DFB8DE80700A0F500501F38E7
:1006900000900398002D0ADD42F21F014A460844EB
:1006A000002303A90390684600F0A6FD09E0A0F529
:1006B00000504A461F38002303A90390684600F003
:1006C000B0FD8DE807000004000C03D04FF0FF30B0
:1006D000410800E01046B8F1000F03D0002200925C
:1006E00015461EE0751E05D400F098F930326255AB
:1006F0006D1EF9D5B3460122084302D000227F1CAB
:1007000004E02078302801D100227F1E002A0997BA
:1007100084D01DE0112D07DA00F080F930326255E7
:100720006D1C50EA0102F5D1084302D00098C8B10F
:100730000EE00021681E05E0235C625C63542254D5
:10074000401E491C8142F7DBAB46A81B401E0990A6
:10075000002004F80B000B98099AC0F80880C0E943
:10076000002B7AE711264FF0000857E72DE9F04FEC
:1007700088460446D21D22F0070191B0D1E900015C
:10078000CDE90A0103F0AEFC02460B98C00F01D080
:100790002D2007E02068810701D52B2002E02021D1
:1007A00001EAC000032A099001D0072A05DB0346AD
:1007B0004146204600F078F90BE12078800601D50B
:1007C000E06900E00620B8F1650F814606D0B8F177
:1007D000660F18D0B8F1670F70D131E00020B9F181
:1007E000110F009001DB112301E009F101030AAAB6
:1007F00001A90CA8FFF7E2FEDDE90C70002609F163
:100800000105834647E001204B4600904FF000472A
:100810000AAA01A90CA8FFF7D1FEDDE90DB00C99D9
:100820005D46002610B909F101000D18B9EB05006D
:1008300003D4C0F1FF3609F10105A5EB09002BE057
:10084000B9F1010F01DA4FF001090020B9F1110FE0
:100850000090484601DD112300E003460AAA01A9E1
:100860000CA8FFF7ABFEDDE90C704D460026834671
:10087000207800070AD4AB4500DA5D4601A8012DB7
:1008800004DD411911F8011C302907D04F4502DA67
:1008900017F1040F04DA012082460FE06D1EEEE727
:1008A000002F02DCED1B3E4403E0781CA84200DD73
:1008B0007D1CB81B00F1010A4FF0004720780007AB
:1008C00003D4AA4501DB4FF0FF3A0021B7F1004FF6
:1008D0000DF143088DF8431024D002202B23002F64
:1008E00001DA7F422D230A21021EA0F1010000DC63
:1008F0005FB197FBF1FC97FBF1F201FB1C7C174603
:100900000CF1300C08F801CDEEE7A8F101000370FE
:100910002188090501D5452100E06521A0F10108E4
:1009200000F8011C09980FA9A1EB0807FF1D00B1F1
:100930000120411901EBEA70A1693844081A401EF0
:10094000A0612078C00602D42046FFF781FC0998F8
:1009500028B1D4E901219047206A401C2062207808
:10096000C00622D52046FFF773FC1EE0002E04DBF4
:10097000B34502DD01A8805D00E03020D4E901210B
:100980009047206A401C2062761CAAF101005FEAB1
:10099000000A0AD100F03EF8C0680168405CD4E962
:1009A00001219047206A401C2062281EA5F1010504
:1009B000DCDC07E0D4E9012118F8010B9047206A3C
:1009C000401C2062381EA7F10107F3DC2046FFF728
:1009D00055FC032011B041E601694A1C0261087808
:1009E000704700B58FB0CDE901310021059105496F
:1009F0007944CDE9031011466846FFF78DFC0FB02E
:100A000000BD0000E5FFFFFF0A6802F8010B0A6065
:100A100070470000004870478415002030B5B0F1E1
:100A20000A024FEA900E71F100034EEA817EB0EBAC
:100A30000E0061EB91014FEA101E4EEA017E10EBB1
:100A40000E0041EB11114FEA102E4EEA016E10EB31
:100A50000E0041EB11214FEA104E4EEA014E10EB11
:100A60000E0041EB1141401841F100014FEAD00066
:100A700040EA41704FEAD10110EB80054FEA810452
:100A800044EA907444EB01046D1944EB0404521BD6
:100A9000A3414FF0000348BF0A3200D530BD401CCF
:100AA00041F1000130BD00002DE9F0411F46044630
:100AB00003260168072A01F4006004DB08B116A5CB
:100AC00005E016A503E008B115A500E015A521F085
:100AD00010002060A069C01EA0610FB1401EA0617F
:100AE0002046FFF7B5FB4FB1D4E9012138469047C6
:100AF000206A401C2062C01C206206E0206AFAE7DF
:100B0000D4E9012115F8010B9047761EF8D2204652
:100B1000FFF7B4FBBDE8F0814E414E006E616E0000
:100B2000494E4600696E66002DE9F047814616463B
:100B30008AB0354878440DC88DE80D0032487844B5
:100B4000801C03AC0DC884E80D0041F69B300844BE
:100B5000372190FBF1F290FBF1F5A5F1800501FB47
:100B600012041B3C02D56442012000E00020DFF8A3
:100B700098A080460027FA44AAF1BE0A0EE0E007DA
:100B80000AD03246684607EB470101230AEB810190
:100B900000F047FB8DE8070064107F1C002CEED1AD
:100BA000194F7F44AE3F19E0E80715D007EB04105A
:100BB0000DF1180A90E80E008AE80E00C068F042B5
:100BC00001D1981908903246012306A903A800F024
:100BD00028FB03AB83E807006D10641C002DE3D1F4
:100BE0004FF0010332466946B8F1000F03A802D066
:100BF00000F002FB01E000F014FBC9E90001C9F8B4
:100C000008200AB0BDE8F08724440000004870477F
:100C1000641500207546FFF7F9FFAE4605006946EA
:100C2000534620F00700854618B020B5FFF7EAFAD2
:100C3000BDE820404FF000064FF000074FF00008DD
:100C40004FF0000B21F00701AC46ACE8C009ACE85E
:100C5000C009ACE8C009ACE8C0098D46704710B5C2
:100C60000446AFF300802046BDE81040FFF7B5BA58
:100C70004FF0013C50F8042B51F8043B9A4221D12B
:100C8000A2EB0C03934313EACC1317D150F8042BB7
:100C900051F8043B9A4215D1A2EB0C03934313EA9B
:100CA000CC130BD150F8042B51F8043B9A4209D1D4
:100CB000A2EB0C03934313EACC13DBD04FF00000FC
:100CC000704700BFD01A01BAB1FA81F101F01801E2
:100CD00022FA01F0CB40C1F12001DBB2C0B2C01A50
:100CE0002CFA01F3D11A914311EAC311E6D17047EE
:100CF0007047000001491820ABBEFEE72600020045
:100D00005FEA400C08BF91F0000F4FEA8C234FEAD6
:100D1000C12243EA51514FEA1C5018BF00F5F04080
:100D20004FEA300018BF41F000415FEA6C5C00F010
:100D30002980BCF1FF3F08BF40F080407047130C92
:100D400006BF12044FF0100C4FF0000C130E04BF3E
:100D500012020CF1080C130F04BF12010CF1040C69
:100D6000930F04BF92000CF1020CD30F04BF52008A
:100D70000CF1010C11464FF00002A0F11F00A0EB96
:100D80000C00704711F0004F08BF704731F0004170
:100D90003FF4D5AF0B0C06BF09044FF0100C4FF019
:100DA000000C0B0E04BF09020CF1080C0B0F04BF62
:100DB00009010CF1040C8B0F04BF89000CF1020C2B
:100DC000CB0F04BF49000CF1010CCCF12003A0EBC8
:100DD0000C0022FA03F302FA0CF241EA030100F1DB
:100DE0000100704720F07F4C80EA030023F07F472A
:100DF000ACEB070303F57C5300F0004003F1FF0365
:100E00002DE980494FEA154B09B44FEA144325EA0E
:100E10000B4E24EA03480FF2042606EB1327490879
:100E20003E785FEA320203FB0667C7F5000707FB5F
:100E300006F64FEA54374FEAD64606F1020607FB9C
:100E4000066CCCF1005C4FEA1C472CEA074C07FB10
:100E500006F40CFB06F504EB15464FEA961634BF74
:100E600000204FF000404FEAD13706FB07FC4FEA65
:100E70001C4C0CFB0BF7D21B03FB0CF761EB0701BF
:100E80000CFB0EF7B0EB074072EB17420CFB08F7B8
:100E900034BFA2EB0742B2EB074261EB17414FEAC6
:100EA0000C444FEA910706FB07FC4FEA1C4C0CFB75
:100EB0000BF7B0EBC74072EB573203FB0CF734BFB4
:100EC000A2EBC742B2EBC74261EB57310CFB0EF706
:100ED000B0EBC70072EB57720CFB08F734BFA2EB04
:100EE000C702B2EBC70261EB5771039F4FEA816102
:100EF00041EA921104EBCC044FEAD1374FEA826207
:100F000006FB07FC42EA90124FEA80604FEA1C4C55
:100F10000CFB0BF7D21B03FB0CF761EB07010CFB7F
:100F20000EF7B0EB074072EB17420CFB08F734BF2B
:100F3000A2EB0742B2EB074261EB17414FEA8C5537
:100F40004FEA910704EB9C2406FB07FC4FEA1C4C7C
:100F50000CFB0BF7B0EBC74072EB573203FB0CF7FF
:100F600034BFA2EBC742B2EBC74261EB57310CFB77
:100F70000EF7B0EBC70072EB57720CFB08F734BFEB
:100F8000A2EBC702B2EBC70261EB577115EB4C2520
:100F90004FEA816141EA92114FEA82624FEAD1370A
:100FA00042EA901206FB07FC44F100044FEA80601D
:100FB0004FEA1C4C0CFB0BF7D21B03FB0CF761EB4D
:100FC00007010CFB0EF7B0EB074072EB17420CFB6E
:100FD00008F734BFA2EB0742B2EB074261EB1741BF
:100FE00015EB1C154FEA813141EA92414FEA8232FA
:100FF00042EA90424FEA80304FEA0C7644F1000416
:1010000048EA03434EEA0B484FF0000EB2EB080CDF
:1010100071EB030724BF624639464EEB0E0E4FF0CC
:10102000000B0018524149414BEB0B0BB2EB080C83
:1010300071EB03077BF1000B24BF624639464EEB90
:101040000E0E4FF0000B0018524149414BEB0B0BB9
:10105000B2EB080C71EB03077BF1000B24BF624677
:1010600039464EEB0E0E51EA020718BF46F0010654
:1010700016EB0E7655F1000254F1000103D5BDE8E0
:101080008901BDE80088BDE88901BDE80048B619BE
:10109000524141EB0101A3F10103704780807F7E43
:1010A0007D7C7B7A797877767675747372717170DE
:1010B0006F6E6E6D6C6C6B6A6A6968686766666590
:1010C0006464636362616160605F5F5E5E5D5D5C1E
:1010D0005C5B5B5A5A59595858575756565555558F
:1010E0005454535352525251515050504F4F4F4EEF
:1010F0004E4D4D4D4C4C4C4B4B4B4A4A4A4949493D
:10110000484848474747474646464545454444447E
:10111000444343434342424242414141002B9C46A7
:1011200030D477002BD01CB54FEA370703B44FF00B
:1011300010004FF01001BAF1000F06D0BCF1000F03
:10114000DCBF40F0080040F008014FF000000FBC89
:10115000BDE810400BF1010BBBF1010F08BF5FEAC6
:10116000170722BF12F1010211F101014FF00041F6
:1011700043F1000300F0004043EA00007047F9D358
:101180005708D0E746EA064613F1400F4FEA1646E5
:101190001FDD13F1200FDFBF16430A460021203365
:1011A0005B42BED0C3F1200746EA064602FA07F7C3
:1011B0004FEA164646EA0706C3F1200722FA03F271
:1011C00001FA07F721FA03F14FF0000342EA0702A0
:1011D000A7E746EA020646EA06464FEA164646EA08
:1011E0000106BCBF46EA0646360C4FF000034FF03E
:1011F00000024FF0000194E72DE9804C9A46934697
:1012000070B491E8380007C831EA400C48BF34EAAE
:10121000430C03D5FFF7E6FDFFF780FFF0BCBDE808
:10122000008C2DE9804C9A46934670B491E83800C2
:1012300007C810F0804F08BF13F0804F03D100F0B3
:1012400005F8FFF76BFFF0BCBDE8008C20F07F478E
:1012500080EA030023F07F4C07EB0C03A3F57C53DB
:1012600000F00040A3F1FE0392F0000F00F0B38005
:1012700095F0000F00F077802DE901494FEA114009
:101280004FEA144621EA004800FB06FC24EA064720
:1012900008FB06F607FB08F800FB07F718EB064803
:1012A0004CEB164C4FEA124B18EB07484FEA154629
:1012B0004CEB174022EA0B4E0BFB06FC25EA0647D7
:1012C0000EFB06F607FB0EFE0BFB07F71EEB064EAA
:1012D0004CEB164C4FF000061EEB074E4CEB174B39
:1012E00018EB0B0840F1000018EB0E0B58EB000850
:1012F00040F100008F1A4FF000013CBFC943661B4C
:1013000014BFB5EB040C00213CBFC943F61B4FEAE8
:1013100017444EEA8E0E27EA04454FEA1C4704FBA9
:1013200007622CEA074C05FB07F70CFB05F604FBEC
:101330000CFC16EB074642EB174216EB0C4642EB51
:101340001C421BEB060658EB0202414146EA9E0690
:1013500001D5BDE80189B619524141EB0101A3F164
:101360000103BDE801894FEA14454FEA114724EA19
:10137000054621EA074C05FB07F406FB07F70CFBC3
:1013800006F105FB0CFC11EB074144EB17444FEA57
:10139000124711EB0C4144EB1C4422EA074C05FBBD
:1013A00007F206FB07F70CFB06F605FB0CFC16EB39
:1013B000074642EB174216EB0C4642EB1C456A18F7
:1013C00054F1000148BF7047B619524141EB010189
:1013D000A3F10103704795F0000F37D04FEA114297
:1013E0004FEA144721EA024624EA074C02FB07F1C0
:1013F00006FB07F70CFB06F402FB0CFC14EB07449E
:1014000041EB17414FEA154714EB0C4441EB1C41EB
:1014100025EA074C02FB07F506FB07F70CFB06F66F
:1014200002FB0CFC16EB074645EB174516EB0C468A
:1014300045EB1C42121951F1000148BF7047B61923
:10144000524141EB0101A3F1010370474FEA1445FA
:101450004FEA114724EA054621EA074C05FB07F14C
:1014600006FB07F70CFB06F24FF0000605FB0CFC31
:1014700012EB074241EB174112EB0C4251EB1C41BE
:1014800048BF7047921841EB0101A3F10103704777
:10149000FEE7000010B5012901D0022901D1401E4C
:1014A0000C314B1C03EB4303052493FBF4F302EBD9
:1014B00041011944C217014400EB927201EBA201F1
:1014C000642290FBF2F2891A4FF4C87290FBF2F09A
:1014D0000844072190FBF1F201FB1200401C072891
:1014E00013D2DFE800F00406080A0C0E100008A072
:1014F00010BD09A010BD0AA010BD0BA010BD0DA00D
:1015000010BD0FA010BD10A010BD002010BD000028
:1015100053756E64617900004D6F6E6461790000EF
:1015200054756573646179005765646E65736461B1
:1015300079000000546875727364617900000000DE
:1015400046726964617900005361747572646179EF
:101550000000000002490020486002F03FB800008F
:101560005C0C00207047012000F09EB8022000F0C3
:101570009BB8042000F098B8082000F095B810201F
:1015800000F092B872B6FEE770B5044600F09AF922
:101590000546601C02D004480078044400F092F92B
:1015A000401BA042FAD370BD080000202DE9F04195
:1015B00000250126394C3A4A3A4F012808D0022822
:1015C0001AD004282BD008283CD010284ED05CE03C
:1015D00001219046104600F063F9002855D10A20F9
:1015E000FFF7D2FF0121404600F05AF908B1266109
:1015F0004BE025613D7048E002219046104600F026
:101600004FF970BB0A20FFF7BFFF0221404600F0F0
:1016100047F908B1266038E025603E7035E00421C6
:101620009046104600F03CF9D8B90A20FFF7ACFF0D
:101630000421404600F034F908B1666025E002203C
:10164000656011E008219046104600F029F940B984
:101650000A20FFF799FF0821404600F021F908B160
:10166000A66012E00320A56038700EE010219046BD
:10167000104600F015F940B90A20FFF785FF102148
:10168000404600F00DF928B1E6603878BDE8F04139
:1016900001F0D6BA0420E560E6E700003812002029
:1016A00000080140540C0020044910B50A680242A9
:1016B00002D00860FFF77AFF10BD0000140401405B
:1016C0002DE9F84FDFF8B8910024A9F1040B234667
:1016D0000F2709F1040AABF1040EC9E00125A5406A
:1016E0002A40AA427DD1674ED1F804C0ACEB06086F
:1016F000B44532D014DCBCF1030F3AD009DCBCF1A4
:10170000000F2AD0BCF1010F1CD0BCF1020F31D167
:101710001DE0BCF1110F17D0BCF1120F2AD119E056
:10172000B8F5881F19D006DCB8F5803F15D0B8F59C
:10173000801F1FD111E0B8F5001F0ED0B8F5041FAF
:1017400018D10AE0CB6815E0CB681B1D12E0CB680E
:1017500008330FE0CB680C330CE08B682BB1012B06
:101760004FF0080303D0456104E0042302E0056163
:1017700000E00023FF2A01D8064601E000F104063C
:101780004FEA840501D9A5F12005D6F8008007FAB3
:1017900005FC28EA0C0803FA05F548EA0508C6F82E
:1017A00000804D68ED0062D5374DAE6946F0010608
:1017B000AE61AD6924F0030605F001050095334DD7
:1017C00006EB050CDCF80850A607360F07FA06F8FA
:1017D00025EA0805DFF8B880404503D14FF000083E
:1017E00017E044E0DFF8AC80404502D14FF001083B
:1017F0000FE0DFF8A480404502D14FF0020808E076
:10180000DFF89880404502D14FF0030801E04FF027
:10181000040808FA06F848EA0508CCF808804D687C
:10182000D9F80060ED024D4601D5164300E096431D
:101830002E604D68DAF80060AD02554601D51643BA
:1018400000E096432E604D68DBF80060AD035D4616
:1018500001D5164300E096432E604D68DEF8006027
:10186000ED03754601D5164300E096432E60641CD7
:101870000D682A46E5407FF431AFBDE8F88F0000DF
:101880000804014000001110001002400000014057
:1018900000080140000C014000100140001401400C
:1018A0008068084000D001207047C26821EA020326
:1018B0000A4043EA0241016170470AB10161704781
:1018C0000904FBE701488068704700000800002019
:1018D0000248816802781144816070470800002046
:1018E000074810B5016841F010010160032000F0C5
:1018F00075F8002000F006F800F024F8002010BD74
:101900000020024070B50D4D04464FF47A712878DE
:10191000B1FBF0F00A490968B1FBF0F000F091FD6D
:1019200048B9102C07D200222146501E00F036F88C
:1019300000206C6070BD012070BD00000800002018
:10194000140000200C4808B5816941F00101816153
:10195000816901F001010091C16941F08051C161CB
:10196000C06900F0805000900448416821F0E061B7
:1019700041F00071416008BD0010024000000140CC
:10198000002809DB00F01F0201219140400980007E
:1019900000F1E020C0F8001170470000F0B40E4BD9
:1019A0001B680C46C3F30223C3F10705042D00D9BD
:1019B0000425191D072901D2002300E0DB1E0126A2
:1019C00006FA05F1491E214099409E40761E1640B8
:1019D0003143F0BC02F09ABB0CED00E0064900F088
:1019E000070208684FF6FF03184040EA0220034A46
:1019F00010430860704700000CED00E00000FA059D
:101A0000014901200862704700000E4210B50146EE
:101A10000020234C012922D0022939D010291DD1C0
:101A200061682268D20119D51E48C1F38342C903F7
:101A3000805C0AD561681B4AC1F34041921E515C2B
:101A4000194AB2FBF1F1484301E018494843616883
:101A5000490203D440000321B0FBF1F010BD226A1B
:101A6000C2F30121012903D1920701D5C80310BD9A
:101A7000022905D1626A920702D549F6404010BD9D
:101A80000329FCD121688903F9D54FF2244010BD08
:101A900000F01AF96168C1F38131491C4900DBE7A4
:101AA000001002406A44000800127A0000093D005C
:101AB0002DE9F84305460078354CC00754D0E0695D
:101AC0000026C00008D4E06940F08050E061E06981
:101AD000012600F0805000902E480168C90512D4FC
:101AE0000168804641F480710160FFF7EBFE074614
:101AF00005E000BFFFF7E6FEC01B642823D8D8F836
:101B00000000C005F6D5206A10F4407021D0A988E5
:101B100001F4407181421CD0206A1F49012220F447
:101B200040700A6000220A602062C00711D0FFF7EF
:101B3000C9FE074641F2883808E000BFFFF7C2FE41
:101B4000C11B414502D90320BDE8F883206A800704
:101B5000F4D5206A696820F44070084320621EB101
:101B6000E06920F08050E0612878800705D5606842
:101B7000A96820F44040084360602878C00605D575
:101B80006068E96820F48000084360600020DBE7BB
:101B90000010024000700040400442422DE9F0472E
:101BA0000F46050061D0434E306800F00700B84290
:101BB00009D2306820F0070038433060306800F008
:101BC0000700B84251D128683B4C810712D5400725
:101BD00003D5606840F4E06060602878000703D5B2
:101BE000606840F4605060606068A96820F0F000B0
:101BF000084360602878C00728D06868012810D0A2
:101C00002168022810D0890700292EDA616821F0A6
:101C1000030101436160FFF755FE804641F28839B8
:101C20000DE021688903EFE78901EDE7FFF74AFE40
:101C3000A0EB0801494502D90320BDE8F0876068A0
:101C4000696800F00C00B0EB810FEFD1306800F054
:101C50000700B8420BD9306820F0070038433060E5
:101C6000306800F00700B84201D00120E5E728788D
:101C7000400705D56068E96820F4E06008436060CB
:101C80002878000706D56068296920F4605040EA8A
:101C9000C100606000F028F86168084AC1F30311D0
:101CA000515CC8400649086006480068FFF72AFEF4
:101CB0000020C2E700200240001002407A440008E1
:101CC000140000200C000020044805490068496801
:101CD000044AC1F3C221515CC8407047140000207F
:101CE000001002408A4400080E4A51680E4801F074
:101CF0000C03042B11D0082B0FD10C48C1F38343E4
:101D0000C903C05C0AD55168084AC1F34041921E1C
:101D1000515C054A5043B0FBF1F070470449484319
:101D2000704700000010024000127A00584400087A
:101D300000093D002DE9F84F040070D02078C04D17
:101D4000C00749D06868C0F38100012807D06868DF
:101D5000C0F38100022809D16868C00306D528684D
:101D6000800339D560680028E7D035E06068B0F5B9
:101D7000803F0BD010B1B0F5A02F11D0286820F40F
:101D800080302860286820F4802002E0286840F431
:101D900080302860606890B1FFF794FD06460AE045
:101DA000286840F480202860F0E700BFFFF78AFD34
:101DB000801B642873D828688003F7D50CE0FFF7F0
:101DC00081FD064605E000BFFFF77CFD801B64280F
:101DD000F0D828688003F7D420789A4E80074FF017
:101DE00001094FF0000839D5686810F00C0F07D0D2
:101DF0006868C0F38100022809D16868C00306D46E
:101E00002868800714D52069012808D110E02069CE
:101E1000B0B1C6F80090FFF755FD074605E00AE1AE
:101E2000FFF750FDC01B0228C4D828688007F7D5EB
:101E30002868616920F0F80040EAC10028600DE0E0
:101E4000C6F80080FFF73EFD074604E0FFF73AFDC5
:101E5000C01B022823D828688007F7D42078000701
:101E60002CD57948A169D9B1C0F80090FFF72AFDB7
:101E7000074604E0FFF726FDC01B02280FD8686A5A
:101E80008007F7D571484FF4FA510068B0FBF1F0C4
:101E9000009000BF0098411E0091FAD20EE080E051
:101EA000C0F80080FFF70EFD074604E0FFF70AFDCB
:101EB000C01B022875D8686A8007F7D420784007CD
:101EC00060D5E8690027C00008D4E86940F0805078
:101ED000E861E869012700F0805000905C480168E3
:101EE000C90513D40168834641F480710160FFF78E
:101EF000E9FC824606E000BFFFF7E4FCA0EB0A0025
:101F000064284ED8DBF80000C005F5D5E06801284C
:101F10000AD008B1052813D0286A20F001002862F1
:101F2000286A20F0040002E0286A40F001002862DC
:101F3000E06841F2883B98B1FFF7C4FC82460BE0B1
:101F4000286A40F004002862EEE700BFFFF7BAFC01
:101F5000A0EB0A0159455AD8286A8007F6D50CE04B
:101F6000FFF7B0FC824605E0FFF7ACFCA0EB0A01EE
:101F700059454CD8286A8007F6D41FB1E86920F08B
:101F80008050E861E06988B36968C1F38101022982
:101F900044D00228C6F8608004D0FFF793FC0446C2
:101FA00038E034E0FFF78EFC074604E0FFF78AFCD8
:101FB000C01B02282BD828688001F7D4206AB0F50E
:101FC000803F05D16868A16820F40030084368604C
:101FD000D4E908010843696821F474110843686072
:101FE000C6F86090FFF76EFC044606E025E000BFEF
:101FF000FFF768FC001B022809D828688001F7D584
:102000001BE000BFFFF75EFC001B022802D9032083
:10201000BDE8F88F28688001F4D40EE00128F7D0DD
:102020006868226A00F48031914204D1616A00F448
:102030007010884201D00120EAE70020E8E70000A4
:10204000001002400000424280044242140000207E
:10205000007000407047704710B504460068016882
:10206000C90717D04168C90714D040684007204607
:1020700007D5FFF7F0FF21686FF0040048600420E7
:1020800002E0FFF7E7FF012060742068416821F05B
:102090000101416010BDF8B505004FF00000164683
:1020A0000C46009006D02CB100226946284600F06C
:1020B00019F808B10120F8BD287B2070E87BE0709A
:1020C000697B6170A97BA17056B101F060F8E07086
:1020D000607801F05CF86070A07801F058F8A070AA
:1020E0000020F8BD2DE9F04791460C465FEA000854
:1020F0004AD084B3D8F800004068400744D4404632
:1021000001F0EBF84FF461620546B0FBF2F1B0FB71
:10211000F2F302FB13503C23B0FBF3F0B5FBF2F6F5
:10212000607002FB1650B0FBF3F203FB1200A070CC
:10213000182931D31820B1FBF0F7B1FBF0F200FB06
:1021400012102070404601F0C1F8411C04D0A84292
:1021500002D9461B02E017E04FF0FF36A7EB07104D
:1021600000EB4000C0EB001005EBC01529464046CF
:1021700001F002F940B9701C01D0711900E031463C
:10218000404601F0E5F810B10120BDE8F08739467E
:10219000404601F007F800E02170B9F1000F0BD0C4
:1021A000207800F0F4FF2070607800F0F0FF60709D
:1021B000A07800F0ECFFA0700020E6E770B5040006
:1021C00003D0607C002610B105E0012070BD2674AC
:1021D000204600F03DF802206074204600F014F91B
:1021E000042550BB204601F034F830BB206841681C
:1021F00021F007014160A06820B11448016821F076
:10220000010101601148001F0168A26821F460719A
:10221000114301606068411C04D10120FFF7F6FB07
:1022200058B1401E2268C0F303419160216880B21A
:10223000C860204601F028F808B16574C5E7E67368
:1022400001206073A0736074002070BD306C00408A
:1022500008B500680D49884217D1FFF7D1FB0C483B
:10226000C16941F00061C161C0690A4900F00060C4
:10227000009001200860002211460320FFF78EFB2A
:10228000BDE808400320FFF77BBB08BD00280040E5
:10229000001002403C0442422DE9F0410D4604008A
:1022A0003BD0C5B3207C01283AD04FF0010884F818
:1022B000108002206074E87872B300F05FFFE07372
:1022C000687800F05BFF6073A87800F057FFA07398
:1022D000C2B2617BE07B01F010F8207328702046C9
:1022E00000F0FBFF4FF46161B0FBF1F1002518290C
:1022F0002DD91822B1FBF2F1A1EB011101EB410143
:10230000C1EB011100EBC1163146204601F034F853
:102310000427C8B90BE000E004E00120BDE8F0812B
:102320000220FBE7E07368786073A878CFE7204667
:1023300000F0CCFF411C0AD0B04208D2064901444B
:10234000204601F005F810B167742574E5E784F8BC
:10235000118025740020E1E7805101002DE9F04152
:102360000D46040024D01DB3207C012823D04FF05B
:10237000010884F81080022060742878EAB100F027
:10238000FDFE4FF4616100FB01F6687800F0F6FE97
:10239000C0EB001006EB8006A87800F0EFFE3518C1
:1023A0002946204600F0E8FF0026042710BB0FE076
:1023B0000120BDE8F0810220FBE74FF46161484352
:1023C0006978C1EB011100EB8100A9784518E7E7B6
:1023D0002068416821F005014160204600F076FF49
:1023E000411C0AD0A84208D206490144204600F008
:1023F000AFFF10B167742674DAE784F81180267491
:102400000020D6E78051010070B504000AD0206892
:10241000416821F008014160FFF754FA05464FF486
:102420007A7608E0012070BDFFF74CFA401BB042FD
:1024300001D9032070BD206840680007F4D5002052
:1024400070BD10B5401EB0F1807F01D3012010BDDA
:102450004FF0E02460610F21601701F057FE00206B
:10246000A06107202061002010BD70477047000068
:1024700070B590F83C20012A26D0012480F83C4019
:10248000022280F83D2003685A689D6822F0700699
:102490000A6832435A600D4B02689A4208D0B2F182
:1024A000804F05D00A4B9A4202D00A4B9A4204D17F
:1024B000496825F080031943916080F83D40002170
:1024C00080F83C10084670BD022070BD002C014011
:1024D000000400400008004010B5040003D094F848
:1024E0003D0010B107E0012010BD002084F83C0041
:1024F000204600F01FF8022084F83D00211D2068CE
:1025000000F098FF012084F8460084F83E0084F82B
:102510003F0084F8400084F8410084F8420084F8C9
:10252000430084F8440084F8450084F83D0000200E
:1025300010BD000008B50068B0F1804F12D10A4804
:10254000C16941F00101C161C069002200F00100D0
:10255000009001211C20FFF721FABDE808401C2053
:10256000FFF70EBA08BD00000010024090F83D10C1
:10257000012901D001207047022180F83D10016837
:10258000CA6842F00102CA6000680B49884208D05C
:10259000B0F1804F05D00949884202D008498842ED
:1025A00004D1816801F00701062903D0016841F0D8
:1025B0000101016000207047002C01400004004030
:1025C0000008004070B5044690F83C000025012842
:1025D00017D0012684F83C60022084F83D00206872
:1025E000826822F0770222F47F42826008685028D5
:1025F00038D00DDC20284FD005DC90B3102811D145
:102600004AE0022070BD302846D040280AD13BE085
:1026100060282FD070280DD0B0F5805F03D0B0F5C2
:10262000005F12D0012584F83D60002084F83C0052
:10263000284670BDCB68D1E90121206800F030FF49
:102640002068816841F0770109E0CB68D1E9012178
:10265000206800F025FF2068816841F48041816096
:10266000E1E719E0CA684968206800F02BFF5021B3
:10267000206806E0CA684968206800F034FF6021DD
:10268000206800F017FFCEE7CA684968206800F0AC
:1026900019FF40212068F4E7226801461046F0E760
:1026A000704770B50446006801694FF00005C943E2
:1026B000890715D4C168C943890711D4E91E01618E
:1026C00001202077206880698007204602D0FFF72C
:1026D000E7FF04E000F098F8204600F096F8257730
:1026E00020680169C943490717D4C168C94349072C
:1026F00013D46FF004010161022020772068806903
:1027000010F4407F204602D0FFF7CAFF04E000F03B
:102710007BF8204600F079F8257720680169C943E5
:10272000090716D4C168C943090712D46FF008011C
:102730000161042020772068C0698007204602D00C
:10274000FFF7AEFF04E000F05FF8204600F05DF810
:10275000257720680169C943C90617D4C168C943F0
:10276000C90613D46FF0100101610820207720689A
:10277000C06910F4407F204602D0FFF791FF04E0CB
:1027800000F042F8204600F040F825772068016903
:10279000C943C90708D1C168C943C90704D1891E03
:1027A0000161204600F032F820680169C94309063A
:1027B00009D4C168C943090605D46FF080010161DD
:1027C0002046FFF752FE20680169C943490609D433
:1027D000C168C943490605D46FF040010161204634
:1027E00000F042F820680169C94389060BD4C1682A
:1027F000C943890607D46FF0200101612046BDE876
:102800007040FFF733BE70BD7047704770B5134915
:10281000884221D1124C4FF47A756068401C90FBBD
:10282000F5F1C4E90010691090FBF1F201FB120010
:1028300018B901F079F901F017FA606890FBF5F129
:1028400005FB110020B94FF480610648FFF72DF811
:10285000BDE8704001F04EBD70BD0000F00D0020DD
:1028600000000020000801407047FEE7FF20401EE6
:10287000FDD2704710B5002000F0D0F8012000F024
:10288000C5F8FFF7F3FF012000F0C8F8BDE81040DD
:10289000FFF7ECBF10B5012000F0C0F8FFF7E6FF2E
:1028A000012000F0B3F8FFF7E1FF00F04BF8C4B2ED
:1028B000002000F0ABF8204610BD70B5064600249D
:1028C000012000F0ABF800256006040E012000F0A6
:1028D0009DF8FFF7CBFF00F035F808B1641CE4B2B7
:1028E000002000F093F8FFF7C1FF6D1C082DEBDB13
:1028F000304600F04CF8204670BD000070B514461C
:102900000D46064600F055F8542000F023F83046F6
:1029100000F020F800F04DF8552000F01BF809E019
:10292000012D0DD05FF00000FFF7C7FF6D1E04F80A
:10293000010BEDB2002DF3D1FFF79CFF002070BD1D
:102940000120F1E74FF400610148FEF7A9BF000044
:10295000000C014070B504460025200601D5012079
:1029600000E0002000F05AF8FFF780FF012000F09F
:102970004DF8FFF77BFF002000F048F86006040EDA
:102980006D1C082DE9DBBDE87040FFF783BF10B573
:10299000012800D0002000F041F8FFF767FF012078
:1029A00000F034F8FFF762FFBDE81040002000F0AF
:1029B0002DB810B5012000F031F8012000F026F804
:1029C000FFF754FF002000F029F8FFF74FFFBDE8A4
:1029D0001040002000F01AB870B516460D460446A7
:1029E000FFF7E7FF5420FFF7B5FF2046FFF7B2FFE0
:1029F000002404E0305DFFF7ADFF641CE4B2AC429C
:102A0000F8D3FFF737FF002070BD000002464FF4F7
:102A100080610148FEF751BF000C014002464FF4AF
:102A200000610148FEF749BF000C014001F086B883
:102A300001F0CEB801F038BB2DE9F04385B0002499
:102A400042480094019402940394816941F010017A
:102A50008161816901F010010491816941F02001D7
:102A60008161816901F020010491816941F00401D3
:102A70008161816901F004010491816941F00801DB
:102A800081618069DFF8C88000F008004FF44C6570
:102A90000490002229464046FEF70FFFDFF8B4906D
:102AA0004FF4E067002239464846FEF706FF1F2034
:102AB00000902948CDE9010469464846FEF700FE2A
:102AC000C020CDE90004694648460294FEF7F8FDAF
:102AD0000095022601250396CDE90154694640463A
:102AE000FEF7EEFD00970396CDE90154694648468E
:102AF000FEF7E6FD002205210620FEF74FFF062027
:102B0000FEF73EFF002206210720FEF747FF0720C1
:102B1000FEF736FF002206210820FEF73FFF0820BF
:102B2000FEF72EFF002207210920FEF737FF0920BC
:102B3000FEF726FF002205210A20FEF72FFF0A20BC
:102B4000FEF71EFF05B0BDE8F08300000010024054
:102B5000000C014000080140000021101CB50024B9
:102B60001B480194194900940160611E41604FF4B3
:102B700080718160FFF722FB08B1FEF703FD112091
:102B80008DF8040030208DF805008DF806400122F4
:102B900001A90F48FFF7E2FB08B1FEF7F3FC0120A3
:102BA0008DF8000007208DF8010010208DF802003C
:102BB00023208DF80300012269460548FFF76CFBCE
:102BC000002801D0FEF7DEFC1CBD000000280040FC
:102BD000DC0D002010B586B0002417480094019445
:102BE0000294039404944FF08041059401604721BE
:102BF000C0E9011440F2E731C0E903148461FFF732
:102C00006BFC08B1FEF7BEFC4FF4805000906946A3
:102C10000948FFF7D7FC08B1FEF7B4FC049404A9F7
:102C200005480594FFF724FC08B1FEF7ABFC024809
:102C3000FFF79CFC06B010BDF00D0020FEE7000081
:102C400070B5184C04F11405227802EB420105EB33
:102C5000810140B101280AD002280CD003280ED0EF
:102C600004281CD011E0062A0FD048790AE0062A71
:102C70000BD0487806E0062A07D0887802E0062ABA
:102C800003D0C878207000F069F8207800EB40008D
:102C900005EB800080682061BDE87040004708793E
:102CA000F0E700005C0C0020FEE700002DE9F04199
:102CB0000746CE004000083E801E15464FF0FF3804
:102CC000F1B2C0B200F078F90D48002400EB051510
:102CD000285D00F029FA641CE4B2082CF8D308EB54
:102CE0004700F1B2C0B200F067F900242819007A59
:102CF00000F01AFA641CE4B2082CF7D3BDE8F081A6
:102D0000924400082DE9F04107460E014000103EB4
:102D1000801E15464FF0FF38F1B2C0B200F04CF9FA
:102D20000D48002400EB4515285D00F0FDF9641CFA
:102D3000E4B2102CF8D308EB4700F1B2C0B200F0B7
:102D40003BF900242819007C00F0EEF9641CE4B281
:102D5000102CF7D3BDE8F081D24A000870B50024EA
:102D60000021204600F028F90025002000F0DCF9C1
:102D70006D1CEDB2802DF8D3641CE4B2082CEFD3A7
:102D800070BD00007CB500240021204600F014F93D
:102D90000025002000F0C8F96D1CEDB2802DF8D39D
:102DA000641CE4B2082CEFD300210648CDE90001F1
:102DB00040238022084600F045F9BDE87C4000F041
:102DC000DBB800001800002010B57F2811D83F297B
:102DD0000FD8CB0801F0070101248C40E1B2054C6B
:102DE000002A04EBC000C25C01D00A4300E08A4321
:102DF000C25410BD380E002010B5064C01224021EF
:102E00002046FEF75AFD20460122BDE810408021F1
:102E1000FEF753BD000C01402DE9F0410024124E95
:102E20000746802525FA04F23A4080213046FEF715
:102E300044FD012240213046FEF73FFD00224021A3
:102E40003046FEF73AFD641CE4B2082CEAD30122B6
:102E500040213046FEF731FD3046BDE8F04100220A
:102E60004021FEF72ABD0000000C014010B50B4CBC
:102E7000012280212046FEF720FD0122402120462C
:102E8000FEF71BFD002280212046FEF716FD20469E
:102E90000022BDE810404021FEF70FBD000C0140AC
:102EA00010B5094C002280212046FEF706FD0122C4
:102EB00040212046FEF701FD20460122BDE81040DA
:102EC0008021FEF7FABC0000000C014010B5002084
:102ED0004FF47A720021491C9142FCD3401C90426D
:102EE000F8D3FFF789FFAE2000F00DF9D52000F0F0
:102EF0000AF9802000F007F9A82000F004F93F202B
:102F000000F001F9D32000F0FEF8002000F0FBF8FB
:102F1000402000F0F8F8A12000F0F5F8C82000F0FB
:102F2000F2F8DA2000F0EFF8122000F0ECF881203F
:102F300000F0E9F8CF2000F0E6F8D92000F0E3F83F
:102F4000F12000F0E0F8DB2000F0DDF8302000F0A8
:102F5000DAF8A42000F0D7F8A62000F0D4F88D20ED
:102F600000F0D1F8142000F0CEF8AF2000F0CBF83C
:102F7000BDE81040FFF7F2BE70B50E4E002400BF52
:102F800004F1B000C0B200F0BEF8002000F0BBF8C1
:102F9000102000F0B8F8002506EBC500005D00F039
:102FA000C3F86D1CEDB2802DF6D3641CE4B2082C7E
:102FB000E6D370BD380E002010B50C4640F0B000CE
:102FC00000F0A1F8102040EA141000F09CF804F082
:102FD0000F00BDE8104000F096B800002DE9F04168
:102FE0000746CE004000083E801E15464FF0FF38D1
:102FF000F1B2C0B2FFF7E0FF1148002400EB051565
:103000002819A0F5805090F8000E00F08DF8641C8F
:10301000E4B2082CF4D308EB4700F1B2C0B2FFF7DA
:10302000CBFF00242819A0F5805090F8080E00F07E
:103030007BF8641CE4B2082CF4D3BDE8F0810000F6
:10304000924400082DE9FF4F82B0804601909246DD
:103050000C464FF000098B46580700D0012000EBCA
:10306000D3000590002032E000262BE00F980025C9
:1030700010F8097009F101001FFA80F9F80701D072
:10308000109A02E0109848B3002221464046FFF70C
:103090009BFE641C6D1C7F08EDB2E4B2082DEDD3DD
:1030A00008F10100019900F0FF08A8EB010151456A
:1030B00005D10BF10800DDF8048000F0FF0B761C51
:1030C0005C46F6B25645D1D30098401CC0B2009081
:1030D00005998842C8D306B0BDE8F08F0122D4E735
:1030E0002DE9F04115460E460746002406E030194A
:1030F000C1B23846FFF772FF641CE4B22A5D002AB1
:10310000F5D1BDE8F08110B50446FFF7AFFE782099
:10311000FFF782FE0020FFF77FFE2046FFF77CFED0
:10312000BDE81040FFF7BCBE10B50446FFF79EFE99
:103130007820FFF771FE4020FFF76EFE2046FFF774
:103140006BFEBDE81040FFF7ABBE00000149012057
:10315000C86070475C0C00207047000002490020E6
:10316000C86000F00DBE00005C0C00200249002089
:10317000C86000F04FBE00005C0C0020010901EBAC
:10318000810100F00F0000EB4100C0B27047002148
:1031900002E00A38C0B2491C0A28FAD2090740EAFC
:1031A000116070472DE9F04104460025C07B627B29
:1031B000A37B42E0012A16D0032A14D0052A12D09C
:1031C000072A10D0082A0ED00A2A0CD00C2A0AD0BE
:1031D000042A10D0062A0ED0092A0CD00B2A0AD0B5
:1031E000022A0DD028E01F2B0CD30C2A05D1012276
:1031F0001346401C20E01E2B04D30123521C1BE06D
:103200001C2B02D203F1010316E011D183B29E07F9
:1032100010D16426B3FBF6F706FB173636B94FF428
:10322000C876B3FBF6F706FB17331BB91D2303E083
:103230001D2B01D1032201236D1C8D42BAD3D1B2C3
:10324000E0736173DAB2A27300F057F82073BDE83F
:10325000F08170B50446FEF735FB05464FF47A76EB
:1032600006E0FEF72FFB401BB04201D9032070BDE2
:10327000206840688006F4D52068416841F010015C
:103280004160002070BD000070B5044600684168D0
:1032900021F010014160FEF715FB05464FF47A76E8
:1032A00007E000BFFEF70EFB401BB04201D9032030
:1032B00070BD206840688006F4D5002070BD000015
:1032C0000148FEF7C9BE0000DC0D00200168086A55
:1032D000496A89B241EA00407047006881698AB250
:1032E000C1698BB2816989B28A4203D0C06961F336
:1032F0001F40704743EA02407047F0B56424C1EBB9
:10330000C1030927A500072603EB01130329B3FB1B
:10331000F7F100F5FA60114401440AD2401EB0FBF7
:10332000F4F201EB9001B0FBF5F0891A0844001D9E
:1033300008E0B0FBF4F201EB9001B0FBF5F0891A64
:103340000844801CB0FBF6F106FB1100C0B2F0BDD2
:1033500070B50D4606460024FFF77BFF48B931687B
:10336000280C08623168A8B248623046FFF78CFF2B
:1033700000B10124204670BD70B50D4606460024FC
:10338000FFF767FF48B93168280C88613168A8B237
:10339000C8613046FFF778FF00B10124204670BDB8
:1033A0007047FEF795BA70B594B028216846FDF7CE
:1033B00081F814210AA8FDF77DF8002501240F9556
:1033C0001195052012950090CDE9025410954FF407
:1033D0008030019002260494CDE907604FF4E0109C
:1033E00009906846FEF7A6FC08B172B6FEE70F200A
:1033F000CDE90A064FF48060CDE90C5002210AA8FD
:103400000E95FEF7CBFB08B172B6FEE74FF4807065
:10341000CDE90F400FA8FEF74BFB002801D072B694
:10342000FEE714B070BD70470148FFF73AB90000DD
:10343000F00D0020F0B50268164B174C174D4FF0F9
:103440008047984205D0B84203D0A04201D0A8429C
:1034500003D122F070064A683243984205D0B84240
:1034600003D0A04201D0A84203D122F44074CA681C
:1034700022434C6922F08002224302608A68C262C1
:103480000A688262984201D10969016301214161A0
:10349000F0BD0000002C0140000400400008004086
:1034A00010B5846842EA032224F47F440A4322438D
:1034B000826010BD826822F070020A4342F0070168
:1034C0008160704710B5036A046A24F00104046245
:1034D000846924F0F00444EA021423F00A020A4347
:1034E0008461026210BD10B5036A046A24F01004FE
:1034F0000462846923F0A00324F4704444EA023295
:1035000043EA01118261016210BD08B581208DF886
:10351000000000208DF801006A4602212920FFF7F3
:103520005BFA00F001F808BD012251020148FEF7E4
:10353000C4B900000008014008B58C208DF80000D7
:103540006A4601212920FFF747FA6A46022129200D
:10355000FFF7D4F9BDF8000008BD000000224FF4C9
:1035600080710148FEF7A9B900080140012211024B
:103570000148FEF7A2B900000008014002490020FE
:10358000886000F095BC00005C0C0020024900201F
:10359000886000F0D7BC00005C0C002001490120CD
:1035A000886070475C0C0020FEE710B5FFF7D6FB83
:1035B000012116220846FFF7A5FB17220221012050
:1035C000FFF7A0FB182203210120FFF79BFB192224
:1035D0000421BDE810400120FFF794BB10B50A227A
:1035E00002210120FFF78EFB0B2203210120FFF7B0
:1035F00089FB1CA209210120FFF772FD0022012195
:103600000220FFF77FFB022101220846FFF77AFB29
:1036100014A209210220FFF763FD2C2201210320BF
:10362000FFF744FB2F2202210320FFF73FFB03217A
:1036300027220846FFF73AFB0AA209210320FFF7D9
:103640004FFD132201210420FFF75CFB142202210D
:103650000420FFF757FB0921BDE8104001A2042018
:10366000FFF73EBD20202020202020200000000069
:103670002DE9F047834D044692B02868844200DB70
:103680000446002C00DA0024FFF768FBFFF774FC07
:10369000022211460120FFF735FB032211460120CB
:1036A000FFF730FB78A20A210120FFF719FD3C2229
:1036B000774903A8FCF7CCFE764E296806F5C67557
:1036C000371D0DF1200A05F1040802297EDB0DF1FA
:1036D0003409022C27DBB04606EB840656F8080DA9
:1036E00000F032FE05EB840757F8082D8DE807003F
:1036F000A21E69A103A8FCF797FD706800F024FEE4
:103700007A688DE80700621E63A15046FCF78CFDC5
:1037100058F8240000F018FE55F824208DE8070022
:10372000224661A125E0012C34D056F8240000F097
:103730000BFE55F824208DE8070022465AA103A865
:10374000FCF772FD06EB8406706800F0FDFD05EBEA
:1037500084056A688DE80700621C4FA15046FCF79B
:1037600063FDB06800F0F0FDAA688DE80700A21CB8
:1037700049A14846FCF758FD03AA01210220FFF7A2
:10378000AFFC524601210320FFF7AAFC01214A4663
:10379000042034E03F48006800F0D6FD464A126835
:1037A0008DE8070000223CA103A8FCF73DFD7068EE
:1037B00000F0CAFD6A688DE8070022463AA150462B
:1037C000FCF732FD786800F0BFFD00E005E0D8F8B6
:1037D00004208DE807000222CAE7012914D056F818
:1037E000240000F0B1FD55F824208DE807002246A2
:1037F0002DA103A8FCF718FD03AA01210220FFF761
:103800006FFC12B0BDE8F087012C24D056F82400DC
:1038100000F09AFD55F824208DE80700224622A1E9
:1038200003A8FCF701FD06EB8400406800F08CFD66
:1038300005EB840252688DE80700621C16A1504611
:10384000FCF7F2FC03AA01210220FFF749FC012149
:1038500052460320D3E70F48006800F075FD164A72
:1038600012688DE8070000220BA103A8FCF7DCFC1E
:10387000706800F069FD6A688DE8070022460AA1B9
:10388000DDE70000580C002063642F6D320000005B
:10389000904E00084C1200202532642925342E3227
:1038A00066202564000000003E2532642925342E60
:1038B0003266202564000000D81300202DE9F04373
:1038C000664C95B02068401C2060002801DC002078
:1038D00002E0622801DB62202060FFF73FFAFFF779
:1038E0004BFB022211460120FFF70CFA032211467E
:1038F0000120FFF707FA5AA20A210120FFF7F0FB87
:10390000002212A95848FEF7EDFB002213A95648E1
:10391000FEF7C1FB9DF8480042F2107148439DF844
:103920004910524F01EBC10202EB011100EB810083
:103930009DF84A10A7F5C6760144206847F8201084
:103940004B4946F82010FFF7F7FD00F029FD2568E8
:1039500081463C2246F82500464903A8FCF778FD3D
:103960000DF12008022D3FDB06EB850050F8080C16
:1039700000F0EAFC07EB850252F8082C8DE80700FE
:10398000AA1E3DA103A8FCF74FFC256806EB8500A5
:1039900050F8040C00F0D8FC07EB850252F8042C18
:1039A0008DE807006A1E34A14046FCF73DFC246800
:1039B00056F8240000F0C8FC57F824208DE80700D2
:1039C00022460DA830A10446FCF72EFC03AA0121D3
:1039D0000220FFF785FB424601210320FFF780FB11
:1039E00001212246042010E0012D13D0484600F0AA
:1039F000ABFC57F825208DE807002A4622A103A832
:103A0000FCF712FC03AA01210220FFF769FB15B0A5
:103A1000BDE8F0832048006800F096FC134A126865
:103A20008DE80700002214A103A8FCF7FDFB246821
:103A300056F8240000F088FC57F824208DE8070091
:103A4000224611A14046FCF7EFFB03AA0121022008
:103A5000FFF746FB012142460320D6E7580C002021
:103A600063642F6D32000000DC0D0020D8130020AD
:103A70000000C842544E00082532642925342E32F5
:103A800066202564000000003E2532642925342E7E
:103A900032662025640000004C120020114A02F515
:103AA000C67116E062280ADA02EB80035B6842F80E
:103AB000203001EB80035B6841F8203007E006D13D
:103AC0004FF00000C2F88801C1F8880103E000F15E
:103AD00001006328E6DB04480168491E01604FF0DD
:103AE000FF3070474C120020580C002010B5FFF733
:103AF00035F9FFF741FA02210A220846FFF702F9D9
:103B00000B2203210220FFF7FDF8152204210220D9
:103B1000FFF7F8F80A21BDE8104002A20220FFF7E3
:103B2000DFBA00002E2E2E0003480068012801D1C4
:103B300000F054BA70470000600C002010B501215D
:103B40000A220846FFF7DEF80B2202210120FFF7C8
:103B5000D9F81CA209210120FFF7C2FA0022012195
:103B60000220FFF7CFF8022101220846FFF7CAF82A
:103B700014A209210220FFF7B3FA2C22042103200A
:103B8000FFF794F82F2205210320FFF78FF8272253
:103B900006210320FFF78AF80AA209210320FFF774
:103BA0009FFA132201210420FFF7ACF8142202210E
:103BB0000420FFF7A7F80921BDE8104001A2042066
:103BC000FFF78EBA202020202020202000000000B7
:103BD00010B5FFF7D7F801210A220846FFF792F83F
:103BE0000B2202210120FFF78DF81CA209210120E0
:103BF000FFF776FA002201210220FFF783F8022165
:103C000001220846FFF77EF814A209210220FFF7DF
:103C100067FA2C2204210320FFF748F82F22052100
:103C20000320FFF743F8272206210320FFF73EF881
:103C30000AA209210320FFF753FA132201210420CD
:103C4000FFF760F8142202210420FFF75BF8092136
:103C5000BDE8104001A20420FFF742BA2020202036
:103C6000202020200000000000B532488BB0006802
:103C700001285DD1FFF772F801212F48CDE900013D
:103C8000402300211A460846FFF7DCF9FFF774F9D4
:103C9000002203A92948FEF725FA002202A9274895
:103CA000FEF7F9F926A0D0E90010CDE907109DF83C
:103CB0000B2025A107A802F5FA62FCF7B5FA07AABE
:103CC0000B210120FFF70CFA21A1D1E90001CDE978
:103CD00009019DF80A309DF809201FA109A8FCF7E9
:103CE000A3FA09AA0A210220FFF7FAF91DA204ABE0
:103CF00007CA83E807009DF80E0000909DF80D307C
:103D00009DF80C201AA104A8FCF78EFA9DF80A2051
:103D10009DF809109DF80B00FDF7BCFB0246092138
:103D20000320FFF7DDF904AA09210420FFF7D8F9E1
:103D30000BB000BD640C002018040020DC0D002036
:103D400032303230000000002530326400000000C4
:103D500030372F3031000000253032642F253032CB
:103D60006400000030303A30303A3030000000005B
:103D7000253032643A253032643A2530326400000E
:103D800010B501210A220846FEF7BCFF0B220221D2
:103D90000120FEF7B7FF1CA209210120FFF7A0F9BF
:103DA000002201210220FEF7ADFF02210122084678
:103DB000FEF7A8FF14A209210220FFF791F92C2297
:103DC00001210320FEF772FF2F2202210320FEF7BC
:103DD0006DFF032127220846FEF768FF0AA209218A
:103DE0000320FFF77DF9132202210420FEF78AFF4A
:103DF000142203210420FEF785FF0921BDE81040AD
:103E000001A20420FFF76CB92020202020202020D0
:103E10000000000010B5FEF7B5FFFFF7ADF8012177
:103E20000A220846FEF76EFF0B2202210120FEF750
:103E300069FF1CA209210120FFF752F9002201218C
:103E40000220FEF75FFF022101220846FEF75AFF1B
:103E500014A209210220FFF743F92C22012103209B
:103E6000FEF724FF2F2202210320FEF71FFF03216C
:103E700027220846FEF71AFF0AA209210320FFF7AE
:103E80002FF9132202210420FEF73CFF1422032104
:103E90000420FEF737FF0921BDE8104001A20420ED
:103EA000FFF71EB920202020202020200000000045
:103EB00010B501210A220846FEF724FF0B22022139
:103EC0000120FEF71FFF1CA209210120FFF708F9BE
:103ED000022100220846FEF715FF012203210220DD
:103EE000FEF710FF14A209210220FFF7F9F82C2297
:103EF00001210320FEF7DAFE2F2202210320FEF724
:103F0000D5FE032127220846FEF7D0FE0AA209218A
:103F10000320FFF7E5F8132201210420FEF7F2FE4B
:103F2000142202210420FEF7EDFE0921BDE8104015
:103F300001A20420FFF7D4B8202020202020202038
:103F40000000000010B5FEF71DFF01210A220846FF
:103F5000FEF7D8FE0B2202210120FEF7D3FE1CA2A1
:103F600009210120FFF7BCF8022100220846FEF7D4
:103F7000C9FE012203210220FEF7C4FE14A209217A
:103F80000220FFF7ADF82C2201210320FEF78EFE60
:103F90002F2202210320FEF789FE03212722084653
:103FA000FEF784FE0AA209210320FFF799F81322E5
:103FB00001210420FEF7A6FE142202210420FEF7B0
:103FC000A1FE0921BDE8104001A20420FFF788B836
:103FD00020202020202020200000000000B58FB0ED
:103FE000FEF7BCFE002202A92348FEF77BF8002260
:103FF00001A92148FEF74FF89DF806009DF807201B
:1040000000909DF805301DA106A802F5FA62FCF7A4
:104010000BF91EA203AB07CA83E807009DF80A004C
:1040200000909DF809309DF808201BA103A8FCF71B
:10403000FBF806AA04210220FFF752F89DF806209B
:104040009DF805109DF80700FDF724FA02460621A9
:104050000320FFF745F803AA05210420FFF740F8E5
:10406000002204210120FEF74DFE01220521104609
:10407000FEF748FE0FB000BDDC0D00202530326495
:104080002F253032642F25303264000030303A3032
:10409000303A303000000000253032643A253032AA
:1040A000643A2530326400001CB5FEF757FE01214A
:1040B0000A48CDE90001402300211A460846FEF7D0
:1040C000C1FF002106484023CDE900011A461846E9
:1040D000FEF7B8FFBDE81C40FEF74EBF10080020F9
:1040E000500A0020490050EAC12018BF04204A0DA0
:1040F00018BF40F0010040F2FF72B2EB515F08BF01
:1041000040F00200012808BF052070470907090E8A
:10411000002804DB00F1E02080F80014704700F074
:104120000F0000F1E02080F8141D704730380A2895
:1041300001D2012070470020704700000149012092
:10414000486070475C0C002010B586B0FFF72DFA70
:1041500013A1164C07C98DE8070015A1684622680F
:10416000FCF762F86A4609210120FEF7B9FF13A1A6
:10417000D1E90001CDE903011248216850F821007E
:1041800000F0E2F802460B460FA103A8FCF74CF83A
:1041900003AA04210320FEF7A3FF06B010BD000010
:1041A00039392E646174613F00000000500C00201A
:1041B00025642E646174613F000000003130302EB0
:1041C000303000004C120020252E32660000000026
:1041D00010B50A4C2068FFF761FC216808440849C3
:1041E00020600968884200DB21602068002801DA2D
:1041F00000202060BDE81040FFF73ABA500C0020C4
:10420000580C00200B4810B5006918B1BDE81040EB
:10421000FFF7A4B9FFF7AAF9FFF768FC4FF496700F
:10422000FDF7B2F9FFF74AFB03480449006808604C
:1042300010BD000038120020580C0020500C002047
:104240000A484068002810D109480A4A0168491CF8
:1042500001601268914200DB02600168002901DA06
:10426000002101600846FFF703BA704738120020AA
:10427000500C0020580C002001480068FFF7F8B9E6
:10428000500C00200A480068002810D109480A4A4A
:104290000168491E01601268914200DB02600168FA
:1042A000002901DA002101600846FFF7E1B97047F3
:1042B00038120020500C0020580C0020FDF710FB95
:1042C000FFF771F800221146501EFDF767FBFEF75D
:1042D000B3FBFEF743FCFEF77DFCFFF716F9FEF794
:1042E000F5FDFFF712F9FFF71FFC0220FEF7A8FC0F
:1042F000FEE7000004480068012803D10348016874
:10430000491C016070470000680C0020D80D002097
:1043100010B500290AD00878002807D0054878444D
:10432000FCF7A6FC002801D0002010BD024878440C
:1043300010BD0000760C00006E0C00000808A0F50F
:1043400000114FEA3101704743004FEAD30C4FEAA6
:104350003C0C43401FBF40070CF1605113F0FE4F6F
:1043600070471CF0006F03D100200CF00041704733
:104370000CF0004343EA507010B540EACC0000F066
:1043800022F800BF000000924FEA0001FFF7D6BFFD
:104390004FF000414FF00000A1F5002170470000F0
:1043A000B0FA80F310FA03F2C3F19D030AD0D905E5
:1043B00001EB1220530638BF704700F1010008BF1F
:1043C00020F0010070470EF1020E2EF0030E5EF891
:1043D000044B244204D44FEA4102B2F17F4F11D87A
:1043E0004FEA4003B3F17F4F0CD80ED14FEAD07C97
:1043F000B2F17F4F0CEB4C0C0CF1020C08BF4CEBF4
:10440000D17C04E04FF0080C01E04FEAD17C0CEBCA
:104410004C0324FA03F404F00704B4F1040C06D2AC
:104420000EEB840CBDE810404CF0010C6047DFE857
:104430000CF0070802024FF00040A0F5800010BD0C
:104440000846420018BFD2F1807288BF00F00040D9
:1044500010BDFCF78BB90102020304050607080929
:104460000A0B0C0D0E0F10100102020304050607C3
:1044700008090A0B0C0D0E0F1010000000000000C0
:104480000000010203040607080900000000010201
:104490000304000000000000000000000000000015
:1044A0000000000000F800000000000000333000B1
:1044B000000000100C06100C0600000000000000B8
:1044C000000040C07840C0784000043F04043F042E
:1044D0000400007088FC08300000001820FF211E36
:1044E0000000F008F000E018000000211C031E216D
:1044F0001E0000F00888700000001E2123241927E8
:10450000211010160E000000000000000000000046
:104510000000000000E0180402000000000718205E
:10452000400000020418E0000000004020180700CE
:104530000000404080F0804040000202010F010274
:104540000200000000F0000000000101011F010155
:104550000100000000000000000080B070000000BA
:104560000000000000000000000000010101010146
:1045700001010000000000000000003030000000D9
:1045800000000000000080601804006018060100B0
:10459000000000E010080810E000000F10202010BC
:1045A0000F00001010F8000000000020203F202025
:1045B00000000070080808887000003028242221BC
:1045C0003000003008888848300000182020201172
:1045D0000E000000C02010F8000000070424243F53
:1045E000240000F8088888080800001921202011FC
:1045F0000E0000E0108888180000000F1120201124
:104600000E0000380808C83808000000003F00000D
:1046100000000070880808887000001C22212122F8
:104620001C0000E010080810E000000031222211F8
:104630000F00000000C0C00000000000003030008B
:10464000000000000080000000000000806000000A
:104650000000000080402010080000010204081043
:104660002000404040404040400004040404040452
:104670000400000810204080000000201008040200
:104680000100007048080808F00000000030360102
:104690000000C030C828E810E000071827242314C1
:1046A0000B000000C038E0000000203C230202277D
:1046B000382008F8888888700000203F20202011CA
:1046C0000E00C03008080808380007182020201005
:1046D000080008F808080810E000203F20202010FB
:1046E0000F0008F88888E8081000203F20202320C9
:1046F000180008F88888E8081000203F2000030010
:104700000000C03008080838000007182020221ECA
:10471000020008F808000008F808203F21010121E4
:104720003F20000808F8080800000020203F202053
:10473000000000000808F8080800C08080807F00A2
:10474000000008F888C028180800203F20012638FB
:10475000200008F8080000000000203F2020202052
:10476000300008F8F800F8F80800203F003F003F4C
:10477000200008F830C00008F808203F2000071883
:104780003F00E01008080810E0000F102020201063
:104790000F0008F808080808F000203F2101010177
:1047A0000000E01008080810E0000F18242438501A
:1047B0004F0008F8888888887000203F2000030C8C
:1047C0003020007088080808380000382021212295
:1047D0001C00180808F8080818000000203F2000F6
:1047E000000008F808000008F808001F202020201A
:1047F0001F000878880000C83808000007380E013C
:104800000000F80800F80008F800033C0700073C27
:104810000300081868808068180820302C03032CD7
:1048200030200838C800C83808000000203F2000A9
:10483000000010080808C838080020382621202069
:104840001800000000FE020202000000007F40404D
:104850004000000C30C000000000000000010638DD
:10486000C00000020202FE000000004040407F0045
:10487000000000000402020204000000000000002A
:104880000000000000000000000080808080808028
:104890008080000202040000000000000000000010
:1048A0000000000080808080000000192422222265
:1048B0003F2008F8008080000000003F11202011F8
:1048C0000E000000008080800000000E11202020DB
:1048D0001100000000808088F800000E11202010D8
:1048E0003F200000808080800000001F22222222C2
:1048F0001300008080F0888888180020203F202046
:1049000000000000808080808000006B949494936D
:10491000600008F8008080800000203F2100002017
:104920003F2000809898000000000020203F2020B9
:104930000000000000809898000000C08080807F08
:10494000000008F8000080808000203F24022D3005
:104950002000000808F8000000000020203F202070
:1049600000008080808080808000203F20003F20E9
:10497000003F8080008080800000203F21000020D8
:104980003F200000808080800000001F2020202029
:104990001F00808000808000000080FFA120201187
:1049A0000E000000008080808000000E112020A0FA
:1049B000FF80808080008080800020203F212000B8
:1049C00001000000808080808000003324242424A3
:1049D0001900008080E0808000000000001F20207F
:1049E00000008080000000808000001F2020201038
:1049F0003F20808080000080808000010E3008060B
:104A0000010080800080008080800F300C030C301B
:104A10000F0000808000808080000020312E0E3149
:104A20002000808080000080808080818E70180649
:104A3000010000808080808080000021302C2221B5
:104A4000300000000000807C020200000000003FF7
:104A5000404000000000FF00000000000000FF00D8
:104A600000000002027C800000000040403F000087
:104A70000000000601010202040400000000000022
:104A8000000080F00E603ED03000015F300F403FEC
:104A9000060800FC906000F40C0040271E21417FB6
:104AA000010100FC40FE40FC4000007F405F484F99
:104AB0004040003C54D4FC543C000044330E003FC2
:104AC000020080F00E603ED03000000000000000C8
:104AD0000000000000FE82828282828282FE00004C
:104AE0000000000000FF40404040404040FF000008
:104AF00000000004FF242424FF0400FE222222FEE2
:104B0000000088482F090919AF48300F0242827F00
:104B100000004040424458C0407F40C0504846409A
:104B200040008080402018070000003F4040404087
:104B3000780002E222223E00809E9292F292929EA1
:104B40008000004382423E40474444447F444454F2
:104B5000E700008060F8074020180F08C808082800
:104B60001800010000FF00100C0340807F000106C8
:104B700018001010F01F10F000808282E2928A86E6
:104B80008000402215081661000040807F00000070
:104B9000000004244484649C40300FC8080828188E
:104BA000000010080601824C20180601061820405B
:104BB0008000404042CC0000FC040200FC0404FCE5
:104BC00000000040201F20404F4442407F424443A9
:104BD00040008060F80704E4242424FF242424E413
:104BE00004000000FF0080814529112F414181818F
:104BF00080000000FE22222222FE22222222FE002B
:104C0000000080601F020202027F020242827F00D7
:104C100000001060028C00FE02F202FE00F800FFAD
:104C2000000004047E018047300F10270047807F7A
:104C30000000202020BEAAAAAAAAAAAAAABE2020B2
:104C40002000008080AFAAAAAAFFAAAAAAAF8080EB
:104C50000000404042CC0040A09E8282829EA02064
:104C600020000000003F908840432C1028464180DF
:104C70008000001715D55557557D555755D5151733
:104C800000004040407F555555555555557F404093
:104C90004000002018C744444444FC4444444404B5
:104CA00000000404040704040404FF0404040404CE
:104CB0000400000000FE2222222222222222FE00E4
:104CC00000008040300F02020202020242827F0096
:104CD0000000000000FE82828282828282FE00004A
:104CE0000000000000FF40404040404040FF000006
:104CF000000000FC848484FC001010101010FF10D1
:104D00001000003F1010103F0000010640807F009F
:104D10000000804020908886808080838C10204016
:104D20008000008040201807004080403F000000C5
:104D30000000008060F807101010D0FFD010101095
:104D40001000010000FF1008040300FF0003040826
:104D5000100000F80142404242FA4242424202FE42
:104D6000000000FF00080402013F01020448807FA8
:104D700000000000F010101010FF10101010F000D4
:104D8000000000000F04040404FF040404040F00E6
:104D900000000000007F494949494949497F000016
:104DA00000008141211D214181FF898989898981F3
:104DB000810000028282422212FA062222424282AC
:104DC0000000010100FC44444445444444FC00000C
:104DD000010080FE8282FE80FE8282FE8000F8005A
:104DE000FF00403F0020BF403F40807F00004F80D9
:104DF0007F0000FE225A8620102824E32428102059
:104E0000200000FF040827110D41817F01050931B1
:104E10000000080889EE980000FE0202F20202FE7D
:104E20000000020100FF008340231806017E8083FA
:104E3000E000407C407F484840F2121AD61212F23D
:104E40000200908E404F201E804F20180710204FE8
:104E50008000000020202020202020202020202052
:104E60002020000000000000202020202020202002
:104E700020202020202000000000000020202020F2
:104E800020202020202020202020000000000000E2
:104E90002020202020202020202020202020000052
:104EA0000000000020202020202020202020202082
:104EB00020200000000000002020202020202020B2
:104EC0002020202020200000000000000400000816
:104ED00000000000000000020001000010000000BF
:104EE00002400000000000A000000000054000009B
:104EF000000000C8000000000C4000000000409CC2
:104F000000000000194000000020BCBE00000000AE
:104F100034400000BFC91B8E00000004B5400000F3
:104F2000504BCFD06607E2CF010000006C4100007B
:104F30003E8251AADFEEA73401000000D9420000F2
:104F4000DCB5A0E23A301F97FFFFFFFFB445000039
:104F5000FD25A0C8E9A3C14FFFFFFFFFFF3F0000F1
:104F60000000008000000000FF3F00000000008003
:104F700000000000B04F000800000020DC0D000021
:104F80002801000804560008DC0D0020EC0D00008C
:104F9000840100081C00000043000000F8FFFFFF30
:104FA0000C0000000E0000000F0000002E000000AA
:104FB00081320182101324F40AFDFF0109FD010969
:104FC000FD0109FD011901C1580B80C0E0E0F0F8B6
:104FD000F8FCFCFE011CFCFCF81019010719F0E0BC
:104FE000E0C0C08019396CF0FCFE532F7F3F1F1FBB
:104FF0001F3F011907AA7F6D3951194BB94A7BC070
:10500000F83A29012D27606040211E80C0C0602031
:10501000010A132FB784FCF0E01A076C19746008BA
:10502000FFDF0F071F1F1D1503FEFE033C1C3C186E
:105030000CCA0F855901B23F1B3FFFE7181FF3E66B
:10504000CC081830F070B898180C0F0D0D0F0C9C90
:10505000B8B0F030303038188CE6E3F1011809F3BD
:10506000E38303030787FFDEE30F072009071F37EA
:105070006FCF8F0701181001060C091919131313AC
:105080001119090D040312298219A3C0153F3F1FEE
:105090000F87C0F0FC3F33E262D29ACCC4C8D8B0CC
:1050A000C028090C9FFFFEFCF8F0E0011AF08F6D9C
:1050B000FCFCFCF801801B7878B8B8783CFCFEF367
:1050C000E1C0F80E0301FC8701030618F18103C754
:1050D000302BE0FCD41809F88187FFFFF7CFBF0B16
:1050E0001813BFFFDFFFEFFFF3FFFBF9FDFEFEFF2D
:1050F000FF8781C00639241C80808005071340404B
:105100003D1F0C03191F180BC0C0E06060703070A9
:105110007060012EE070381C0C01080C101C18186F
:1051200038307060C0C08080351AC0273809381CFC
:105130000E0607030301F45119EF4CFCECF0CB2CE5
:10514000F0E0C038380A80818303070E1C38700FE6
:10515000280980C0F0783C0E070333E4F0F83848A3
:105160000AF8FFFF33313130606039300DC3E77F1B
:10517000FEF88103071E7CF0C014010F0F1C0F1FE7
:10518000312539705BFFFFCD1BF0F0C02008F8F827
:1051900070707F7F7F1B1078012D03FFFEFF633847
:1051A0000D0307077E7EFE7E3FCFFFFCF07E281DAD
:1051B00080C0C7DFDCD8FCFCFE0E0FFFFEF0F0F075
:1051C00070787F7F3F3F390101030706F01C98F894
:1051D00078D510180F0F0D0F0F0E0C1CB8F8F8181B
:1051E000080C8663311818010FFFF9681A1919396C
:1051F00038383919181FBFFCF0E1C68C889C9C9484
:105200009C98D8CCC7C0013012C3C78F9F9EB6B63A
:10521000A62626263637131B0F07100A838ED0E0EA
:10522000F0B81F0F011C06060E5519661AFF7439D7
:10523000010C187F7FFF012AFE011AFFD5192914DE
:10524000FFDF04160E0C0C08081E080808090F01E1
:105250001A0E012910280801070F0B0B0B07012953
:10526000173B0F0F0B1913180B0B0D070301080841
:105270000C0C0ED0D209F02B80C0C0607030989812
:10528000ECCCCE060626A3FBB3FFA383830323E364
:10529000FB6BFB4B060606CC8CEC9858307060C05C
:1052A000C080583780C0F0381C0E07A3E9D0F860E2
:1052B0006081CDE76F3E121A180D0F0D070484E4CC
:1052C000C40404050C0F0818183F3767FFD9812064
:1052D00020A8F0317B0F0E1C38E0474012C0F83E8A
:1052E00007011C5E787E7E8CE0FB3D0E070135E0F9
:1052F000F0D8842A3EF1323C3584F8F0E0101301F6
:1053000003070E3DFBE0B8243E7E5C7E3F173EF86F
:10531000C03BFEFF31194894FEFFFF8015FFF7CF19
:105320009F1F3F7EFEFC0131FCFE3E3F9F8FCFF76B
:10533000FD7501FFFFFC5E03FFFC7FFFCE6E077F64
:10534000FFFFE0DA1CE1F7DF40680F7FFDFC307003
:10535000FCFF3E3F1F8FFFF3C0ED75F0FFFF7F1492
:10536000C0FF3F180D031F7CE080041C7E58F0C373
:105370008F731CFCF0E0DA180F83070F1F3F3E7F8E
:10538000FDF8F0F0F8FD7E4110130F078380C0E0B8
:10539000F0F8FC7E3F1F87C1F0AA6E084EC0F07C7B
:1053A0000F0392483603071C3871E3C98D1B2E1C6E
:1053B00078F163E7CFCF9F9F1F0E0E067E53797063
:1053C000597B337E0E0E0E9F9F9FCFC7E763F13848
:1053D0003C3E1E8DC3E370381E073CB1002B4B01D1
:1053E0000103060E0C1C1939333363636767C1C0B0
:1053F000CCC7CECECECCCFC7C0C0636667633331D7
:1054000019191C0C0607030101FAFF01280A7F7F06
:105410003F3F9F9FDFDFCF012AEF01080C10CF0F26
:105420000F1F9F1F9F3F3F7F7F2F793718133F0F1D
:10543000C7E7E3F9683C38138FCDC7E36363733183
:1054400001C819B1F93931F9FCFEFF6363E7C7CF31
:105450008F1F1E3479F1F3E7CF1F3F4910123F0F22
:10546000C3C0BCBE3B1F86E1F0381C060303011815
:105470000880C0E0F0F804FE1C49A3416812010353
:10548000070E1C38F1E3830F1FDECC40030F3F3FB4
:105490001201700AFCFFFFCF01E0FE3F032B80C129
:1054A000182A38052B1E0E0666EEFEFE7C18150324
:1054B0007FFC801516FEFEFE5A034021194B47FE65
:1054C000800FFFF8802E387EFFFFE3182A86052B19
:1054D000CFC7065EF1F17070305C14FCFF07192332
:1054E0004A3F9A2901180FF0C03078F8FC7C7C33D1
:1054F0008FDC78E0C0451C01C1DF012AC3053AC139
:105500000B3BC0C03B680FC060B89EAF7B7CEEFC1D
:10551000F870B8C0F83F2901A832FEFDF1ECCFBF0A
:10552000BF1F0E6773FBFFF7368DCDD9F9D9D13187
:105530003131B1F0F131D0D9D9F92D0E76FFFF7D9F
:10554000F0CFCF138F9EDAE0F1FDFE3DA948E820B1
:10555000FCFCFBF9F0F0F3EFEFEBFFE0E0C2DFDF84
:10556000C7C3E0E0ECE7E7F4F6F0F9FBFBFCFC383E
:10557000413263690C01134201133D4116080104D5
:105580000205220D13551516080201030622021307
:105590007D351608030204072203132D2A1608047A
:1055A0000301082204135D311F0805090A0B0130AD
:1055B0001379421B0806012310061A9D301A0701B1
:1055C000230E071A35302901230F081A4D305A09C6
:1055D000301A85305A0A0C1A410C270B0B0B0C059C
:1055E0000B1A49845A0C181AD10C5A0D0C1A05249E
:1055F0005A0E841A31545A0F841A6D545A10A81A2C
:045600008D7801A000
:04000005080000ED02
:00000001FF
