:020000040800F2
:10000000D01A002021020008052A00080325000854
:100010009929000805150008D736000800000000DF
:10002000000000000000000000000000D3350008C0
:10003000CD15000800000000B3330008D5350008D6
:100040003B0200083B0200083B0200083B0200089C
:100050003B0200083B020008CF150008D515000838
:10006000DB150008E1150008E71500083B02000851
:100070003B0200083B0200083B0200083B0200086C
:100080003B0200083B0200083B0200083B0200085C
:100090003B0200083B0200083B0200083B0200084C
:1000A0003B0200083B0200083B0200083B0200083C
:1000B0003B0200083B0200083B0200083B0200082C
:1000C0003B0200083B0200083B0200083B0200081C
:1000D0003B0200083B0200083B0200083B0200080C
:1000E0003B0200083B0200083B02000800F002F857
:1000F00000F06CF80AA090E8000C82448344AAF156
:100100000107DA4501D100F061F8AFF2090EBAE853
:100110000F0013F0010F18BFFB1A43F0010318473B
:10012000085F0000285F00000A444FF0000C10F840
:10013000013B13F0070408BF10F8014B1D1108BF65
:1001400010F8015B641E05D010F8016B641E01F805
:10015000016BF9D113F0080F1EBF10F8014BAD1C55
:100160000C1B09D16D1E58BF01F801CBFAD505E073
:1001700014F8016B01F8016B6D1EF9D59142D6D3CD
:10018000704700000023002400250026103A28BFF5
:1001900078C1FBD8520728BF30C148BF0B607047F9
:1001A000662904F02281642900F0968000207047BF
:1001B0001FB500F07EF900F067FC0400002000216C
:1001C00004F072F8E0601FBD10B510BD00F05CFDDA
:1001D0001146FFF7EDFF04F023F800F07AFD03B4B9
:1001E000FFF7F2FF03BC00F0BFFD00000B49D1F8A0
:1001F00000C04A685CF8043B1068184442F8040BDD
:100200008C4528BFA1F1DC0C8A4228BFA1F1DC0299
:10021000C1F800C04A6020F0004070476814002018
:100220000948804709480047FEE7FEE7FEE7FEE78A
:10023000FEE7FEE7FEE7FEE7FEE7FEE704480549C6
:10024000054A064B7047000059360008ED000008CB
:10025000D0140020D01A0020D0160020D016002084
:100260000FB41CB5074B06AA7B446946009005985D
:1002700000F0F1FB0020694600F000FC1CBC5DF8BA
:1002800014FB00001108000070B504468569006881
:10029000C10601D5302600E02026C00707D070BD7A
:1002A000D4E9012130469047206A401C20626D1E2F
:1002B000F6D570BD70B5044685690078C00707D1D2
:1002C00070BDD4E9012120209047206A401C2062A3
:1002D0006D1EF6D570BD00002DE9F04106460024E4
:1002E00010687529314616A510D0AFF3008000289C
:1002F00002DA404213A507E031688A0701D512A54A
:1003000002E0490704D511A5012401E0AFF3008004
:1003100000210A2206F1240709E0B0FBF2FCB0FB41
:10032000F2F302FB1C00303078541846491C0028B8
:10033000F3D123462A463046BDE8F04100F01EB90D
:10034000000000002D0000002B0000002000000035
:100350002DE9F05F894604464FF0000ADFF824B12A
:10036000FB44C0F820A02046E168884700287DD0E3
:10037000252806D0D4E901219047206A401C20623C
:10038000F1E700255F462046E168884720280646B9
:1003900007DB312E05D2B81910F8200C08B105433F
:1003A000F1E7A80701D525F00405C4F81CA0002733
:1003B000C4F818A02A2E09D0304603F035FE38B311
:1003C00004EB8708303EC8F8186019E059F8041BA0
:1003D000204604EB87029161E1688847012F0646B9
:1003E00018D1E069002820DA25F020051DE0D8F8B2
:1003F000180000EB800006EB40003038C8F8180009
:100400002046E1688847064603F00EFE0028EED13C
:10041000012F0AD02E2E08D12046E16888477F1C84
:100420000646022F45F02005C4DBA069002803DA48
:10043000404245F00105A061E80701D025F0100514
:10044000A6B1A6F14100192802D8203645F400656E
:100450004A463146204625604D46FFF7A1FE60B171
:10046000012807D0ED1D25F0070000E007E000F1AE
:10047000080978E705F1040975E730467AE7206A4C
:10048000BDE8F09F1D5C00000B4910B5A1F17C0296
:100490000A4CC2E93712372106E000EB104342F85C
:1004A0002130074B00FB03400B1EA1F10101F4DCDE
:1004B00010BD0120E8E7000008140020E119D6660D
:1004C000CD0D010010B5203AC0F00B80B1E81850F6
:1004D000203AA0E81850B1E81850A0E81850BFF42E
:1004E000F5AF5FEA027C24BFB1E81850A0E81850CD
:1004F00044BF18C918C0BDE810405FEA827C24BF21
:1005000051F8043B40F8043B08BF7047D20728BFAE
:1005100031F8023B48BF11F8012B28BF20F8023BFD
:1005200048BF00F8012B70474FF0000200B513469A
:1005300094469646203922BFA0E80C50A0E80C5003
:10054000B1F12001BFF4F7AF090728BFA0E80C50B4
:1005500048BF0CC05DF804EB890028BF40F8042BAD
:1005600008BF704748BF20F8022B11F0804F18BF1A
:1005700000F8012B70477047704770472DE9F0472E
:100580000D4699469246044600F124080168880603
:1005900004D5E06921F01001216000E00120A842AB
:1005A00001DD471B00E00027A1697A1902EB090071
:1005B000081AA0612078C00602D42046FFF764FE26
:1005C000002608E0D4E901211AF806009047206AC5
:1005D000401C761C20624E45F4DB2078C0060AD50C
:1005E0002046FFF751FE06E0D4E901213020904774
:1005F000206A401C2062381EA7F10107F4DC07E0E6
:10060000D4E9012118F805009047206A401C2062B7
:10061000281EA5F10105F3DC2046FFF74BFE2078EC
:10062000000602D50220BDE8F0870120FBE77047F5
:100630002DE9FF4F0C461E464FF0FF378BB0D2E935
:100640000001DDF860800A908A46C1F30A5505B9B9
:100650003D46002108464FF00000BAF1000F00F4BB
:10066000400005DA00EB80004FF4400101EA500041
:100670004FEA9059B9F1010F00DDB9460A9850EAE6
:100680004A000ED044F61050A5F2FF3545432F1412
:10069000B8F1000F1ED07542291E1EDDC9F10002FF
:1006A0001CE0B8F1010F4FF0000001D0302103E051
:1006B000F24305E02154401CB042FBDB30460022EF
:1006C000002121540B99C1F80880C1E900200FB026
:1006D000BDE8F08FBD1B6D1CDEE74A4600DA6942BB
:1006E00006A800F05BFA06AB93E8070003AB83E8CB
:1006F000070050460A9900F03DFB8DE80700A0F581
:1007000000501F3800900398002D0ADD42F21F01AF
:100710004A460844002303A90390684600F0A6FD5A
:1007200009E0A0F500504A461F38002303A90390B2
:10073000684600F0B0FD8DE807000004000C03D00F
:100740004FF0FF30410800E01046B8F1000F03D031
:100750000022009215461EE0751E05D400F098F99F
:10076000303262556D1EF9D5B3460122084302D0DE
:1007700000227F1C04E02078302801D100227F1E57
:10078000002A099784D01DE0112D07DA00F080F9C6
:10079000303262556D1C50EA0102F5D1084302D097
:1007A0000098C8B10EE00021681E05E0235C625C81
:1007B00063542254401E491C8142F7DBAB46A81B00
:1007C000401E0990002004F80B000B98099AC0F80D
:1007D0000880C0E9002B7AE711264FF0000857E7A0
:1007E0002DE9F04F88460446D21D22F0070191B052
:1007F000D1E90001CDE90A0103F0F2FB02460B98B2
:10080000C00F01D02D2007E02068810701D52B20E3
:1008100002E0202101EAC000032A099001D0072A42
:1008200005DB03464146204600F078F90BE12078CD
:10083000800601D5E06900E00620B8F1650F814629
:1008400006D0B8F1660F18D0B8F1670F70D131E05B
:100850000020B9F1110F009001DB112301E009F133
:1008600001030AAA01A90CA8FFF7E2FEDDE90C705A
:10087000002609F10105834647E001204B46009020
:100880004FF000470AAA01A90CA8FFF7D1FEDDE945
:100890000DB00C995D46002610B909F101000D1844
:1008A000B9EB050003D4C0F1FF3609F10105A5EB52
:1008B00009002BE0B9F1010F01DA4FF00109002026
:1008C000B9F1110F0090484601DD112300E0034605
:1008D0000AAA01A90CA8FFF7ABFEDDE90C704D4692
:1008E00000268346207800070AD4AB4500DA5D462F
:1008F00001A8012D04DD411911F8011C302907D090
:100900004F4502DA17F1040F04DA012082460FE0A6
:100910006D1EEEE7002F02DCED1B3E4403E0781C69
:10092000A84200DD7D1CB81B00F1010A4FF0004712
:100930002078000703D4AA4501DB4FF0FF3A0021DD
:10094000B7F1004F0DF143088DF8431024D0022079
:100950002B23002F01DA7F422D230A21021EA0F152
:10096000010000DC5FB197FBF1FC97FBF1F201FBAA
:100970001C7C17460CF1300C08F801CDEEE7A8F10D
:10098000010003702188090501D5452100E065219A
:10099000A0F1010800F8011C09980FA9A1EB0807B4
:1009A000FF1D00B10120411901EBEA70A169384433
:1009B000081A401EA0612078C00602D42046FFF726
:1009C00063FC099828B1D4E901219047206A401CB2
:1009D00020622078C00622D52046FFF755FC1EE095
:1009E000002E04DBB34502DD01A8805D00E030206D
:1009F000D4E901219047206A401C2062761CAAF1AC
:100A000001005FEA000A0AD100F03EF8C068016800
:100A1000405CD4E901219047206A401C2062281ED6
:100A2000A5F10105DCDC07E0D4E9012118F8010B90
:100A30009047206A401C2062381EA7F10107F3DCB2
:100A40002046FFF737FC032011B041E601694A1C3C
:100A500002610878704700B58FB0CDE901310021FF
:100A6000059105497944CDE9031011466846FFF721
:100A70006FFC0FB000BD0000E5FFFFFF0A6802F841
:100A8000010B0A6070470000004870479014002076
:100A900030B5B0F10A024FEA900E71F100034EEA50
:100AA000817EB0EB0E0061EB91014FEA101E4EEA21
:100AB000017E10EB0E0041EB11114FEA102E4EEAB1
:100AC000016E10EB0E0041EB11214FEA104E4EEA81
:100AD000014E10EB0E0041EB1141401841F10001B5
:100AE0004FEAD00040EA41704FEAD10110EB800597
:100AF0004FEA810444EA907444EB01046D1944EB1D
:100B00000404521BA3414FF0000348BF0A3200D532
:100B100030BD401C41F1000130BD00002DE9F04125
:100B20001F46044603260168072A01F4006004DB1F
:100B300008B116A505E016A503E008B115A500E06B
:100B400015A521F010002060A069C01EA0610FB1A2
:100B5000401EA0612046FFF797FB4FB1D4E9012169
:100B600038469047206A401C2062C01C206206E084
:100B7000206AFAE7D4E9012115F8010B9047761EA7
:100B8000F8D22046FFF796FBBDE8F0814E414E00BB
:100B90006E616E00494E4600696E66002DE9F047B1
:100BA000814616468AB0354878440DC88DE80D0058
:100BB00032487844801C03AC0DC884E80D0041F62F
:100BC0009B300844372190FBF1F290FBF1F5A5F141
:100BD000800501FB12041B3C02D56442012000E0A9
:100BE0000020DFF898A080460027FA44AAF1BE0A48
:100BF0000EE0E0070AD03246684607EB47010123C2
:100C00000AEB810100F047FB8DE8070064107F1CB0
:100C1000002CEED1194F7F44AE3F19E0E80715D004
:100C200007EB04100DF1180A90E80E008AE80E0098
:100C3000C068F04201D1981908903246012306A9F4
:100C400003A800F028FB03AB83E807006D10641CC9
:100C5000002DE3D14FF0010332466946B8F1000F91
:100C600003A802D000F002FB01E000F014FBC9E988
:100C70000001C9F808200AB0BDE8F08764540000FC
:100C800000487047701400207546FFF7F9FFAE4624
:100C900005006946534620F00700854618B020B588
:100CA000FFF7CCFABDE820404FF000064FF00007F8
:100CB0004FF000084FF0000B21F00701AC46ACE804
:100CC000C009ACE8C009ACE8C009ACE8C0098D4671
:100CD000704710B50446AFF300802046BDE81040D1
:100CE000FFF77DBA4FF0013C50F8042B51F8043B5C
:100CF0009A4221D1A2EB0C03934313EACC1317D1F0
:100D000050F8042B51F8043B9A4215D1A2EB0C0386
:100D1000934313EACC130BD150F8042B51F8043B46
:100D20009A4209D1A2EB0C03934313EACC13DBD014
:100D30004FF00000704700BFD01A01BAB1FA81F13C
:100D400001F0180122FA01F0CB40C1F12001DBB221
:100D5000C0B2C01A2CFA01F3D11A914311EAC3119F
:100D6000E6D170477047000001491820ABBEFEE78E
:100D7000260002005FEA400C08BF91F0000F4FEA26
:100D80008C234FEAC12243EA51514FEA1C5018BF4D
:100D900000F5F0404FEA300018BF41F000415FEA33
:100DA0006C5C00F02980BCF1FF3F08BF40F0804040
:100DB0007047130C06BF12044FF0100C4FF0000CDC
:100DC000130E04BF12020CF1080C130F04BF120122
:100DD0000CF1040C930F04BF92000CF1020CD30F22
:100DE00004BF52000CF1010C11464FF00002A0F1BB
:100DF0001F00A0EB0C00704711F0004F08BF7047B8
:100E000031F000413FF4D5AF0B0C06BF09044FF0A1
:100E1000100C4FF0000C0B0E04BF09020CF1080C73
:100E20000B0F04BF09010CF1040C8B0F04BF8900E8
:100E30000CF1020CCB0F04BF49000CF1010CCCF1FA
:100E40002003A0EB0C0022FA03F302FA0CF241EAB1
:100E5000030100F10100704720F07F4C80EA03009D
:100E600023F07F47ACEB070303F57C5300F0004011
:100E700003F1FF032DE980494FEA154B09B44FEA0E
:100E8000144325EA0B4E24EA03480FF2042606EB2E
:100E9000132749083E785FEA320203FB0667C7F56D
:100EA000000707FB06F64FEA54374FEAD64606F12D
:100EB000020607FB066CCCF1005C4FEA1C472CEAEB
:100EC000074C07FB06F40CFB06F504EB15464FEA4E
:100ED000961634BF00204FF000404FEAD13706FB92
:100EE00007FC4FEA1C4C0CFB0BF7D21B03FB0CF767
:100EF00061EB07010CFB0EF7B0EB074072EB1742FA
:100F00000CFB08F734BFA2EB0742B2EB074261EBE0
:100F100017414FEA0C444FEA910706FB07FC4FEAE2
:100F20001C4C0CFB0BF7B0EBC74072EB573203FBCA
:100F30000CF734BFA2EBC742B2EBC74261EB5731AB
:100F40000CFB0EF7B0EBC70072EB57720CFB08F707
:100F500034BFA2EBC702B2EBC70261EB5771039F2C
:100F60004FEA816141EA921104EBCC044FEAD13798
:100F70004FEA826206FB07FC42EA90124FEA806069
:100F80004FEA1C4C0CFB0BF7D21B03FB0CF761EB7D
:100F900007010CFB0EF7B0EB074072EB17420CFB9E
:100FA00008F734BFA2EB0742B2EB074261EB1741EF
:100FB0004FEA8C554FEA910704EB9C2406FB07FC93
:100FC0004FEA1C4C0CFB0BF7B0EBC74072EB5732EF
:100FD00003FB0CF734BFA2EBC742B2EBC74261EB95
:100FE00057310CFB0EF7B0EBC70072EB57720CFBDE
:100FF00008F734BFA2EBC702B2EBC70261EB57712F
:1010000015EB4C254FEA816141EA92114FEA826269
:101010004FEAD13742EA901206FB07FC44F1000484
:101020004FEA80604FEA1C4C0CFB0BF7D21B03FB12
:101030000CF761EB07010CFB0EF7B0EB074072EB0E
:1010400017420CFB08F734BFA2EB0742B2EB074292
:1010500061EB174115EB1C154FEA813141EA9241D2
:101060004FEA823242EA90424FEA80304FEA0C76F1
:1010700044F1000448EA03434EEA0B484FF0000EE7
:10108000B2EB080C71EB030724BF624639464EEB06
:101090000E0E4FF0000B0018524149414BEB0B0B69
:1010A000B2EB080C71EB03077BF1000B24BF624627
:1010B00039464EEB0E0E4FF0000B001852414941DD
:1010C0004BEB0B0BB2EB080C71EB03077BF1000B46
:1010D00024BF624639464EEB0E0E51EA020718BF96
:1010E00046F0010616EB0E7655F1000254F10001B0
:1010F00003D5BDE88901BDE80088BDE88901BDE8E8
:101100000048B619524141EB0101A3F101037047B8
:1011100080807F7E7D7C7B7A797877767675747334
:10112000727171706F6E6E6D6C6C6B6A6A696868F3
:10113000676666656464636362616160605F5F5E89
:101140005E5D5D5C5C5B5B5A5A59595858575756FF
:101150005655555554545353525252515150505064
:101160004F4F4F4E4E4D4D4D4C4C4C4B4B4B4A4AB6
:101170004A494949484848474747474646464545FA
:101180004544444444434343434242424241414133
:10119000002B9C4630D477002BD01CB54FEA370784
:1011A00003B44FF010004FF01001BAF1000F06D059
:1011B000BCF1000FDCBF40F0080040F008014FF028
:1011C00000000FBCBDE810400BF1010BBBF1010F9B
:1011D00008BF5FEA170722BF12F1010211F10101F6
:1011E0004FF0004143F1000300F0004043EA0000EB
:1011F0007047F9D35708D0E746EA064613F1400F87
:101200004FEA16461FDD13F1200FDFBF16430A46D3
:10121000002120335B42BED0C3F1200746EA0646D8
:1012200002FA07F74FEA164646EA0706C3F1200717
:1012300022FA03F201FA07F721FA03F14FF0000353
:1012400042EA0702A7E746EA020646EA06464FEAEE
:10125000164646EA0106BCBF46EA0646360C4FF083
:1012600000034FF000024FF0000194E72DE9804C9D
:101270009A46934670B491E8380007C831EA400CAA
:1012800048BF34EA430C03D5FFF7E6FDFFF780FFC4
:10129000F0BCBDE8008C2DE9804C9A46934670B4B2
:1012A00091E8380007C810F0804F08BF13F0804F56
:1012B00003D100F005F8FFF76BFFF0BCBDE8008C30
:1012C00020F07F4780EA030023F07F4C07EB0C03FC
:1012D000A3F57C5300F00040A3F1FE0392F0000F51
:1012E00000F0B38095F0000F00F077802DE9014900
:1012F0004FEA11404FEA144621EA004800FB06FC81
:1013000024EA064708FB06F607FB08F800FB07F788
:1013100018EB06484CEB164C4FEA124B18EB0748FB
:101320004FEA15464CEB174022EA0B4E0BFB06FC2E
:1013300025EA06470EFB06F607FB0EFE0BFB07F73A
:101340001EEB064E4CEB164C4FF000061EEB074E04
:101350004CEB174B18EB0B0840F1000018EB0E0B91
:1013600058EB000840F100008F1A4FF000013CBF1D
:10137000C943661B14BFB5EB040C00213CBFC94335
:10138000F61B4FEA17444EEA8E0E27EA04454FEA51
:101390001C4704FB07622CEA074C05FB07F70CFB14
:1013A00005F604FB0CFC16EB074642EB174216EB66
:1013B0000C4642EB1C421BEB060658EB0202414175
:1013C00046EA9E0601D5BDE80189B619524141EBB6
:1013D0000101A3F10103BDE801894FEA14454FEA79
:1013E000114724EA054621EA074C05FB07F406FBF2
:1013F00007F70CFB06F105FB0CFC11EB074144EB76
:1014000017444FEA124711EB0C4144EB1C4422EA0B
:10141000074C05FB07F206FB07F70CFB06F605FB7E
:101420000CFC16EB074642EB174216EB0C4642EB60
:101430001C456A1854F1000148BF7047B619524163
:1014400041EB0101A3F10103704795F0000F37D084
:101450004FEA11424FEA144721EA024624EA074CB8
:1014600002FB07F106FB07F70CFB06F402FB0CFC82
:1014700014EB074441EB17414FEA154714EB0C44BA
:1014800041EB1C4125EA074C02FB07F506FB07F779
:101490000CFB06F602FB0CFC16EB074645EB17456A
:1014A00016EB0C4645EB1C42121951F1000148BFE6
:1014B0007047B619524141EB0101A3F10103704796
:1014C0004FEA14454FEA114724EA054621EA074C42
:1014D00005FB07F106FB07F70CFB06F24FF00006D1
:1014E00005FB0CFC12EB074241EB174112EB0C42DF
:1014F00051EB1C4148BF7047921841EB0101A3F129
:1015000001037047FEE7000010B5012901D0022950
:1015100001D1401E0C314B1C03EB4303052493FB0C
:10152000F4F302EB41011944C217014400EB92723B
:1015300001EBA201642290FBF2F2891A4FF4C87207
:1015400090FBF2F00844072190FBF1F201FB12003E
:10155000401C072813D2DFE800F00406080A0C0E2E
:10156000100008A010BD09A010BD0AA010BD0BA05E
:1015700010BD0DA010BD0FA010BD10A010BD00200B
:1015800010BD000053756E64617900004D6F6E648C
:101590006179000054756573646179005765646E04
:1015A00065736461790000005468757273646179D1
:1015B000000000004672696461790000536174752F
:1015C000726461790000000002F0A0B87047012049
:1015D00000F0E8B8022000F0E5B8042000F0E2B81E
:1015E000082000F0DFB8102000F0DCB872B6FEE78B
:1015F0002DE9F8434FF00008C1464446012602F0A9
:101600001BFDC7B201F032FC01F00AFB012F36D0FE
:1016100001F05CFB2146404601F084FA10F1080F0E
:101620000BD5FEF7E3FDC11700EB917121F003012B
:10163000401AC0B2012101F075FA0C2312A2002158
:10164000232001F073FE0C2405234A4600213A2092
:10165000009401F0D5FD052332460021622000945C
:1016600001F0CEFD1420B6FBF0F0C0B21D2800D969
:101670001D20BDE8F843C0F11E0000F007B8204669
:1016800001F05AFBC6E70000483A000070B5044676
:1016900000F08EF90546601C02D00448007804442E
:1016A00000F086F9401BA042FAD370BD0000002074
:1016B0002DE9F041632500260127384C384A0128DE
:1016C00008D002281AD004282BD008283CD0102893
:1016D0004DD05BE001219046104600F05FF90028F4
:1016E00054D10A20FFF7D2FF0121404600F056F9FD
:1016F00008B127614AE00025266147E002219046B3
:10170000104600F04BF970BB0A20FFF7BFFF022123
:10171000404600F043F908B1276037E00125266014
:1017200034E004219046104600F038F9D8B90A2078
:10173000FFF7ACFF0421404600F030F908B16760C4
:1017400024E00225666021E008219046104600F062
:1017500025F940B90A20FFF799FF0821404600F01B
:101760001DF908B1A76011E00325A6600EE0102165
:101770009046104600F012F940B90A20FFF786FFA4
:101780001021404600F00AF928B1E7602846BDE87C
:10179000F04101F003B90425E660F7E7EC11002001
:1017A00000080140044910B50A68024202D00860EE
:1017B000FFF77EFF10BD0000140401402DE9F84F33
:1017C000DFF8B8910024A9F1040B23460F2709F193
:1017D000040AABF1040EC9E00125A5402A40AA4243
:1017E0007DD1674ED1F804C0ACEB0608B44532D0C9
:1017F00014DCBCF1030F3AD009DCBCF1000F2AD095
:10180000BCF1010F1CD0BCF1020F31D11DE0BCF1C5
:10181000110F17D0BCF1120F2AD119E0B8F5881FAB
:1018200019D006DCB8F5803F15D0B8F5801F1FD160
:1018300011E0B8F5001F0ED0B8F5041F18D10AE06A
:10184000CB6815E0CB681B1D12E0CB6808330FE0B6
:10185000CB680C330CE08B682BB1012B4FF00803E5
:1018600003D0456104E0042302E0056100E00023A9
:10187000FF2A01D8064601E000F104064FEA84057C
:1018800001D9A5F12005D6F8008007FA05FC28EA61
:101890000C0803FA05F548EA0508C6F800804D680B
:1018A000ED0062D5374DAE6946F00106AE61AD6917
:1018B00024F0030605F001050095334D06EB050CF9
:1018C000DCF80850A607360F07FA06F825EA0805DF
:1018D000DFF8B880404503D14FF0000817E044E03E
:1018E000DFF8AC80404502D14FF001080FE0DFF88F
:1018F000A480404502D14FF0020808E0DFF898804C
:10190000404502D14FF0030801E04FF0040808FA07
:1019100006F848EA0508CCF808804D68D9F8006058
:10192000ED024D4601D5164300E096432E604D680A
:10193000DAF80060AD02554601D5164300E0964343
:101940002E604D68DBF80060AD035D4601D516439F
:1019500000E096432E604D68DEF80060ED037546AA
:1019600001D5164300E096432E60641C0D682A469C
:10197000E5407FF431AFBDE8F88F00000804014076
:10198000000011100010024000000140000801405A
:10199000000C014000100140001401408068084024
:1019A00000D0012070470AB1016170470904FBE7CC
:1019B00001488068704700000000002002488168EC
:1019C000027811448160704700000020074810B57C
:1019D000016841F010010160032000F075F800205B
:1019E00000F006F800F024F8002010BD00200240AE
:1019F00070B50D4D04464FF47A712878B1FBF0F0C4
:101A00000A490968B1FBF0F000F067FD48B9102CF5
:101A100007D200222146501E00F036F800206C60EC
:101A200070BD012070BD0000000000200C000020EF
:101A30000C4808B5816941F001018161816901F0BB
:101A400001010091C16941F08051C161C06900F09C
:101A5000805000900448416821F0E06141F000713D
:101A6000416008BD0010024000000140002809DB71
:101A700000F01F02012191404009800000F1E020A8
:101A8000C0F8001170470000F0B40E4B1B680C4604
:101A9000C3F30223C3F10705042D00D90425191D42
:101AA000072901D2002300E0DB1E012606FA05F11A
:101AB000491E214099409E40761E16403143F0BC9D
:101AC00002F0A2BA0CED00E0064900F00702086837
:101AD0004FF6FF03184040EA0220034A1043086013
:101AE000704700000CED00E00000FA0501490120FC
:101AF0000862704700000E4210B501460020234CDA
:101B0000012922D0022939D010291DD1616822680B
:101B1000D20119D51E48C1F38342C903805C0AD59E
:101B200061681B4AC1F34041921E515C194AB2FBE5
:101B3000F1F1484301E0184948436168490203D480
:101B400040000321B0FBF1F010BD226AC2F3012175
:101B5000012903D1920701D5C80310BD022905D17F
:101B6000626A920702D549F6404010BD0329FCD1B4
:101B700021688903F9D54FF2244010BD00F01AF90D
:101B80006168C1F38131491C4900DBE70010024064
:101B90000244000800127A0000093D002DE9F843D4
:101BA00005460078354CC00754D0E0690026C000D7
:101BB00008D4E06940F08050E061E069012600F05F
:101BC000805000902E480168C90512D401688046F3
:101BD00041F480710160FFF7EBFE074605E000BFAE
:101BE000FFF7E6FEC01B642823D8D8F80000C00524
:101BF000F6D5206A10F4407021D0A98801F4407114
:101C000081421CD0206A1F49012220F440700A60E2
:101C100000220A602062C00711D0FFF7C9FE074604
:101C200041F2883808E000BFFFF7C2FEC11B414502
:101C300002D90320BDE8F883206A8007F4D5206A22
:101C4000696820F44070084320621EB1E06920F00A
:101C50008050E0612878800705D56068A96820F485
:101C60004040084360602878C00605D56068E96890
:101C700020F48000084360600020DBE70010024091
:101C800000700040400442422DE9F0470F46050035
:101C900061D0434E306800F00700B84209D2306886
:101CA00020F0070038433060306800F00700B84289
:101CB00051D128683B4C810712D5400703D5606895
:101CC00040F4E06060602878000703D5606840F465
:101CD000605060606068A96820F0F00008436060B0
:101CE0002878C00728D06868012810D02168022809
:101CF00010D0890700292EDA616821F00301014321
:101D00006160FFF755FE804641F288390DE0216899
:101D10008903EFE78901EDE7FFF74AFEA0EB080131
:101D2000494502D90320BDE8F0876068696800F082
:101D30000C00B0EB810FEFD1306800F00700B84223
:101D40000BD9306820F0070038433060306800F06D
:101D50000700B84201D00120E5E72878400705D503
:101D60006068E96820F4E060084360602878000754
:101D700006D56068296920F4605040EAC1006060BF
:101D800000F028F86168084AC1F30311515CC840AB
:101D90000649086006480068FFF72AFE0020C2E7EF
:101DA0000020024000100240124400080C000020F5
:101DB000040000200448054900684968044AC1F34A
:101DC000C221515CC84070470C0000200010024046
:101DD000224400080E4A51680E4801F00C03042BFF
:101DE00011D0082B0FD10C48C1F38343C903C05C49
:101DF0000AD55168084AC1F34041921E515C054A18
:101E00005043B0FBF1F0704704494843704700006D
:101E10000010024000127A00F043000800093D0063
:101E20002DE9F84F040070D02078C04DC00749D08C
:101E30006868C0F38100012807D06868C0F381009A
:101E4000022809D16868C00306D52868800339D5FF
:101E500060680028E7D035E06068B0F5803F0BD0BF
:101E600010B1B0F5A02F11D0286820F48030286080
:101E7000286820F4802002E0286840F48030286040
:101E8000606890B1FFF794FD06460AE0286840F4C8
:101E900080202860F0E700BFFFF78AFD801B6428E0
:101EA00073D828688003F7D50CE0FFF781FD06465C
:101EB00005E000BFFFF77CFD801B6428F0D8286890
:101EC0008003F7D420789A4E80074FF001094FF035
:101ED000000839D5686810F00C0F07D06868C0F3A7
:101EE0008100022809D16868C00306D428688007E9
:101EF00014D52069012808D110E02069B0B1C6F8D6
:101F00000090FFF755FD074605E00AE1FFF750FD99
:101F1000C01B0228C4D828688007F7D528686169E3
:101F200020F0F80040EAC10028600DE0C6F800800B
:101F3000FFF73EFD074604E0FFF73AFDC01B02280D
:101F400023D828688007F7D4207800072CD5794853
:101F5000A169D9B1C0F80090FFF72AFD074604E057
:101F6000FFF726FDC01B02280FD8686A8007F7D547
:101F700071484FF4FA510068B0FBF1F0009000BFD7
:101F80000098411E0091FAD20EE080E0C0F8008077
:101F9000FFF70EFD074604E0FFF70AFDC01B02280D
:101FA00075D8686A8007F7D42078400760D5E8695B
:101FB0000027C00008D4E86940F08050E861E86973
:101FC000012700F0805000905C480168C90513D4D7
:101FD0000168834641F480710160FFF7E9FC8246A5
:101FE00006E000BFFFF7E4FCA0EB0A0064284ED82F
:101FF000DBF80000C005F5D5E06801280AD008B17B
:10200000052813D0286A20F001002862286A20F0F1
:10201000040002E0286A40F001002862E06841F212
:10202000883B98B1FFF7C4FC82460BE0286A40F079
:1020300004002862EEE700BFFFF7BAFCA0EB0A013C
:1020400059455AD8286A8007F6D50CE0FFF7B0FC4E
:10205000824605E0FFF7ACFCA0EB0A0159454CD8DD
:10206000286A8007F6D41FB1E86920F08050E86143
:10207000E06988B36968C1F38101022944D002286C
:10208000C6F8608004D0FFF793FC044638E034E0E3
:10209000FFF78EFC074604E0FFF78AFCC01B02280E
:1020A0002BD828688001F7D4206AB0F5803F05D18D
:1020B0006868A16820F4003008436860D4E908012A
:1020C0000843696821F4741108436860C6F8609099
:1020D000FFF76EFC044606E025E000BFFFF768FC52
:1020E000001B022809D828688001F7D51BE000BF33
:1020F000FFF75EFC001B022802D90320BDE8F88F21
:1021000028688001F4D40EE00128F7D06868226ABC
:1021100000F48031914204D1616A00F47010884269
:1021200001D00120EAE70020E8E7000000100240AB
:1021300000004242800442420C0000200070004037
:10214000F8B505004FF0000016460C46009006D08A
:102150002CB100226946284600F019F808B1012088
:10216000F8BD287B2070E87BE070697B6170A97BFB
:10217000A17056B101F02BF9E070607801F027F9F9
:102180006070A07801F023F9A0700020F8BD2DE95F
:10219000F04791460C465FEA00084AD084B3D8F86D
:1021A00000004068400744D4404601F0AFF94FF4C6
:1021B00061620546B0FBF2F1B0FBF2F302FB135093
:1021C0003C23B0FBF3F0B5FBF2F6607002FB165057
:1021D000B0FBF3F203FB1200A070182931D31820D2
:1021E000B1FBF0F7B1FBF0F200FB1210207040469B
:1021F00001F085F9411C04D0A84202D9461B02E037
:1022000017E04FF0FF36A7EB071000EB4000C0EBE4
:10221000001005EBC0152946404601F0C6F940B94B
:10222000701C01D0711900E03146404601F0A9F957
:1022300010B10120BDE8F0873946404601F0D2F8E0
:1022400000E02170B9F1000F0BD0207801F0BFF849
:102250002070607801F0BBF86070A07801F0B7F8EA
:10226000A0700020E6E7000070B5040003D0607C99
:10227000002610B105E0012070BD2674204600F054
:102280003DF802206074204600F00AF9042550BB96
:10229000204601F0FEF830BB2068416821F00701BC
:1022A0004160A06820B11448016821F0010101607B
:1022B0001148001F0168A26821F460711143016098
:1022C0006068411C04D10120FFF716FC58B1401E84
:1022D0002268C0F303419160216880B2C860204643
:1022E00001F0F2F808B16574C5E7E6730120607388
:1022F000A0736074002070BD306C004008B50068A9
:10230000084988420DD1FFF7F1FB0748C16941F048
:102310000061C161C069054900F0006000900120C2
:10232000086008BD00280040001002403C04424202
:102330002DE9F0410D4604003BD0C5B3207C0128B7
:102340003AD04FF0010884F8108002206074E878D9
:1023500072B301F033F8E073687801F02FF860731E
:10236000A87801F02BF8A073C2B2617BE07B01F08A
:10237000DDF820732870204601F0C8F84FF4616141
:10238000B0FBF1F1002518292DD91822B1FBF2F18B
:10239000A1EB011101EB4101C1EB011100EBC116F1
:1023A0003146204601F001F90427C8B90BE000E0EE
:1023B00004E00120BDE8F0810220FBE7E0736878CB
:1023C0006073A878CFE7204601F099F8411C0AD045
:1023D000B04208D206490144204601F0D2F810B1BB
:1023E00067742574E5E784F8118025740020E1E71F
:1023F000805101002DE9F0410D46040024D01DB3A9
:10240000207C012823D04FF0010884F8108002209E
:1024100060742878EAB100F0D1FF4FF4616100FBED
:1024200001F6687800F0CAFFC0EB001006EB8006EA
:10243000A87800F0C3FF35182946204601F0B5F80A
:102440000026042710BB0FE00120BDE8F081022028
:10245000FBE74FF4616148436978C1EB011100EB80
:102460008100A9784518E7E72068416821F0050157
:102470004160204601F043F8411C0AD0A84208D22E
:1024800006490144204601F07CF810B167742674B7
:10249000DAE784F8118026740020D6E78051010025
:1024A00070B504000AD02068416821F0080141603D
:1024B000FFF77EFA05464FF47A7608E0012070BDFA
:1024C000FFF776FA401BB04201D9032070BD2068A7
:1024D00040680007F4D5002070BD10B5401EB0F173
:1024E000807F01D3012010BD4FF0E02460610F21F7
:1024F000601701F089FD0020A06107202061002005
:1025000010BDFEE7FF20401EFDD2704710B5002031
:1025100000F0D0F8012000F0C5F8FFF7F3FF01202C
:1025200000F0C8F8BDE81040FFF7ECBF10B501207F
:1025300000F0C0F8FFF7E6FF012000F0B3F8FFF766
:10254000E1FF00F04BF8C4B2002000F0ABF82046E9
:1025500010BD70B506460024012000F0ABF8002540
:102560006006040E012000F09DF8FFF7CBFF00F09D
:1025700035F808B1641CE4B2002000F093F8FFF7CE
:10258000C1FF6D1C082DEBDB304600F04CF82046F7
:1025900070BD000070B514460D46064600F055F8B3
:1025A000542000F023F8304600F020F800F04DF8F9
:1025B000552000F01BF809E0012D0DD05FF0000060
:1025C000FFF7C7FF6D1E04F8010BEDB2002DF3D12C
:1025D000FFF79CFF002070BD0120F1E74FF4006180
:1025E0000148FFF7DBB90000000C014070B504465C
:1025F0000025200601D5012000E0002000F05AF857
:10260000FFF780FF012000F04DF8FFF77BFF00206F
:1026100000F048F86006040E6D1C082DE9DBBDE8EB
:102620007040FFF783BF10B5012800D0002000F0F4
:1026300041F8FFF767FF012000F034F8FFF762FF71
:10264000BDE81040002000F02DB810B5012000F0CA
:1026500031F8012000F026F8FFF754FF002000F0C9
:1026600029F8FFF74FFFBDE81040002000F01AB82E
:1026700070B516460D460446FFF7E7FF5420FFF7F6
:10268000B5FF2046FFF7B2FF002404E0305DFFF7FE
:10269000ADFF641CE4B2AC42F8D3FFF737FF002073
:1026A00070BD000002464FF480610148FFF77BB91E
:1026B000000C014002464FF400610148FFF773B976
:1026C000000C014010B50B4C012240212046FFF7C1
:1026D0006AF9012280212046FFF765F90022802156
:1026E0002046FFF760F920460022BDE81040402157
:1026F000FFF759B9000C014010B5094C01224021E7
:102700002046FFF750F9002280212046FFF74BF9C1
:1027100020460122BDE810408021FFF744B90000A7
:10272000000C014010B5064C012240212046FFF765
:102730003AF920460022BDE810404021FFF733B9A6
:10274000000C014070B5124E044600224021304674
:10275000FFF729F95FF0000504F08000802815D00C
:10276000002280213046FFF71EF96006040E012288
:1027700040213046FFF717F9002240213046FFF78D
:1027800012F96D1CEDB2082DE6D370BD0122E8E709
:10279000000C014010B50446FFF794FF7820FFF7C6
:1027A000D1FFFFF7BFFF0020FFF7CCFFFFF7BAFF15
:1027B0002046FFF7C7FFFFF7B5FFBDE81040FFF762
:1027C0009BBF10B50446FFF77DFF7820FFF7BAFFE7
:1027D000FFF7A8FF4020FFF7B5FFFFF7A3FF204654
:1027E000FFF7B0FFFFF79EFFBDE81040FFF784BF83
:1027F00001F0DAB901F022BA01F0D4BB2DE9F043BF
:1028000085B00024424800940194029403948169A5
:1028100041F010018161816901F010010491816929
:1028200041F020018161816901F0200104918169F9
:1028300041F004018161816901F004010491816921
:1028400041F0080181618069DFF8C88000F008006C
:102850004FF4E6550490002229464046FFF7A3F8BE
:10286000DFF8B4904FF44077002239464846FFF72E
:102870009AF81F2000902948CDE90104694648468E
:10288000FEF79CFFC020CDE900046946484602944B
:10289000FEF794FF0095022601250396CDE9015429
:1028A00069464046FEF78AFF00970396CDE901543A
:1028B00069464846FEF782FF002205210620FFF701
:1028C000E3F80620FFF7D2F8002206210720FFF7E1
:1028D000DBF80720FFF7CAF8002206210820FFF7DF
:1028E000D3F80820FFF7C2F8002207210920FFF7DC
:1028F000CBF80920FFF7BAF8002205210A20FFF7DC
:10290000C3F80A20FFF7B2F805B0BDE8F083000075
:1029100000100240000C014000080140000021109E
:102920001CB500241B480194194900940160611EE4
:1029300041604FF480718160FFF796FC08B1FEF7AB
:1029400055FE18208DF8040040208DF805008DF804
:102950000640012201A90F48FFF74CFD08B1FEF720
:1029600045FE04208DF8000007208DF801000620A8
:102970008DF8020023208DF80300012269460548E6
:10298000FFF7D6FC002801D0FEF730FE1CBD00008A
:1029900000280040D80D0020FEE7000070B5184C5C
:1029A00004F10805227802EB420105EB810140B1F8
:1029B00001280AD002280CD003280ED004281CD0ED
:1029C00011E0062A0FD048790AE0062A0BD0487891
:1029D00006E0062A07D0887802E0062A03D0C878E5
:1029E000207000F069F8207800EB400005EB8000D3
:1029F00080686060BDE8704000470879F0E700003B
:102A0000500C0020FEE700002DE9F0410746CE0003
:102A10004000083E801E15464FF0FF38F1B2C0B2AC
:102A200000F050FB0D48002400EB0515285D00F078
:102A3000AFFC641CE4B2082CF8D308EB4700F1B2F9
:102A4000C0B200F03FFB00242819007A00F0A0FC7F
:102A5000641CE4B2082CF7D3BDE8F0812A440008D6
:102A60002DE9F04107460E014000103E801E15463C
:102A70004FF0FF38F1B2C0B200F024FB0D48002443
:102A800000EB4515285D00F083FC641CE4B2102CBB
:102A9000F8D308EB4700F1B2C0B200F013FB0024FA
:102AA0002819007C00F074FC641CE4B2102CF7D3ED
:102AB000BDE8F0816A4A000870B500240021204674
:102AC00000F000FB0025002000F062FC6D1CEDB260
:102AD000802DF8D3641CE4B2082CEFD370BD000045
:102AE0007CB500240021204600F0ECFA00250020EF
:102AF00000F04EFC6D1CEDB2802DF8D3641CE4B2E6
:102B0000082CEFD300210648CDE9000140238022A4
:102B1000084600F0AAFBBDE87C4000F0B3BA000014
:102B2000100000202DE9F05F05464FF000093A48FB
:102B30004FF005084F46012907D085B1012D10D06F
:102B4000022D10D0032D0ED00EE0802101614246EF
:102B50000621002001F07BFB8020BDE8F09F0827C4
:102B600002E0102700E0182700248246DAF810005F
:102B7000002805DAC0F10009A01DC1B2002002E062
:102B8000A11DC9B2C0B200F0AEFAFFF79BFD7820DC
:102B9000FFF7D8FDFFF7C6FD4020FFF7D3FDFFF795
:102BA000C1FD09F0FF06DFF874B015E0DAF8100097
:102BB00030447F2812DC04FB07601DB3012D24D0B4
:102BC000022D25D01549603111F80000FFF7BAFD3C
:102BD000FFF7A8FD761CF6B2BE42E7DBFFF78CFDDF
:102BE000641CE4B2022CC1D3DAF810005446384415
:102BF0004246062101F02BFB2169A1EB0800206170
:102C00004044AAE71BF80000E0E704491031DBE785
:102C100002493031D8E70000C00D00209152000871
:102C20002DE9F047274C03260025A0681827183007
:102C300010F1030F09DC8020A060FDF7D7FA032113
:102C400090FBF1F201FB12002070A068002805DA69
:102C500045422078401CC1B2002003E02178C0B278
:102C6000491CC9B200F03FFAFFF72CFD7820FFF7AE
:102C700069FDFFF757FD4020FFF764FDFFF752FDA8
:102C8000A046DFF84490BC1910E000BFD8F8080057
:102C900028447F280CDCBD4202DA19F8050000E068
:102CA0000020FFF74FFDFFF73DFD6D1CAC42EDDC52
:102CB000FFF722FDD8F80810891BC8F80810BDE8F6
:102CC000F0870000C00D0020B95000082DE9F04148
:102CD000174E184F7078401C00F0010070700024EF
:102CE000A01DC1B2102000F0FEF9FFF7EBFC782028
:102CF000FFF728FDFFF716FD4020FFF723FDFFF744
:102D000011FD0025717805EB041007EB4111085CFB
:102D1000FFF718FDFFF706FD6D1CEDB2102DF1D386
:102D2000FFF7EAFC641CE4B2022CD9D3BDE8F081C1
:102D3000C00D0020D15000082DE9FE4346A3002617
:102D40000ECB8DE80E000823464D3146012808D0F1
:102D50002846EF78426980786C4647B1012F0CD045
:102D600014E06961E970AB700020BDE8FE83235C6C
:102D7000401E1A446A61A87008E0245C401C121BC3
:102D8000C0B26A61A870082800D9AB7068691F28B2
:102D900004DB0120E8701F20686110E0002802DCDD
:102DA000E97069610EE007280CDD0F2801DC0126BF
:102DB00008E0172801DC022604E01F2801DC0326B6
:102DC00000E00426DFF8A0800024C6F1050900BF5A
:102DD00009EB0400C1B2102000F085F9FFF772FC86
:102DE0007820FFF7AFFCFFF79DFC4020FFF7AAFC1F
:102DF000FFF798FC5FF00007686907EB0411C21742
:102E000000EB527222F00702801A00EB400208EB3E
:102E10000210405CFFF796FCFFF784FC7F1CFFB2BA
:102E2000102FE9D3FFF768FC641CE4B2032CCFD366
:102E3000E87828B91022C6F10801104601F007FA17
:102E4000E878012805D11022C6F10401104601F0EE
:102E5000FEF9686989E7000001010303040405061F
:102E600007000000C00D0020115100082DE9F041BD
:102E7000052640F255270721002000F034F9FFF71E
:102E800021FC7820FFF75EFCFFF74CFC4020FFF7A9
:102E900059FCFFF747FC0D4DDFF8348000246868CB
:102EA0002044B0FBF7F107FB110118F80100FFF710
:102EB00049FCFFF737FC641CE4B2802CEFD3FFF72A
:102EC0001BFC686830446860BDE8F081C00D0020DC
:102ED000644E000810B57F2811D83F290FD8CB08C1
:102EE00001F0070101248C40E1B2054C002A04EBFB
:102EF000C000C25C01D00A4300E08A43C25410BD46
:102F0000EC0D002010B5064C012240212046FEF7B2
:102F10004AFD20460122BDE810408021FEF743BD56
:102F2000000C01402DE9F0410024124E0746802597
:102F300025FA04F23A4080213046FEF734FD0122A2
:102F400040213046FEF72FFD002240213046FEF79B
:102F50002AFD641CE4B2082CEAD301224021304649
:102F6000FEF721FD3046BDE8F04100224021FEF78A
:102F70001ABD0000000C014010B50B4C012280214D
:102F80002046FEF710FD012240212046FEF70BFDF2
:102F9000002280212046FEF706FD20460022BDE8E3
:102FA00010404021FEF7FFBC000C014010B5094C59
:102FB000002280212046FEF7F6FC01224021204617
:102FC000FEF7F1FC20460122BDE810408021FEF70B
:102FD000EABC0000000C014010B500204FF47A72EA
:102FE0000021491C9142FCD3401C9042F8D3FFF7CA
:102FF00089FFAE2000F0BBF9D52000F0B8F98020A1
:1030000000F0B5F9A82000F0B2F93F2000F0AFF9C8
:10301000D32000F0ACF9002000F0A9F9402000F026
:10302000A6F9A12000F0A3F9C82000F0A0F9DA2049
:1030300000F09DF9122000F09AF9812000F097F934
:10304000CF2000F094F9D92000F091F9F12000F0A0
:103050008EF9DB2000F08BF9302000F088F9A420F5
:1030600000F085F9A62000F082F98D2000F07FF9AC
:10307000142000F07CF9AF2000F079F9BDE8104091
:10308000FFF71ABD70B50E4E002400BF04F1B0006A
:10309000C0B200F06CF9002000F069F9102000F0D7
:1030A00066F9002506EBC500005D00F071F96D1CA6
:1030B000EDB2802DF6D3641CE4B2082CE6D370BDCB
:1030C000EC0D002010B50C4640F0B00000F04FF9B8
:1030D000102040EA141000F04AF904F00F00BDE897
:1030E000104000F044B910B50A460446002102F130
:1030F000B00000F036F9102040EA1410002100F072
:1031000030F904F00F00BDE81040002100F029B9AB
:103110002DE9F0410746CE004000083E801E1546CE
:103120004FF0FF38F1B2C0B2FFF7CCFF11480024D6
:1031300000EB05152819A0F5805090F8000E00F05E
:1031400027F9641CE4B2082CF4D308EB4700F1B271
:10315000C0B2FFF7B7FF00242819A0F5805090F8FF
:10316000080E00F015F9641CE4B2082CF4D3BDE895
:10317000F08100002A4400082DE9F041203A0024A3
:103180000D468046D6B27F2803D900208D1C80468C
:10319000EDB2102B294610D0FFF7A5FF164906EB1C
:1031A000460001EB40050121285D00F0DAF8641CBF
:1031B000E4B2062CF7D3BDE8F081FFF794FF0F4F80
:1031C00004EB06100121385C00F0CBF8641CE4B27B
:1031D000082CF5D36D1CE9B24046FFF784FF0024AC
:1031E00004EB061038440121007A00F0BAF8641CA0
:1031F000E4B2082CF4D3DEE76957000891590008BF
:103200002DE9F05F0026DDF828901D4692468B469A
:10321000804634464FEA590723E0281B401EC1B2BE
:103220000A2001F038F8BAFBF0F00A21B0FBF1F205
:1032300001FB120026B9691E8C4201DA38B1012661
:103240003030C2B207FB0480C0B24B4604E007FB3B
:103250000480C0B24B4630225946FFF78DFF641CF4
:10326000E4B2AC42D9D3BDE8F09F2DE9FF4F82B064
:103270008046019092460C464FF000098B46580755
:1032800000D0012000EBD3000590002032E00026A2
:103290002BE00F98002510F8097009F101001FFAC2
:1032A00080F9F80701D0109A02E0109848B3002284
:1032B00021464046FFF70EFE641C6D1C7F08EDB2F0
:1032C000E4B2082DEDD308F10100019900F0FF08E8
:1032D000A8EB0101514505D10BF10800DDF8048090
:1032E00000F0FF0B761C5C46F6B25645D1D3009831
:1032F000401CC0B2009005998842C8D306B0BDE812
:10330000F08F0122D4E72DE9F04115460E4607461D
:10331000002406E03019C1B23846FFF7F9FE641CFC
:10332000E4B22A5D002AF5D1BDE8F0812DE9F04133
:10333000984617460E46044600250DE043463146A2
:103340002046FFF719FF0834E4B2782C02D9002494
:10335000B61CF6B26D1CEDB27A5D002AEED1BDE866
:10336000F081C0B209B1FFF72CBAFFF713BA10B55C
:103370000446FFF701FE7820FFF7D4FD0020FFF799
:10338000D1FD2046FFF7CEFDBDE81040FFF70EBE91
:1033900010B50446FFF7F0FD7820FFF7C3FD40208D
:1033A000FFF7C0FD2046FFF7BDFDBDE81040FFF769
:1033B000FDBD704700F014BD00F05CBD010901EBDC
:1033C000810100F00F0000EB4100C0B27047002106
:1033D00002E00A38C0B2491C0A28FAD2090740EABA
:1033E000116070472DE9F04104460025C07B627BE7
:1033F000A37B42E0012A16D0032A14D0052A12D05A
:10340000072A10D0082A0ED00A2A0CD00C2A0AD07B
:10341000042A10D0062A0ED0092A0CD00B2A0AD072
:10342000022A0DD028E01F2B0CD30C2A05D1012233
:103430001346401C20E01E2B04D30123521C1BE02A
:103440001C2B02D203F1010316E011D183B29E07B7
:1034500010D16426B3FBF6F706FB173636B94FF4E6
:10346000C876B3FBF6F706FB17331BB91D2303E041
:103470001D2B01D1032201236D1C8D42BAD3D1B281
:10348000E0736173DAB2A27300F050F82073BDE804
:10349000F08170B50446FEF78BFA05464FF47A7654
:1034A00006E0FEF785FA401BB04201D9032070BD4B
:1034B000206840688006F4D52068416841F010011A
:1034C0004160002070BD000070B50446006841688E
:1034D00021F010014160FEF76BFA05464FF47A7651
:1034E00007E000BFFEF764FA401BB04201D9032099
:1034F00070BD206840688006F4D5002070BD01686A
:10350000086A496A89B241EA0040704700688169E7
:103510008AB2C1698BB2816989B28A4203D0C0691B
:1035200061F31F40704743EA02407047F0B56424DE
:10353000C1EBC1030927A500072603EB01130329EB
:10354000B3FBF7F100F5FA60114401440AD2401EC2
:10355000B0FBF4F201EB9001B0FBF5F0891A0844DE
:10356000001D08E0B0FBF4F201EB9001B0FBF5F0B8
:10357000891A0844801CB0FBF6F106FB1100C0B2AA
:10358000F0BD70B50D4606460024FFF782FF48B92E
:103590003168280C08623168A8B248623046FFF7EB
:1035A00093FF00B10124204670BD70B50D4606465C
:1035B0000024FFF76EFF48B93168280C8861316834
:1035C000A8B2C8613046FFF77FFF00B10124204652
:1035D00070BD7047FEF7F2B970B594B02821684607
:1035E000FCF7A2FF14210AA8FCF79EFF00250F9507
:1035F0000920012410950090119512954FF4803008
:1036000004940694CDE901050226CDE907604FF444
:10361000E01009906846FEF703FC08B172B6FEE7B9
:103620000F20CDE90A064FF48060CDE90C5002214D
:103630000AA80E95FEF728FB08B172B6FEE74FF414
:103640000070CDE90F400FA8FEF7A8FA002801D0BE
:1036500072B6FEE714B070BD704708B581208DF8D2
:10366000000000208DF801006A4602212920FEF7A3
:10367000FFFF00F001F808BD012251020148FEF7EA
:1036800092B900000008014008B58C208DF80000B8
:103690006A4601212920FEF7EBFF6A460221292014
:1036A000FEF778FFBDF8000008BD000000224FF4CF
:1036B00080710148FEF777B900080140012211022C
:1036C0000148FEF770B900000008014000F020FC3E
:1036D000FCE700F0FFBAFEE710B5FFF7EDF90121B6
:1036E00016220846FFF7BCF9172202210120FFF736
:1036F000B7F9182203210120FFF7B2F9192204219A
:10370000BDE810400120FFF7ABB9000010B50A2258
:1037100002210120FFF7A4F90B2203210120FFF76A
:103720009FF91CA209210120FFF7EDFD00220121D4
:103730000220FFF795F9022101220846FFF790F9D0
:1037400014A209210220FFF7DEFD2C220121032013
:10375000FFF75AF92F2202210320FFF755F9032121
:1037600027220846FFF750F90AA209210320FFF794
:10377000CAFD132201210420FFF772F9142202214D
:103780000420FFF76DF90921BDE8104001A20420D3
:10379000FFF7B9BD202020202020202000000000BD
:1037A0002DE9F041704D044692B02868844200DB58
:1037B0000446002C00DA0024FFF77EF9FFF762FCD4
:1037C000022211460120FFF74BF903221146012086
:1037D000FFF746F965A20A210120FFF794FD3C227C
:1037E000644902A8FCF76EFE2868634D0DF11C08C1
:1037F0002E1D02286EDB0CAF022C1FDB05EB8406AE
:1038000056F8080D00F06CFDCDE90001A21E5BA189
:1038100002A8FCF725FD706800F062FDCDE900010B
:10382000621E56A14046FCF71BFD55F8240000F02F
:1038300057FDCDE90001224653A120E0012C2FD0F5
:1038400055F8240000F04CFDCDE9000122464EA1C0
:1038500002A8FCF705FD05EB8405686800F040FD53
:10386000CDE90001621C45A14046FCF7F9FCA868BF
:1038700000F036FD14F10202CDE900013FA1384607
:10388000FCF7EEFC02AA01210220FFF73CFD4246B4
:1038900001210320FFF737FD01213A46042029E0EA
:1038A0003548006800F01CFDCDE90001002233A17D
:1038B00002A8FCF7D5FC686800F012FDCDE9000114
:1038C000224631A14046FCF7CBFC706800F008FDB1
:1038D0000222D1E7012812D055F8240000F000FDA3
:1038E000CDE90001224628A102A8FCF7B9FC02AAF2
:1038F00001210220FFF707FD12B0BDE8F081012C85
:103900001FD055F8240000F0EBFCCDE90001224661
:103910001DA102A8FCF7A4FC05EB8400406800F0A0
:10392000DFFCCDE90001621C14A14046FCF798FCC5
:1039300002AA01210220FFF7E6FC012142460320F2
:10394000D8E70D48006800F0CBFCCDE9000100226B
:103950000AA102A8FCF784FC686800F0C1FCCDE96C
:103960000001224608A1E0E74C0C002063642F6DA3
:1039700032000000284E0008001200202532642E7C
:103980002020252E326600002D3E2532642E202078
:10399000252E3266000000002DE9F0414F4C92B018
:1039A0002068401C2060002801DC002002E0622822
:1039B00001DB62202060FFF77FF8FFF763FB022244
:1039C00011460120FFF74CF8032211460120FFF7B2
:1039D00047F843A20A210120FFF795FC434D2168D7
:1039E000414845F82100FFF74FFE00F0A5FC26688E
:1039F00080463C2245F826003D4902A8FCF762FDBE
:103A000007AF022E35DB05EB860050F8080C00F0FE
:103A100067FCCDE90001B21E36A102A8FCF720FC2C
:103A2000266805EB860050F8040C00F059FCCDE93F
:103A30000001721E2FA13846FCF712FC246855F8CD
:103A4000240000F04DFCCDE9000122460CA82CA179
:103A50000446FCF705FC02AA01210220FFF753FCF3
:103A60003A4601210320FFF74EFC012122460420A3
:103A70000EE0012E11D0404600F032FCCDE90001ED
:103A800032461FA102A8FCF7EBFB02AA012102208B
:103A9000FFF739FC12B0BDE8F0811448006800F06F
:103AA0001FFCCDE90001002212A102A8FCF7D8FBFF
:103AB000246855F8240000F013FCCDE900012246EB
:103AC0000FA13846FCF7CCFB02AA01210220FFF728
:103AD0001AFC01213A460320DAE700004C0C0020D2
:103AE00063642F6D320000000000C8420012002005
:103AF000EC4D00082532642E2020252E3266000071
:103B00002D3E2532642E2020252E32660000000036
:103B10000D490FE0622805DA01EB8002526841F896
:103B2000202005E004D14FF00000C1F8880103E037
:103B300000F101006328EDDB04480168491E0160C3
:103B40004FF0FF3070470000001200204C0C0020A6
:103B500010B5FEF7B1FFFFF795FA02210A220846D9
:103B6000FEF77EFF0B2203210220FEF779FF1522CC
:103B700004210220FEF774FF0A21BDE8104002A2D2
:103B80000220FFF7C0BB00002E2E2E0010B504222D
:103B900003210220FEF764FF05220621BDE8104044
:103BA0000220FEF75DBF000010B501210A22084681
:103BB000FEF756FF0B2202210120FEF751FF1CA247
:103BC00009210120FFF79FFB002201210220FEF7BF
:103BD00047FF022101220846FEF742FF14A20921F5
:103BE0000220FFF790FB2C2204210320FEF70CFF9C
:103BF0002F2205210320FEF707FF2722062103209D
:103C0000FEF702FF0AA209210320FFF77CFB132223
:103C100001210420FEF724FF142202210420FEF7D4
:103C20001FFF0921BDE8104001A20420FFF76BBB74
:103C300020202020202020200000000010B5FEF7CA
:103C40004FFF01210A220846FEF70AFF0B2202213C
:103C50000120FEF705FF1CA209210120FFF753FBFD
:103C6000002201210220FEF7FBFE0221012208466C
:103C7000FEF7F6FE14A209210220FFF744FB2C22D6
:103C800004210320FEF7C0FE2F2205210320FEF7AA
:103C9000BBFE272206210320FEF7B6FE0AA2092159
:103CA0000320FFF730FB132201210420FEF7D8FE8A
:103CB000142202210420FEF7D3FE0921BDE81040A2
:103CC00001A20420FFF71FBB20202020202020205D
:103CD0000000000000B58BB0FEF7EEFE01212E487B
:103CE000CDE90001402300211A460846FFF7BDFA3E
:103CF000FFF7C8F9002203A92848FEF748FA002276
:103D000002A92648FEF71CFA25A1D1E90001CDE958
:103D100007019DF80B2024A107A802F5FA62FCF721
:103D20009FFA07AA0B210120FFF7EDFA20A1D1E9A4
:103D30000001CDE909019DF80A309DF809201EA176
:103D400009A8FCF78DFA09AA0A210220FFF7DBFA7D
:103D50001CA204AB07CA83E807009DF80E00009080
:103D60009DF80D309DF80C2019A104A8FCF778FAF5
:103D70009DF80A209DF809109DF80B00FDF7C4FB83
:103D8000024609210320FFF7BEFA04AA09210420F4
:103D9000FFF7B9FA0BB000BD10040020D80D0020C9
:103DA0003230323000000000253032640000000064
:103DB00030372F3031000000253032642F2530326B
:103DC0006400000030303A30303A303000000000FB
:103DD000253032643A253032643A253032640000AE
:103DE00010B501210A220846FEF73AFE0B220221F5
:103DF0000120FEF735FE1CA209210120FFF783FAFE
:103E0000002201210220FEF72BFE0221012208469A
:103E1000FEF726FE14A209210220FFF774FA2C22D5
:103E200001210320FEF7F0FD2F2202210320FEF7DF
:103E3000EBFD032127220846FEF7E6FD0AA2092131
:103E40000320FFF760FA132202210420FEF708FE88
:103E5000142203210420FEF703FE0921BDE81040CF
:103E600001A20420FFF74FBA20202020202020208C
:103E70000000000010B5FEF733FEFFF703F9012143
:103E80000A220846FEF7ECFD0B2202210120FEF774
:103E9000E7FD1CA209210120FFF735FA00220121CC
:103EA0000220FEF7DDFD022101220846FEF7D8FDC3
:103EB00014A209210220FFF726FA2C220121032057
:103EC000FEF7A2FD2F2202210320FEF79DFD032114
:103ED00027220846FEF798FD0AA209210320FFF7D2
:103EE00012FA132202210420FEF7BAFD1422032144
:103EF0000420FEF7B5FD0921BDE8104001A2042011
:103F0000FFF701BA20202020202020200000000000
:103F100010B501210A220846FEF7A2FD0B2202215C
:103F20000120FEF79DFD1CA209210120FFF7EBF9FE
:103F3000022100220846FEF793FD01220321022000
:103F4000FEF78EFD14A209210220FFF7DCF92C22D6
:103F500001210320FEF758FD2F2202210320FEF746
:103F600053FD032127220846FEF74EFD0AA2092130
:103F70000320FFF7C8F9132201210420FEF770FD8A
:103F8000142202210420FEF76BFD0921BDE8104038
:103F900001A20420FFF7B7B92020202020202020F4
:103FA000000000001CB5FEF787FD01210A48CDE99D
:103FB0000001402300211A460846FFF756F9002168
:103FC00006484023CDE900011A461846FFF74DF98F
:103FD000BDE81C40FFF756B808080020480A00203A
:103FE000490050EAC12018BF04204A0D18BF40F014
:103FF000010040F2FF72B2EB515F08BF40F00200D7
:10400000012808BF052070470907090E002804DBB6
:1040100000F1E02080F80014704700F00F0000F17C
:10402000E02080F8141D704730380A2801D20120A2
:10403000704700207047000010B51A4C0821204638
:10404000FDF7ACFC40B90221491CC829FCDB082162
:104050002046FDF7A3FC28B102212046FDF79EFC77
:1040600010B10AE0022010BD0221491CC829FCDB66
:1040700002212046FDF792FC28B104212046FDF7DD
:104080008DFC10B10AE0012010BD0221491CC82995
:10409000FCDB04212046FDF781FC08B1002010BDA7
:1040A000032010BD00080140FFF770BD10B586B0B9
:1040B000FFF712FB13A1164C07C98DE8070015A1E5
:1040C00068462268FCF7CCF86A4609210120FFF710
:1040D0001AF913A1D1E90001CDE9030112482168C1
:1040E00050F8210000F0FCF802460B460FA103A88F
:1040F000FCF7B6F803AA04210320FFF704F906B081
:1041000010BD000039392E646174613F0000000069
:10411000480C002025642E646174613F000000009B
:104120003130302E3030000000120020252E326653
:10413000000000000A4B10B51868FFF7E9FC196889
:104140000844084918600968884200DB196018684B
:10415000002801DA00201860BDE81040FFF720BBFE
:10416000480C00204C0C00200B4810B5006918B119
:10417000BDE81040FFF79ABAFFF7A0FAFFF7E8FC96
:104180004FF49670FDF782FAFFF706FC03480449E6
:104190000068086010BD0000EC1100204C0C0020ED
:1041A000480C00200A484068002810D109480A4AF3
:1041B0000168491C01601268914200DB02600168DD
:1041C000002901DA002101600846FFF7E9BA7047CB
:1041D000EC110020480C00204C0C00200148006825
:1041E000FFF7DEBA480C00200A480068002810D10A
:1041F00009480A4A0168491E01601268914200DBC1
:1042000002600168002901DA002101600846FFF719
:10421000C7BA7047EC110020480C00204C0C00205D
:10422000FDF7D4FBFFF7D8F900221146501EFDF729
:104230002BFCFEF7E3FAFEF773FBFFF70EFAFEF72F
:10424000CBFEFFF70AFA0220FEF7A8FBFEE770B5E7
:1042500005461646C9B2C0B2FEF745FFFEF732FA70
:104260007820FEF76FFAFEF75DFA4020FEF76AFA53
:10427000FEF758FA002408E02819802807D8002003
:10428000FEF760FAFEF74EFA641CB442F4D3BDE8C0
:104290007040FEF731BA0246012000E05043491E4B
:1042A000C9B2FBD27047000010B500290AD00878C7
:1042B000002807D005487844FCF714FD002801D0F9
:1042C000002010BD0248784410BD0000921D00007F
:1042D0008A1D00000808A0F500114FEA310170475F
:1042E00043004FEAD30C4FEA3C0C43401FBF40074A
:1042F0000CF1605113F0FE4F70471CF0006F03D1BA
:1043000000200CF0004170470CF0004343EA50706D
:1043100010B540EACC0000F022F800BF0000009287
:104320004FEA0001FFF7D6BF4FF000414FF0000009
:10433000A1F5002170470000B0FA80F310FA03F2F3
:10434000C3F19D030AD0D90501EB1220530638BFF3
:10435000704700F1010008BF20F0010070470EF126
:10436000020E2EF0030E5EF8044B244204D44FEAF2
:104370004102B2F17F4F11D84FEA4003B3F17F4FB2
:104380000CD80ED14FEAD07CB2F17F4F0CEB4C0C25
:104390000CF1020C08BF4CEBD17C04E04FF0080C90
:1043A00001E04FEAD17C0CEB4C0324FA03F404F057
:1043B0000704B4F1040C06D20EEB840CBDE81040E7
:1043C0004CF0010C6047DFE80CF0070802024FF0E8
:1043D0000040A0F5800010BD0846420018BFD2F191
:1043E000807288BF00F0004010BDFCF7F9B90102EF
:1043F00002030405060708090A0B0C0D0E0F101026
:10440000010202030405060708090A0B0C0D0E0F32
:104410001010000000000000000001020304060765
:104420000809000000000102030400000000000071
:1044300000000000000000000000000000F8000084
:104440000000000000333000000000100C06100CCB
:104450000600000000000000000040C07840C07866
:104460004000043F04043F040400007088FC08304E
:104470000000001820FF211E0000F008F000E018E6
:10448000000000211C031E211E0000F0088870009F
:1044900000001E2123241927211010160E000000F1
:1044A00000000000000000000000000000E0180410
:1044B0000200000000071820400000020418E0007D
:1044C00000000040201807000000404080F08040BD
:1044D00040000202010F01020200000000F0000093
:1044E00000000101011F01010100000000000000A7
:1044F000000080B07000000000000000000000001C
:1045000000000001010101010101000000000000A4
:10451000000000303000000000000000000080605B
:104520001804006018060100000000E010080810E0
:10453000E000000F102020100F00001010F8000005
:1045400000000020203F202000000070080808889C
:10455000700000302824222130000030088888486C
:1045600030000018202020110E000000C02010F89C
:10457000000000070424243F240000F8088888086D
:1045800008000019212020110E0000E01088881872
:104590000000000F112020110E0000380808C83854
:1045A00008000000003F0000000000708808088834
:1045B0007000001C222121221C0000E010080810BD
:1045C000E0000000312222110F00000000C0C000F6
:1045D00000000000003030000000000000800000FB
:1045E00000000000806000000000000080402010FB
:1045F00008000001020408102000404040404040F4
:104600004000040404040404040000081020408056
:10461000000000201008040201000070480808088B
:10462000F0000000003036010000C030C828E8105B
:10463000E0000718272423140B000000C038E00016
:104640000000203C23020227382008F88888887060
:104650000000203F202020110E00C030080808086C
:104660003800071820202010080008F80808081053
:10467000E000203F202020100F0008F88888E8087C
:104680001000203F20202320180008F88888E80820
:104690001000203F200003000000C0300808083848
:1046A000000007182020221E020008F80800000859
:1046B000F808203F210101213F20000808F80808E0
:1046C00000000020203F2020000000000808F8081B
:1046D0000800C08080807F00000008F888C028188B
:1046E0000800203F20012638200008F808000000BC
:1046F0000000203F20202020300008F8F800F8F8C3
:104700000800203F003F003F200008F830C00008AC
:10471000F808203F200007183F00E01008080810A4
:10472000E0000F10202020100F0008F808080808EB
:10473000F000203F210101010000E01008080810EE
:10474000E0000F18242438504F0008F88888888823
:104750007000203F2000030C3020007088080808FB
:1047600038000038202121221C00180808F8080809
:1047700018000000203F2000000008F80800000892
:10478000F808001F202020201F000878880000C89B
:104790003808000007380E010000F80800F800088B
:1047A000F800033C0700073C030008186880806895
:1047B000180820302C03032C30200838C800C838D3
:1047C00008000000203F2000000010080808C8383A
:1047D00008002038262120201800000000FE0202D8
:1047E00002000000007F40404000000C30C000008C
:1047F0000000000000010638C00000020202FE00B6
:104800000000004040407F0000000000040202025F
:104810000400000000000000000000000000000094
:104820000000808080808080808000020204000080
:104830000000000000000000000000008080808078
:1048400000000019242222223F2008F80080800066
:104850000000003F112020110E0000000080808029
:104860000000000E11202020110000000080808830
:10487000F800000E112020103F2000008080808072
:104880000000001F222222221300008080F088886E
:1048900088180020203F20200000000080808080B9
:1048A0008000006B94949493600008F800808080EE
:1048B0000000203F210000203F2000809898000049
:1048C00000000020203F2020000000000080989879
:1048D000000000C08080807F000008F80000808019
:1048E0008000203F24022D302000000808F800003E
:1048F00000000020203F20200000808080808080F9
:104900008000203F20003F20003F8080008080808A
:104910000000203F210000203F2000008080808098
:104920000000001F202020201F00808000808000C9
:10493000000080FFA12020110E0000000080808078
:104940008000000E112020A0FF80808080008080E9
:10495000800020203F212000010000008080808016
:1049600080000033242424241900008080E080800B
:1049700000000000001F2020000080800000008058
:104980008000001F202020103F20808080000080B9
:10499000808000010E3008060100808000800080C9
:1049A00080800F300C030C300F000080800080806E
:1049B00080000020312E0E31200080808000008099
:1049C000808080818E701806010000808080808049
:1049D00080000021302C2221300000000000807C6B
:1049E000020200000000003F404000000000FF0005
:1049F000000000000000FF0000000002027C8000B8
:104A000000000040403F00000000000601010202DB
:104A10000404000000000000000080F00E603ED0A2
:104A20003000015F300F403F060800FC906000F44A
:104A30000C0040271E21417F010100FC40FE40FC8C
:104A40004000007F405F484F4040003C54D4FC543D
:104A50003C000044330E003F020080F00E603ED068
:104A600030000000000000000000000000FE828214
:104A70008282828282FE00000000000000FF40402F
:104A80004040404040FF000000000004FF24242478
:104A9000FF0400FE222222FE000088482F09091987
:104AA000AF48300F0242827F00004040424458C06D
:104AB000407F40C05048464040008080402018075A
:104AC0000000003F40404040780002E222223E00C9
:104AD000809E9292F292929E8000004382423E40DB
:104AE000474444447F444454E700008060F8074052
:104AF00020180F08C80808281800010000FF00103F
:104B00000C0340807F00010618001010F01F10F009
:104B100000808282E2928A86800040221508166117
:104B2000000040807F000000000004244484649C56
:104B300040300FC808082818000010080601824CF1
:104B400020180601061820408000404042CC00009A
:104B5000FC040200FC0404FC00000040201F204074
:104B60004F4442407F42444340008060F80704E4E1
:104B7000242424FF242424E404000000FF00808176
:104B80004529112F4141818180000000FE2222220F
:104B900022FE22222222FE00000080601F0202026A
:104BA000027F020242827F0000001060028C00FE41
:104BB00002F202FE00F800FF000004047E018047BC
:104BC000300F10270047807F0000202020BEAAAAB7
:104BD000AAAAAAAAAABE20202000008080AFAAAA62
:104BE000AAFFAAAAAAAF80800000404042CC0040A1
:104BF000A09E8282829EA02020000000003F90881C
:104C000040432C10284641808000001715D5555789
:104C1000557D555755D5151700004040407F5555D7
:104C200055555555557F40404000002018C7444415
:104C30004444FC44444444040000040404070404C1
:104C40000404FF04040404040400000000FE222203
:104C5000222222222222FE0000008040300F020287
:104C60000202020242827F000000000000FE8282F7
:104C70008282828282FE00000000000000FF40402D
:104C80004040404040FF0000000000FC848484FC61
:104C9000001010101010FF101000003F1010103FF7
:104CA0000000010640807F00000080402090888640
:104CB000808080838C102040800000804020180776
:104CC000004080403F0000000000008060F80710B6
:104CD0001010D0FFD01010101000010000FF1008BD
:104CE000040300FF00030408100000F801424042E2
:104CF00042FA4242424202FE000000FF0008040263
:104D0000013F01020448807F00000000F0101010F5
:104D100010FF10101010F000000000000F04040439
:104D200004FF040404040F0000000000007F494950
:104D300049494949497F000000008141211D214125
:104D400081FF8989898989818100000282824222CA
:104D500012FA0622224242820000010100FC444471
:104D60004445444444FC0000010080FE8282FE80F1
:104D7000FE8282FE8000F800FF00403F0020BF401E
:104D80003F40807F00004F807F0000FE225A862037
:104D9000102824E324281020200000FF04082711F5
:104DA0000D41817F010509310000080889EE980056
:104DB00000FE0202F20202FE0000020100FF008378
:104DC00040231806017E8083E000407C407F4848F5
:104DD00040F2121AD61212F20200908E404F201E9C
:104DE000804F20180710204F800000002020202036
:104DF0002020202020202020202000000000000073
:104E000020202020202020202020202020200000E2
:104E10000000000020202020202020202020202012
:104E20002020000000000000202020202020202042
:104E30002020202020200000000000002020202032
:104E40002020202020202020202000000000000022
:104E50002020202020202020202020202020000092
:104E600000000000C8C8C828282808C8C8080808C2
:104E7000080808080808080808480808C8C8C80832
:104E800038380808080808484808080808080828A2
:104E90000848484808080828280808080808080892
:104EA00008C8080808080808084808080808080882
:104EB00038380808080808080808080808480828B2
:104EC00028084848080808080808080808080808C2
:104ED0002808080808383808680808080808082852
:104EE0000808080808080848084848080808080882
:104EF0000848480808080808080868080808080852
:104F0000080808080828080808080808C8C8080980
:104F10000808080808383808082808090808080890
:104F200008080828280808080908080808080808C0
:104F300008686808C9C8C8080808C8080808082810
:104F4000290808080808080808080808484908083F
:104F500008080808080808080868680808282808D1
:104F600008080808080868680808C8C80808080881
:104F700008080808282808280808080808282828F1
:104F800008084808383808080808C8080808080841
:104F9000C8C8C828282808C8C80808080808080871
:104FA0000808080848480808C8C8C8083838080861
:104FB00008080848480808080808282808484848F1
:104FC00008080828280808080808080808C8080861
:104FD000080C06024242060C08080808383808186F
:104FE00018101010101018180848082828084848E9
:104FF00008080808080808080808082828080808F1
:1050000008383868680808080808082808080808E0
:1050100008080848084848080808080808484808D0
:105020000808080808686808080808080808080840
:1050300028280808080808C8C8C808080808080870
:105040002838380808280808080808080808282800
:1050500028080808080808080808080808686808F0
:10506000C8C8C8080808C808080808282808080880
:10507000080C04060202060C4C480808080C04063A
:105080000202060C0C686808282828080808080886
:10509000086868680808C8C80808080808080808F0
:1050A0002828282808080808082828280808482840
:1050B000383808080808C8080880C0E070B0B0B0E8
:1050C00098888E8383838181938E8C888898B0F0B2
:1050D000C0E08000000080C0E0FEFFFDBFAF2F2FCA
:1050E0000E03070F1EFFBF1F1F3F2F070001000009
:1050F00000E08000000080C0E0FEFFFDBFAF2F2F6A
:105100000E03070F1E3F7F5F3FFF8F070001000068
:10511000000000000000000000000000000000008F
:1051200000E08000000080C0C0FEFFFDBFAF2F2F59
:105130000E03070F1FFFBF1F3FFF8F070001000077
:10514000000000000000000000008080808080805F
:1051500000F0C0808080C0E0E0FFFFFE5FD717173F
:10516000070103070F7F5F0F1F7F47030000000049
:1051700000000000000000000080C040C0C0C0C0AF
:1051800080F8E0C0C0C0E0F0F0FFFFFF2F6B0B0B1A
:1051900003000103073F2F070F3F2301000000001A
:1051A000000000000000000000C0E0A0E0E0E0E03F
:1051B000C07CF0E0E0E0F0F8F8FFFFFF17350505F0
:1051C00001000001031F1703071F1100000000006A
:1051D000000000000000000000E0F0D0F0F0F0F06F
:1051E000E03E78F0F0F0F8FCFCFFFF7F0B1A0202C3
:1051F00000000000010F0B01030F08000000000079
:10520000000000000000000000F0F8E8F87878786E
:10521000701F3C78F8F8FCFEFEFF7F3F050D010192
:105220000000000000070500010704000000000066
:10523000008000000000000000F8FCF4FCBCBCBCD6
:10524000380F1E3C7CFCFE7FFFFF3F1F0206000064
:105250000000000000030200000302000000000044
:1052600000C000000000008080FCFEFA7E5E5E5EF2
:105270001C070F1E3EFE7F3F7FFF1F0F0103000034
:10528000000000000001010000010100000000001A
:1052900000F0F000FFFF00F0F0030786FFFF0603B9
:1052A00001F0E000FFFE80FC00007CC0FEFF0080FB
:1052B000FC030706FFFF011090909000FFFF03031F
:1052C00001F0E000FFFE80FC00FCFE00FFFF00F8A4
:1052D000F000FE80FEFFFE78FC131706FFFF0110B2
:1052E00010133704FFFF080F17101001FFFF0313FF
:1052F00011F0E000FFFE00F000C000FFFE603C8007
:1053000000007CC0FEFF00F0F8434786FFFF26A3A5
:10531000A02704FFFF0008FF882F0000FFFF0623DF
:1053200021FCFFFFFFFFFF3F3F3F3F0F1F3FFFFFFE
:10533000FF3F3FFFFFFFFFFFFCFFFFFFFFFF0000FE
:105340007E7E7E787C7E7F7F7F7E0000FFFFFFFF7A
:10535000FF3FFFFFFFFFFFFCFCFCFCFCFCFCFCFC38
:10536000FCFCFCFFFFFFFFFF3F000000000000000F
:1053700000E0F0303030300000F0F0C0C0F0F0005D
:1053800000F0F0B0B070600000E0F03030F0E0000D
:1053900000F0F030F0F030F0E000E0E0909090901D
:1053A000900000000000000000000000000000006D
:1053B00000000000000000000080800000000000ED
:1053C00000000000000000000000000000000000DD
:1053D00000000000000000000000000000000000CD
:1053E00000000000000000000000000000000000BD
:1053F00000F3F73636F6E600F0F707C1C13737F0AD
:10540000C007C7E0303737E0C0030706F6F7B3B090
:10541000B0F7E700F7F70007F7F003E3F43434F4EC
:10542000E400000000000000000000000000000098
:1054300010100C0414141211111110111212121464
:105440001C10000000000000000000000000000030
:10545000000000000000000000000000000000004C
:10546000000000000000000000000000000000003C
:10547000000F0F0C0C0F07000F0F000F0F00000F95
:105480000F0003070C0C0C07030000000F0F0101B5
:10549000010E0E00070F0C0C0707000F0F00000F86
:1054A0000F000000000000000000000000000000ED
:1054B00000000000000000000000000000000000EC
:1054C000000000000000000000000000000080C09C
:1054D00060A0A0A09088888C889090B0A0C0800028
:1054E00000000000000000000000000000000000BC
:1054F000000000000000404000404040404040406C
:1055000040400000F0FCFC9C9CFCFCFCFCFCFCFC17
:10551000FCFCFCF0F00000000000000000000000B7
:10552000000000000000000000000000000000007B
:1055300000000000000000000000800000000000EB
:10554000000000000000000000000000000000005B
:1055500000000000000000000080000000000000CB
:10556000000000000000000000000000000000003B
:105570000000800000080000080808080808080863
:1055800000008080FFFFFFFFFFFF7F7F4F4F4F4FE7
:105590004F4F0F0F0F000000000000000000000040
:1055A00000000000000000000000000000000000FB
:1055B000000000008080000000FFFFFFFF0000806F
:1055C000800000000000FEFEFE0000F0E000000091
:1055D0000000F0F8F00000FFFFFFFF000080808077
:1055E00000000000000000000000000000000000BB
:1055F0000000FFF8F8E0E0808080C0E0F8F8F8FEF6
:10560000FEFEFFFFFFFFFFFFFFFF18083838000016
:10561000000000000000000000000000000000008A
:10562000000000000000000000000000000000007A
:1056300000000000FFFF010000FFFFFFFF0000FF70
:10564000FF00FCFE0400FFFFFF0C0C8F8300F0F056
:1056500000809F3F7F7070FFFFFFFF000000FFFF93
:10566000000000000000000000000000000000003A
:10567000000003070F1F1F7F7FFFFFFFFFFFFFFFDC
:10568000FFFFFFFFFF7F7F1F1707000000000000E4
:10569000000000000000000000000000000000000A
:1056A00000000000000000000000000000000000FA
:1056B000000000000103070707FFFFFFFF030301CE
:1056C000000003070E0CFFFFFF00001F3F20FFFF3D
:1056D000201F0F00000000FFFFFFFF030303010076
:1056E00000000000000000000082828202022222EC
:1056F0002222020202828200000001FF9F9F070710
:1057000001010707FF8080000002020202C20202BC
:1057100002020282828282020232323222020202B9
:105720000200000000000000000000000000000077
:105730000242420202020202000F0F0F0F0001019B
:105740000111110101000F0F0F00013111000F0FA6
:10575000000D0D011111101F1F1F1F10000D010161
:10576000010101010D0D010000000000000000001A
:1057700000002F000000000700070000147F147FC6
:105780001400242A7F2A1200626408132300364979
:1057900055225000000503000000001C22410000BB
:1057A0000041221C000014083E08140008083E08AE
:1057B00008000000A0600000080808080800006059
:1057C000600000002010080402003E5149453E00E0
:1057D00000427F4000004261514946002141454B53
:1057E00031001814127F10002745454539003C4A06
:1057F000494930000171090503003649494936001D
:10580000064949291E0000363600000000563600C1
:105810000000081422410000141414141400004164
:1058200022140800020151090600324959513E0074
:105830007C1211127C007F49494936003E414141AA
:1058400022007F4141221C007F49494941007F09D4
:10585000090901003E4149497A007F0808087F0094
:1058600000417F4100002040413F01007F08142299
:1058700041007F40404040007F020C027F007F04D7
:1058800008107F003E4141413E007F0909090600A2
:105890003E4151215E007F09192946004649494988
:1058A000310001017F0101003F4040403F001F20C7
:1058B00040201F003F4038403F006314081463003D
:1058C000070870080700615149454300007F4141C6
:1058D0000000552A552A55000041417F000004026E
:1058E000010204004040404040000001020400006A
:1058F0002054545478007F48444438003844444489
:105900002000384444487F00385454541800087E1E
:105910000901020018A4A4A47C007F0804047800F4
:1059200000447D4000004080847D00007F102844BA
:10593000000000417F4000007C04180478007C08CF
:1059400004047800384444443800FC24242418001B
:1059500018242418FC007C080404080048545454FB
:105960002000043F444020003C4040207C001C209C
:1059700040201C003C4030403C004428102844009B
:105980001CA0A0A07C004464544C441414141414AF
:1059900014000000000000000000000000000000F3
:1059A00000000000F800000000000000333000009C
:1059B0000000100C06100C060000000000000000A3
:1059C0000040C07840C0784000043F04043F040415
:1059D00000007088FC08300000001820FF211E0025
:1059E00000F008F000E018000000211C031E211E3A
:1059F0000000F00888700000001E212324192721D0
:105A00001010160E00000000000000000000000052
:105A100000000000E0180402000000000718204009
:105A20000000020418E000000000402018070000F9
:105A300000404080F0804040000202010F0102025D
:105A400000000000F0000000000101011F01010141
:105A500000000000000000000080B07000000000A6
:105A60000000000000000000000001010101010130
:105A700001000000000000000000303000000000C5
:105A8000000000000080601804006018060100009B
:105A90000000E010080810E000000F102020100F98
:105AA00000001010F8000000000020203F2020001F
:105AB0000000700808088870000030282422213077
:105AC0000000300888884830000018202020110E7F
:105AD000000000C02010F8000000070424243F2428
